{
	"src/NFTickets.sol": {
		"NFTickets": {
			"abi": [
				{
					"inputs": [],
					"name": "AlreadyClaimed",
					"type": "error"
				},
				{
					"inputs": [],
					"name": "ImproperProof",
					"type": "error"
				},
				{
					"anonymous": false,
					"inputs": [
						{
							"indexed": true,
							"internalType": "address",
							"name": "owner",
							"type": "address"
						},
						{
							"indexed": true,
							"internalType": "address",
							"name": "operator",
							"type": "address"
						},
						{
							"indexed": false,
							"internalType": "bool",
							"name": "approved",
							"type": "bool"
						}
					],
					"name": "ApprovalForAll",
					"type": "event"
				},
				{
					"anonymous": false,
					"inputs": [
						{
							"indexed": false,
							"internalType": "uint8",
							"name": "version",
							"type": "uint8"
						}
					],
					"name": "Initialized",
					"type": "event"
				},
				{
					"anonymous": false,
					"inputs": [
						{
							"indexed": true,
							"internalType": "address",
							"name": "user",
							"type": "address"
						},
						{
							"indexed": true,
							"internalType": "address",
							"name": "newOwner",
							"type": "address"
						}
					],
					"name": "OwnershipTransferred",
					"type": "event"
				},
				{
					"anonymous": false,
					"inputs": [
						{
							"indexed": true,
							"internalType": "address",
							"name": "operator",
							"type": "address"
						},
						{
							"indexed": true,
							"internalType": "address",
							"name": "from",
							"type": "address"
						},
						{
							"indexed": true,
							"internalType": "address",
							"name": "to",
							"type": "address"
						},
						{
							"indexed": false,
							"internalType": "uint256[]",
							"name": "ids",
							"type": "uint256[]"
						},
						{
							"indexed": false,
							"internalType": "uint256[]",
							"name": "amounts",
							"type": "uint256[]"
						}
					],
					"name": "TransferBatch",
					"type": "event"
				},
				{
					"anonymous": false,
					"inputs": [
						{
							"indexed": true,
							"internalType": "address",
							"name": "operator",
							"type": "address"
						},
						{
							"indexed": true,
							"internalType": "address",
							"name": "from",
							"type": "address"
						},
						{
							"indexed": true,
							"internalType": "address",
							"name": "to",
							"type": "address"
						},
						{
							"indexed": false,
							"internalType": "uint256",
							"name": "id",
							"type": "uint256"
						},
						{
							"indexed": false,
							"internalType": "uint256",
							"name": "amount",
							"type": "uint256"
						}
					],
					"name": "TransferSingle",
					"type": "event"
				},
				{
					"anonymous": false,
					"inputs": [
						{
							"indexed": false,
							"internalType": "string",
							"name": "value",
							"type": "string"
						},
						{
							"indexed": true,
							"internalType": "uint256",
							"name": "id",
							"type": "uint256"
						}
					],
					"name": "URI",
					"type": "event"
				},
				{
					"inputs": [
						{
							"internalType": "address",
							"name": "",
							"type": "address"
						},
						{
							"internalType": "uint256",
							"name": "",
							"type": "uint256"
						}
					],
					"name": "balanceOf",
					"outputs": [
						{
							"internalType": "uint256",
							"name": "",
							"type": "uint256"
						}
					],
					"stateMutability": "view",
					"type": "function"
				},
				{
					"inputs": [
						{
							"internalType": "address[]",
							"name": "owners",
							"type": "address[]"
						},
						{
							"internalType": "uint256[]",
							"name": "ids",
							"type": "uint256[]"
						}
					],
					"name": "balanceOfBatch",
					"outputs": [
						{
							"internalType": "uint256[]",
							"name": "balances",
							"type": "uint256[]"
						}
					],
					"stateMutability": "view",
					"type": "function"
				},
				{
					"inputs": [
						{
							"internalType": "bytes32[]",
							"name": "merkleProof",
							"type": "bytes32[]"
						},
						{
							"internalType": "uint256",
							"name": "tokenId",
							"type": "uint256"
						}
					],
					"name": "claim",
					"outputs": [],
					"stateMutability": "nonpayable",
					"type": "function"
				},
				{
					"inputs": [],
					"name": "factory",
					"outputs": [
						{
							"internalType": "address",
							"name": "",
							"type": "address"
						}
					],
					"stateMutability": "view",
					"type": "function"
				},
				{
					"inputs": [
						{
							"internalType": "address",
							"name": "_owner",
							"type": "address"
						}
					],
					"name": "initialize",
					"outputs": [],
					"stateMutability": "nonpayable",
					"type": "function"
				},
				{
					"inputs": [
						{
							"internalType": "address",
							"name": "",
							"type": "address"
						},
						{
							"internalType": "address",
							"name": "",
							"type": "address"
						}
					],
					"name": "isApprovedForAll",
					"outputs": [
						{
							"internalType": "bool",
							"name": "",
							"type": "bool"
						}
					],
					"stateMutability": "view",
					"type": "function"
				},
				{
					"inputs": [],
					"name": "merkleRoot",
					"outputs": [
						{
							"internalType": "bytes32",
							"name": "",
							"type": "bytes32"
						}
					],
					"stateMutability": "view",
					"type": "function"
				},
				{
					"inputs": [],
					"name": "owner",
					"outputs": [
						{
							"internalType": "address",
							"name": "",
							"type": "address"
						}
					],
					"stateMutability": "view",
					"type": "function"
				},
				{
					"inputs": [
						{
							"internalType": "address",
							"name": "from",
							"type": "address"
						},
						{
							"internalType": "address",
							"name": "to",
							"type": "address"
						},
						{
							"internalType": "uint256[]",
							"name": "ids",
							"type": "uint256[]"
						},
						{
							"internalType": "uint256[]",
							"name": "amounts",
							"type": "uint256[]"
						},
						{
							"internalType": "bytes",
							"name": "data",
							"type": "bytes"
						}
					],
					"name": "safeBatchTransferFrom",
					"outputs": [],
					"stateMutability": "nonpayable",
					"type": "function"
				},
				{
					"inputs": [
						{
							"internalType": "address",
							"name": "from",
							"type": "address"
						},
						{
							"internalType": "address",
							"name": "to",
							"type": "address"
						},
						{
							"internalType": "uint256",
							"name": "id",
							"type": "uint256"
						},
						{
							"internalType": "uint256",
							"name": "amount",
							"type": "uint256"
						},
						{
							"internalType": "bytes",
							"name": "data",
							"type": "bytes"
						}
					],
					"name": "safeTransferFrom",
					"outputs": [],
					"stateMutability": "nonpayable",
					"type": "function"
				},
				{
					"inputs": [
						{
							"internalType": "address",
							"name": "operator",
							"type": "address"
						},
						{
							"internalType": "bool",
							"name": "approved",
							"type": "bool"
						}
					],
					"name": "setApprovalForAll",
					"outputs": [],
					"stateMutability": "nonpayable",
					"type": "function"
				},
				{
					"inputs": [
						{
							"internalType": "bytes32",
							"name": "merkleRoot_",
							"type": "bytes32"
						}
					],
					"name": "setMerkleRoot",
					"outputs": [],
					"stateMutability": "nonpayable",
					"type": "function"
				},
				{
					"inputs": [
						{
							"internalType": "bytes4",
							"name": "interfaceId",
							"type": "bytes4"
						}
					],
					"name": "supportsInterface",
					"outputs": [
						{
							"internalType": "bool",
							"name": "",
							"type": "bool"
						}
					],
					"stateMutability": "view",
					"type": "function"
				},
				{
					"inputs": [
						{
							"internalType": "address",
							"name": "",
							"type": "address"
						}
					],
					"name": "ticketClaimed",
					"outputs": [
						{
							"internalType": "bool",
							"name": "",
							"type": "bool"
						}
					],
					"stateMutability": "view",
					"type": "function"
				},
				{
					"inputs": [
						{
							"internalType": "uint256",
							"name": "id",
							"type": "uint256"
						}
					],
					"name": "uri",
					"outputs": [
						{
							"internalType": "string",
							"name": "tokenURI",
							"type": "string"
						}
					],
					"stateMutability": "view",
					"type": "function"
				}
			],
			"devdoc": {
				"kind": "dev",
				"methods": {},
				"version": 1
			},
			"evm": {
				"assembly": "    /* \"src/NFTickets.sol\":443:1989  contract NFTickets is Initializable, ERC1155  {... */\n  mstore(0x40, 0x80)\n  callvalue\n  dup1\n  iszero\n  tag_1\n  jumpi\n  0x00\n  dup1\n  revert\ntag_1:\n  pop\n  dataSize(sub_0)\n  dup1\n  dataOffset(sub_0)\n  0x00\n  codecopy\n  0x00\n  return\nstop\n\nsub_0: assembly {\n        /* \"src/NFTickets.sol\":443:1989  contract NFTickets is Initializable, ERC1155  {... */\n      mstore(0x40, 0x80)\n      callvalue\n      dup1\n      iszero\n      tag_1\n      jumpi\n      0x00\n      dup1\n      revert\n    tag_1:\n      pop\n      jumpi(tag_2, lt(calldatasize, 0x04))\n      shr(0xe0, calldataload(0x00))\n      dup1\n      0x7cb64759\n      gt\n      tag_18\n      jumpi\n      dup1\n      0xc4d66de8\n      gt\n      tag_19\n      jumpi\n      dup1\n      0xc4d66de8\n      eq\n      tag_14\n      jumpi\n      dup1\n      0xe985e9c5\n      eq\n      tag_15\n      jumpi\n      dup1\n      0xf242432a\n      eq\n      tag_16\n      jumpi\n      dup1\n      0xfb2852dd\n      eq\n      tag_17\n      jumpi\n      0x00\n      dup1\n      revert\n    tag_19:\n      dup1\n      0x7cb64759\n      eq\n      tag_10\n      jumpi\n      dup1\n      0x8da5cb5b\n      eq\n      tag_11\n      jumpi\n      dup1\n      0xa22cb465\n      eq\n      tag_12\n      jumpi\n      dup1\n      0xc45a0155\n      eq\n      tag_13\n      jumpi\n      0x00\n      dup1\n      revert\n    tag_18:\n      dup1\n      0x2eb2c2d6\n      gt\n      tag_20\n      jumpi\n      dup1\n      0x2eb2c2d6\n      eq\n      tag_6\n      jumpi\n      dup1\n      0x2eb4a7ab\n      eq\n      tag_7\n      jumpi\n      dup1\n      0x3b439351\n      eq\n      tag_8\n      jumpi\n      dup1\n      0x4e1273f4\n      eq\n      tag_9\n      jumpi\n      0x00\n      dup1\n      revert\n    tag_20:\n      dup1\n      0xfdd58e\n      eq\n      tag_3\n      jumpi\n      dup1\n      0x01ffc9a7\n      eq\n      tag_4\n      jumpi\n      dup1\n      0x0e89341c\n      eq\n      tag_5\n      jumpi\n    tag_2:\n      0x00\n      dup1\n      revert\n        /* \"lib/solmate.git/src/tokens/ERC1155.sol\":1153:1217  mapping(address => mapping(uint256 => uint256)) public balanceOf */\n    tag_3:\n      tag_21\n      tag_22\n      calldatasize\n      0x04\n      tag_23\n      jump\t// in\n    tag_22:\n      0x01\n      0x20\n      swap1\n      dup2\n      mstore\n      0x00\n      swap3\n      dup4\n      mstore\n      0x40\n      dup1\n      dup5\n      keccak256\n      swap1\n      swap2\n      mstore\n      swap1\n      dup3\n      mstore\n      swap1\n      keccak256\n      sload\n      dup2\n      jump\n    tag_21:\n      mload(0x40)\n        /* \"#utility.yul\":597:622   */\n      swap1\n      dup2\n      mstore\n        /* \"#utility.yul\":585:587   */\n      0x20\n        /* \"#utility.yul\":570:588   */\n      add\n        /* \"lib/solmate.git/src/tokens/ERC1155.sol\":1153:1217  mapping(address => mapping(uint256 => uint256)) public balanceOf */\n    tag_25:\n      mload(0x40)\n      dup1\n      swap2\n      sub\n      swap1\n      return\n        /* \"lib/solmate.git/src/tokens/ERC1155.sol\":4746:5091  function supportsInterface(bytes4 interfaceId) public view virtual returns (bool) {... */\n    tag_4:\n      tag_27\n      tag_28\n      calldatasize\n      0x04\n      tag_29\n      jump\t// in\n    tag_28:\n      tag_30\n      jump\t// in\n    tag_27:\n      mload(0x40)\n        /* \"#utility.yul\":1184:1198   */\n      swap1\n      iszero\n        /* \"#utility.yul\":1177:1199   */\n      iszero\n        /* \"#utility.yul\":1159:1200   */\n      dup2\n      mstore\n        /* \"#utility.yul\":1147:1149   */\n      0x20\n        /* \"#utility.yul\":1132:1150   */\n      add\n        /* \"lib/solmate.git/src/tokens/ERC1155.sol\":4746:5091  function supportsInterface(bytes4 interfaceId) public view virtual returns (bool) {... */\n      tag_25\n        /* \"#utility.yul\":1019:1206   */\n      jump\n        /* \"src/NFTickets.sol\":1693:1872  function uri(uint256 id) public view override returns (string memory tokenURI) {... */\n    tag_5:\n      tag_33\n      tag_34\n      calldatasize\n      0x04\n      tag_35\n      jump\t// in\n    tag_34:\n      tag_36\n      jump\t// in\n    tag_33:\n      mload(0x40)\n      tag_25\n      swap2\n      swap1\n      tag_38\n      jump\t// in\n        /* \"lib/solmate.git/src/tokens/ERC1155.sol\":2697:3944  function safeBatchTransferFrom(... */\n    tag_6:\n      tag_39\n      tag_40\n      calldatasize\n      0x04\n      tag_41\n      jump\t// in\n    tag_40:\n      tag_42\n      jump\t// in\n    tag_39:\n      stop\n        /* \"src/NFTickets.sol\":804:829  bytes32 public merkleRoot */\n    tag_7:\n      tag_21\n      sload(0x07)\n      dup2\n      jump\n        /* \"src/NFTickets.sol\":1139:1685  function claim(... */\n    tag_8:\n      tag_39\n      tag_48\n      calldatasize\n      0x04\n      tag_49\n      jump\t// in\n    tag_48:\n      tag_50\n      jump\t// in\n        /* \"lib/solmate.git/src/tokens/ERC1155.sol\":3952:4552  function balanceOfBatch(address[] calldata owners, uint256[] calldata ids)... */\n    tag_9:\n      tag_51\n      tag_52\n      calldatasize\n      0x04\n      tag_53\n      jump\t// in\n    tag_52:\n      tag_54\n      jump\t// in\n    tag_51:\n      mload(0x40)\n      tag_25\n      swap2\n      swap1\n      tag_56\n      jump\t// in\n        /* \"src/NFTickets.sol\":1880:1986  function setMerkleRoot(bytes32 merkleRoot_) external onlyOwner {... */\n    tag_10:\n      tag_39\n      tag_58\n      calldatasize\n      0x04\n      tag_35\n      jump\t// in\n    tag_58:\n      tag_60\n      jump\t// in\n        /* \"src/NFTickets.sol\":748:768  address public owner */\n    tag_11:\n      sload(0x05)\n      tag_61\n      swap1\n      sub(shl(0xa0, 0x01), 0x01)\n      and\n      dup2\n      jump\n    tag_61:\n      mload(0x40)\n      sub(shl(0xa0, 0x01), 0x01)\n        /* \"#utility.yul\":6547:6579   */\n      swap1\n      swap2\n      and\n        /* \"#utility.yul\":6529:6580   */\n      dup2\n      mstore\n        /* \"#utility.yul\":6517:6519   */\n      0x20\n        /* \"#utility.yul\":6502:6520   */\n      add\n        /* \"src/NFTickets.sol\":748:768  address public owner */\n      tag_25\n        /* \"#utility.yul\":6383:6586   */\n      jump\n        /* \"lib/solmate.git/src/tokens/ERC1155.sol\":1754:1961  function setApprovalForAll(address operator, bool approved) public virtual {... */\n    tag_12:\n      tag_39\n      tag_66\n      calldatasize\n      0x04\n      tag_67\n      jump\t// in\n    tag_66:\n      tag_68\n      jump\t// in\n        /* \"src/NFTickets.sol\":775:797  address public factory */\n    tag_13:\n      sload(0x06)\n      tag_61\n      swap1\n      sub(shl(0xa0, 0x01), 0x01)\n      and\n      dup2\n      jump\n        /* \"src/NFTickets.sol\":944:1131  function initialize(address _owner) external initializer {... */\n    tag_14:\n      tag_39\n      tag_73\n      calldatasize\n      0x04\n      tag_74\n      jump\t// in\n    tag_73:\n      tag_75\n      jump\t// in\n        /* \"lib/solmate.git/src/tokens/ERC1155.sol\":1226:1294  mapping(address => mapping(address => bool)) public isApprovedForAll */\n    tag_15:\n      tag_27\n      tag_77\n      calldatasize\n      0x04\n      tag_78\n      jump\t// in\n    tag_77:\n      0x02\n      0x20\n      swap1\n      dup2\n      mstore\n      0x00\n      swap3\n      dup4\n      mstore\n      0x40\n      dup1\n      dup5\n      keccak256\n      swap1\n      swap2\n      mstore\n      swap1\n      dup3\n      mstore\n      swap1\n      keccak256\n      sload\n      0xff\n      and\n      dup2\n      jump\n        /* \"lib/solmate.git/src/tokens/ERC1155.sol\":1969:2689  function safeTransferFrom(... */\n    tag_16:\n      tag_39\n      tag_82\n      calldatasize\n      0x04\n      tag_83\n      jump\t// in\n    tag_82:\n      tag_84\n      jump\t// in\n        /* \"src/NFTickets.sol\":690:735  mapping(address => bool) public ticketClaimed */\n    tag_17:\n      tag_27\n      tag_86\n      calldatasize\n      0x04\n      tag_74\n      jump\t// in\n    tag_86:\n      mstore(0x20, 0x04)\n      0x00\n      swap1\n      dup2\n      mstore\n      0x40\n      swap1\n      keccak256\n      sload\n      0xff\n      and\n      dup2\n      jump\n        /* \"lib/solmate.git/src/tokens/ERC1155.sol\":4746:5091  function supportsInterface(bytes4 interfaceId) public view virtual returns (bool) {... */\n    tag_30:\n        /* \"lib/solmate.git/src/tokens/ERC1155.sol\":4822:4826  bool */\n      0x00\n      shl(0xe0, 0x01ffc9a7)\n      not(sub(shl(0xe0, 0x01), 0x01))\n        /* \"lib/solmate.git/src/tokens/ERC1155.sol\":4859:4884  interfaceId == 0x01ffc9a7 */\n      dup4\n      and\n      eq\n      dup1\n        /* \"lib/solmate.git/src/tokens/ERC1155.sol\":4859:4960  interfaceId == 0x01ffc9a7 || // ERC165 Interface ID for ERC165... */\n      tag_90\n      jumpi\n      pop\n      shl(0xe1, 0x6cdb3d13)\n      not(sub(shl(0xe0, 0x01), 0x01))\n        /* \"lib/solmate.git/src/tokens/ERC1155.sol\":4935:4960  interfaceId == 0xd9b67a26 */\n      dup4\n      and\n      eq\n        /* \"lib/solmate.git/src/tokens/ERC1155.sol\":4859:4960  interfaceId == 0x01ffc9a7 || // ERC165 Interface ID for ERC165... */\n    tag_90:\n        /* \"lib/solmate.git/src/tokens/ERC1155.sol\":4859:5037  interfaceId == 0x01ffc9a7 || // ERC165 Interface ID for ERC165... */\n      dup1\n      tag_91\n      jumpi\n      pop\n      shl(0xe2, 0x03a24d07)\n      not(sub(shl(0xe0, 0x01), 0x01))\n        /* \"lib/solmate.git/src/tokens/ERC1155.sol\":5012:5037  interfaceId == 0x0e89341c */\n      dup4\n      and\n      eq\n        /* \"lib/solmate.git/src/tokens/ERC1155.sol\":4859:5037  interfaceId == 0x01ffc9a7 || // ERC165 Interface ID for ERC165... */\n    tag_91:\n        /* \"lib/solmate.git/src/tokens/ERC1155.sol\":4839:5037  return... */\n      swap3\n        /* \"lib/solmate.git/src/tokens/ERC1155.sol\":4746:5091  function supportsInterface(bytes4 interfaceId) public view virtual returns (bool) {... */\n      swap2\n      pop\n      pop\n      jump\t// out\n        /* \"src/NFTickets.sol\":1693:1872  function uri(uint256 id) public view override returns (string memory tokenURI) {... */\n    tag_36:\n        /* \"src/NFTickets.sol\":1835:1842  factory */\n      sload(0x06)\n        /* \"src/NFTickets.sol\":1818:1849  NFTicketsFactory(factory).uri() */\n      0x40\n      dup1\n      mload\n      shl(0xe3, 0x1d59313f)\n      dup2\n      mstore\n      swap1\n      mload\n        /* \"src/NFTickets.sol\":1748:1770  string memory tokenURI */\n      0x60\n      swap3\n      sub(shl(0xa0, 0x01), 0x01)\n        /* \"src/NFTickets.sol\":1835:1842  factory */\n      and\n      swap2\n        /* \"src/NFTickets.sol\":1818:1847  NFTicketsFactory(factory).uri */\n      0xeac989f8\n      swap2\n        /* \"src/NFTickets.sol\":1818:1849  NFTicketsFactory(factory).uri() */\n      0x04\n      dup1\n      dup4\n      add\n      swap3\n        /* \"src/NFTickets.sol\":1835:1842  factory */\n      0x00\n      swap3\n        /* \"src/NFTickets.sol\":1818:1849  NFTicketsFactory(factory).uri() */\n      swap2\n      swap1\n      dup3\n      swap1\n      sub\n      add\n      dup2\n        /* \"src/NFTickets.sol\":1835:1842  factory */\n      dup7\n        /* \"src/NFTickets.sol\":1818:1849  NFTicketsFactory(factory).uri() */\n      gas\n      staticcall\n      iszero\n      dup1\n      iszero\n      tag_94\n      jumpi\n      returndatasize\n      0x00\n      dup1\n      returndatacopy\n      revert(0x00, returndatasize)\n    tag_94:\n      pop\n      pop\n      pop\n      pop\n      mload(0x40)\n      returndatasize\n      0x00\n      dup3\n      returndatacopy\n      0x1f\n      returndatasize\n      swap1\n      dup2\n      add\n      not(0x1f)\n      and\n      dup3\n      add\n      0x40\n      mstore\n      tag_95\n      swap2\n      swap1\n      dup2\n      add\n      swap1\n      tag_96\n      jump\t// in\n    tag_95:\n        /* \"src/NFTickets.sol\":1851:1858  factory */\n      sload(0x06)\n        /* \"src/NFTickets.sol\":1801:1863  abi.encodePacked(NFTicketsFactory(factory).uri(), factory, id) */\n      mload(0x40)\n      tag_97\n      swap3\n      swap2\n      sub(shl(0xa0, 0x01), 0x01)\n        /* \"src/NFTickets.sol\":1851:1858  factory */\n      and\n      swap1\n        /* \"src/NFTickets.sol\":1860:1862  id */\n      dup6\n      swap1\n        /* \"src/NFTickets.sol\":1801:1863  abi.encodePacked(NFTicketsFactory(factory).uri(), factory, id) */\n      0x20\n      add\n      tag_98\n      jump\t// in\n    tag_97:\n      mload(0x40)\n      0x20\n      dup2\n      dup4\n      sub\n      sub\n      dup2\n      mstore\n      swap1\n      0x40\n      mstore\n        /* \"src/NFTickets.sol\":1783:1864  tokenURI = string(abi.encodePacked(NFTicketsFactory(factory).uri(), factory, id)) */\n      swap1\n      pop\n        /* \"src/NFTickets.sol\":1693:1872  function uri(uint256 id) public view override returns (string memory tokenURI) {... */\n      swap2\n      swap1\n      pop\n      jump\t// out\n        /* \"lib/solmate.git/src/tokens/ERC1155.sol\":2697:3944  function safeBatchTransferFrom(... */\n    tag_42:\n        /* \"lib/solmate.git/src/tokens/ERC1155.sol\":2913:2941  ids.length == amounts.length */\n      dup5\n      dup4\n      eq\n        /* \"lib/solmate.git/src/tokens/ERC1155.sol\":2905:2961  require(ids.length == amounts.length, \"LENGTH_MISMATCH\") */\n      tag_100\n      jumpi\n      mload(0x40)\n      shl(0xe5, 0x461bcd)\n      dup2\n      mstore\n        /* \"#utility.yul\":9837:9839   */\n      0x20\n        /* \"lib/solmate.git/src/tokens/ERC1155.sol\":2905:2961  require(ids.length == amounts.length, \"LENGTH_MISMATCH\") */\n      0x04\n      dup3\n      add\n        /* \"#utility.yul\":9819:9840   */\n      mstore\n        /* \"#utility.yul\":9876:9878   */\n      0x0f\n        /* \"#utility.yul\":9856:9874   */\n      0x24\n      dup3\n      add\n        /* \"#utility.yul\":9849:9879   */\n      mstore\n      shl(0x8b, 0x0988a9c8ea890be9a92a69a82a8869)\n        /* \"#utility.yul\":9895:9913   */\n      0x44\n      dup3\n      add\n        /* \"#utility.yul\":9888:9933   */\n      mstore\n        /* \"#utility.yul\":9950:9968   */\n      0x64\n      add\n        /* \"lib/solmate.git/src/tokens/ERC1155.sol\":2905:2961  require(ids.length == amounts.length, \"LENGTH_MISMATCH\") */\n    tag_101:\n      mload(0x40)\n      dup1\n      swap2\n      sub\n      swap1\n      revert\n    tag_100:\n        /* \"lib/solmate.git/src/tokens/ERC1155.sol\":2982:2992  msg.sender */\n      caller\n      sub(shl(0xa0, 0x01), 0x01)\n        /* \"lib/solmate.git/src/tokens/ERC1155.sol\":2982:3000  msg.sender == from */\n      dup10\n      and\n      eq\n      dup1\n        /* \"lib/solmate.git/src/tokens/ERC1155.sol\":2982:3038  msg.sender == from || isApprovedForAll[from][msg.sender] */\n      tag_103\n      jumpi\n      pop\n      sub(shl(0xa0, 0x01), 0x01)\n        /* \"lib/solmate.git/src/tokens/ERC1155.sol\":3004:3026  isApprovedForAll[from] */\n      dup9\n      and\n      0x00\n      swap1\n      dup2\n      mstore\n        /* \"lib/solmate.git/src/tokens/ERC1155.sol\":3004:3020  isApprovedForAll */\n      0x02\n        /* \"lib/solmate.git/src/tokens/ERC1155.sol\":3004:3026  isApprovedForAll[from] */\n      0x20\n      swap1\n      dup2\n      mstore\n      0x40\n      dup1\n      dup4\n      keccak256\n        /* \"lib/solmate.git/src/tokens/ERC1155.sol\":3027:3037  msg.sender */\n      caller\n        /* \"lib/solmate.git/src/tokens/ERC1155.sol\":3004:3038  isApprovedForAll[from][msg.sender] */\n      dup5\n      mstore\n      swap1\n      swap2\n      mstore\n      swap1\n      keccak256\n      sload\n      0xff\n      and\n        /* \"lib/solmate.git/src/tokens/ERC1155.sol\":2982:3038  msg.sender == from || isApprovedForAll[from][msg.sender] */\n    tag_103:\n        /* \"lib/solmate.git/src/tokens/ERC1155.sol\":2974:3057  require(msg.sender == from || isApprovedForAll[from][msg.sender], \"NOT_AUTHORIZED\") */\n      tag_104\n      jumpi\n      mload(0x40)\n      shl(0xe5, 0x461bcd)\n      dup2\n      mstore\n        /* \"#utility.yul\":10181:10183   */\n      0x20\n        /* \"lib/solmate.git/src/tokens/ERC1155.sol\":2974:3057  require(msg.sender == from || isApprovedForAll[from][msg.sender], \"NOT_AUTHORIZED\") */\n      0x04\n      dup3\n      add\n        /* \"#utility.yul\":10163:10184   */\n      mstore\n        /* \"#utility.yul\":10220:10222   */\n      0x0e\n        /* \"#utility.yul\":10200:10218   */\n      0x24\n      dup3\n      add\n        /* \"#utility.yul\":10193:10223   */\n      mstore\n      shl(0x92, 0x1393d517d055551213d492569151)\n        /* \"#utility.yul\":10239:10257   */\n      0x44\n      dup3\n      add\n        /* \"#utility.yul\":10232:10276   */\n      mstore\n        /* \"#utility.yul\":10293:10311   */\n      0x64\n      add\n        /* \"lib/solmate.git/src/tokens/ERC1155.sol\":2974:3057  require(msg.sender == from || isApprovedForAll[from][msg.sender], \"NOT_AUTHORIZED\") */\n      tag_101\n        /* \"#utility.yul\":9979:10317   */\n      jump\n        /* \"lib/solmate.git/src/tokens/ERC1155.sol\":2974:3057  require(msg.sender == from || isApprovedForAll[from][msg.sender], \"NOT_AUTHORIZED\") */\n    tag_104:\n        /* \"lib/solmate.git/src/tokens/ERC1155.sol\":3142:3152  uint256 id */\n      0x00\n        /* \"lib/solmate.git/src/tokens/ERC1155.sol\":3163:3177  uint256 amount */\n      dup1\n        /* \"lib/solmate.git/src/tokens/ERC1155.sol\":3195:3204  uint256 i */\n      0x00\n        /* \"lib/solmate.git/src/tokens/ERC1155.sol\":3190:3554  for (uint256 i = 0; i < ids.length; ) {... */\n    tag_107:\n        /* \"lib/solmate.git/src/tokens/ERC1155.sol\":3210:3224  i < ids.length */\n      dup8\n      dup2\n      lt\n        /* \"lib/solmate.git/src/tokens/ERC1155.sol\":3190:3554  for (uint256 i = 0; i < ids.length; ) {... */\n      iszero\n      tag_108\n      jumpi\n        /* \"lib/solmate.git/src/tokens/ERC1155.sol\":3248:3251  ids */\n      dup9\n      dup9\n        /* \"lib/solmate.git/src/tokens/ERC1155.sol\":3252:3253  i */\n      dup3\n        /* \"lib/solmate.git/src/tokens/ERC1155.sol\":3248:3254  ids[i] */\n      dup2\n      dup2\n      lt\n      tag_111\n      jumpi\n      tag_111\n      tag_112\n      jump\t// in\n    tag_111:\n      swap1\n      pop\n      0x20\n      mul\n      add\n      calldataload\n        /* \"lib/solmate.git/src/tokens/ERC1155.sol\":3243:3254  id = ids[i] */\n      swap3\n      pop\n        /* \"lib/solmate.git/src/tokens/ERC1155.sol\":3278:3285  amounts */\n      dup7\n      dup7\n        /* \"lib/solmate.git/src/tokens/ERC1155.sol\":3286:3287  i */\n      dup3\n        /* \"lib/solmate.git/src/tokens/ERC1155.sol\":3278:3288  amounts[i] */\n      dup2\n      dup2\n      lt\n      tag_114\n      jumpi\n      tag_114\n      tag_112\n      jump\t// in\n    tag_114:\n      sub(shl(0xa0, 0x01), 0x01)\n        /* \"lib/solmate.git/src/tokens/ERC1155.sol\":3305:3320  balanceOf[from] */\n      dup15\n      and\n      0x00\n      swap1\n      dup2\n      mstore\n        /* \"lib/solmate.git/src/tokens/ERC1155.sol\":3305:3314  balanceOf */\n      0x01\n        /* \"lib/solmate.git/src/tokens/ERC1155.sol\":3278:3288  amounts[i] */\n      0x20\n        /* \"lib/solmate.git/src/tokens/ERC1155.sol\":3305:3320  balanceOf[from] */\n      swap1\n      dup2\n      mstore\n      0x40\n      dup1\n      dup4\n      keccak256\n        /* \"lib/solmate.git/src/tokens/ERC1155.sol\":3305:3324  balanceOf[from][id] */\n      dup10\n      dup5\n      mstore\n      dup3\n      mstore\n      dup3\n      keccak256\n        /* \"lib/solmate.git/src/tokens/ERC1155.sol\":3305:3334  balanceOf[from][id] -= amount */\n      dup1\n      sload\n        /* \"lib/solmate.git/src/tokens/ERC1155.sol\":3278:3288  amounts[i] */\n      swap4\n      swap1\n      swap2\n      mul\n      swap5\n      swap1\n      swap5\n      add\n      calldataload\n      swap6\n      pop\n      dup6\n      swap4\n        /* \"lib/solmate.git/src/tokens/ERC1155.sol\":3305:3324  balanceOf[from][id] */\n      swap3\n      pop\n        /* \"lib/solmate.git/src/tokens/ERC1155.sol\":3305:3320  balanceOf[from] */\n      swap1\n        /* \"lib/solmate.git/src/tokens/ERC1155.sol\":3305:3334  balanceOf[from][id] -= amount */\n      tag_115\n      swap1\n        /* \"lib/solmate.git/src/tokens/ERC1155.sol\":3278:3288  amounts[i] */\n      dup5\n      swap1\n        /* \"lib/solmate.git/src/tokens/ERC1155.sol\":3305:3334  balanceOf[from][id] -= amount */\n      tag_116\n      jump\t// in\n    tag_115:\n      swap1\n      swap2\n      sstore\n      pop\n      pop\n      sub(shl(0xa0, 0x01), 0x01)\n        /* \"lib/solmate.git/src/tokens/ERC1155.sol\":3349:3362  balanceOf[to] */\n      dup11\n      and\n      0x00\n      swap1\n      dup2\n      mstore\n        /* \"lib/solmate.git/src/tokens/ERC1155.sol\":3349:3358  balanceOf */\n      0x01\n        /* \"lib/solmate.git/src/tokens/ERC1155.sol\":3349:3362  balanceOf[to] */\n      0x20\n      swap1\n      dup2\n      mstore\n      0x40\n      dup1\n      dup4\n      keccak256\n        /* \"lib/solmate.git/src/tokens/ERC1155.sol\":3349:3366  balanceOf[to][id] */\n      dup7\n      dup5\n      mstore\n      swap1\n      swap2\n      mstore\n      dup2\n      keccak256\n        /* \"lib/solmate.git/src/tokens/ERC1155.sol\":3349:3376  balanceOf[to][id] += amount */\n      dup1\n      sload\n        /* \"lib/solmate.git/src/tokens/ERC1155.sol\":3370:3376  amount */\n      dup5\n      swap3\n        /* \"lib/solmate.git/src/tokens/ERC1155.sol\":3349:3362  balanceOf[to] */\n      swap1\n        /* \"lib/solmate.git/src/tokens/ERC1155.sol\":3349:3376  balanceOf[to][id] += amount */\n      tag_117\n      swap1\n        /* \"lib/solmate.git/src/tokens/ERC1155.sol\":3370:3376  amount */\n      dup5\n      swap1\n        /* \"lib/solmate.git/src/tokens/ERC1155.sol\":3349:3376  balanceOf[to][id] += amount */\n      tag_118\n      jump\t// in\n    tag_117:\n      swap1\n      swap2\n      sstore\n      pop\n      pop\n        /* \"lib/solmate.git/src/tokens/ERC1155.sol\":3524:3527  ++i */\n      0x01\n      add\n        /* \"lib/solmate.git/src/tokens/ERC1155.sol\":3190:3554  for (uint256 i = 0; i < ids.length; ) {... */\n      jump(tag_107)\n    tag_108:\n      pop\n        /* \"lib/solmate.git/src/tokens/ERC1155.sol\":3603:3605  to */\n      dup9\n      sub(shl(0xa0, 0x01), 0x01)\n        /* \"lib/solmate.git/src/tokens/ERC1155.sol\":3571:3620  TransferBatch(msg.sender, from, to, ids, amounts) */\n      and\n        /* \"lib/solmate.git/src/tokens/ERC1155.sol\":3597:3601  from */\n      dup11\n      sub(shl(0xa0, 0x01), 0x01)\n        /* \"lib/solmate.git/src/tokens/ERC1155.sol\":3571:3620  TransferBatch(msg.sender, from, to, ids, amounts) */\n      and\n        /* \"lib/solmate.git/src/tokens/ERC1155.sol\":3585:3595  msg.sender */\n      caller\n      sub(shl(0xa0, 0x01), 0x01)\n        /* \"lib/solmate.git/src/tokens/ERC1155.sol\":3571:3620  TransferBatch(msg.sender, from, to, ids, amounts) */\n      and\n      0x4a39dc06d4c0dbc64b70af90fd698a233a518aa5d07e595d983b8c0526c8f7fb\n        /* \"lib/solmate.git/src/tokens/ERC1155.sol\":3607:3610  ids */\n      dup12\n      dup12\n        /* \"lib/solmate.git/src/tokens/ERC1155.sol\":3612:3619  amounts */\n      dup12\n      dup12\n        /* \"lib/solmate.git/src/tokens/ERC1155.sol\":3571:3620  TransferBatch(msg.sender, from, to, ids, amounts) */\n      mload(0x40)\n      tag_119\n      swap5\n      swap4\n      swap3\n      swap2\n      swap1\n      tag_120\n      jump\t// in\n    tag_119:\n      mload(0x40)\n      dup1\n      swap2\n      sub\n      swap1\n      log4\n      sub(shl(0xa0, 0x01), 0x01)\n        /* \"lib/solmate.git/src/tokens/ERC1155.sol\":3655:3669  to.code.length */\n      dup10\n      and\n      extcodesize\n        /* \"lib/solmate.git/src/tokens/ERC1155.sol\":3655:3674  to.code.length == 0 */\n      iszero\n        /* \"lib/solmate.git/src/tokens/ERC1155.sol\":3655:3892  to.code.length == 0... */\n      tag_121\n      jumpi\n        /* \"lib/solmate.git/src/tokens/ERC1155.sol\":3730:3815  ERC1155TokenReceiver(to).onERC1155BatchReceived(msg.sender, from, ids, amounts, data) */\n      mload(0x40)\n      shl(0xe0, 0xbc197c81)\n      dup1\n      dup3\n      mstore\n        /* \"lib/solmate.git/src/tokens/ERC1155.sol\":3840:3892  ERC1155TokenReceiver.onERC1155BatchReceived.selector */\n      swap1\n      sub(shl(0xa0, 0x01), 0x01)\n        /* \"lib/solmate.git/src/tokens/ERC1155.sol\":3730:3777  ERC1155TokenReceiver(to).onERC1155BatchReceived */\n      dup12\n      and\n      swap1\n        /* \"lib/solmate.git/src/tokens/ERC1155.sol\":3840:3892  ERC1155TokenReceiver.onERC1155BatchReceived.selector */\n      0xbc197c81\n      swap1\n        /* \"lib/solmate.git/src/tokens/ERC1155.sol\":3730:3815  ERC1155TokenReceiver(to).onERC1155BatchReceived(msg.sender, from, ids, amounts, data) */\n      tag_122\n      swap1\n        /* \"lib/solmate.git/src/tokens/ERC1155.sol\":3778:3788  msg.sender */\n      caller\n      swap1\n        /* \"lib/solmate.git/src/tokens/ERC1155.sol\":3790:3794  from */\n      dup16\n      swap1\n        /* \"lib/solmate.git/src/tokens/ERC1155.sol\":3796:3799  ids */\n      dup15\n      swap1\n      dup15\n      swap1\n        /* \"lib/solmate.git/src/tokens/ERC1155.sol\":3801:3808  amounts */\n      dup15\n      swap1\n      dup15\n      swap1\n        /* \"lib/solmate.git/src/tokens/ERC1155.sol\":3810:3814  data */\n      dup15\n      swap1\n      dup15\n      swap1\n        /* \"lib/solmate.git/src/tokens/ERC1155.sol\":3730:3815  ERC1155TokenReceiver(to).onERC1155BatchReceived(msg.sender, from, ids, amounts, data) */\n      0x04\n      add\n      tag_123\n      jump\t// in\n    tag_122:\n      0x20\n      mload(0x40)\n      dup1\n      dup4\n      sub\n      dup2\n      0x00\n      dup8\n      gas\n      call\n      iszero\n      dup1\n      iszero\n      tag_125\n      jumpi\n      returndatasize\n      0x00\n      dup1\n      returndatacopy\n      revert(0x00, returndatasize)\n    tag_125:\n      pop\n      pop\n      pop\n      pop\n      mload(0x40)\n      returndatasize\n      not(0x1f)\n      0x1f\n      dup3\n      add\n      and\n      dup3\n      add\n      dup1\n      0x40\n      mstore\n      pop\n      dup2\n      add\n      swap1\n      tag_126\n      swap2\n      swap1\n      tag_127\n      jump\t// in\n    tag_126:\n      not(sub(shl(0xe0, 0x01), 0x01))\n        /* \"lib/solmate.git/src/tokens/ERC1155.sol\":3730:3892  ERC1155TokenReceiver(to).onERC1155BatchReceived(msg.sender, from, ids, amounts, data) ==... */\n      and\n      eq\n        /* \"lib/solmate.git/src/tokens/ERC1155.sol\":3655:3892  to.code.length == 0... */\n      jump(tag_128)\n    tag_121:\n      sub(shl(0xa0, 0x01), 0x01)\n        /* \"lib/solmate.git/src/tokens/ERC1155.sol\":3694:3710  to != address(0) */\n      dup10\n      and\n      iszero\n      iszero\n        /* \"lib/solmate.git/src/tokens/ERC1155.sol\":3655:3892  to.code.length == 0... */\n    tag_128:\n        /* \"lib/solmate.git/src/tokens/ERC1155.sol\":3633:3936  require(... */\n      tag_129\n      jumpi\n      mload(0x40)\n      shl(0xe5, 0x461bcd)\n      dup2\n      mstore\n      0x04\n      add\n      tag_101\n      swap1\n      tag_131\n      jump\t// in\n    tag_129:\n        /* \"lib/solmate.git/src/tokens/ERC1155.sol\":2894:3944  {... */\n      pop\n      pop\n        /* \"lib/solmate.git/src/tokens/ERC1155.sol\":2697:3944  function safeBatchTransferFrom(... */\n      pop\n      pop\n      pop\n      pop\n      pop\n      pop\n      pop\n      pop\n      jump\t// out\n        /* \"src/NFTickets.sol\":1139:1685  function claim(... */\n    tag_50:\n        /* \"src/NFTickets.sol\":1296:1327  abi.encode(msg.sender, tokenId) */\n      0x40\n      dup1\n      mload\n        /* \"src/NFTickets.sol\":1307:1317  msg.sender */\n      caller\n        /* \"src/NFTickets.sol\":1296:1327  abi.encode(msg.sender, tokenId) */\n      0x20\n      dup3\n      add\n        /* \"#utility.yul\":13645:13696   */\n      mstore\n        /* \"#utility.yul\":13712:13730   */\n      swap1\n      dup2\n      add\n        /* \"#utility.yul\":13705:13739   */\n      dup3\n      swap1\n      mstore\n        /* \"src/NFTickets.sol\":1248:1260  bytes32 leaf */\n      0x00\n      swap1\n        /* \"#utility.yul\":13618:13636   */\n      0x60\n      add\n        /* \"src/NFTickets.sol\":1296:1327  abi.encode(msg.sender, tokenId) */\n      0x40\n      dup1\n      mload\n      not(0x1f)\n      dup2\n      dup5\n      sub\n      add\n      dup2\n      mstore\n      dup3\n      dup3\n      mstore\n        /* \"src/NFTickets.sol\":1286:1328  keccak256(abi.encode(msg.sender, tokenId)) */\n      dup1\n      mload\n        /* \"src/NFTickets.sol\":1296:1327  abi.encode(msg.sender, tokenId) */\n      0x20\n        /* \"src/NFTickets.sol\":1286:1328  keccak256(abi.encode(msg.sender, tokenId)) */\n      swap2\n      dup3\n      add\n      keccak256\n        /* \"src/NFTickets.sol\":1273:1329  bytes.concat(keccak256(abi.encode(msg.sender, tokenId))) */\n      swap1\n      dup4\n      add\n        /* \"#utility.yul\":13879:13898   */\n      mstore\n        /* \"#utility.yul\":13914:13926   */\n      add\n        /* \"src/NFTickets.sol\":1273:1329  bytes.concat(keccak256(abi.encode(msg.sender, tokenId))) */\n      mload(0x40)\n      0x20\n      dup2\n      dup4\n      sub\n      sub\n      dup2\n      mstore\n      swap1\n      0x40\n      mstore\n        /* \"src/NFTickets.sol\":1263:1330  keccak256(bytes.concat(keccak256(abi.encode(msg.sender, tokenId)))) */\n      dup1\n      mload\n      swap1\n      0x20\n      add\n      keccak256\n        /* \"src/NFTickets.sol\":1248:1330  bytes32 leaf = keccak256(bytes.concat(keccak256(abi.encode(msg.sender, tokenId)))) */\n      swap1\n      pop\n        /* \"src/NFTickets.sol\":1341:1354  bool verified */\n      0x00\n        /* \"src/NFTickets.sol\":1357:1409  MerkleProofLib.verify(merkleProof, merkleRoot, leaf) */\n      tag_137\n        /* \"src/NFTickets.sol\":1379:1390  merkleProof */\n      dup6\n      dup6\n        /* \"src/NFTickets.sol\":1392:1402  merkleRoot */\n      sload(0x07)\n        /* \"src/NFTickets.sol\":1404:1408  leaf */\n      dup6\n        /* \"src/NFTickets.sol\":1357:1378  MerkleProofLib.verify */\n      tag_138\n        /* \"src/NFTickets.sol\":1357:1409  MerkleProofLib.verify(merkleProof, merkleRoot, leaf) */\n      jump\t// in\n    tag_137:\n        /* \"src/NFTickets.sol\":1341:1409  bool verified = MerkleProofLib.verify(merkleProof, merkleRoot, leaf) */\n      swap1\n      pop\n        /* \"src/NFTickets.sol\":1427:1435  verified */\n      dup1\n        /* \"src/NFTickets.sol\":1422:1486  if (!verified) {... */\n      tag_139\n      jumpi\n        /* \"src/NFTickets.sol\":1459:1474  ImproperProof() */\n      mload(0x40)\n      shl(0xe3, 0x0d453fcd)\n      dup2\n      mstore\n      0x04\n      add\n      mload(0x40)\n      dup1\n      swap2\n      sub\n      swap1\n      revert\n        /* \"src/NFTickets.sol\":1422:1486  if (!verified) {... */\n    tag_139:\n        /* \"src/NFTickets.sol\":1516:1526  msg.sender */\n      caller\n        /* \"src/NFTickets.sol\":1502:1527  ticketClaimed[msg.sender] */\n      0x00\n      swap1\n      dup2\n      mstore\n        /* \"src/NFTickets.sol\":1502:1515  ticketClaimed */\n      0x04\n        /* \"src/NFTickets.sol\":1502:1527  ticketClaimed[msg.sender] */\n      0x20\n      mstore\n      0x40\n      swap1\n      keccak256\n      sload\n      0xff\n      and\n        /* \"src/NFTickets.sol\":1498:1579  if (ticketClaimed[msg.sender]) {... */\n      iszero\n      tag_140\n      jumpi\n        /* \"src/NFTickets.sol\":1551:1567  AlreadyClaimed() */\n      mload(0x40)\n      shl(0xe3, 0x0c8d9eab)\n      dup2\n      mstore\n      0x04\n      add\n      mload(0x40)\n      dup1\n      swap2\n      sub\n      swap1\n      revert\n        /* \"src/NFTickets.sol\":1498:1579  if (ticketClaimed[msg.sender]) {... */\n    tag_140:\n        /* \"src/NFTickets.sol\":1613:1623  msg.sender */\n      caller\n        /* \"src/NFTickets.sol\":1599:1624  ticketClaimed[msg.sender] */\n      0x00\n      dup2\n      dup2\n      mstore\n        /* \"src/NFTickets.sol\":1599:1612  ticketClaimed */\n      0x04\n        /* \"src/NFTickets.sol\":1599:1624  ticketClaimed[msg.sender] */\n      0x20\n      swap1\n      dup2\n      mstore\n      0x40\n      dup1\n      dup4\n      keccak256\n        /* \"src/NFTickets.sol\":1599:1631  ticketClaimed[msg.sender] = true */\n      dup1\n      sload\n      not(0xff)\n      and\n        /* \"src/NFTickets.sol\":1627:1631  true */\n      0x01\n        /* \"src/NFTickets.sol\":1599:1631  ticketClaimed[msg.sender] = true */\n      swap1\n      dup2\n      or\n      swap1\n      swap2\n      sstore\n        /* \"src/NFTickets.sol\":1644:1677  _mint(msg.sender, tokenId, 1, \"\") */\n      dup2\n      mload\n      swap3\n      dup4\n      add\n      swap1\n      swap2\n      mstore\n      swap2\n      dup2\n      mstore\n      tag_141\n      swap3\n        /* \"src/NFTickets.sol\":1613:1623  msg.sender */\n      swap2\n        /* \"src/NFTickets.sol\":1662:1669  tokenId */\n      dup7\n      swap2\n        /* \"src/NFTickets.sol\":1644:1649  _mint */\n      tag_142\n        /* \"src/NFTickets.sol\":1644:1677  _mint(msg.sender, tokenId, 1, \"\") */\n      jump\t// in\n    tag_141:\n        /* \"src/NFTickets.sol\":1237:1685  {... */\n      pop\n      pop\n        /* \"src/NFTickets.sol\":1139:1685  function claim(... */\n      pop\n      pop\n      pop\n      jump\t// out\n        /* \"lib/solmate.git/src/tokens/ERC1155.sol\":3952:4552  function balanceOfBatch(address[] calldata owners, uint256[] calldata ids)... */\n    tag_54:\n        /* \"lib/solmate.git/src/tokens/ERC1155.sol\":4092:4117  uint256[] memory balances */\n      0x60\n        /* \"lib/solmate.git/src/tokens/ERC1155.sol\":4143:4170  owners.length == ids.length */\n      dup4\n      dup3\n      eq\n        /* \"lib/solmate.git/src/tokens/ERC1155.sol\":4135:4190  require(owners.length == ids.length, \"LENGTH_MISMATCH\") */\n      tag_144\n      jumpi\n      mload(0x40)\n      shl(0xe5, 0x461bcd)\n      dup2\n      mstore\n        /* \"#utility.yul\":9837:9839   */\n      0x20\n        /* \"lib/solmate.git/src/tokens/ERC1155.sol\":4135:4190  require(owners.length == ids.length, \"LENGTH_MISMATCH\") */\n      0x04\n      dup3\n      add\n        /* \"#utility.yul\":9819:9840   */\n      mstore\n        /* \"#utility.yul\":9876:9878   */\n      0x0f\n        /* \"#utility.yul\":9856:9874   */\n      0x24\n      dup3\n      add\n        /* \"#utility.yul\":9849:9879   */\n      mstore\n      shl(0x8b, 0x0988a9c8ea890be9a92a69a82a8869)\n        /* \"#utility.yul\":9895:9913   */\n      0x44\n      dup3\n      add\n        /* \"#utility.yul\":9888:9933   */\n      mstore\n        /* \"#utility.yul\":9950:9968   */\n      0x64\n      add\n        /* \"lib/solmate.git/src/tokens/ERC1155.sol\":4135:4190  require(owners.length == ids.length, \"LENGTH_MISMATCH\") */\n      tag_101\n        /* \"#utility.yul\":9635:9974   */\n      jump\n        /* \"lib/solmate.git/src/tokens/ERC1155.sol\":4135:4190  require(owners.length == ids.length, \"LENGTH_MISMATCH\") */\n    tag_144:\n        /* \"lib/solmate.git/src/tokens/ERC1155.sol\":4228:4234  owners */\n      dup4\n        /* \"lib/solmate.git/src/tokens/ERC1155.sol\":4214:4242  new uint256[](owners.length) */\n      0xffffffffffffffff\n      dup2\n      gt\n      iszero\n      tag_147\n      jumpi\n      tag_147\n      tag_148\n      jump\t// in\n    tag_147:\n      mload(0x40)\n      swap1\n      dup1\n      dup3\n      mstore\n      dup1\n      0x20\n      mul\n      0x20\n      add\n      dup3\n      add\n      0x40\n      mstore\n      dup1\n      iszero\n      tag_149\n      jumpi\n      dup2\n      0x20\n      add\n      0x20\n      dup3\n      mul\n      dup1\n      calldatasize\n      dup4\n      calldatacopy\n      add\n      swap1\n      pop\n    tag_149:\n      pop\n        /* \"lib/solmate.git/src/tokens/ERC1155.sol\":4203:4242  balances = new uint256[](owners.length) */\n      swap1\n      pop\n        /* \"lib/solmate.git/src/tokens/ERC1155.sol\":4418:4427  uint256 i */\n      0x00\n        /* \"lib/solmate.git/src/tokens/ERC1155.sol\":4413:4534  for (uint256 i = 0; i < owners.length; ++i) {... */\n    tag_150:\n        /* \"lib/solmate.git/src/tokens/ERC1155.sol\":4433:4450  i < owners.length */\n      dup5\n      dup2\n      lt\n        /* \"lib/solmate.git/src/tokens/ERC1155.sol\":4413:4534  for (uint256 i = 0; i < owners.length; ++i) {... */\n      iszero\n      tag_151\n      jumpi\n        /* \"lib/solmate.git/src/tokens/ERC1155.sol\":4490:4499  balanceOf */\n      0x01\n        /* \"lib/solmate.git/src/tokens/ERC1155.sol\":4490:4510  balanceOf[owners[i]] */\n      0x00\n        /* \"lib/solmate.git/src/tokens/ERC1155.sol\":4500:4506  owners */\n      dup8\n      dup8\n        /* \"lib/solmate.git/src/tokens/ERC1155.sol\":4507:4508  i */\n      dup5\n        /* \"lib/solmate.git/src/tokens/ERC1155.sol\":4500:4509  owners[i] */\n      dup2\n      dup2\n      lt\n      tag_154\n      jumpi\n      tag_154\n      tag_112\n      jump\t// in\n    tag_154:\n      swap1\n      pop\n      0x20\n      mul\n      add\n      0x20\n      dup2\n      add\n      swap1\n      tag_155\n      swap2\n      swap1\n      tag_74\n      jump\t// in\n    tag_155:\n      sub(shl(0xa0, 0x01), 0x01)\n        /* \"lib/solmate.git/src/tokens/ERC1155.sol\":4490:4510  balanceOf[owners[i]] */\n      and\n      sub(shl(0xa0, 0x01), 0x01)\n      and\n      dup2\n      mstore\n      0x20\n      add\n      swap1\n      dup2\n      mstore\n      0x20\n      add\n      0x00\n      keccak256\n        /* \"lib/solmate.git/src/tokens/ERC1155.sol\":4490:4518  balanceOf[owners[i]][ids[i]] */\n      0x00\n        /* \"lib/solmate.git/src/tokens/ERC1155.sol\":4511:4514  ids */\n      dup6\n      dup6\n        /* \"lib/solmate.git/src/tokens/ERC1155.sol\":4515:4516  i */\n      dup5\n        /* \"lib/solmate.git/src/tokens/ERC1155.sol\":4511:4517  ids[i] */\n      dup2\n      dup2\n      lt\n      tag_157\n      jumpi\n      tag_157\n      tag_112\n      jump\t// in\n    tag_157:\n      swap1\n      pop\n      0x20\n      mul\n      add\n      calldataload\n        /* \"lib/solmate.git/src/tokens/ERC1155.sol\":4490:4518  balanceOf[owners[i]][ids[i]] */\n      dup2\n      mstore\n      0x20\n      add\n      swap1\n      dup2\n      mstore\n      0x20\n      add\n      0x00\n      keccak256\n      sload\n        /* \"lib/solmate.git/src/tokens/ERC1155.sol\":4476:4484  balances */\n      dup3\n        /* \"lib/solmate.git/src/tokens/ERC1155.sol\":4485:4486  i */\n      dup3\n        /* \"lib/solmate.git/src/tokens/ERC1155.sol\":4476:4487  balances[i] */\n      dup2\n      mload\n      dup2\n      lt\n      tag_159\n      jumpi\n      tag_159\n      tag_112\n      jump\t// in\n    tag_159:\n      0x20\n      swap1\n      dup2\n      mul\n      swap2\n      swap1\n      swap2\n      add\n      add\n        /* \"lib/solmate.git/src/tokens/ERC1155.sol\":4476:4518  balances[i] = balanceOf[owners[i]][ids[i]] */\n      mstore\n        /* \"lib/solmate.git/src/tokens/ERC1155.sol\":4452:4455  ++i */\n      0x01\n      add\n        /* \"lib/solmate.git/src/tokens/ERC1155.sol\":4413:4534  for (uint256 i = 0; i < owners.length; ++i) {... */\n      jump(tag_150)\n    tag_151:\n      pop\n        /* \"lib/solmate.git/src/tokens/ERC1155.sol\":3952:4552  function balanceOfBatch(address[] calldata owners, uint256[] calldata ids)... */\n      swap5\n      swap4\n      pop\n      pop\n      pop\n      pop\n      jump\t// out\n        /* \"src/NFTickets.sol\":1880:1986  function setMerkleRoot(bytes32 merkleRoot_) external onlyOwner {... */\n    tag_60:\n        /* \"src/NFTickets.sol\":892:897  owner */\n      and(sub(shl(0xa0, 0x01), 0x01), sload(0x05))\n        /* \"src/NFTickets.sol\":878:888  msg.sender */\n      caller\n        /* \"src/NFTickets.sol\":878:897  msg.sender == owner */\n      eq\n        /* \"src/NFTickets.sol\":870:914  require(msg.sender == owner, \"UNAUTHORIZED\") */\n      tag_161\n      jumpi\n      mload(0x40)\n      shl(0xe5, 0x461bcd)\n      dup2\n      mstore\n        /* \"#utility.yul\":14139:14141   */\n      0x20\n        /* \"src/NFTickets.sol\":870:914  require(msg.sender == owner, \"UNAUTHORIZED\") */\n      0x04\n      dup3\n      add\n        /* \"#utility.yul\":14121:14142   */\n      mstore\n        /* \"#utility.yul\":14178:14180   */\n      0x0c\n        /* \"#utility.yul\":14158:14176   */\n      0x24\n      dup3\n      add\n        /* \"#utility.yul\":14151:14181   */\n      mstore\n      shl(0xa2, 0x15539055551213d492569151)\n        /* \"#utility.yul\":14197:14215   */\n      0x44\n      dup3\n      add\n        /* \"#utility.yul\":14190:14232   */\n      mstore\n        /* \"#utility.yul\":14249:14267   */\n      0x64\n      add\n        /* \"src/NFTickets.sol\":870:914  require(msg.sender == owner, \"UNAUTHORIZED\") */\n      tag_101\n        /* \"#utility.yul\":13937:14273   */\n      jump\n        /* \"src/NFTickets.sol\":870:914  require(msg.sender == owner, \"UNAUTHORIZED\") */\n    tag_161:\n        /* \"src/NFTickets.sol\":1954:1964  merkleRoot */\n      0x07\n        /* \"src/NFTickets.sol\":1954:1978  merkleRoot = merkleRoot_ */\n      sstore\n        /* \"src/NFTickets.sol\":1880:1986  function setMerkleRoot(bytes32 merkleRoot_) external onlyOwner {... */\n      jump\t// out\n        /* \"lib/solmate.git/src/tokens/ERC1155.sol\":1754:1961  function setApprovalForAll(address operator, bool approved) public virtual {... */\n    tag_68:\n        /* \"lib/solmate.git/src/tokens/ERC1155.sol\":1857:1867  msg.sender */\n      caller\n        /* \"lib/solmate.git/src/tokens/ERC1155.sol\":1840:1868  isApprovedForAll[msg.sender] */\n      0x00\n      dup2\n      dup2\n      mstore\n        /* \"lib/solmate.git/src/tokens/ERC1155.sol\":1840:1856  isApprovedForAll */\n      0x02\n        /* \"lib/solmate.git/src/tokens/ERC1155.sol\":1840:1868  isApprovedForAll[msg.sender] */\n      0x20\n      swap1\n      dup2\n      mstore\n      0x40\n      dup1\n      dup4\n      keccak256\n      sub(shl(0xa0, 0x01), 0x01)\n        /* \"lib/solmate.git/src/tokens/ERC1155.sol\":1840:1878  isApprovedForAll[msg.sender][operator] */\n      dup8\n      and\n      dup1\n      dup6\n      mstore\n      swap1\n      dup4\n      mstore\n      swap3\n      dup2\n      swap1\n      keccak256\n        /* \"lib/solmate.git/src/tokens/ERC1155.sol\":1840:1889  isApprovedForAll[msg.sender][operator] = approved */\n      dup1\n      sload\n      not(0xff)\n      and\n      dup7\n      iszero\n      iszero\n      swap1\n      dup2\n      or\n      swap1\n      swap2\n      sstore\n        /* \"lib/solmate.git/src/tokens/ERC1155.sol\":1907:1953  ApprovalForAll(msg.sender, operator, approved) */\n      swap1\n      mload\n        /* \"#utility.yul\":1159:1200   */\n      swap1\n      dup2\n      mstore\n        /* \"lib/solmate.git/src/tokens/ERC1155.sol\":1840:1878  isApprovedForAll[msg.sender][operator] */\n      swap2\n      swap3\n        /* \"lib/solmate.git/src/tokens/ERC1155.sol\":1857:1867  msg.sender */\n      swap2\n        /* \"lib/solmate.git/src/tokens/ERC1155.sol\":1907:1953  ApprovalForAll(msg.sender, operator, approved) */\n      0x17307eab39ab6107e8899845ad3d59bd9653f200f220920489ca2b5937696c31\n      swap2\n        /* \"#utility.yul\":1132:1150   */\n      add\n        /* \"lib/solmate.git/src/tokens/ERC1155.sol\":1907:1953  ApprovalForAll(msg.sender, operator, approved) */\n      mload(0x40)\n      dup1\n      swap2\n      sub\n      swap1\n      log3\n        /* \"lib/solmate.git/src/tokens/ERC1155.sol\":1754:1961  function setApprovalForAll(address operator, bool approved) public virtual {... */\n      pop\n      pop\n      jump\t// out\n        /* \"src/NFTickets.sol\":944:1131  function initialize(address _owner) external initializer {... */\n    tag_75:\n        /* \"lib/openzeppelin-contracts.git/contracts/proxy/utils/Initializable.sol\":3352:3371  bool isTopLevelCall */\n      0x00\n        /* \"lib/openzeppelin-contracts.git/contracts/proxy/utils/Initializable.sol\":3375:3388  _initializing */\n      sload\n      0x0100\n      swap1\n      div\n      0xff\n      and\n        /* \"lib/openzeppelin-contracts.git/contracts/proxy/utils/Initializable.sol\":3374:3388  !_initializing */\n      iszero\n      dup1\n        /* \"lib/openzeppelin-contracts.git/contracts/proxy/utils/Initializable.sol\":3422:3456  isTopLevelCall && _initialized < 1 */\n      dup1\n      iszero\n      tag_168\n      jumpi\n      pop\n        /* \"lib/openzeppelin-contracts.git/contracts/proxy/utils/Initializable.sol\":3440:3452  _initialized */\n      sload(0x00)\n        /* \"lib/openzeppelin-contracts.git/contracts/proxy/utils/Initializable.sol\":3455:3456  1 */\n      0x01\n        /* \"lib/openzeppelin-contracts.git/contracts/proxy/utils/Initializable.sol\":3440:3452  _initialized */\n      0xff\n      swap1\n      swap2\n      and\n        /* \"lib/openzeppelin-contracts.git/contracts/proxy/utils/Initializable.sol\":3440:3456  _initialized < 1 */\n      lt\n        /* \"lib/openzeppelin-contracts.git/contracts/proxy/utils/Initializable.sol\":3422:3456  isTopLevelCall && _initialized < 1 */\n    tag_168:\n        /* \"lib/openzeppelin-contracts.git/contracts/proxy/utils/Initializable.sol\":3421:3518  (isTopLevelCall && _initialized < 1) || (!Address.isContract(address(this)) && _initialized == 1) */\n      dup1\n      tag_172\n      jumpi\n      pop\n        /* \"lib/openzeppelin-contracts.git/contracts/proxy/utils/Initializable.sol\":3490:3494  this */\n      address\n        /* \"lib/openzeppelin-contracts.git/contracts/utils/Address.sol\":1746:1765  account.code.length */\n      extcodesize\n        /* \"lib/openzeppelin-contracts.git/contracts/utils/Address.sol\":1746:1769  account.code.length > 0 */\n      iszero\n      dup1\n      iszero\n        /* \"lib/openzeppelin-contracts.git/contracts/proxy/utils/Initializable.sol\":3462:3517  !Address.isContract(address(this)) && _initialized == 1 */\n      tag_172\n      jumpi\n      pop\n        /* \"lib/openzeppelin-contracts.git/contracts/proxy/utils/Initializable.sol\":3500:3512  _initialized */\n      and(0xff, sload(0x00))\n      0x01\n        /* \"lib/openzeppelin-contracts.git/contracts/proxy/utils/Initializable.sol\":3500:3517  _initialized == 1 */\n      eq\n        /* \"lib/openzeppelin-contracts.git/contracts/proxy/utils/Initializable.sol\":3462:3517  !Address.isContract(address(this)) && _initialized == 1 */\n    tag_172:\n        /* \"lib/openzeppelin-contracts.git/contracts/proxy/utils/Initializable.sol\":3399:3592  require(... */\n      tag_173\n      jumpi\n      mload(0x40)\n      shl(0xe5, 0x461bcd)\n      dup2\n      mstore\n        /* \"#utility.yul\":14480:14482   */\n      0x20\n        /* \"lib/openzeppelin-contracts.git/contracts/proxy/utils/Initializable.sol\":3399:3592  require(... */\n      0x04\n      dup3\n      add\n        /* \"#utility.yul\":14462:14483   */\n      mstore\n        /* \"#utility.yul\":14519:14521   */\n      0x2e\n        /* \"#utility.yul\":14499:14517   */\n      0x24\n      dup3\n      add\n        /* \"#utility.yul\":14492:14522   */\n      mstore\n        /* \"#utility.yul\":14558:14592   */\n      0x496e697469616c697a61626c653a20636f6e747261637420697320616c726561\n        /* \"#utility.yul\":14538:14556   */\n      0x44\n      dup3\n      add\n        /* \"#utility.yul\":14531:14593   */\n      mstore\n      shl(0x92, 0x191e481a5b9a5d1a585b1a5e9959)\n        /* \"#utility.yul\":14609:14627   */\n      0x64\n      dup3\n      add\n        /* \"#utility.yul\":14602:14646   */\n      mstore\n        /* \"#utility.yul\":14663:14682   */\n      0x84\n      add\n        /* \"lib/openzeppelin-contracts.git/contracts/proxy/utils/Initializable.sol\":3399:3592  require(... */\n      tag_101\n        /* \"#utility.yul\":14278:14688   */\n      jump\n        /* \"lib/openzeppelin-contracts.git/contracts/proxy/utils/Initializable.sol\":3399:3592  require(... */\n    tag_173:\n        /* \"lib/openzeppelin-contracts.git/contracts/proxy/utils/Initializable.sol\":3603:3615  _initialized */\n      0x00\n        /* \"lib/openzeppelin-contracts.git/contracts/proxy/utils/Initializable.sol\":3603:3619  _initialized = 1 */\n      dup1\n      sload\n      not(0xff)\n      and\n        /* \"lib/openzeppelin-contracts.git/contracts/proxy/utils/Initializable.sol\":3618:3619  1 */\n      0x01\n        /* \"lib/openzeppelin-contracts.git/contracts/proxy/utils/Initializable.sol\":3603:3619  _initialized = 1 */\n      or\n      swap1\n      sstore\n        /* \"lib/openzeppelin-contracts.git/contracts/proxy/utils/Initializable.sol\":3630:3697  if (isTopLevelCall) {... */\n      dup1\n      iszero\n      tag_176\n      jumpi\n        /* \"lib/openzeppelin-contracts.git/contracts/proxy/utils/Initializable.sol\":3665:3678  _initializing */\n      0x00\n        /* \"lib/openzeppelin-contracts.git/contracts/proxy/utils/Initializable.sol\":3665:3685  _initializing = true */\n      dup1\n      sload\n      not(0xff00)\n      and\n      0x0100\n      or\n      swap1\n      sstore\n        /* \"lib/openzeppelin-contracts.git/contracts/proxy/utils/Initializable.sol\":3630:3697  if (isTopLevelCall) {... */\n    tag_176:\n        /* \"src/NFTickets.sol\":1012:1017  owner */\n      0x05\n        /* \"src/NFTickets.sol\":1012:1026  owner = _owner */\n      dup1\n      sload\n      not(sub(shl(0xa0, 0x01), 0x01))\n      and\n      sub(shl(0xa0, 0x01), 0x01)\n      dup5\n      and\n      swap1\n      dup2\n      or\n      swap1\n      swap2\n      sstore\n        /* \"src/NFTickets.sol\":1042:1082  OwnershipTransferred(address(0), _owner) */\n      mload(0x40)\n      0x00\n      swap1\n      0x8be0079c531659141344cd1fd0a4f28419497f9722a3daafe3b4186f6b6457e0\n      swap1\n      dup3\n      swap1\n      log3\n        /* \"src/NFTickets.sol\":1103:1110  factory */\n      0x06\n        /* \"src/NFTickets.sol\":1103:1123  factory = msg.sender */\n      dup1\n      sload\n      not(sub(shl(0xa0, 0x01), 0x01))\n      and\n        /* \"src/NFTickets.sol\":1113:1123  msg.sender */\n      caller\n        /* \"src/NFTickets.sol\":1103:1123  factory = msg.sender */\n      or\n      swap1\n      sstore\n        /* \"lib/openzeppelin-contracts.git/contracts/proxy/utils/Initializable.sol\":3719:3821  if (isTopLevelCall) {... */\n      dup1\n      iszero\n      tag_178\n      jumpi\n        /* \"lib/openzeppelin-contracts.git/contracts/proxy/utils/Initializable.sol\":3770:3775  false */\n      0x00\n        /* \"lib/openzeppelin-contracts.git/contracts/proxy/utils/Initializable.sol\":3754:3775  _initializing = false */\n      dup1\n      sload\n      not(0xff00)\n      and\n      swap1\n      sstore\n        /* \"lib/openzeppelin-contracts.git/contracts/proxy/utils/Initializable.sol\":3795:3809  Initialized(1) */\n      mload(0x40)\n      0x01\n        /* \"#utility.yul\":14845:14881   */\n      dup2\n      mstore\n        /* \"lib/openzeppelin-contracts.git/contracts/proxy/utils/Initializable.sol\":3795:3809  Initialized(1) */\n      0x7f26b83ff96e1f2b6a682f133852f6798a09c465da95921460cefb3847402498\n      swap1\n        /* \"#utility.yul\":14833:14835   */\n      0x20\n        /* \"#utility.yul\":14818:14836   */\n      add\n        /* \"lib/openzeppelin-contracts.git/contracts/proxy/utils/Initializable.sol\":3795:3809  Initialized(1) */\n      mload(0x40)\n      dup1\n      swap2\n      sub\n      swap1\n      log1\n        /* \"lib/openzeppelin-contracts.git/contracts/proxy/utils/Initializable.sol\":3719:3821  if (isTopLevelCall) {... */\n    tag_178:\n        /* \"lib/openzeppelin-contracts.git/contracts/proxy/utils/Initializable.sol\":3341:3828  {... */\n      pop\n        /* \"src/NFTickets.sol\":944:1131  function initialize(address _owner) external initializer {... */\n      pop\n      jump\t// out\n        /* \"lib/solmate.git/src/tokens/ERC1155.sol\":1969:2689  function safeTransferFrom(... */\n    tag_84:\n        /* \"lib/solmate.git/src/tokens/ERC1155.sol\":2156:2166  msg.sender */\n      caller\n      sub(shl(0xa0, 0x01), 0x01)\n        /* \"lib/solmate.git/src/tokens/ERC1155.sol\":2156:2174  msg.sender == from */\n      dup8\n      and\n      eq\n      dup1\n        /* \"lib/solmate.git/src/tokens/ERC1155.sol\":2156:2212  msg.sender == from || isApprovedForAll[from][msg.sender] */\n      tag_182\n      jumpi\n      pop\n      sub(shl(0xa0, 0x01), 0x01)\n        /* \"lib/solmate.git/src/tokens/ERC1155.sol\":2178:2200  isApprovedForAll[from] */\n      dup7\n      and\n      0x00\n      swap1\n      dup2\n      mstore\n        /* \"lib/solmate.git/src/tokens/ERC1155.sol\":2178:2194  isApprovedForAll */\n      0x02\n        /* \"lib/solmate.git/src/tokens/ERC1155.sol\":2178:2200  isApprovedForAll[from] */\n      0x20\n      swap1\n      dup2\n      mstore\n      0x40\n      dup1\n      dup4\n      keccak256\n        /* \"lib/solmate.git/src/tokens/ERC1155.sol\":2201:2211  msg.sender */\n      caller\n        /* \"lib/solmate.git/src/tokens/ERC1155.sol\":2178:2212  isApprovedForAll[from][msg.sender] */\n      dup5\n      mstore\n      swap1\n      swap2\n      mstore\n      swap1\n      keccak256\n      sload\n      0xff\n      and\n        /* \"lib/solmate.git/src/tokens/ERC1155.sol\":2156:2212  msg.sender == from || isApprovedForAll[from][msg.sender] */\n    tag_182:\n        /* \"lib/solmate.git/src/tokens/ERC1155.sol\":2148:2231  require(msg.sender == from || isApprovedForAll[from][msg.sender], \"NOT_AUTHORIZED\") */\n      tag_183\n      jumpi\n      mload(0x40)\n      shl(0xe5, 0x461bcd)\n      dup2\n      mstore\n        /* \"#utility.yul\":10181:10183   */\n      0x20\n        /* \"lib/solmate.git/src/tokens/ERC1155.sol\":2148:2231  require(msg.sender == from || isApprovedForAll[from][msg.sender], \"NOT_AUTHORIZED\") */\n      0x04\n      dup3\n      add\n        /* \"#utility.yul\":10163:10184   */\n      mstore\n        /* \"#utility.yul\":10220:10222   */\n      0x0e\n        /* \"#utility.yul\":10200:10218   */\n      0x24\n      dup3\n      add\n        /* \"#utility.yul\":10193:10223   */\n      mstore\n      shl(0x92, 0x1393d517d055551213d492569151)\n        /* \"#utility.yul\":10239:10257   */\n      0x44\n      dup3\n      add\n        /* \"#utility.yul\":10232:10276   */\n      mstore\n        /* \"#utility.yul\":10293:10311   */\n      0x64\n      add\n        /* \"lib/solmate.git/src/tokens/ERC1155.sol\":2148:2231  require(msg.sender == from || isApprovedForAll[from][msg.sender], \"NOT_AUTHORIZED\") */\n      tag_101\n        /* \"#utility.yul\":9979:10317   */\n      jump\n        /* \"lib/solmate.git/src/tokens/ERC1155.sol\":2148:2231  require(msg.sender == from || isApprovedForAll[from][msg.sender], \"NOT_AUTHORIZED\") */\n    tag_183:\n      sub(shl(0xa0, 0x01), 0x01)\n        /* \"lib/solmate.git/src/tokens/ERC1155.sol\":2244:2259  balanceOf[from] */\n      dup7\n      and\n      0x00\n      swap1\n      dup2\n      mstore\n        /* \"lib/solmate.git/src/tokens/ERC1155.sol\":2244:2253  balanceOf */\n      0x01\n        /* \"lib/solmate.git/src/tokens/ERC1155.sol\":2244:2259  balanceOf[from] */\n      0x20\n      swap1\n      dup2\n      mstore\n      0x40\n      dup1\n      dup4\n      keccak256\n        /* \"lib/solmate.git/src/tokens/ERC1155.sol\":2244:2263  balanceOf[from][id] */\n      dup8\n      dup5\n      mstore\n      swap1\n      swap2\n      mstore\n      dup2\n      keccak256\n        /* \"lib/solmate.git/src/tokens/ERC1155.sol\":2244:2273  balanceOf[from][id] -= amount */\n      dup1\n      sload\n        /* \"lib/solmate.git/src/tokens/ERC1155.sol\":2267:2273  amount */\n      dup6\n      swap3\n        /* \"lib/solmate.git/src/tokens/ERC1155.sol\":2244:2259  balanceOf[from] */\n      swap1\n        /* \"lib/solmate.git/src/tokens/ERC1155.sol\":2244:2273  balanceOf[from][id] -= amount */\n      tag_185\n      swap1\n        /* \"lib/solmate.git/src/tokens/ERC1155.sol\":2267:2273  amount */\n      dup5\n      swap1\n        /* \"lib/solmate.git/src/tokens/ERC1155.sol\":2244:2273  balanceOf[from][id] -= amount */\n      tag_116\n      jump\t// in\n    tag_185:\n      swap1\n      swap2\n      sstore\n      pop\n      pop\n      sub(shl(0xa0, 0x01), 0x01)\n        /* \"lib/solmate.git/src/tokens/ERC1155.sol\":2284:2297  balanceOf[to] */\n      dup6\n      and\n      0x00\n      swap1\n      dup2\n      mstore\n        /* \"lib/solmate.git/src/tokens/ERC1155.sol\":2284:2293  balanceOf */\n      0x01\n        /* \"lib/solmate.git/src/tokens/ERC1155.sol\":2284:2297  balanceOf[to] */\n      0x20\n      swap1\n      dup2\n      mstore\n      0x40\n      dup1\n      dup4\n      keccak256\n        /* \"lib/solmate.git/src/tokens/ERC1155.sol\":2284:2301  balanceOf[to][id] */\n      dup8\n      dup5\n      mstore\n      swap1\n      swap2\n      mstore\n      dup2\n      keccak256\n        /* \"lib/solmate.git/src/tokens/ERC1155.sol\":2284:2311  balanceOf[to][id] += amount */\n      dup1\n      sload\n        /* \"lib/solmate.git/src/tokens/ERC1155.sol\":2305:2311  amount */\n      dup6\n      swap3\n        /* \"lib/solmate.git/src/tokens/ERC1155.sol\":2284:2297  balanceOf[to] */\n      swap1\n        /* \"lib/solmate.git/src/tokens/ERC1155.sol\":2284:2311  balanceOf[to][id] += amount */\n      tag_186\n      swap1\n        /* \"lib/solmate.git/src/tokens/ERC1155.sol\":2305:2311  amount */\n      dup5\n      swap1\n        /* \"lib/solmate.git/src/tokens/ERC1155.sol\":2284:2311  balanceOf[to][id] += amount */\n      tag_118\n      jump\t// in\n    tag_186:\n      swap1\n      swap2\n      sstore\n      pop\n      pop\n        /* \"lib/solmate.git/src/tokens/ERC1155.sol\":2329:2377  TransferSingle(msg.sender, from, to, id, amount) */\n      0x40\n      dup1\n      mload\n        /* \"#utility.yul\":15066:15091   */\n      dup6\n      dup2\n      mstore\n        /* \"#utility.yul\":15122:15124   */\n      0x20\n        /* \"#utility.yul\":15107:15125   */\n      dup2\n      add\n        /* \"#utility.yul\":15100:15134   */\n      dup6\n      swap1\n      mstore\n      sub(shl(0xa0, 0x01), 0x01)\n        /* \"lib/solmate.git/src/tokens/ERC1155.sol\":2329:2377  TransferSingle(msg.sender, from, to, id, amount) */\n      dup1\n      dup9\n      and\n      swap3\n      swap1\n      dup10\n      and\n      swap2\n        /* \"lib/solmate.git/src/tokens/ERC1155.sol\":2344:2354  msg.sender */\n      caller\n      swap2\n        /* \"lib/solmate.git/src/tokens/ERC1155.sol\":2329:2377  TransferSingle(msg.sender, from, to, id, amount) */\n      0xc3d58168c5ae7397731d063d5bbf3d657854427343f4c083240f7aacaa2d0f62\n      swap2\n        /* \"#utility.yul\":15039:15057   */\n      add\n        /* \"lib/solmate.git/src/tokens/ERC1155.sol\":2329:2377  TransferSingle(msg.sender, from, to, id, amount) */\n      mload(0x40)\n      dup1\n      swap2\n      sub\n      swap1\n      log4\n      sub(shl(0xa0, 0x01), 0x01)\n        /* \"lib/solmate.git/src/tokens/ERC1155.sol\":2412:2426  to.code.length */\n      dup6\n      and\n      extcodesize\n        /* \"lib/solmate.git/src/tokens/ERC1155.sol\":2412:2431  to.code.length == 0 */\n      iszero\n        /* \"lib/solmate.git/src/tokens/ERC1155.sol\":2412:2637  to.code.length == 0... */\n      tag_189\n      jumpi\n        /* \"lib/solmate.git/src/tokens/ERC1155.sol\":2487:2565  ERC1155TokenReceiver(to).onERC1155Received(msg.sender, from, id, amount, data) */\n      mload(0x40)\n      shl(0xe0, 0xf23a6e61)\n      dup1\n      dup3\n      mstore\n        /* \"lib/solmate.git/src/tokens/ERC1155.sol\":2590:2637  ERC1155TokenReceiver.onERC1155Received.selector */\n      swap1\n      sub(shl(0xa0, 0x01), 0x01)\n        /* \"lib/solmate.git/src/tokens/ERC1155.sol\":2487:2529  ERC1155TokenReceiver(to).onERC1155Received */\n      dup8\n      and\n      swap1\n        /* \"lib/solmate.git/src/tokens/ERC1155.sol\":2590:2637  ERC1155TokenReceiver.onERC1155Received.selector */\n      0xf23a6e61\n      swap1\n        /* \"lib/solmate.git/src/tokens/ERC1155.sol\":2487:2565  ERC1155TokenReceiver(to).onERC1155Received(msg.sender, from, id, amount, data) */\n      tag_190\n      swap1\n        /* \"lib/solmate.git/src/tokens/ERC1155.sol\":2530:2540  msg.sender */\n      caller\n      swap1\n        /* \"lib/solmate.git/src/tokens/ERC1155.sol\":2542:2546  from */\n      dup12\n      swap1\n        /* \"lib/solmate.git/src/tokens/ERC1155.sol\":2548:2550  id */\n      dup11\n      swap1\n        /* \"lib/solmate.git/src/tokens/ERC1155.sol\":2552:2558  amount */\n      dup11\n      swap1\n        /* \"lib/solmate.git/src/tokens/ERC1155.sol\":2560:2564  data */\n      dup11\n      swap1\n      dup11\n      swap1\n        /* \"lib/solmate.git/src/tokens/ERC1155.sol\":2487:2565  ERC1155TokenReceiver(to).onERC1155Received(msg.sender, from, id, amount, data) */\n      0x04\n      add\n      tag_191\n      jump\t// in\n    tag_190:\n      0x20\n      mload(0x40)\n      dup1\n      dup4\n      sub\n      dup2\n      0x00\n      dup8\n      gas\n      call\n      iszero\n      dup1\n      iszero\n      tag_193\n      jumpi\n      returndatasize\n      0x00\n      dup1\n      returndatacopy\n      revert(0x00, returndatasize)\n    tag_193:\n      pop\n      pop\n      pop\n      pop\n      mload(0x40)\n      returndatasize\n      not(0x1f)\n      0x1f\n      dup3\n      add\n      and\n      dup3\n      add\n      dup1\n      0x40\n      mstore\n      pop\n      dup2\n      add\n      swap1\n      tag_194\n      swap2\n      swap1\n      tag_127\n      jump\t// in\n    tag_194:\n      not(sub(shl(0xe0, 0x01), 0x01))\n        /* \"lib/solmate.git/src/tokens/ERC1155.sol\":2487:2637  ERC1155TokenReceiver(to).onERC1155Received(msg.sender, from, id, amount, data) ==... */\n      and\n      eq\n        /* \"lib/solmate.git/src/tokens/ERC1155.sol\":2412:2637  to.code.length == 0... */\n      jump(tag_195)\n    tag_189:\n      sub(shl(0xa0, 0x01), 0x01)\n        /* \"lib/solmate.git/src/tokens/ERC1155.sol\":2451:2467  to != address(0) */\n      dup6\n      and\n      iszero\n      iszero\n        /* \"lib/solmate.git/src/tokens/ERC1155.sol\":2412:2637  to.code.length == 0... */\n    tag_195:\n        /* \"lib/solmate.git/src/tokens/ERC1155.sol\":2390:2681  require(... */\n      tag_196\n      jumpi\n      mload(0x40)\n      shl(0xe5, 0x461bcd)\n      dup2\n      mstore\n      0x04\n      add\n      tag_101\n      swap1\n      tag_131\n      jump\t// in\n    tag_196:\n        /* \"lib/solmate.git/src/tokens/ERC1155.sol\":1969:2689  function safeTransferFrom(... */\n      pop\n      pop\n      pop\n      pop\n      pop\n      pop\n      jump\t// out\n        /* \"lib/solmate.git/src/utils/MerkleProofLib.sol\":370:2075  function verify(... */\n    tag_138:\n        /* \"lib/solmate.git/src/utils/MerkleProofLib.sol\":497:509  bool isValid */\n      0x00\n        /* \"lib/solmate.git/src/utils/MerkleProofLib.sol\":593:605  proof.length */\n      dup4\n        /* \"lib/solmate.git/src/utils/MerkleProofLib.sol\":590:1974  if proof.length {... */\n      iszero\n      tag_199\n      jumpi\n        /* \"lib/solmate.git/src/utils/MerkleProofLib.sol\":727:739  proof.length */\n      dup4\n        /* \"lib/solmate.git/src/utils/MerkleProofLib.sol\":724:725  5 */\n      0x05\n        /* \"lib/solmate.git/src/utils/MerkleProofLib.sol\":720:740  shl(5, proof.length) */\n      shl\n        /* \"lib/solmate.git/src/utils/MerkleProofLib.sol\":706:718  proof.offset */\n      dup6\n        /* \"lib/solmate.git/src/utils/MerkleProofLib.sol\":702:741  add(proof.offset, shl(5, proof.length)) */\n      add\n        /* \"lib/solmate.git/src/utils/MerkleProofLib.sol\":853:865  proof.offset */\n      dup6\n        /* \"lib/solmate.git/src/utils/MerkleProofLib.sol\":991:1959  for {} 1 {} {... */\n    tag_200:\n        /* \"lib/solmate.git/src/utils/MerkleProofLib.sol\":1218:1238  calldataload(offset) */\n      dup1\n      calldataload\n        /* \"lib/solmate.git/src/utils/MerkleProofLib.sol\":1209:1239  gt(leaf, calldataload(offset)) */\n      dup1\n      dup6\n      gt\n        /* \"lib/solmate.git/src/utils/MerkleProofLib.sol\":1206:1207  5 */\n      0x05\n        /* \"lib/solmate.git/src/utils/MerkleProofLib.sol\":1202:1240  shl(5, gt(leaf, calldataload(offset))) */\n      shl\n        /* \"lib/solmate.git/src/utils/MerkleProofLib.sol\":1507:1529  mstore(leafSlot, leaf) */\n      swap5\n      dup6\n      mstore\n        /* \"lib/solmate.git/src/utils/MerkleProofLib.sol\":1572:1574  32 */\n      0x20\n        /* \"lib/solmate.git/src/utils/MerkleProofLib.sol\":1558:1575  xor(leafSlot, 32) */\n      swap5\n      dup6\n      xor\n        /* \"lib/solmate.git/src/utils/MerkleProofLib.sol\":1551:1598  mstore(xor(leafSlot, 32), calldataload(offset)) */\n      mstore\n        /* \"lib/solmate.git/src/utils/MerkleProofLib.sol\":1724:1726  64 */\n      0x40\n        /* \"lib/solmate.git/src/utils/MerkleProofLib.sol\":1721:1722  0 */\n      0x00\n        /* \"lib/solmate.git/src/utils/MerkleProofLib.sol\":1711:1727  keccak256(0, 64) */\n      keccak256\n      swap4\n        /* \"lib/solmate.git/src/utils/MerkleProofLib.sol\":1798:1813  add(offset, 32) */\n      add\n        /* \"lib/solmate.git/src/utils/MerkleProofLib.sol\":1914:1929  lt(offset, end) */\n      dup2\n      dup2\n      lt\n        /* \"lib/solmate.git/src/utils/MerkleProofLib.sol\":991:1959  for {} 1 {} {... */\n      tag_200\n        /* \"lib/solmate.git/src/utils/MerkleProofLib.sol\":1904:1940  if iszero(lt(offset, end)) { break } */\n      jumpi\n        /* \"lib/solmate.git/src/utils/MerkleProofLib.sol\":995:997  {} */\n      pop\n      pop\n        /* \"lib/solmate.git/src/utils/MerkleProofLib.sol\":590:1974  if proof.length {... */\n    tag_199:\n      pop\n        /* \"lib/solmate.git/src/utils/MerkleProofLib.sol\":2001:2015  eq(leaf, root) */\n      eq\n      swap3\n        /* \"lib/solmate.git/src/utils/MerkleProofLib.sol\":370:2075  function verify(... */\n      swap2\n      pop\n      pop\n      jump\t// out\n        /* \"lib/solmate.git/src/tokens/ERC1155.sol\":5291:5853  function _mint(... */\n    tag_142:\n      sub(shl(0xa0, 0x01), 0x01)\n        /* \"lib/solmate.git/src/tokens/ERC1155.sol\":5436:5449  balanceOf[to] */\n      dup5\n      and\n      0x00\n      swap1\n      dup2\n      mstore\n        /* \"lib/solmate.git/src/tokens/ERC1155.sol\":5436:5445  balanceOf */\n      0x01\n        /* \"lib/solmate.git/src/tokens/ERC1155.sol\":5436:5449  balanceOf[to] */\n      0x20\n      swap1\n      dup2\n      mstore\n      0x40\n      dup1\n      dup4\n      keccak256\n        /* \"lib/solmate.git/src/tokens/ERC1155.sol\":5436:5453  balanceOf[to][id] */\n      dup7\n      dup5\n      mstore\n      swap1\n      swap2\n      mstore\n      dup2\n      keccak256\n        /* \"lib/solmate.git/src/tokens/ERC1155.sol\":5436:5463  balanceOf[to][id] += amount */\n      dup1\n      sload\n        /* \"lib/solmate.git/src/tokens/ERC1155.sol\":5457:5463  amount */\n      dup5\n      swap3\n        /* \"lib/solmate.git/src/tokens/ERC1155.sol\":5436:5449  balanceOf[to] */\n      swap1\n        /* \"lib/solmate.git/src/tokens/ERC1155.sol\":5436:5463  balanceOf[to][id] += amount */\n      tag_205\n      swap1\n        /* \"lib/solmate.git/src/tokens/ERC1155.sol\":5457:5463  amount */\n      dup5\n      swap1\n        /* \"lib/solmate.git/src/tokens/ERC1155.sol\":5436:5463  balanceOf[to][id] += amount */\n      tag_118\n      jump\t// in\n    tag_205:\n      swap1\n      swap2\n      sstore\n      pop\n      pop\n        /* \"lib/solmate.git/src/tokens/ERC1155.sol\":5481:5535  TransferSingle(msg.sender, address(0), to, id, amount) */\n      0x40\n      dup1\n      mload\n        /* \"#utility.yul\":15066:15091   */\n      dup5\n      dup2\n      mstore\n        /* \"#utility.yul\":15122:15124   */\n      0x20\n        /* \"#utility.yul\":15107:15125   */\n      dup2\n      add\n        /* \"#utility.yul\":15100:15134   */\n      dup5\n      swap1\n      mstore\n      sub(shl(0xa0, 0x01), 0x01)\n        /* \"lib/solmate.git/src/tokens/ERC1155.sol\":5481:5535  TransferSingle(msg.sender, address(0), to, id, amount) */\n      dup7\n      and\n      swap2\n        /* \"lib/solmate.git/src/tokens/ERC1155.sol\":5516:5517  0 */\n      0x00\n      swap2\n        /* \"lib/solmate.git/src/tokens/ERC1155.sol\":5496:5506  msg.sender */\n      caller\n      swap2\n        /* \"lib/solmate.git/src/tokens/ERC1155.sol\":5481:5535  TransferSingle(msg.sender, address(0), to, id, amount) */\n      0xc3d58168c5ae7397731d063d5bbf3d657854427343f4c083240f7aacaa2d0f62\n      swap2\n        /* \"#utility.yul\":15039:15057   */\n      add\n        /* \"lib/solmate.git/src/tokens/ERC1155.sol\":5481:5535  TransferSingle(msg.sender, address(0), to, id, amount) */\n      mload(0x40)\n      dup1\n      swap2\n      sub\n      swap1\n      log4\n      sub(shl(0xa0, 0x01), 0x01)\n        /* \"lib/solmate.git/src/tokens/ERC1155.sol\":5570:5584  to.code.length */\n      dup5\n      and\n      extcodesize\n        /* \"lib/solmate.git/src/tokens/ERC1155.sol\":5570:5589  to.code.length == 0 */\n      iszero\n        /* \"lib/solmate.git/src/tokens/ERC1155.sol\":5570:5801  to.code.length == 0... */\n      tag_207\n      jumpi\n        /* \"lib/solmate.git/src/tokens/ERC1155.sol\":5645:5729  ERC1155TokenReceiver(to).onERC1155Received(msg.sender, address(0), id, amount, data) */\n      mload(0x40)\n      shl(0xe0, 0xf23a6e61)\n      dup1\n      dup3\n      mstore\n        /* \"lib/solmate.git/src/tokens/ERC1155.sol\":5754:5801  ERC1155TokenReceiver.onERC1155Received.selector */\n      swap1\n      sub(shl(0xa0, 0x01), 0x01)\n        /* \"lib/solmate.git/src/tokens/ERC1155.sol\":5645:5687  ERC1155TokenReceiver(to).onERC1155Received */\n      dup7\n      and\n      swap1\n        /* \"lib/solmate.git/src/tokens/ERC1155.sol\":5754:5801  ERC1155TokenReceiver.onERC1155Received.selector */\n      0xf23a6e61\n      swap1\n        /* \"lib/solmate.git/src/tokens/ERC1155.sol\":5645:5729  ERC1155TokenReceiver(to).onERC1155Received(msg.sender, address(0), id, amount, data) */\n      tag_208\n      swap1\n        /* \"lib/solmate.git/src/tokens/ERC1155.sol\":5688:5698  msg.sender */\n      caller\n      swap1\n        /* \"lib/solmate.git/src/tokens/ERC1155.sol\":5708:5709  0 */\n      0x00\n      swap1\n        /* \"lib/solmate.git/src/tokens/ERC1155.sol\":5712:5714  id */\n      dup10\n      swap1\n        /* \"lib/solmate.git/src/tokens/ERC1155.sol\":5716:5722  amount */\n      dup10\n      swap1\n        /* \"lib/solmate.git/src/tokens/ERC1155.sol\":5724:5728  data */\n      dup10\n      swap1\n        /* \"lib/solmate.git/src/tokens/ERC1155.sol\":5645:5729  ERC1155TokenReceiver(to).onERC1155Received(msg.sender, address(0), id, amount, data) */\n      0x04\n      add\n      tag_209\n      jump\t// in\n    tag_208:\n      0x20\n      mload(0x40)\n      dup1\n      dup4\n      sub\n      dup2\n      0x00\n      dup8\n      gas\n      call\n      iszero\n      dup1\n      iszero\n      tag_211\n      jumpi\n      returndatasize\n      0x00\n      dup1\n      returndatacopy\n      revert(0x00, returndatasize)\n    tag_211:\n      pop\n      pop\n      pop\n      pop\n      mload(0x40)\n      returndatasize\n      not(0x1f)\n      0x1f\n      dup3\n      add\n      and\n      dup3\n      add\n      dup1\n      0x40\n      mstore\n      pop\n      dup2\n      add\n      swap1\n      tag_212\n      swap2\n      swap1\n      tag_127\n      jump\t// in\n    tag_212:\n      not(sub(shl(0xe0, 0x01), 0x01))\n        /* \"lib/solmate.git/src/tokens/ERC1155.sol\":5645:5801  ERC1155TokenReceiver(to).onERC1155Received(msg.sender, address(0), id, amount, data) ==... */\n      and\n      eq\n        /* \"lib/solmate.git/src/tokens/ERC1155.sol\":5570:5801  to.code.length == 0... */\n      jump(tag_213)\n    tag_207:\n      sub(shl(0xa0, 0x01), 0x01)\n        /* \"lib/solmate.git/src/tokens/ERC1155.sol\":5609:5625  to != address(0) */\n      dup5\n      and\n      iszero\n      iszero\n        /* \"lib/solmate.git/src/tokens/ERC1155.sol\":5570:5801  to.code.length == 0... */\n    tag_213:\n        /* \"lib/solmate.git/src/tokens/ERC1155.sol\":5548:5845  require(... */\n      tag_214\n      jumpi\n      mload(0x40)\n      shl(0xe5, 0x461bcd)\n      dup2\n      mstore\n      0x04\n      add\n      tag_101\n      swap1\n      tag_131\n      jump\t// in\n    tag_214:\n        /* \"lib/solmate.git/src/tokens/ERC1155.sol\":5291:5853  function _mint(... */\n      pop\n      pop\n      pop\n      pop\n      jump\t// out\n        /* \"#utility.yul\":14:187   */\n    tag_217:\n        /* \"#utility.yul\":82:102   */\n      dup1\n      calldataload\n      sub(shl(0xa0, 0x01), 0x01)\n        /* \"#utility.yul\":131:162   */\n      dup2\n      and\n        /* \"#utility.yul\":121:163   */\n      dup2\n      eq\n        /* \"#utility.yul\":111:181   */\n      tag_228\n      jumpi\n        /* \"#utility.yul\":177:178   */\n      0x00\n        /* \"#utility.yul\":174:175   */\n      dup1\n        /* \"#utility.yul\":167:179   */\n      revert\n        /* \"#utility.yul\":111:181   */\n    tag_228:\n        /* \"#utility.yul\":14:187   */\n      swap2\n      swap1\n      pop\n      jump\t// out\n        /* \"#utility.yul\":192:446   */\n    tag_23:\n        /* \"#utility.yul\":260:266   */\n      0x00\n        /* \"#utility.yul\":268:274   */\n      dup1\n        /* \"#utility.yul\":321:323   */\n      0x40\n        /* \"#utility.yul\":309:318   */\n      dup4\n        /* \"#utility.yul\":300:307   */\n      dup6\n        /* \"#utility.yul\":296:319   */\n      sub\n        /* \"#utility.yul\":292:324   */\n      slt\n        /* \"#utility.yul\":289:341   */\n      iszero\n      tag_230\n      jumpi\n        /* \"#utility.yul\":337:338   */\n      0x00\n        /* \"#utility.yul\":334:335   */\n      dup1\n        /* \"#utility.yul\":327:339   */\n      revert\n        /* \"#utility.yul\":289:341   */\n    tag_230:\n        /* \"#utility.yul\":360:389   */\n      tag_231\n        /* \"#utility.yul\":379:388   */\n      dup4\n        /* \"#utility.yul\":360:389   */\n      tag_217\n      jump\t// in\n    tag_231:\n        /* \"#utility.yul\":350:389   */\n      swap5\n        /* \"#utility.yul\":436:438   */\n      0x20\n        /* \"#utility.yul\":421:439   */\n      swap4\n      swap1\n      swap4\n      add\n        /* \"#utility.yul\":408:440   */\n      calldataload\n      swap4\n      pop\n      pop\n      pop\n        /* \"#utility.yul\":192:446   */\n      jump\t// out\n        /* \"#utility.yul\":633:764   */\n    tag_218:\n      not(sub(shl(0xe0, 0x01), 0x01))\n        /* \"#utility.yul\":707:739   */\n      dup2\n      and\n        /* \"#utility.yul\":697:740   */\n      dup2\n      eq\n        /* \"#utility.yul\":687:758   */\n      tag_234\n      jumpi\n        /* \"#utility.yul\":754:755   */\n      0x00\n        /* \"#utility.yul\":751:752   */\n      dup1\n        /* \"#utility.yul\":744:756   */\n      revert\n        /* \"#utility.yul\":687:758   */\n    tag_234:\n        /* \"#utility.yul\":633:764   */\n      pop\n      jump\t// out\n        /* \"#utility.yul\":769:1014   */\n    tag_29:\n        /* \"#utility.yul\":827:833   */\n      0x00\n        /* \"#utility.yul\":880:882   */\n      0x20\n        /* \"#utility.yul\":868:877   */\n      dup3\n        /* \"#utility.yul\":859:866   */\n      dup5\n        /* \"#utility.yul\":855:878   */\n      sub\n        /* \"#utility.yul\":851:883   */\n      slt\n        /* \"#utility.yul\":848:900   */\n      iszero\n      tag_236\n      jumpi\n        /* \"#utility.yul\":896:897   */\n      0x00\n        /* \"#utility.yul\":893:894   */\n      dup1\n        /* \"#utility.yul\":886:898   */\n      revert\n        /* \"#utility.yul\":848:900   */\n    tag_236:\n        /* \"#utility.yul\":935:944   */\n      dup2\n        /* \"#utility.yul\":922:945   */\n      calldataload\n        /* \"#utility.yul\":954:984   */\n      tag_237\n        /* \"#utility.yul\":978:983   */\n      dup2\n        /* \"#utility.yul\":954:984   */\n      tag_218\n      jump\t// in\n    tag_237:\n        /* \"#utility.yul\":1003:1008   */\n      swap4\n        /* \"#utility.yul\":769:1014   */\n      swap3\n      pop\n      pop\n      pop\n      jump\t// out\n        /* \"#utility.yul\":1211:1391   */\n    tag_35:\n        /* \"#utility.yul\":1270:1276   */\n      0x00\n        /* \"#utility.yul\":1323:1325   */\n      0x20\n        /* \"#utility.yul\":1311:1320   */\n      dup3\n        /* \"#utility.yul\":1302:1309   */\n      dup5\n        /* \"#utility.yul\":1298:1321   */\n      sub\n        /* \"#utility.yul\":1294:1326   */\n      slt\n        /* \"#utility.yul\":1291:1343   */\n      iszero\n      tag_240\n      jumpi\n        /* \"#utility.yul\":1339:1340   */\n      0x00\n        /* \"#utility.yul\":1336:1337   */\n      dup1\n        /* \"#utility.yul\":1329:1341   */\n      revert\n        /* \"#utility.yul\":1291:1343   */\n    tag_240:\n      pop\n        /* \"#utility.yul\":1362:1385   */\n      calldataload\n      swap2\n        /* \"#utility.yul\":1211:1391   */\n      swap1\n      pop\n      jump\t// out\n        /* \"#utility.yul\":1396:1646   */\n    tag_219:\n        /* \"#utility.yul\":1481:1482   */\n      0x00\n        /* \"#utility.yul\":1491:1604   */\n    tag_242:\n        /* \"#utility.yul\":1505:1511   */\n      dup4\n        /* \"#utility.yul\":1502:1503   */\n      dup2\n        /* \"#utility.yul\":1499:1512   */\n      lt\n        /* \"#utility.yul\":1491:1604   */\n      iszero\n      tag_244\n      jumpi\n        /* \"#utility.yul\":1581:1592   */\n      dup2\n      dup2\n      add\n        /* \"#utility.yul\":1575:1593   */\n      mload\n        /* \"#utility.yul\":1562:1573   */\n      dup4\n      dup3\n      add\n        /* \"#utility.yul\":1555:1594   */\n      mstore\n        /* \"#utility.yul\":1527:1529   */\n      0x20\n        /* \"#utility.yul\":1520:1530   */\n      add\n        /* \"#utility.yul\":1491:1604   */\n      jump(tag_242)\n    tag_244:\n      pop\n      pop\n        /* \"#utility.yul\":1638:1639   */\n      0x00\n        /* \"#utility.yul\":1620:1636   */\n      swap2\n      add\n        /* \"#utility.yul\":1613:1640   */\n      mstore\n        /* \"#utility.yul\":1396:1646   */\n      jump\t// out\n        /* \"#utility.yul\":1651:1922   */\n    tag_220:\n        /* \"#utility.yul\":1693:1696   */\n      0x00\n        /* \"#utility.yul\":1731:1736   */\n      dup2\n        /* \"#utility.yul\":1725:1737   */\n      mload\n        /* \"#utility.yul\":1758:1764   */\n      dup1\n        /* \"#utility.yul\":1753:1756   */\n      dup5\n        /* \"#utility.yul\":1746:1765   */\n      mstore\n        /* \"#utility.yul\":1774:1850   */\n      tag_246\n        /* \"#utility.yul\":1843:1849   */\n      dup2\n        /* \"#utility.yul\":1836:1840   */\n      0x20\n        /* \"#utility.yul\":1831:1834   */\n      dup7\n        /* \"#utility.yul\":1827:1841   */\n      add\n        /* \"#utility.yul\":1820:1824   */\n      0x20\n        /* \"#utility.yul\":1813:1818   */\n      dup7\n        /* \"#utility.yul\":1809:1825   */\n      add\n        /* \"#utility.yul\":1774:1850   */\n      tag_219\n      jump\t// in\n    tag_246:\n        /* \"#utility.yul\":1904:1906   */\n      0x1f\n        /* \"#utility.yul\":1883:1898   */\n      add\n      not(0x1f)\n        /* \"#utility.yul\":1879:1908   */\n      and\n        /* \"#utility.yul\":1870:1909   */\n      swap3\n      swap1\n      swap3\n      add\n        /* \"#utility.yul\":1911:1915   */\n      0x20\n        /* \"#utility.yul\":1866:1916   */\n      add\n      swap3\n        /* \"#utility.yul\":1651:1922   */\n      swap2\n      pop\n      pop\n      jump\t// out\n        /* \"#utility.yul\":1927:2147   */\n    tag_38:\n        /* \"#utility.yul\":2076:2078   */\n      0x20\n        /* \"#utility.yul\":2065:2074   */\n      dup2\n        /* \"#utility.yul\":2058:2079   */\n      mstore\n        /* \"#utility.yul\":2039:2043   */\n      0x00\n        /* \"#utility.yul\":2096:2141   */\n      tag_237\n        /* \"#utility.yul\":2137:2139   */\n      0x20\n        /* \"#utility.yul\":2126:2135   */\n      dup4\n        /* \"#utility.yul\":2122:2140   */\n      add\n        /* \"#utility.yul\":2114:2120   */\n      dup5\n        /* \"#utility.yul\":2096:2141   */\n      tag_220\n      jump\t// in\n        /* \"#utility.yul\":2152:2519   */\n    tag_221:\n        /* \"#utility.yul\":2215:2223   */\n      0x00\n        /* \"#utility.yul\":2225:2231   */\n      dup1\n        /* \"#utility.yul\":2279:2282   */\n      dup4\n        /* \"#utility.yul\":2272:2276   */\n      0x1f\n        /* \"#utility.yul\":2264:2270   */\n      dup5\n        /* \"#utility.yul\":2260:2277   */\n      add\n        /* \"#utility.yul\":2256:2283   */\n      slt\n        /* \"#utility.yul\":2246:2301   */\n      tag_250\n      jumpi\n        /* \"#utility.yul\":2297:2298   */\n      0x00\n        /* \"#utility.yul\":2294:2295   */\n      dup1\n        /* \"#utility.yul\":2287:2299   */\n      revert\n        /* \"#utility.yul\":2246:2301   */\n    tag_250:\n      pop\n        /* \"#utility.yul\":2320:2340   */\n      dup2\n      calldataload\n        /* \"#utility.yul\":2363:2381   */\n      0xffffffffffffffff\n        /* \"#utility.yul\":2352:2382   */\n      dup2\n      gt\n        /* \"#utility.yul\":2349:2399   */\n      iszero\n      tag_251\n      jumpi\n        /* \"#utility.yul\":2395:2396   */\n      0x00\n        /* \"#utility.yul\":2392:2393   */\n      dup1\n        /* \"#utility.yul\":2385:2397   */\n      revert\n        /* \"#utility.yul\":2349:2399   */\n    tag_251:\n        /* \"#utility.yul\":2432:2436   */\n      0x20\n        /* \"#utility.yul\":2424:2430   */\n      dup4\n        /* \"#utility.yul\":2420:2437   */\n      add\n        /* \"#utility.yul\":2408:2437   */\n      swap2\n      pop\n        /* \"#utility.yul\":2492:2495   */\n      dup4\n        /* \"#utility.yul\":2485:2489   */\n      0x20\n        /* \"#utility.yul\":2475:2481   */\n      dup3\n        /* \"#utility.yul\":2472:2473   */\n      0x05\n        /* \"#utility.yul\":2468:2482   */\n      shl\n        /* \"#utility.yul\":2460:2466   */\n      dup6\n        /* \"#utility.yul\":2456:2483   */\n      add\n        /* \"#utility.yul\":2452:2490   */\n      add\n        /* \"#utility.yul\":2449:2496   */\n      gt\n        /* \"#utility.yul\":2446:2513   */\n      iszero\n      tag_252\n      jumpi\n        /* \"#utility.yul\":2509:2510   */\n      0x00\n        /* \"#utility.yul\":2506:2507   */\n      dup1\n        /* \"#utility.yul\":2499:2511   */\n      revert\n        /* \"#utility.yul\":2446:2513   */\n    tag_252:\n        /* \"#utility.yul\":2152:2519   */\n      swap3\n      pop\n      swap3\n      swap1\n      pop\n      jump\t// out\n        /* \"#utility.yul\":2524:2871   */\n    tag_222:\n        /* \"#utility.yul\":2575:2583   */\n      0x00\n        /* \"#utility.yul\":2585:2591   */\n      dup1\n        /* \"#utility.yul\":2639:2642   */\n      dup4\n        /* \"#utility.yul\":2632:2636   */\n      0x1f\n        /* \"#utility.yul\":2624:2630   */\n      dup5\n        /* \"#utility.yul\":2620:2637   */\n      add\n        /* \"#utility.yul\":2616:2643   */\n      slt\n        /* \"#utility.yul\":2606:2661   */\n      tag_254\n      jumpi\n        /* \"#utility.yul\":2657:2658   */\n      0x00\n        /* \"#utility.yul\":2654:2655   */\n      dup1\n        /* \"#utility.yul\":2647:2659   */\n      revert\n        /* \"#utility.yul\":2606:2661   */\n    tag_254:\n      pop\n        /* \"#utility.yul\":2680:2700   */\n      dup2\n      calldataload\n        /* \"#utility.yul\":2723:2741   */\n      0xffffffffffffffff\n        /* \"#utility.yul\":2712:2742   */\n      dup2\n      gt\n        /* \"#utility.yul\":2709:2759   */\n      iszero\n      tag_255\n      jumpi\n        /* \"#utility.yul\":2755:2756   */\n      0x00\n        /* \"#utility.yul\":2752:2753   */\n      dup1\n        /* \"#utility.yul\":2745:2757   */\n      revert\n        /* \"#utility.yul\":2709:2759   */\n    tag_255:\n        /* \"#utility.yul\":2792:2796   */\n      0x20\n        /* \"#utility.yul\":2784:2790   */\n      dup4\n        /* \"#utility.yul\":2780:2797   */\n      add\n        /* \"#utility.yul\":2768:2797   */\n      swap2\n      pop\n        /* \"#utility.yul\":2844:2847   */\n      dup4\n        /* \"#utility.yul\":2837:2841   */\n      0x20\n        /* \"#utility.yul\":2828:2834   */\n      dup3\n        /* \"#utility.yul\":2820:2826   */\n      dup6\n        /* \"#utility.yul\":2816:2835   */\n      add\n        /* \"#utility.yul\":2812:2842   */\n      add\n        /* \"#utility.yul\":2809:2848   */\n      gt\n        /* \"#utility.yul\":2806:2865   */\n      iszero\n      tag_252\n      jumpi\n        /* \"#utility.yul\":2861:2862   */\n      0x00\n        /* \"#utility.yul\":2858:2859   */\n      dup1\n        /* \"#utility.yul\":2851:2863   */\n      revert\n        /* \"#utility.yul\":2876:4086   */\n    tag_41:\n        /* \"#utility.yul\":3036:3042   */\n      0x00\n        /* \"#utility.yul\":3044:3050   */\n      dup1\n        /* \"#utility.yul\":3052:3058   */\n      0x00\n        /* \"#utility.yul\":3060:3066   */\n      dup1\n        /* \"#utility.yul\":3068:3074   */\n      0x00\n        /* \"#utility.yul\":3076:3082   */\n      dup1\n        /* \"#utility.yul\":3084:3090   */\n      0x00\n        /* \"#utility.yul\":3092:3098   */\n      dup1\n        /* \"#utility.yul\":3145:3148   */\n      0xa0\n        /* \"#utility.yul\":3133:3142   */\n      dup10\n        /* \"#utility.yul\":3124:3131   */\n      dup12\n        /* \"#utility.yul\":3120:3143   */\n      sub\n        /* \"#utility.yul\":3116:3149   */\n      slt\n        /* \"#utility.yul\":3113:3166   */\n      iszero\n      tag_258\n      jumpi\n        /* \"#utility.yul\":3162:3163   */\n      0x00\n        /* \"#utility.yul\":3159:3160   */\n      dup1\n        /* \"#utility.yul\":3152:3164   */\n      revert\n        /* \"#utility.yul\":3113:3166   */\n    tag_258:\n        /* \"#utility.yul\":3185:3214   */\n      tag_259\n        /* \"#utility.yul\":3204:3213   */\n      dup10\n        /* \"#utility.yul\":3185:3214   */\n      tag_217\n      jump\t// in\n    tag_259:\n        /* \"#utility.yul\":3175:3214   */\n      swap8\n      pop\n        /* \"#utility.yul\":3233:3271   */\n      tag_260\n        /* \"#utility.yul\":3267:3269   */\n      0x20\n        /* \"#utility.yul\":3256:3265   */\n      dup11\n        /* \"#utility.yul\":3252:3270   */\n      add\n        /* \"#utility.yul\":3233:3271   */\n      tag_217\n      jump\t// in\n    tag_260:\n        /* \"#utility.yul\":3223:3271   */\n      swap7\n      pop\n        /* \"#utility.yul\":3322:3324   */\n      0x40\n        /* \"#utility.yul\":3311:3320   */\n      dup10\n        /* \"#utility.yul\":3307:3325   */\n      add\n        /* \"#utility.yul\":3294:3326   */\n      calldataload\n        /* \"#utility.yul\":3345:3363   */\n      0xffffffffffffffff\n        /* \"#utility.yul\":3386:3388   */\n      dup1\n        /* \"#utility.yul\":3378:3384   */\n      dup3\n        /* \"#utility.yul\":3375:3389   */\n      gt\n        /* \"#utility.yul\":3372:3406   */\n      iszero\n      tag_261\n      jumpi\n        /* \"#utility.yul\":3402:3403   */\n      0x00\n        /* \"#utility.yul\":3399:3400   */\n      dup1\n        /* \"#utility.yul\":3392:3404   */\n      revert\n        /* \"#utility.yul\":3372:3406   */\n    tag_261:\n        /* \"#utility.yul\":3441:3511   */\n      tag_262\n        /* \"#utility.yul\":3503:3510   */\n      dup13\n        /* \"#utility.yul\":3494:3500   */\n      dup4\n        /* \"#utility.yul\":3483:3492   */\n      dup14\n        /* \"#utility.yul\":3479:3501   */\n      add\n        /* \"#utility.yul\":3441:3511   */\n      tag_221\n      jump\t// in\n    tag_262:\n        /* \"#utility.yul\":3530:3538   */\n      swap1\n      swap9\n      pop\n        /* \"#utility.yul\":3415:3511   */\n      swap7\n      pop\n        /* \"#utility.yul\":3618:3620   */\n      0x60\n        /* \"#utility.yul\":3603:3621   */\n      dup12\n      add\n        /* \"#utility.yul\":3590:3622   */\n      calldataload\n      swap2\n      pop\n        /* \"#utility.yul\":3634:3650   */\n      dup1\n      dup3\n      gt\n        /* \"#utility.yul\":3631:3667   */\n      iszero\n      tag_263\n      jumpi\n        /* \"#utility.yul\":3663:3664   */\n      0x00\n        /* \"#utility.yul\":3660:3661   */\n      dup1\n        /* \"#utility.yul\":3653:3665   */\n      revert\n        /* \"#utility.yul\":3631:3667   */\n    tag_263:\n        /* \"#utility.yul\":3702:3774   */\n      tag_264\n        /* \"#utility.yul\":3766:3773   */\n      dup13\n        /* \"#utility.yul\":3755:3763   */\n      dup4\n        /* \"#utility.yul\":3744:3753   */\n      dup14\n        /* \"#utility.yul\":3740:3764   */\n      add\n        /* \"#utility.yul\":3702:3774   */\n      tag_221\n      jump\t// in\n    tag_264:\n        /* \"#utility.yul\":3793:3801   */\n      swap1\n      swap7\n      pop\n        /* \"#utility.yul\":3676:3774   */\n      swap5\n      pop\n        /* \"#utility.yul\":3881:3884   */\n      0x80\n        /* \"#utility.yul\":3866:3885   */\n      dup12\n      add\n        /* \"#utility.yul\":3853:3886   */\n      calldataload\n      swap2\n      pop\n        /* \"#utility.yul\":3898:3914   */\n      dup1\n      dup3\n      gt\n        /* \"#utility.yul\":3895:3931   */\n      iszero\n      tag_265\n      jumpi\n        /* \"#utility.yul\":3927:3928   */\n      0x00\n        /* \"#utility.yul\":3924:3925   */\n      dup1\n        /* \"#utility.yul\":3917:3929   */\n      revert\n        /* \"#utility.yul\":3895:3931   */\n    tag_265:\n      pop\n        /* \"#utility.yul\":3966:4026   */\n      tag_266\n        /* \"#utility.yul\":4018:4025   */\n      dup12\n        /* \"#utility.yul\":4007:4015   */\n      dup3\n        /* \"#utility.yul\":3996:4005   */\n      dup13\n        /* \"#utility.yul\":3992:4016   */\n      add\n        /* \"#utility.yul\":3966:4026   */\n      tag_222\n      jump\t// in\n    tag_266:\n        /* \"#utility.yul\":2876:4086   */\n      swap10\n      swap13\n      swap9\n      swap12\n      pop\n      swap7\n      swap10\n      pop\n      swap5\n      swap8\n      swap4\n      swap7\n      swap3\n      swap6\n        /* \"#utility.yul\":4045:4053   */\n      swap5\n      pop\n      pop\n      pop\n        /* \"#utility.yul\":2876:4086   */\n      jump\t// out\n        /* \"#utility.yul\":4273:4778   */\n    tag_49:\n        /* \"#utility.yul\":4368:4374   */\n      0x00\n        /* \"#utility.yul\":4376:4382   */\n      dup1\n        /* \"#utility.yul\":4384:4390   */\n      0x00\n        /* \"#utility.yul\":4437:4439   */\n      0x40\n        /* \"#utility.yul\":4425:4434   */\n      dup5\n        /* \"#utility.yul\":4416:4423   */\n      dup7\n        /* \"#utility.yul\":4412:4435   */\n      sub\n        /* \"#utility.yul\":4408:4440   */\n      slt\n        /* \"#utility.yul\":4405:4457   */\n      iszero\n      tag_269\n      jumpi\n        /* \"#utility.yul\":4453:4454   */\n      0x00\n        /* \"#utility.yul\":4450:4451   */\n      dup1\n        /* \"#utility.yul\":4443:4455   */\n      revert\n        /* \"#utility.yul\":4405:4457   */\n    tag_269:\n        /* \"#utility.yul\":4493:4502   */\n      dup4\n        /* \"#utility.yul\":4480:4503   */\n      calldataload\n        /* \"#utility.yul\":4526:4544   */\n      0xffffffffffffffff\n        /* \"#utility.yul\":4518:4524   */\n      dup2\n        /* \"#utility.yul\":4515:4545   */\n      gt\n        /* \"#utility.yul\":4512:4562   */\n      iszero\n      tag_270\n      jumpi\n        /* \"#utility.yul\":4558:4559   */\n      0x00\n        /* \"#utility.yul\":4555:4556   */\n      dup1\n        /* \"#utility.yul\":4548:4560   */\n      revert\n        /* \"#utility.yul\":4512:4562   */\n    tag_270:\n        /* \"#utility.yul\":4597:4667   */\n      tag_271\n        /* \"#utility.yul\":4659:4666   */\n      dup7\n        /* \"#utility.yul\":4650:4656   */\n      dup3\n        /* \"#utility.yul\":4639:4648   */\n      dup8\n        /* \"#utility.yul\":4635:4657   */\n      add\n        /* \"#utility.yul\":4597:4667   */\n      tag_221\n      jump\t// in\n    tag_271:\n        /* \"#utility.yul\":4686:4694   */\n      swap1\n      swap8\n        /* \"#utility.yul\":4571:4667   */\n      swap1\n      swap7\n      pop\n        /* \"#utility.yul\":4768:4770   */\n      0x20\n        /* \"#utility.yul\":4753:4771   */\n      swap6\n      swap1\n      swap6\n      add\n        /* \"#utility.yul\":4740:4772   */\n      calldataload\n      swap5\n        /* \"#utility.yul\":4273:4778   */\n      swap4\n      pop\n      pop\n      pop\n      pop\n      jump\t// out\n        /* \"#utility.yul\":4783:5556   */\n    tag_53:\n        /* \"#utility.yul\":4905:4911   */\n      0x00\n        /* \"#utility.yul\":4913:4919   */\n      dup1\n        /* \"#utility.yul\":4921:4927   */\n      0x00\n        /* \"#utility.yul\":4929:4935   */\n      dup1\n        /* \"#utility.yul\":4982:4984   */\n      0x40\n        /* \"#utility.yul\":4970:4979   */\n      dup6\n        /* \"#utility.yul\":4961:4968   */\n      dup8\n        /* \"#utility.yul\":4957:4980   */\n      sub\n        /* \"#utility.yul\":4953:4985   */\n      slt\n        /* \"#utility.yul\":4950:5002   */\n      iszero\n      tag_273\n      jumpi\n        /* \"#utility.yul\":4998:4999   */\n      0x00\n        /* \"#utility.yul\":4995:4996   */\n      dup1\n        /* \"#utility.yul\":4988:5000   */\n      revert\n        /* \"#utility.yul\":4950:5002   */\n    tag_273:\n        /* \"#utility.yul\":5038:5047   */\n      dup5\n        /* \"#utility.yul\":5025:5048   */\n      calldataload\n        /* \"#utility.yul\":5067:5085   */\n      0xffffffffffffffff\n        /* \"#utility.yul\":5108:5110   */\n      dup1\n        /* \"#utility.yul\":5100:5106   */\n      dup3\n        /* \"#utility.yul\":5097:5111   */\n      gt\n        /* \"#utility.yul\":5094:5128   */\n      iszero\n      tag_274\n      jumpi\n        /* \"#utility.yul\":5124:5125   */\n      0x00\n        /* \"#utility.yul\":5121:5122   */\n      dup1\n        /* \"#utility.yul\":5114:5126   */\n      revert\n        /* \"#utility.yul\":5094:5128   */\n    tag_274:\n        /* \"#utility.yul\":5163:5233   */\n      tag_275\n        /* \"#utility.yul\":5225:5232   */\n      dup9\n        /* \"#utility.yul\":5216:5222   */\n      dup4\n        /* \"#utility.yul\":5205:5214   */\n      dup10\n        /* \"#utility.yul\":5201:5223   */\n      add\n        /* \"#utility.yul\":5163:5233   */\n      tag_221\n      jump\t// in\n    tag_275:\n        /* \"#utility.yul\":5252:5260   */\n      swap1\n      swap7\n      pop\n        /* \"#utility.yul\":5137:5233   */\n      swap5\n      pop\n        /* \"#utility.yul\":5340:5342   */\n      0x20\n        /* \"#utility.yul\":5325:5343   */\n      dup8\n      add\n        /* \"#utility.yul\":5312:5344   */\n      calldataload\n      swap2\n      pop\n        /* \"#utility.yul\":5356:5372   */\n      dup1\n      dup3\n      gt\n        /* \"#utility.yul\":5353:5389   */\n      iszero\n      tag_276\n      jumpi\n        /* \"#utility.yul\":5385:5386   */\n      0x00\n        /* \"#utility.yul\":5382:5383   */\n      dup1\n        /* \"#utility.yul\":5375:5387   */\n      revert\n        /* \"#utility.yul\":5353:5389   */\n    tag_276:\n      pop\n        /* \"#utility.yul\":5424:5496   */\n      tag_277\n        /* \"#utility.yul\":5488:5495   */\n      dup8\n        /* \"#utility.yul\":5477:5485   */\n      dup3\n        /* \"#utility.yul\":5466:5475   */\n      dup9\n        /* \"#utility.yul\":5462:5486   */\n      add\n        /* \"#utility.yul\":5424:5496   */\n      tag_221\n      jump\t// in\n    tag_277:\n        /* \"#utility.yul\":4783:5556   */\n      swap6\n      swap9\n      swap5\n      swap8\n      pop\n        /* \"#utility.yul\":5515:5523   */\n      swap6\n      pop\n      pop\n      pop\n      pop\n        /* \"#utility.yul\":4783:5556   */\n      jump\t// out\n        /* \"#utility.yul\":5561:6193   */\n    tag_56:\n        /* \"#utility.yul\":5732:5734   */\n      0x20\n        /* \"#utility.yul\":5784:5805   */\n      dup1\n      dup3\n      mstore\n        /* \"#utility.yul\":5854:5867   */\n      dup3\n      mload\n        /* \"#utility.yul\":5757:5775   */\n      dup3\n      dup3\n      add\n        /* \"#utility.yul\":5876:5898   */\n      dup2\n      swap1\n      mstore\n        /* \"#utility.yul\":5703:5707   */\n      0x00\n      swap2\n        /* \"#utility.yul\":5732:5734   */\n      swap1\n        /* \"#utility.yul\":5955:5970   */\n      dup5\n      dup3\n      add\n      swap1\n        /* \"#utility.yul\":5929:5931   */\n      0x40\n        /* \"#utility.yul\":5914:5932   */\n      dup6\n      add\n      swap1\n        /* \"#utility.yul\":5703:5707   */\n      dup5\n        /* \"#utility.yul\":5998:6167   */\n    tag_279:\n        /* \"#utility.yul\":6012:6018   */\n      dup2\n        /* \"#utility.yul\":6009:6010   */\n      dup2\n        /* \"#utility.yul\":6006:6019   */\n      lt\n        /* \"#utility.yul\":5998:6167   */\n      iszero\n      tag_281\n      jumpi\n        /* \"#utility.yul\":6073:6086   */\n      dup4\n      mload\n        /* \"#utility.yul\":6061:6087   */\n      dup4\n      mstore\n        /* \"#utility.yul\":6142:6157   */\n      swap3\n      dup5\n      add\n      swap3\n        /* \"#utility.yul\":6107:6119   */\n      swap2\n      dup5\n      add\n      swap2\n        /* \"#utility.yul\":6034:6035   */\n      0x01\n        /* \"#utility.yul\":6027:6036   */\n      add\n        /* \"#utility.yul\":5998:6167   */\n      jump(tag_279)\n    tag_281:\n      pop\n        /* \"#utility.yul\":6184:6187   */\n      swap1\n      swap7\n        /* \"#utility.yul\":5561:6193   */\n      swap6\n      pop\n      pop\n      pop\n      pop\n      pop\n      pop\n      jump\t// out\n        /* \"#utility.yul\":6591:6938   */\n    tag_67:\n        /* \"#utility.yul\":6656:6662   */\n      0x00\n        /* \"#utility.yul\":6664:6670   */\n      dup1\n        /* \"#utility.yul\":6717:6719   */\n      0x40\n        /* \"#utility.yul\":6705:6714   */\n      dup4\n        /* \"#utility.yul\":6696:6703   */\n      dup6\n        /* \"#utility.yul\":6692:6715   */\n      sub\n        /* \"#utility.yul\":6688:6720   */\n      slt\n        /* \"#utility.yul\":6685:6737   */\n      iszero\n      tag_286\n      jumpi\n        /* \"#utility.yul\":6733:6734   */\n      0x00\n        /* \"#utility.yul\":6730:6731   */\n      dup1\n        /* \"#utility.yul\":6723:6735   */\n      revert\n        /* \"#utility.yul\":6685:6737   */\n    tag_286:\n        /* \"#utility.yul\":6756:6785   */\n      tag_287\n        /* \"#utility.yul\":6775:6784   */\n      dup4\n        /* \"#utility.yul\":6756:6785   */\n      tag_217\n      jump\t// in\n    tag_287:\n        /* \"#utility.yul\":6746:6785   */\n      swap2\n      pop\n        /* \"#utility.yul\":6835:6837   */\n      0x20\n        /* \"#utility.yul\":6824:6833   */\n      dup4\n        /* \"#utility.yul\":6820:6838   */\n      add\n        /* \"#utility.yul\":6807:6839   */\n      calldataload\n        /* \"#utility.yul\":6882:6887   */\n      dup1\n        /* \"#utility.yul\":6875:6888   */\n      iszero\n        /* \"#utility.yul\":6868:6889   */\n      iszero\n        /* \"#utility.yul\":6861:6866   */\n      dup2\n        /* \"#utility.yul\":6858:6890   */\n      eq\n        /* \"#utility.yul\":6848:6908   */\n      tag_288\n      jumpi\n        /* \"#utility.yul\":6904:6905   */\n      0x00\n        /* \"#utility.yul\":6901:6902   */\n      dup1\n        /* \"#utility.yul\":6894:6906   */\n      revert\n        /* \"#utility.yul\":6848:6908   */\n    tag_288:\n        /* \"#utility.yul\":6927:6932   */\n      dup1\n        /* \"#utility.yul\":6917:6932   */\n      swap2\n      pop\n      pop\n        /* \"#utility.yul\":6591:6938   */\n      swap3\n      pop\n      swap3\n      swap1\n      pop\n      jump\t// out\n        /* \"#utility.yul\":6943:7129   */\n    tag_74:\n        /* \"#utility.yul\":7002:7008   */\n      0x00\n        /* \"#utility.yul\":7055:7057   */\n      0x20\n        /* \"#utility.yul\":7043:7052   */\n      dup3\n        /* \"#utility.yul\":7034:7041   */\n      dup5\n        /* \"#utility.yul\":7030:7053   */\n      sub\n        /* \"#utility.yul\":7026:7058   */\n      slt\n        /* \"#utility.yul\":7023:7075   */\n      iszero\n      tag_290\n      jumpi\n        /* \"#utility.yul\":7071:7072   */\n      0x00\n        /* \"#utility.yul\":7068:7069   */\n      dup1\n        /* \"#utility.yul\":7061:7073   */\n      revert\n        /* \"#utility.yul\":7023:7075   */\n    tag_290:\n        /* \"#utility.yul\":7094:7123   */\n      tag_237\n        /* \"#utility.yul\":7113:7122   */\n      dup3\n        /* \"#utility.yul\":7094:7123   */\n      tag_217\n      jump\t// in\n        /* \"#utility.yul\":7134:7394   */\n    tag_78:\n        /* \"#utility.yul\":7202:7208   */\n      0x00\n        /* \"#utility.yul\":7210:7216   */\n      dup1\n        /* \"#utility.yul\":7263:7265   */\n      0x40\n        /* \"#utility.yul\":7251:7260   */\n      dup4\n        /* \"#utility.yul\":7242:7249   */\n      dup6\n        /* \"#utility.yul\":7238:7261   */\n      sub\n        /* \"#utility.yul\":7234:7266   */\n      slt\n        /* \"#utility.yul\":7231:7283   */\n      iszero\n      tag_293\n      jumpi\n        /* \"#utility.yul\":7279:7280   */\n      0x00\n        /* \"#utility.yul\":7276:7277   */\n      dup1\n        /* \"#utility.yul\":7269:7281   */\n      revert\n        /* \"#utility.yul\":7231:7283   */\n    tag_293:\n        /* \"#utility.yul\":7302:7331   */\n      tag_294\n        /* \"#utility.yul\":7321:7330   */\n      dup4\n        /* \"#utility.yul\":7302:7331   */\n      tag_217\n      jump\t// in\n    tag_294:\n        /* \"#utility.yul\":7292:7331   */\n      swap2\n      pop\n        /* \"#utility.yul\":7350:7388   */\n      tag_295\n        /* \"#utility.yul\":7384:7386   */\n      0x20\n        /* \"#utility.yul\":7373:7382   */\n      dup5\n        /* \"#utility.yul\":7369:7387   */\n      add\n        /* \"#utility.yul\":7350:7388   */\n      tag_217\n      jump\t// in\n    tag_295:\n        /* \"#utility.yul\":7340:7388   */\n      swap1\n      pop\n        /* \"#utility.yul\":7134:7394   */\n      swap3\n      pop\n      swap3\n      swap1\n      pop\n      jump\t// out\n        /* \"#utility.yul\":7399:8094   */\n    tag_83:\n        /* \"#utility.yul\":7505:7511   */\n      0x00\n        /* \"#utility.yul\":7513:7519   */\n      dup1\n        /* \"#utility.yul\":7521:7527   */\n      0x00\n        /* \"#utility.yul\":7529:7535   */\n      dup1\n        /* \"#utility.yul\":7537:7543   */\n      0x00\n        /* \"#utility.yul\":7545:7551   */\n      dup1\n        /* \"#utility.yul\":7598:7601   */\n      0xa0\n        /* \"#utility.yul\":7586:7595   */\n      dup8\n        /* \"#utility.yul\":7577:7584   */\n      dup10\n        /* \"#utility.yul\":7573:7596   */\n      sub\n        /* \"#utility.yul\":7569:7602   */\n      slt\n        /* \"#utility.yul\":7566:7619   */\n      iszero\n      tag_297\n      jumpi\n        /* \"#utility.yul\":7615:7616   */\n      0x00\n        /* \"#utility.yul\":7612:7613   */\n      dup1\n        /* \"#utility.yul\":7605:7617   */\n      revert\n        /* \"#utility.yul\":7566:7619   */\n    tag_297:\n        /* \"#utility.yul\":7638:7667   */\n      tag_298\n        /* \"#utility.yul\":7657:7666   */\n      dup8\n        /* \"#utility.yul\":7638:7667   */\n      tag_217\n      jump\t// in\n    tag_298:\n        /* \"#utility.yul\":7628:7667   */\n      swap6\n      pop\n        /* \"#utility.yul\":7686:7724   */\n      tag_299\n        /* \"#utility.yul\":7720:7722   */\n      0x20\n        /* \"#utility.yul\":7709:7718   */\n      dup9\n        /* \"#utility.yul\":7705:7723   */\n      add\n        /* \"#utility.yul\":7686:7724   */\n      tag_217\n      jump\t// in\n    tag_299:\n        /* \"#utility.yul\":7676:7724   */\n      swap5\n      pop\n        /* \"#utility.yul\":7771:7773   */\n      0x40\n        /* \"#utility.yul\":7760:7769   */\n      dup8\n        /* \"#utility.yul\":7756:7774   */\n      add\n        /* \"#utility.yul\":7743:7775   */\n      calldataload\n        /* \"#utility.yul\":7733:7775   */\n      swap4\n      pop\n        /* \"#utility.yul\":7822:7824   */\n      0x60\n        /* \"#utility.yul\":7811:7820   */\n      dup8\n        /* \"#utility.yul\":7807:7825   */\n      add\n        /* \"#utility.yul\":7794:7826   */\n      calldataload\n        /* \"#utility.yul\":7784:7826   */\n      swap3\n      pop\n        /* \"#utility.yul\":7877:7880   */\n      0x80\n        /* \"#utility.yul\":7866:7875   */\n      dup8\n        /* \"#utility.yul\":7862:7881   */\n      add\n        /* \"#utility.yul\":7849:7882   */\n      calldataload\n        /* \"#utility.yul\":7905:7923   */\n      0xffffffffffffffff\n        /* \"#utility.yul\":7897:7903   */\n      dup2\n        /* \"#utility.yul\":7894:7924   */\n      gt\n        /* \"#utility.yul\":7891:7941   */\n      iszero\n      tag_300\n      jumpi\n        /* \"#utility.yul\":7937:7938   */\n      0x00\n        /* \"#utility.yul\":7934:7935   */\n      dup1\n        /* \"#utility.yul\":7927:7939   */\n      revert\n        /* \"#utility.yul\":7891:7941   */\n    tag_300:\n        /* \"#utility.yul\":7976:8034   */\n      tag_301\n        /* \"#utility.yul\":8026:8033   */\n      dup10\n        /* \"#utility.yul\":8017:8023   */\n      dup3\n        /* \"#utility.yul\":8006:8015   */\n      dup11\n        /* \"#utility.yul\":8002:8024   */\n      add\n        /* \"#utility.yul\":7976:8034   */\n      tag_222\n      jump\t// in\n    tag_301:\n        /* \"#utility.yul\":7399:8094   */\n      swap8\n      swap11\n      swap7\n      swap10\n      pop\n      swap5\n      swap8\n      pop\n      swap3\n      swap6\n        /* \"#utility.yul\":8053:8061   */\n      swap4\n      swap5\n        /* \"#utility.yul\":7399:8094   */\n      swap3\n      pop\n      pop\n      pop\n      jump\t// out\n        /* \"#utility.yul\":8099:8226   */\n    tag_148:\n        /* \"#utility.yul\":8160:8170   */\n      0x4e487b71\n        /* \"#utility.yul\":8155:8158   */\n      0xe0\n        /* \"#utility.yul\":8151:8171   */\n      shl\n        /* \"#utility.yul\":8148:8149   */\n      0x00\n        /* \"#utility.yul\":8141:8172   */\n      mstore\n        /* \"#utility.yul\":8191:8195   */\n      0x41\n        /* \"#utility.yul\":8188:8189   */\n      0x04\n        /* \"#utility.yul\":8181:8196   */\n      mstore\n        /* \"#utility.yul\":8215:8219   */\n      0x24\n        /* \"#utility.yul\":8212:8213   */\n      0x00\n        /* \"#utility.yul\":8205:8220   */\n      revert\n        /* \"#utility.yul\":8231:9128   */\n    tag_96:\n        /* \"#utility.yul\":8311:8317   */\n      0x00\n        /* \"#utility.yul\":8364:8366   */\n      0x20\n        /* \"#utility.yul\":8352:8361   */\n      dup3\n        /* \"#utility.yul\":8343:8350   */\n      dup5\n        /* \"#utility.yul\":8339:8362   */\n      sub\n        /* \"#utility.yul\":8335:8367   */\n      slt\n        /* \"#utility.yul\":8332:8384   */\n      iszero\n      tag_304\n      jumpi\n        /* \"#utility.yul\":8380:8381   */\n      0x00\n        /* \"#utility.yul\":8377:8378   */\n      dup1\n        /* \"#utility.yul\":8370:8382   */\n      revert\n        /* \"#utility.yul\":8332:8384   */\n    tag_304:\n        /* \"#utility.yul\":8413:8422   */\n      dup2\n        /* \"#utility.yul\":8407:8423   */\n      mload\n        /* \"#utility.yul\":8442:8460   */\n      0xffffffffffffffff\n        /* \"#utility.yul\":8483:8485   */\n      dup1\n        /* \"#utility.yul\":8475:8481   */\n      dup3\n        /* \"#utility.yul\":8472:8486   */\n      gt\n        /* \"#utility.yul\":8469:8503   */\n      iszero\n      tag_305\n      jumpi\n        /* \"#utility.yul\":8499:8500   */\n      0x00\n        /* \"#utility.yul\":8496:8497   */\n      dup1\n        /* \"#utility.yul\":8489:8501   */\n      revert\n        /* \"#utility.yul\":8469:8503   */\n    tag_305:\n        /* \"#utility.yul\":8537:8543   */\n      dup2\n        /* \"#utility.yul\":8526:8535   */\n      dup5\n        /* \"#utility.yul\":8522:8544   */\n      add\n        /* \"#utility.yul\":8512:8544   */\n      swap2\n      pop\n        /* \"#utility.yul\":8582:8589   */\n      dup5\n        /* \"#utility.yul\":8575:8579   */\n      0x1f\n        /* \"#utility.yul\":8571:8573   */\n      dup4\n        /* \"#utility.yul\":8567:8580   */\n      add\n        /* \"#utility.yul\":8563:8590   */\n      slt\n        /* \"#utility.yul\":8553:8608   */\n      tag_306\n      jumpi\n        /* \"#utility.yul\":8604:8605   */\n      0x00\n        /* \"#utility.yul\":8601:8602   */\n      dup1\n        /* \"#utility.yul\":8594:8606   */\n      revert\n        /* \"#utility.yul\":8553:8608   */\n    tag_306:\n        /* \"#utility.yul\":8633:8635   */\n      dup2\n        /* \"#utility.yul\":8627:8636   */\n      mload\n        /* \"#utility.yul\":8655:8657   */\n      dup2\n        /* \"#utility.yul\":8651:8653   */\n      dup2\n        /* \"#utility.yul\":8648:8658   */\n      gt\n        /* \"#utility.yul\":8645:8681   */\n      iszero\n      tag_308\n      jumpi\n        /* \"#utility.yul\":8661:8679   */\n      tag_308\n      tag_148\n      jump\t// in\n    tag_308:\n        /* \"#utility.yul\":8736:8738   */\n      0x40\n        /* \"#utility.yul\":8730:8739   */\n      mload\n        /* \"#utility.yul\":8704:8706   */\n      0x1f\n        /* \"#utility.yul\":8790:8803   */\n      dup3\n      add\n      not(0x1f)\n        /* \"#utility.yul\":8786:8808   */\n      swap1\n      dup2\n      and\n        /* \"#utility.yul\":8810:8812   */\n      0x3f\n        /* \"#utility.yul\":8782:8813   */\n      add\n        /* \"#utility.yul\":8778:8818   */\n      and\n        /* \"#utility.yul\":8766:8819   */\n      dup2\n      add\n      swap1\n        /* \"#utility.yul\":8834:8852   */\n      dup4\n      dup3\n      gt\n        /* \"#utility.yul\":8854:8876   */\n      dup2\n      dup4\n      lt\n        /* \"#utility.yul\":8831:8877   */\n      or\n        /* \"#utility.yul\":8828:8900   */\n      iszero\n      tag_310\n      jumpi\n        /* \"#utility.yul\":8880:8898   */\n      tag_310\n      tag_148\n      jump\t// in\n    tag_310:\n        /* \"#utility.yul\":8920:8930   */\n      dup2\n        /* \"#utility.yul\":8916:8918   */\n      0x40\n        /* \"#utility.yul\":8909:8931   */\n      mstore\n        /* \"#utility.yul\":8955:8957   */\n      dup3\n        /* \"#utility.yul\":8947:8953   */\n      dup2\n        /* \"#utility.yul\":8940:8958   */\n      mstore\n        /* \"#utility.yul\":8995:9002   */\n      dup8\n        /* \"#utility.yul\":8990:8992   */\n      0x20\n        /* \"#utility.yul\":8985:8987   */\n      dup5\n        /* \"#utility.yul\":8981:8983   */\n      dup8\n        /* \"#utility.yul\":8977:8988   */\n      add\n        /* \"#utility.yul\":8973:8993   */\n      add\n        /* \"#utility.yul\":8970:9003   */\n      gt\n        /* \"#utility.yul\":8967:9020   */\n      iszero\n      tag_311\n      jumpi\n        /* \"#utility.yul\":9016:9017   */\n      0x00\n        /* \"#utility.yul\":9013:9014   */\n      dup1\n        /* \"#utility.yul\":9006:9018   */\n      revert\n        /* \"#utility.yul\":8967:9020   */\n    tag_311:\n        /* \"#utility.yul\":9029:9097   */\n      tag_312\n        /* \"#utility.yul\":9094:9096   */\n      dup4\n        /* \"#utility.yul\":9089:9091   */\n      0x20\n        /* \"#utility.yul\":9081:9087   */\n      dup4\n        /* \"#utility.yul\":9077:9092   */\n      add\n        /* \"#utility.yul\":9072:9074   */\n      0x20\n        /* \"#utility.yul\":9068:9070   */\n      dup9\n        /* \"#utility.yul\":9064:9075   */\n      add\n        /* \"#utility.yul\":9029:9097   */\n      tag_219\n      jump\t// in\n    tag_312:\n        /* \"#utility.yul\":9116:9122   */\n      swap8\n        /* \"#utility.yul\":8231:9128   */\n      swap7\n      pop\n      pop\n      pop\n      pop\n      pop\n      pop\n      pop\n      jump\t// out\n        /* \"#utility.yul\":9133:9630   */\n    tag_98:\n        /* \"#utility.yul\":9320:9323   */\n      0x00\n        /* \"#utility.yul\":9358:9364   */\n      dup5\n        /* \"#utility.yul\":9352:9365   */\n      mload\n        /* \"#utility.yul\":9374:9440   */\n      tag_314\n        /* \"#utility.yul\":9433:9439   */\n      dup2\n        /* \"#utility.yul\":9428:9431   */\n      dup5\n        /* \"#utility.yul\":9421:9425   */\n      0x20\n        /* \"#utility.yul\":9413:9419   */\n      dup10\n        /* \"#utility.yul\":9409:9426   */\n      add\n        /* \"#utility.yul\":9374:9440   */\n      tag_219\n      jump\t// in\n    tag_314:\n        /* \"#utility.yul\":9509:9511   */\n      0x60\n        /* \"#utility.yul\":9505:9520   */\n      swap5\n      swap1\n      swap5\n      shl\n      not(0xffffffffffffffffffffffff)\n        /* \"#utility.yul\":9501:9554   */\n      and\n        /* \"#utility.yul\":9462:9478   */\n      swap2\n      swap1\n      swap4\n      add\n        /* \"#utility.yul\":9487:9555   */\n      swap1\n      dup2\n      mstore\n        /* \"#utility.yul\":9582:9584   */\n      0x14\n        /* \"#utility.yul\":9571:9585   */\n      dup2\n      add\n        /* \"#utility.yul\":9564:9594   */\n      swap2\n      swap1\n      swap2\n      mstore\n        /* \"#utility.yul\":9621:9623   */\n      0x34\n        /* \"#utility.yul\":9610:9624   */\n      add\n      swap3\n        /* \"#utility.yul\":9133:9630   */\n      swap2\n      pop\n      pop\n      jump\t// out\n        /* \"#utility.yul\":10322:10449   */\n    tag_112:\n        /* \"#utility.yul\":10383:10393   */\n      0x4e487b71\n        /* \"#utility.yul\":10378:10381   */\n      0xe0\n        /* \"#utility.yul\":10374:10394   */\n      shl\n        /* \"#utility.yul\":10371:10372   */\n      0x00\n        /* \"#utility.yul\":10364:10395   */\n      mstore\n        /* \"#utility.yul\":10414:10418   */\n      0x32\n        /* \"#utility.yul\":10411:10412   */\n      0x04\n        /* \"#utility.yul\":10404:10419   */\n      mstore\n        /* \"#utility.yul\":10438:10442   */\n      0x24\n        /* \"#utility.yul\":10435:10436   */\n      0x00\n        /* \"#utility.yul\":10428:10443   */\n      revert\n        /* \"#utility.yul\":10454:10581   */\n    tag_223:\n        /* \"#utility.yul\":10515:10525   */\n      0x4e487b71\n        /* \"#utility.yul\":10510:10513   */\n      0xe0\n        /* \"#utility.yul\":10506:10526   */\n      shl\n        /* \"#utility.yul\":10503:10504   */\n      0x00\n        /* \"#utility.yul\":10496:10527   */\n      mstore\n        /* \"#utility.yul\":10546:10550   */\n      0x11\n        /* \"#utility.yul\":10543:10544   */\n      0x04\n        /* \"#utility.yul\":10536:10551   */\n      mstore\n        /* \"#utility.yul\":10570:10574   */\n      0x24\n        /* \"#utility.yul\":10567:10568   */\n      0x00\n        /* \"#utility.yul\":10560:10575   */\n      revert\n        /* \"#utility.yul\":10586:10714   */\n    tag_116:\n        /* \"#utility.yul\":10653:10662   */\n      dup2\n      dup2\n      sub\n        /* \"#utility.yul\":10674:10685   */\n      dup2\n      dup2\n      gt\n        /* \"#utility.yul\":10671:10708   */\n      iszero\n      tag_91\n      jumpi\n        /* \"#utility.yul\":10688:10706   */\n      tag_91\n      tag_223\n      jump\t// in\n        /* \"#utility.yul\":10719:10844   */\n    tag_118:\n        /* \"#utility.yul\":10784:10793   */\n      dup1\n      dup3\n      add\n        /* \"#utility.yul\":10805:10815   */\n      dup1\n      dup3\n      gt\n        /* \"#utility.yul\":10802:10838   */\n      iszero\n      tag_91\n      jumpi\n        /* \"#utility.yul\":10818:10836   */\n      tag_91\n      tag_223\n      jump\t// in\n        /* \"#utility.yul\":10849:11160   */\n    tag_224:\n        /* \"#utility.yul\":10937:10956   */\n      dup2\n      dup4\n      mstore\n        /* \"#utility.yul\":10919:10922   */\n      0x00\n      sub(shl(0xfb, 0x01), 0x01)\n        /* \"#utility.yul\":10968:10999   */\n      dup4\n      gt\n        /* \"#utility.yul\":10965:11016   */\n      iszero\n      tag_326\n      jumpi\n        /* \"#utility.yul\":11012:11013   */\n      0x00\n        /* \"#utility.yul\":11009:11010   */\n      dup1\n        /* \"#utility.yul\":11002:11014   */\n      revert\n        /* \"#utility.yul\":10965:11016   */\n    tag_326:\n        /* \"#utility.yul\":11048:11054   */\n      dup3\n        /* \"#utility.yul\":11045:11046   */\n      0x05\n        /* \"#utility.yul\":11041:11055   */\n      shl\n        /* \"#utility.yul\":11100:11108   */\n      dup1\n        /* \"#utility.yul\":11093:11098   */\n      dup4\n        /* \"#utility.yul\":11086:11090   */\n      0x20\n        /* \"#utility.yul\":11081:11084   */\n      dup8\n        /* \"#utility.yul\":11077:11091   */\n      add\n        /* \"#utility.yul\":11064:11109   */\n      calldatacopy\n        /* \"#utility.yul\":11129:11147   */\n      swap4\n      swap1\n      swap4\n      add\n        /* \"#utility.yul\":11149:11153   */\n      0x20\n        /* \"#utility.yul\":11125:11154   */\n      add\n      swap4\n        /* \"#utility.yul\":10849:11160   */\n      swap3\n      pop\n      pop\n      pop\n      jump\t// out\n        /* \"#utility.yul\":11165:11684   */\n    tag_120:\n        /* \"#utility.yul\":11442:11444   */\n      0x40\n        /* \"#utility.yul\":11431:11440   */\n      dup2\n        /* \"#utility.yul\":11424:11445   */\n      mstore\n        /* \"#utility.yul\":11405:11409   */\n      0x00\n        /* \"#utility.yul\":11468:11541   */\n      tag_328\n        /* \"#utility.yul\":11537:11539   */\n      0x40\n        /* \"#utility.yul\":11526:11535   */\n      dup4\n        /* \"#utility.yul\":11522:11540   */\n      add\n        /* \"#utility.yul\":11514:11520   */\n      dup7\n        /* \"#utility.yul\":11506:11512   */\n      dup9\n        /* \"#utility.yul\":11468:11541   */\n      tag_224\n      jump\t// in\n    tag_328:\n        /* \"#utility.yul\":11589:11598   */\n      dup3\n        /* \"#utility.yul\":11581:11587   */\n      dup2\n        /* \"#utility.yul\":11577:11599   */\n      sub\n        /* \"#utility.yul\":11572:11574   */\n      0x20\n        /* \"#utility.yul\":11561:11570   */\n      dup5\n        /* \"#utility.yul\":11557:11575   */\n      add\n        /* \"#utility.yul\":11550:11600   */\n      mstore\n        /* \"#utility.yul\":11617:11678   */\n      tag_312\n        /* \"#utility.yul\":11671:11677   */\n      dup2\n        /* \"#utility.yul\":11663:11669   */\n      dup6\n        /* \"#utility.yul\":11655:11661   */\n      dup8\n        /* \"#utility.yul\":11617:11678   */\n      tag_224\n      jump\t// in\n        /* \"#utility.yul\":11689:11955   */\n    tag_225:\n        /* \"#utility.yul\":11777:11783   */\n      dup2\n        /* \"#utility.yul\":11772:11775   */\n      dup4\n        /* \"#utility.yul\":11765:11784   */\n      mstore\n        /* \"#utility.yul\":11829:11835   */\n      dup2\n        /* \"#utility.yul\":11822:11827   */\n      dup2\n        /* \"#utility.yul\":11815:11819   */\n      0x20\n        /* \"#utility.yul\":11810:11813   */\n      dup6\n        /* \"#utility.yul\":11806:11820   */\n      add\n        /* \"#utility.yul\":11793:11836   */\n      calldatacopy\n      pop\n        /* \"#utility.yul\":11881:11882   */\n      0x00\n        /* \"#utility.yul\":11856:11872   */\n      dup3\n      dup3\n      add\n        /* \"#utility.yul\":11874:11878   */\n      0x20\n        /* \"#utility.yul\":11852:11879   */\n      swap1\n      dup2\n      add\n        /* \"#utility.yul\":11845:11883   */\n      swap2\n      swap1\n      swap2\n      mstore\n        /* \"#utility.yul\":11937:11939   */\n      0x1f\n        /* \"#utility.yul\":11916:11931   */\n      swap1\n      swap2\n      add\n      not(0x1f)\n        /* \"#utility.yul\":11912:11941   */\n      and\n        /* \"#utility.yul\":11903:11942   */\n      swap1\n      swap2\n      add\n        /* \"#utility.yul\":11899:11949   */\n      add\n      swap1\n        /* \"#utility.yul\":11689:11955   */\n      jump\t// out\n        /* \"#utility.yul\":11960:12867   */\n    tag_123:\n      sub(shl(0xa0, 0x01), 0x01)\n        /* \"#utility.yul\":12387:12402   */\n      dup10\n      dup2\n      and\n        /* \"#utility.yul\":12369:12403   */\n      dup3\n      mstore\n        /* \"#utility.yul\":12439:12454   */\n      dup9\n      and\n        /* \"#utility.yul\":12434:12436   */\n      0x20\n        /* \"#utility.yul\":12419:12437   */\n      dup3\n      add\n        /* \"#utility.yul\":12412:12455   */\n      mstore\n        /* \"#utility.yul\":12349:12352   */\n      0xa0\n        /* \"#utility.yul\":12486:12488   */\n      0x40\n        /* \"#utility.yul\":12471:12489   */\n      dup3\n      add\n        /* \"#utility.yul\":12464:12495   */\n      dup2\n      swap1\n      mstore\n        /* \"#utility.yul\":12312:12316   */\n      0x00\n      swap1\n        /* \"#utility.yul\":12518:12592   */\n      tag_332\n      swap1\n        /* \"#utility.yul\":12572:12591   */\n      dup4\n      add\n        /* \"#utility.yul\":12564:12570   */\n      dup9\n        /* \"#utility.yul\":12556:12562   */\n      dup11\n        /* \"#utility.yul\":12518:12592   */\n      tag_224\n      jump\t// in\n    tag_332:\n        /* \"#utility.yul\":12640:12649   */\n      dup3\n        /* \"#utility.yul\":12632:12638   */\n      dup2\n        /* \"#utility.yul\":12628:12650   */\n      sub\n        /* \"#utility.yul\":12623:12625   */\n      0x60\n        /* \"#utility.yul\":12612:12621   */\n      dup5\n        /* \"#utility.yul\":12608:12626   */\n      add\n        /* \"#utility.yul\":12601:12651   */\n      mstore\n        /* \"#utility.yul\":12674:12735   */\n      tag_333\n        /* \"#utility.yul\":12728:12734   */\n      dup2\n        /* \"#utility.yul\":12720:12726   */\n      dup8\n        /* \"#utility.yul\":12712:12718   */\n      dup10\n        /* \"#utility.yul\":12674:12735   */\n      tag_224\n      jump\t// in\n    tag_333:\n        /* \"#utility.yul\":12660:12735   */\n      swap1\n      pop\n        /* \"#utility.yul\":12784:12793   */\n      dup3\n        /* \"#utility.yul\":12776:12782   */\n      dup2\n        /* \"#utility.yul\":12772:12794   */\n      sub\n        /* \"#utility.yul\":12766:12769   */\n      0x80\n        /* \"#utility.yul\":12755:12764   */\n      dup5\n        /* \"#utility.yul\":12751:12770   */\n      add\n        /* \"#utility.yul\":12744:12795   */\n      mstore\n        /* \"#utility.yul\":12812:12861   */\n      tag_334\n        /* \"#utility.yul\":12854:12860   */\n      dup2\n        /* \"#utility.yul\":12846:12852   */\n      dup6\n        /* \"#utility.yul\":12838:12844   */\n      dup8\n        /* \"#utility.yul\":12812:12861   */\n      tag_225\n      jump\t// in\n    tag_334:\n        /* \"#utility.yul\":12804:12861   */\n      swap12\n        /* \"#utility.yul\":11960:12867   */\n      swap11\n      pop\n      pop\n      pop\n      pop\n      pop\n      pop\n      pop\n      pop\n      pop\n      pop\n      pop\n      jump\t// out\n        /* \"#utility.yul\":12872:13121   */\n    tag_127:\n        /* \"#utility.yul\":12941:12947   */\n      0x00\n        /* \"#utility.yul\":12994:12996   */\n      0x20\n        /* \"#utility.yul\":12982:12991   */\n      dup3\n        /* \"#utility.yul\":12973:12980   */\n      dup5\n        /* \"#utility.yul\":12969:12992   */\n      sub\n        /* \"#utility.yul\":12965:12997   */\n      slt\n        /* \"#utility.yul\":12962:13014   */\n      iszero\n      tag_336\n      jumpi\n        /* \"#utility.yul\":13010:13011   */\n      0x00\n        /* \"#utility.yul\":13007:13008   */\n      dup1\n        /* \"#utility.yul\":13000:13012   */\n      revert\n        /* \"#utility.yul\":12962:13014   */\n    tag_336:\n        /* \"#utility.yul\":13042:13051   */\n      dup2\n        /* \"#utility.yul\":13036:13052   */\n      mload\n        /* \"#utility.yul\":13061:13091   */\n      tag_237\n        /* \"#utility.yul\":13085:13090   */\n      dup2\n        /* \"#utility.yul\":13061:13091   */\n      tag_218\n      jump\t// in\n        /* \"#utility.yul\":13126:13466   */\n    tag_131:\n        /* \"#utility.yul\":13328:13330   */\n      0x20\n        /* \"#utility.yul\":13310:13331   */\n      dup1\n      dup3\n      mstore\n        /* \"#utility.yul\":13367:13369   */\n      0x10\n        /* \"#utility.yul\":13347:13365   */\n      swap1\n      dup3\n      add\n        /* \"#utility.yul\":13340:13370   */\n      mstore\n      shl(0x82, 0x155394d0519157d49150d25412515395)\n        /* \"#utility.yul\":13401:13403   */\n      0x40\n        /* \"#utility.yul\":13386:13404   */\n      dup3\n      add\n        /* \"#utility.yul\":13379:13425   */\n      mstore\n        /* \"#utility.yul\":13457:13459   */\n      0x60\n        /* \"#utility.yul\":13442:13460   */\n      add\n      swap1\n        /* \"#utility.yul\":13126:13466   */\n      jump\t// out\n        /* \"#utility.yul\":15145:15732   */\n    tag_191:\n      sub(shl(0xa0, 0x01), 0x01)\n        /* \"#utility.yul\":15452:15467   */\n      dup8\n      dup2\n      and\n        /* \"#utility.yul\":15434:15468   */\n      dup3\n      mstore\n        /* \"#utility.yul\":15504:15519   */\n      dup7\n      and\n        /* \"#utility.yul\":15499:15501   */\n      0x20\n        /* \"#utility.yul\":15484:15502   */\n      dup3\n      add\n        /* \"#utility.yul\":15477:15520   */\n      mstore\n        /* \"#utility.yul\":15551:15553   */\n      0x40\n        /* \"#utility.yul\":15536:15554   */\n      dup2\n      add\n        /* \"#utility.yul\":15529:15563   */\n      dup6\n      swap1\n      mstore\n        /* \"#utility.yul\":15594:15596   */\n      0x60\n        /* \"#utility.yul\":15579:15597   */\n      dup2\n      add\n        /* \"#utility.yul\":15572:15606   */\n      dup5\n      swap1\n      mstore\n        /* \"#utility.yul\":15414:15417   */\n      0xa0\n        /* \"#utility.yul\":15637:15640   */\n      0x80\n        /* \"#utility.yul\":15622:15641   */\n      dup3\n      add\n        /* \"#utility.yul\":15615:15647   */\n      dup2\n      swap1\n      mstore\n        /* \"#utility.yul\":15377:15381   */\n      0x00\n      swap1\n        /* \"#utility.yul\":15664:15726   */\n      tag_346\n      swap1\n        /* \"#utility.yul\":15706:15725   */\n      dup4\n      add\n        /* \"#utility.yul\":15698:15704   */\n      dup5\n        /* \"#utility.yul\":15690:15696   */\n      dup7\n        /* \"#utility.yul\":15664:15726   */\n      tag_225\n      jump\t// in\n    tag_346:\n        /* \"#utility.yul\":15656:15726   */\n      swap9\n        /* \"#utility.yul\":15145:15732   */\n      swap8\n      pop\n      pop\n      pop\n      pop\n      pop\n      pop\n      pop\n      pop\n      jump\t// out\n        /* \"#utility.yul\":15737:16298   */\n    tag_209:\n      sub(shl(0xa0, 0x01), 0x01)\n        /* \"#utility.yul\":16034:16049   */\n      dup7\n      dup2\n      and\n        /* \"#utility.yul\":16016:16050   */\n      dup3\n      mstore\n        /* \"#utility.yul\":16086:16101   */\n      dup6\n      and\n        /* \"#utility.yul\":16081:16083   */\n      0x20\n        /* \"#utility.yul\":16066:16084   */\n      dup3\n      add\n        /* \"#utility.yul\":16059:16102   */\n      mstore\n        /* \"#utility.yul\":16133:16135   */\n      0x40\n        /* \"#utility.yul\":16118:16136   */\n      dup2\n      add\n        /* \"#utility.yul\":16111:16145   */\n      dup5\n      swap1\n      mstore\n        /* \"#utility.yul\":16176:16178   */\n      0x60\n        /* \"#utility.yul\":16161:16179   */\n      dup2\n      add\n        /* \"#utility.yul\":16154:16188   */\n      dup4\n      swap1\n      mstore\n        /* \"#utility.yul\":15996:15999   */\n      0xa0\n        /* \"#utility.yul\":16219:16222   */\n      0x80\n        /* \"#utility.yul\":16204:16223   */\n      dup3\n      add\n        /* \"#utility.yul\":16197:16229   */\n      dup2\n      swap1\n      mstore\n        /* \"#utility.yul\":15959:15963   */\n      0x00\n      swap1\n        /* \"#utility.yul\":16246:16292   */\n      tag_312\n      swap1\n        /* \"#utility.yul\":16272:16291   */\n      dup4\n      add\n        /* \"#utility.yul\":16264:16270   */\n      dup5\n        /* \"#utility.yul\":16246:16292   */\n      tag_220\n      jump\t// in\n\n    auxdata: 0xa2646970667358221220471a1a6dbeba3f8c4f13d3a8108d240dbe92079e1513d36274cc6d5d4ea5766464736f6c63430008110033\n}\n",
				"bytecode": {
					"linkReferences": {},
					"object": "608060405234801561001057600080fd5b5061158a806100206000396000f3fe608060405234801561001057600080fd5b50600436106100f45760003560e01c80637cb6475911610097578063c4d66de811610066578063c4d66de81461022f578063e985e9c514610242578063f242432a14610270578063fb2852dd1461028357600080fd5b80637cb64759146101cb5780638da5cb5b146101de578063a22cb46514610209578063c45a01551461021c57600080fd5b80632eb2c2d6116100d35780632eb2c2d61461017a5780632eb4a7ab1461018f5780633b439351146101985780634e1273f4146101ab57600080fd5b8062fdd58e146100f957806301ffc9a7146101375780630e89341c1461015a575b600080fd5b610124610107366004610e28565b600160209081526000928352604080842090915290825290205481565b6040519081526020015b60405180910390f35b61014a610145366004610e6b565b6102a6565b604051901515815260200161012e565b61016d610168366004610e8f565b6102f8565b60405161012e9190610ef8565b61018d610188366004610f99565b61039f565b005b61012460075481565b61018d6101a6366004611054565b61064b565b6101be6101b93660046110a0565b610735565b60405161012e919061110c565b61018d6101d9366004610e8f565b61086b565b6005546101f1906001600160a01b031681565b6040516001600160a01b03909116815260200161012e565b61018d610217366004611150565b6108b9565b6006546101f1906001600160a01b031681565b61018d61023d36600461118c565b610925565b61014a6102503660046111a7565b600260209081526000928352604080842090915290825290205460ff1681565b61018d61027e3660046111da565b610a8a565b61014a61029136600461118c565b60046020526000908152604090205460ff1681565b60006301ffc9a760e01b6001600160e01b0319831614806102d75750636cdb3d1360e11b6001600160e01b03198316145b806102f257506303a24d0760e21b6001600160e01b03198316145b92915050565b60065460408051631d59313f60e31b815290516060926001600160a01b03169163eac989f89160048083019260009291908290030181865afa158015610342573d6000803e3d6000fd5b505050506040513d6000823e601f3d908101601f1916820160405261036a9190810190611268565b60065460405161038992916001600160a01b0316908590602001611315565b6040516020818303038152906040529050919050565b8483146103e55760405162461bcd60e51b815260206004820152600f60248201526e0988a9c8ea890be9a92a69a82a8869608b1b60448201526064015b60405180910390fd5b336001600160a01b038916148061041f57506001600160a01b038816600090815260026020908152604080832033845290915290205460ff165b61045c5760405162461bcd60e51b815260206004820152600e60248201526d1393d517d055551213d49256915160921b60448201526064016103dc565b60008060005b8781101561051b5788888281811061047c5761047c611354565b90506020020135925086868281811061049757610497611354565b6001600160a01b038e166000908152600160209081526040808320898452825282208054939091029490940135955085939250906104d6908490611380565b90915550506001600160a01b038a1660009081526001602090815260408083208684529091528120805484929061050e908490611393565b9091555050600101610462565b50886001600160a01b03168a6001600160a01b0316336001600160a01b03167f4a39dc06d4c0dbc64b70af90fd698a233a518aa5d07e595d983b8c0526c8f7fb8b8b8b8b60405161056f94939291906113d8565b60405180910390a46001600160a01b0389163b156106165760405163bc197c8160e01b808252906001600160a01b038b169063bc197c81906105c39033908f908e908e908e908e908e908e90600401611428565b6020604051808303816000875af11580156105e2573d6000803e3d6000fd5b505050506040513d601f19601f82011682018060405250810190610606919061148c565b6001600160e01b03191614610623565b6001600160a01b03891615155b61063f5760405162461bcd60e51b81526004016103dc906114a9565b50505050505050505050565b6040805133602082015290810182905260009060600160408051601f198184030181528282528051602091820120908301520160405160208183030381529060405280519060200120905060006106a6858560075485610c88565b9050806106c657604051630d453fcd60e31b815260040160405180910390fd5b3360009081526004602052604090205460ff16156106f757604051630c8d9eab60e31b815260040160405180910390fd5b336000818152600460209081526040808320805460ff19166001908117909155815192830190915291815261072e92918691610cc2565b5050505050565b60608382146107785760405162461bcd60e51b815260206004820152600f60248201526e0988a9c8ea890be9a92a69a82a8869608b1b60448201526064016103dc565b8367ffffffffffffffff81111561079157610791611252565b6040519080825280602002602001820160405280156107ba578160200160208202803683370190505b50905060005b8481101561086257600160008787848181106107de576107de611354565b90506020020160208101906107f3919061118c565b6001600160a01b03166001600160a01b03168152602001908152602001600020600085858481811061082757610827611354565b9050602002013581526020019081526020016000205482828151811061084f5761084f611354565b60209081029190910101526001016107c0565b50949350505050565b6005546001600160a01b031633146108b45760405162461bcd60e51b815260206004820152600c60248201526b15539055551213d49256915160a21b60448201526064016103dc565b600755565b3360008181526002602090815260408083206001600160a01b03871680855290835292819020805460ff191686151590811790915590519081529192917f17307eab39ab6107e8899845ad3d59bd9653f200f220920489ca2b5937696c31910160405180910390a35050565b600054610100900460ff16158080156109455750600054600160ff909116105b8061095f5750303b15801561095f575060005460ff166001145b6109c25760405162461bcd60e51b815260206004820152602e60248201527f496e697469616c697a61626c653a20636f6e747261637420697320616c72656160448201526d191e481a5b9a5d1a585b1a5e995960921b60648201526084016103dc565b6000805460ff1916600117905580156109e5576000805461ff0019166101001790555b600580546001600160a01b0319166001600160a01b0384169081179091556040516000907f8be0079c531659141344cd1fd0a4f28419497f9722a3daafe3b4186f6b6457e0908290a3600680546001600160a01b031916331790558015610a86576000805461ff0019169055604051600181527f7f26b83ff96e1f2b6a682f133852f6798a09c465da95921460cefb38474024989060200160405180910390a15b5050565b336001600160a01b0387161480610ac457506001600160a01b038616600090815260026020908152604080832033845290915290205460ff165b610b015760405162461bcd60e51b815260206004820152600e60248201526d1393d517d055551213d49256915160921b60448201526064016103dc565b6001600160a01b038616600090815260016020908152604080832087845290915281208054859290610b34908490611380565b90915550506001600160a01b038516600090815260016020908152604080832087845290915281208054859290610b6c908490611393565b909155505060408051858152602081018590526001600160a01b03808816929089169133917fc3d58168c5ae7397731d063d5bbf3d657854427343f4c083240f7aacaa2d0f62910160405180910390a46001600160a01b0385163b15610c575760405163f23a6e6160e01b808252906001600160a01b0387169063f23a6e6190610c049033908b908a908a908a908a906004016114d3565b6020604051808303816000875af1158015610c23573d6000803e3d6000fd5b505050506040513d601f19601f82011682018060405250810190610c47919061148c565b6001600160e01b03191614610c64565b6001600160a01b03851615155b610c805760405162461bcd60e51b81526004016103dc906114a9565b505050505050565b60008315610cba578360051b8501855b803580851160051b94855260209485185260406000209301818110610c985750505b501492915050565b6001600160a01b038416600090815260016020908152604080832086845290915281208054849290610cf5908490611393565b909155505060408051848152602081018490526001600160a01b0386169160009133917fc3d58168c5ae7397731d063d5bbf3d657854427343f4c083240f7aacaa2d0f62910160405180910390a46001600160a01b0384163b15610ddd5760405163f23a6e6160e01b808252906001600160a01b0386169063f23a6e6190610d8a90339060009089908990899060040161151a565b6020604051808303816000875af1158015610da9573d6000803e3d6000fd5b505050506040513d601f19601f82011682018060405250810190610dcd919061148c565b6001600160e01b03191614610dea565b6001600160a01b03841615155b610e065760405162461bcd60e51b81526004016103dc906114a9565b50505050565b80356001600160a01b0381168114610e2357600080fd5b919050565b60008060408385031215610e3b57600080fd5b610e4483610e0c565b946020939093013593505050565b6001600160e01b031981168114610e6857600080fd5b50565b600060208284031215610e7d57600080fd5b8135610e8881610e52565b9392505050565b600060208284031215610ea157600080fd5b5035919050565b60005b83811015610ec3578181015183820152602001610eab565b50506000910152565b60008151808452610ee4816020860160208601610ea8565b601f01601f19169290920160200192915050565b602081526000610e886020830184610ecc565b60008083601f840112610f1d57600080fd5b50813567ffffffffffffffff811115610f3557600080fd5b6020830191508360208260051b8501011115610f5057600080fd5b9250929050565b60008083601f840112610f6957600080fd5b50813567ffffffffffffffff811115610f8157600080fd5b602083019150836020828501011115610f5057600080fd5b60008060008060008060008060a0898b031215610fb557600080fd5b610fbe89610e0c565b9750610fcc60208a01610e0c565b9650604089013567ffffffffffffffff80821115610fe957600080fd5b610ff58c838d01610f0b565b909850965060608b013591508082111561100e57600080fd5b61101a8c838d01610f0b565b909650945060808b013591508082111561103357600080fd5b506110408b828c01610f57565b999c989b5096995094979396929594505050565b60008060006040848603121561106957600080fd5b833567ffffffffffffffff81111561108057600080fd5b61108c86828701610f0b565b909790965060209590950135949350505050565b600080600080604085870312156110b657600080fd5b843567ffffffffffffffff808211156110ce57600080fd5b6110da88838901610f0b565b909650945060208701359150808211156110f357600080fd5b5061110087828801610f0b565b95989497509550505050565b6020808252825182820181905260009190848201906040850190845b8181101561114457835183529284019291840191600101611128565b50909695505050505050565b6000806040838503121561116357600080fd5b61116c83610e0c565b91506020830135801515811461118157600080fd5b809150509250929050565b60006020828403121561119e57600080fd5b610e8882610e0c565b600080604083850312156111ba57600080fd5b6111c383610e0c565b91506111d160208401610e0c565b90509250929050565b60008060008060008060a087890312156111f357600080fd5b6111fc87610e0c565b955061120a60208801610e0c565b94506040870135935060608701359250608087013567ffffffffffffffff81111561123457600080fd5b61124089828a01610f57565b979a9699509497509295939492505050565b634e487b7160e01b600052604160045260246000fd5b60006020828403121561127a57600080fd5b815167ffffffffffffffff8082111561129257600080fd5b818401915084601f8301126112a657600080fd5b8151818111156112b8576112b8611252565b604051601f8201601f19908116603f011681019083821181831017156112e0576112e0611252565b816040528281528760208487010111156112f957600080fd5b61130a836020830160208801610ea8565b979650505050505050565b60008451611327818460208901610ea8565b60609490941b6bffffffffffffffffffffffff191691909301908152601481019190915260340192915050565b634e487b7160e01b600052603260045260246000fd5b634e487b7160e01b600052601160045260246000fd5b818103818111156102f2576102f261136a565b808201808211156102f2576102f261136a565b81835260006001600160fb1b038311156113bf57600080fd5b8260051b80836020870137939093016020019392505050565b6040815260006113ec6040830186886113a6565b828103602084015261130a8185876113a6565b81835281816020850137506000828201602090810191909152601f909101601f19169091010190565b6001600160a01b0389811682528816602082015260a060408201819052600090611455908301888a6113a6565b82810360608401526114688187896113a6565b9050828103608084015261147d8185876113ff565b9b9a5050505050505050505050565b60006020828403121561149e57600080fd5b8151610e8881610e52565b60208082526010908201526f155394d0519157d49150d2541251539560821b604082015260600190565b6001600160a01b03878116825286166020820152604081018590526060810184905260a06080820181905260009061150e90830184866113ff565b98975050505050505050565b6001600160a01b03868116825285166020820152604081018490526060810183905260a06080820181905260009061130a90830184610ecc56fea2646970667358221220471a1a6dbeba3f8c4f13d3a8108d240dbe92079e1513d36274cc6d5d4ea5766464736f6c63430008110033",
					"opcodes": "PUSH1 0x80 PUSH1 0x40 MSTORE CALLVALUE DUP1 ISZERO PUSH2 0x10 JUMPI PUSH1 0x0 DUP1 REVERT JUMPDEST POP PUSH2 0x158A DUP1 PUSH2 0x20 PUSH1 0x0 CODECOPY PUSH1 0x0 RETURN INVALID PUSH1 0x80 PUSH1 0x40 MSTORE CALLVALUE DUP1 ISZERO PUSH2 0x10 JUMPI PUSH1 0x0 DUP1 REVERT JUMPDEST POP PUSH1 0x4 CALLDATASIZE LT PUSH2 0xF4 JUMPI PUSH1 0x0 CALLDATALOAD PUSH1 0xE0 SHR DUP1 PUSH4 0x7CB64759 GT PUSH2 0x97 JUMPI DUP1 PUSH4 0xC4D66DE8 GT PUSH2 0x66 JUMPI DUP1 PUSH4 0xC4D66DE8 EQ PUSH2 0x22F JUMPI DUP1 PUSH4 0xE985E9C5 EQ PUSH2 0x242 JUMPI DUP1 PUSH4 0xF242432A EQ PUSH2 0x270 JUMPI DUP1 PUSH4 0xFB2852DD EQ PUSH2 0x283 JUMPI PUSH1 0x0 DUP1 REVERT JUMPDEST DUP1 PUSH4 0x7CB64759 EQ PUSH2 0x1CB JUMPI DUP1 PUSH4 0x8DA5CB5B EQ PUSH2 0x1DE JUMPI DUP1 PUSH4 0xA22CB465 EQ PUSH2 0x209 JUMPI DUP1 PUSH4 0xC45A0155 EQ PUSH2 0x21C JUMPI PUSH1 0x0 DUP1 REVERT JUMPDEST DUP1 PUSH4 0x2EB2C2D6 GT PUSH2 0xD3 JUMPI DUP1 PUSH4 0x2EB2C2D6 EQ PUSH2 0x17A JUMPI DUP1 PUSH4 0x2EB4A7AB EQ PUSH2 0x18F JUMPI DUP1 PUSH4 0x3B439351 EQ PUSH2 0x198 JUMPI DUP1 PUSH4 0x4E1273F4 EQ PUSH2 0x1AB JUMPI PUSH1 0x0 DUP1 REVERT JUMPDEST DUP1 PUSH3 0xFDD58E EQ PUSH2 0xF9 JUMPI DUP1 PUSH4 0x1FFC9A7 EQ PUSH2 0x137 JUMPI DUP1 PUSH4 0xE89341C EQ PUSH2 0x15A JUMPI JUMPDEST PUSH1 0x0 DUP1 REVERT JUMPDEST PUSH2 0x124 PUSH2 0x107 CALLDATASIZE PUSH1 0x4 PUSH2 0xE28 JUMP JUMPDEST PUSH1 0x1 PUSH1 0x20 SWAP1 DUP2 MSTORE PUSH1 0x0 SWAP3 DUP4 MSTORE PUSH1 0x40 DUP1 DUP5 KECCAK256 SWAP1 SWAP2 MSTORE SWAP1 DUP3 MSTORE SWAP1 KECCAK256 SLOAD DUP2 JUMP JUMPDEST PUSH1 0x40 MLOAD SWAP1 DUP2 MSTORE PUSH1 0x20 ADD JUMPDEST PUSH1 0x40 MLOAD DUP1 SWAP2 SUB SWAP1 RETURN JUMPDEST PUSH2 0x14A PUSH2 0x145 CALLDATASIZE PUSH1 0x4 PUSH2 0xE6B JUMP JUMPDEST PUSH2 0x2A6 JUMP JUMPDEST PUSH1 0x40 MLOAD SWAP1 ISZERO ISZERO DUP2 MSTORE PUSH1 0x20 ADD PUSH2 0x12E JUMP JUMPDEST PUSH2 0x16D PUSH2 0x168 CALLDATASIZE PUSH1 0x4 PUSH2 0xE8F JUMP JUMPDEST PUSH2 0x2F8 JUMP JUMPDEST PUSH1 0x40 MLOAD PUSH2 0x12E SWAP2 SWAP1 PUSH2 0xEF8 JUMP JUMPDEST PUSH2 0x18D PUSH2 0x188 CALLDATASIZE PUSH1 0x4 PUSH2 0xF99 JUMP JUMPDEST PUSH2 0x39F JUMP JUMPDEST STOP JUMPDEST PUSH2 0x124 PUSH1 0x7 SLOAD DUP2 JUMP JUMPDEST PUSH2 0x18D PUSH2 0x1A6 CALLDATASIZE PUSH1 0x4 PUSH2 0x1054 JUMP JUMPDEST PUSH2 0x64B JUMP JUMPDEST PUSH2 0x1BE PUSH2 0x1B9 CALLDATASIZE PUSH1 0x4 PUSH2 0x10A0 JUMP JUMPDEST PUSH2 0x735 JUMP JUMPDEST PUSH1 0x40 MLOAD PUSH2 0x12E SWAP2 SWAP1 PUSH2 0x110C JUMP JUMPDEST PUSH2 0x18D PUSH2 0x1D9 CALLDATASIZE PUSH1 0x4 PUSH2 0xE8F JUMP JUMPDEST PUSH2 0x86B JUMP JUMPDEST PUSH1 0x5 SLOAD PUSH2 0x1F1 SWAP1 PUSH1 0x1 PUSH1 0x1 PUSH1 0xA0 SHL SUB AND DUP2 JUMP JUMPDEST PUSH1 0x40 MLOAD PUSH1 0x1 PUSH1 0x1 PUSH1 0xA0 SHL SUB SWAP1 SWAP2 AND DUP2 MSTORE PUSH1 0x20 ADD PUSH2 0x12E JUMP JUMPDEST PUSH2 0x18D PUSH2 0x217 CALLDATASIZE PUSH1 0x4 PUSH2 0x1150 JUMP JUMPDEST PUSH2 0x8B9 JUMP JUMPDEST PUSH1 0x6 SLOAD PUSH2 0x1F1 SWAP1 PUSH1 0x1 PUSH1 0x1 PUSH1 0xA0 SHL SUB AND DUP2 JUMP JUMPDEST PUSH2 0x18D PUSH2 0x23D CALLDATASIZE PUSH1 0x4 PUSH2 0x118C JUMP JUMPDEST PUSH2 0x925 JUMP JUMPDEST PUSH2 0x14A PUSH2 0x250 CALLDATASIZE PUSH1 0x4 PUSH2 0x11A7 JUMP JUMPDEST PUSH1 0x2 PUSH1 0x20 SWAP1 DUP2 MSTORE PUSH1 0x0 SWAP3 DUP4 MSTORE PUSH1 0x40 DUP1 DUP5 KECCAK256 SWAP1 SWAP2 MSTORE SWAP1 DUP3 MSTORE SWAP1 KECCAK256 SLOAD PUSH1 0xFF AND DUP2 JUMP JUMPDEST PUSH2 0x18D PUSH2 0x27E CALLDATASIZE PUSH1 0x4 PUSH2 0x11DA JUMP JUMPDEST PUSH2 0xA8A JUMP JUMPDEST PUSH2 0x14A PUSH2 0x291 CALLDATASIZE PUSH1 0x4 PUSH2 0x118C JUMP JUMPDEST PUSH1 0x4 PUSH1 0x20 MSTORE PUSH1 0x0 SWAP1 DUP2 MSTORE PUSH1 0x40 SWAP1 KECCAK256 SLOAD PUSH1 0xFF AND DUP2 JUMP JUMPDEST PUSH1 0x0 PUSH4 0x1FFC9A7 PUSH1 0xE0 SHL PUSH1 0x1 PUSH1 0x1 PUSH1 0xE0 SHL SUB NOT DUP4 AND EQ DUP1 PUSH2 0x2D7 JUMPI POP PUSH4 0x6CDB3D13 PUSH1 0xE1 SHL PUSH1 0x1 PUSH1 0x1 PUSH1 0xE0 SHL SUB NOT DUP4 AND EQ JUMPDEST DUP1 PUSH2 0x2F2 JUMPI POP PUSH4 0x3A24D07 PUSH1 0xE2 SHL PUSH1 0x1 PUSH1 0x1 PUSH1 0xE0 SHL SUB NOT DUP4 AND EQ JUMPDEST SWAP3 SWAP2 POP POP JUMP JUMPDEST PUSH1 0x6 SLOAD PUSH1 0x40 DUP1 MLOAD PUSH4 0x1D59313F PUSH1 0xE3 SHL DUP2 MSTORE SWAP1 MLOAD PUSH1 0x60 SWAP3 PUSH1 0x1 PUSH1 0x1 PUSH1 0xA0 SHL SUB AND SWAP2 PUSH4 0xEAC989F8 SWAP2 PUSH1 0x4 DUP1 DUP4 ADD SWAP3 PUSH1 0x0 SWAP3 SWAP2 SWAP1 DUP3 SWAP1 SUB ADD DUP2 DUP7 GAS STATICCALL ISZERO DUP1 ISZERO PUSH2 0x342 JUMPI RETURNDATASIZE PUSH1 0x0 DUP1 RETURNDATACOPY RETURNDATASIZE PUSH1 0x0 REVERT JUMPDEST POP POP POP POP PUSH1 0x40 MLOAD RETURNDATASIZE PUSH1 0x0 DUP3 RETURNDATACOPY PUSH1 0x1F RETURNDATASIZE SWAP1 DUP2 ADD PUSH1 0x1F NOT AND DUP3 ADD PUSH1 0x40 MSTORE PUSH2 0x36A SWAP2 SWAP1 DUP2 ADD SWAP1 PUSH2 0x1268 JUMP JUMPDEST PUSH1 0x6 SLOAD PUSH1 0x40 MLOAD PUSH2 0x389 SWAP3 SWAP2 PUSH1 0x1 PUSH1 0x1 PUSH1 0xA0 SHL SUB AND SWAP1 DUP6 SWAP1 PUSH1 0x20 ADD PUSH2 0x1315 JUMP JUMPDEST PUSH1 0x40 MLOAD PUSH1 0x20 DUP2 DUP4 SUB SUB DUP2 MSTORE SWAP1 PUSH1 0x40 MSTORE SWAP1 POP SWAP2 SWAP1 POP JUMP JUMPDEST DUP5 DUP4 EQ PUSH2 0x3E5 JUMPI PUSH1 0x40 MLOAD PUSH3 0x461BCD PUSH1 0xE5 SHL DUP2 MSTORE PUSH1 0x20 PUSH1 0x4 DUP3 ADD MSTORE PUSH1 0xF PUSH1 0x24 DUP3 ADD MSTORE PUSH15 0x988A9C8EA890BE9A92A69A82A8869 PUSH1 0x8B SHL PUSH1 0x44 DUP3 ADD MSTORE PUSH1 0x64 ADD JUMPDEST PUSH1 0x40 MLOAD DUP1 SWAP2 SUB SWAP1 REVERT JUMPDEST CALLER PUSH1 0x1 PUSH1 0x1 PUSH1 0xA0 SHL SUB DUP10 AND EQ DUP1 PUSH2 0x41F JUMPI POP PUSH1 0x1 PUSH1 0x1 PUSH1 0xA0 SHL SUB DUP9 AND PUSH1 0x0 SWAP1 DUP2 MSTORE PUSH1 0x2 PUSH1 0x20 SWAP1 DUP2 MSTORE PUSH1 0x40 DUP1 DUP4 KECCAK256 CALLER DUP5 MSTORE SWAP1 SWAP2 MSTORE SWAP1 KECCAK256 SLOAD PUSH1 0xFF AND JUMPDEST PUSH2 0x45C JUMPI PUSH1 0x40 MLOAD PUSH3 0x461BCD PUSH1 0xE5 SHL DUP2 MSTORE PUSH1 0x20 PUSH1 0x4 DUP3 ADD MSTORE PUSH1 0xE PUSH1 0x24 DUP3 ADD MSTORE PUSH14 0x1393D517D055551213D492569151 PUSH1 0x92 SHL PUSH1 0x44 DUP3 ADD MSTORE PUSH1 0x64 ADD PUSH2 0x3DC JUMP JUMPDEST PUSH1 0x0 DUP1 PUSH1 0x0 JUMPDEST DUP8 DUP2 LT ISZERO PUSH2 0x51B JUMPI DUP9 DUP9 DUP3 DUP2 DUP2 LT PUSH2 0x47C JUMPI PUSH2 0x47C PUSH2 0x1354 JUMP JUMPDEST SWAP1 POP PUSH1 0x20 MUL ADD CALLDATALOAD SWAP3 POP DUP7 DUP7 DUP3 DUP2 DUP2 LT PUSH2 0x497 JUMPI PUSH2 0x497 PUSH2 0x1354 JUMP JUMPDEST PUSH1 0x1 PUSH1 0x1 PUSH1 0xA0 SHL SUB DUP15 AND PUSH1 0x0 SWAP1 DUP2 MSTORE PUSH1 0x1 PUSH1 0x20 SWAP1 DUP2 MSTORE PUSH1 0x40 DUP1 DUP4 KECCAK256 DUP10 DUP5 MSTORE DUP3 MSTORE DUP3 KECCAK256 DUP1 SLOAD SWAP4 SWAP1 SWAP2 MUL SWAP5 SWAP1 SWAP5 ADD CALLDATALOAD SWAP6 POP DUP6 SWAP4 SWAP3 POP SWAP1 PUSH2 0x4D6 SWAP1 DUP5 SWAP1 PUSH2 0x1380 JUMP JUMPDEST SWAP1 SWAP2 SSTORE POP POP PUSH1 0x1 PUSH1 0x1 PUSH1 0xA0 SHL SUB DUP11 AND PUSH1 0x0 SWAP1 DUP2 MSTORE PUSH1 0x1 PUSH1 0x20 SWAP1 DUP2 MSTORE PUSH1 0x40 DUP1 DUP4 KECCAK256 DUP7 DUP5 MSTORE SWAP1 SWAP2 MSTORE DUP2 KECCAK256 DUP1 SLOAD DUP5 SWAP3 SWAP1 PUSH2 0x50E SWAP1 DUP5 SWAP1 PUSH2 0x1393 JUMP JUMPDEST SWAP1 SWAP2 SSTORE POP POP PUSH1 0x1 ADD PUSH2 0x462 JUMP JUMPDEST POP DUP9 PUSH1 0x1 PUSH1 0x1 PUSH1 0xA0 SHL SUB AND DUP11 PUSH1 0x1 PUSH1 0x1 PUSH1 0xA0 SHL SUB AND CALLER PUSH1 0x1 PUSH1 0x1 PUSH1 0xA0 SHL SUB AND PUSH32 0x4A39DC06D4C0DBC64B70AF90FD698A233A518AA5D07E595D983B8C0526C8F7FB DUP12 DUP12 DUP12 DUP12 PUSH1 0x40 MLOAD PUSH2 0x56F SWAP5 SWAP4 SWAP3 SWAP2 SWAP1 PUSH2 0x13D8 JUMP JUMPDEST PUSH1 0x40 MLOAD DUP1 SWAP2 SUB SWAP1 LOG4 PUSH1 0x1 PUSH1 0x1 PUSH1 0xA0 SHL SUB DUP10 AND EXTCODESIZE ISZERO PUSH2 0x616 JUMPI PUSH1 0x40 MLOAD PUSH4 0xBC197C81 PUSH1 0xE0 SHL DUP1 DUP3 MSTORE SWAP1 PUSH1 0x1 PUSH1 0x1 PUSH1 0xA0 SHL SUB DUP12 AND SWAP1 PUSH4 0xBC197C81 SWAP1 PUSH2 0x5C3 SWAP1 CALLER SWAP1 DUP16 SWAP1 DUP15 SWAP1 DUP15 SWAP1 DUP15 SWAP1 DUP15 SWAP1 DUP15 SWAP1 DUP15 SWAP1 PUSH1 0x4 ADD PUSH2 0x1428 JUMP JUMPDEST PUSH1 0x20 PUSH1 0x40 MLOAD DUP1 DUP4 SUB DUP2 PUSH1 0x0 DUP8 GAS CALL ISZERO DUP1 ISZERO PUSH2 0x5E2 JUMPI RETURNDATASIZE PUSH1 0x0 DUP1 RETURNDATACOPY RETURNDATASIZE PUSH1 0x0 REVERT JUMPDEST POP POP POP POP PUSH1 0x40 MLOAD RETURNDATASIZE PUSH1 0x1F NOT PUSH1 0x1F DUP3 ADD AND DUP3 ADD DUP1 PUSH1 0x40 MSTORE POP DUP2 ADD SWAP1 PUSH2 0x606 SWAP2 SWAP1 PUSH2 0x148C JUMP JUMPDEST PUSH1 0x1 PUSH1 0x1 PUSH1 0xE0 SHL SUB NOT AND EQ PUSH2 0x623 JUMP JUMPDEST PUSH1 0x1 PUSH1 0x1 PUSH1 0xA0 SHL SUB DUP10 AND ISZERO ISZERO JUMPDEST PUSH2 0x63F JUMPI PUSH1 0x40 MLOAD PUSH3 0x461BCD PUSH1 0xE5 SHL DUP2 MSTORE PUSH1 0x4 ADD PUSH2 0x3DC SWAP1 PUSH2 0x14A9 JUMP JUMPDEST POP POP POP POP POP POP POP POP POP POP JUMP JUMPDEST PUSH1 0x40 DUP1 MLOAD CALLER PUSH1 0x20 DUP3 ADD MSTORE SWAP1 DUP2 ADD DUP3 SWAP1 MSTORE PUSH1 0x0 SWAP1 PUSH1 0x60 ADD PUSH1 0x40 DUP1 MLOAD PUSH1 0x1F NOT DUP2 DUP5 SUB ADD DUP2 MSTORE DUP3 DUP3 MSTORE DUP1 MLOAD PUSH1 0x20 SWAP2 DUP3 ADD KECCAK256 SWAP1 DUP4 ADD MSTORE ADD PUSH1 0x40 MLOAD PUSH1 0x20 DUP2 DUP4 SUB SUB DUP2 MSTORE SWAP1 PUSH1 0x40 MSTORE DUP1 MLOAD SWAP1 PUSH1 0x20 ADD KECCAK256 SWAP1 POP PUSH1 0x0 PUSH2 0x6A6 DUP6 DUP6 PUSH1 0x7 SLOAD DUP6 PUSH2 0xC88 JUMP JUMPDEST SWAP1 POP DUP1 PUSH2 0x6C6 JUMPI PUSH1 0x40 MLOAD PUSH4 0xD453FCD PUSH1 0xE3 SHL DUP2 MSTORE PUSH1 0x4 ADD PUSH1 0x40 MLOAD DUP1 SWAP2 SUB SWAP1 REVERT JUMPDEST CALLER PUSH1 0x0 SWAP1 DUP2 MSTORE PUSH1 0x4 PUSH1 0x20 MSTORE PUSH1 0x40 SWAP1 KECCAK256 SLOAD PUSH1 0xFF AND ISZERO PUSH2 0x6F7 JUMPI PUSH1 0x40 MLOAD PUSH4 0xC8D9EAB PUSH1 0xE3 SHL DUP2 MSTORE PUSH1 0x4 ADD PUSH1 0x40 MLOAD DUP1 SWAP2 SUB SWAP1 REVERT JUMPDEST CALLER PUSH1 0x0 DUP2 DUP2 MSTORE PUSH1 0x4 PUSH1 0x20 SWAP1 DUP2 MSTORE PUSH1 0x40 DUP1 DUP4 KECCAK256 DUP1 SLOAD PUSH1 0xFF NOT AND PUSH1 0x1 SWAP1 DUP2 OR SWAP1 SWAP2 SSTORE DUP2 MLOAD SWAP3 DUP4 ADD SWAP1 SWAP2 MSTORE SWAP2 DUP2 MSTORE PUSH2 0x72E SWAP3 SWAP2 DUP7 SWAP2 PUSH2 0xCC2 JUMP JUMPDEST POP POP POP POP POP JUMP JUMPDEST PUSH1 0x60 DUP4 DUP3 EQ PUSH2 0x778 JUMPI PUSH1 0x40 MLOAD PUSH3 0x461BCD PUSH1 0xE5 SHL DUP2 MSTORE PUSH1 0x20 PUSH1 0x4 DUP3 ADD MSTORE PUSH1 0xF PUSH1 0x24 DUP3 ADD MSTORE PUSH15 0x988A9C8EA890BE9A92A69A82A8869 PUSH1 0x8B SHL PUSH1 0x44 DUP3 ADD MSTORE PUSH1 0x64 ADD PUSH2 0x3DC JUMP JUMPDEST DUP4 PUSH8 0xFFFFFFFFFFFFFFFF DUP2 GT ISZERO PUSH2 0x791 JUMPI PUSH2 0x791 PUSH2 0x1252 JUMP JUMPDEST PUSH1 0x40 MLOAD SWAP1 DUP1 DUP3 MSTORE DUP1 PUSH1 0x20 MUL PUSH1 0x20 ADD DUP3 ADD PUSH1 0x40 MSTORE DUP1 ISZERO PUSH2 0x7BA JUMPI DUP2 PUSH1 0x20 ADD PUSH1 0x20 DUP3 MUL DUP1 CALLDATASIZE DUP4 CALLDATACOPY ADD SWAP1 POP JUMPDEST POP SWAP1 POP PUSH1 0x0 JUMPDEST DUP5 DUP2 LT ISZERO PUSH2 0x862 JUMPI PUSH1 0x1 PUSH1 0x0 DUP8 DUP8 DUP5 DUP2 DUP2 LT PUSH2 0x7DE JUMPI PUSH2 0x7DE PUSH2 0x1354 JUMP JUMPDEST SWAP1 POP PUSH1 0x20 MUL ADD PUSH1 0x20 DUP2 ADD SWAP1 PUSH2 0x7F3 SWAP2 SWAP1 PUSH2 0x118C JUMP JUMPDEST PUSH1 0x1 PUSH1 0x1 PUSH1 0xA0 SHL SUB AND PUSH1 0x1 PUSH1 0x1 PUSH1 0xA0 SHL SUB AND DUP2 MSTORE PUSH1 0x20 ADD SWAP1 DUP2 MSTORE PUSH1 0x20 ADD PUSH1 0x0 KECCAK256 PUSH1 0x0 DUP6 DUP6 DUP5 DUP2 DUP2 LT PUSH2 0x827 JUMPI PUSH2 0x827 PUSH2 0x1354 JUMP JUMPDEST SWAP1 POP PUSH1 0x20 MUL ADD CALLDATALOAD DUP2 MSTORE PUSH1 0x20 ADD SWAP1 DUP2 MSTORE PUSH1 0x20 ADD PUSH1 0x0 KECCAK256 SLOAD DUP3 DUP3 DUP2 MLOAD DUP2 LT PUSH2 0x84F JUMPI PUSH2 0x84F PUSH2 0x1354 JUMP JUMPDEST PUSH1 0x20 SWAP1 DUP2 MUL SWAP2 SWAP1 SWAP2 ADD ADD MSTORE PUSH1 0x1 ADD PUSH2 0x7C0 JUMP JUMPDEST POP SWAP5 SWAP4 POP POP POP POP JUMP JUMPDEST PUSH1 0x5 SLOAD PUSH1 0x1 PUSH1 0x1 PUSH1 0xA0 SHL SUB AND CALLER EQ PUSH2 0x8B4 JUMPI PUSH1 0x40 MLOAD PUSH3 0x461BCD PUSH1 0xE5 SHL DUP2 MSTORE PUSH1 0x20 PUSH1 0x4 DUP3 ADD MSTORE PUSH1 0xC PUSH1 0x24 DUP3 ADD MSTORE PUSH12 0x15539055551213D492569151 PUSH1 0xA2 SHL PUSH1 0x44 DUP3 ADD MSTORE PUSH1 0x64 ADD PUSH2 0x3DC JUMP JUMPDEST PUSH1 0x7 SSTORE JUMP JUMPDEST CALLER PUSH1 0x0 DUP2 DUP2 MSTORE PUSH1 0x2 PUSH1 0x20 SWAP1 DUP2 MSTORE PUSH1 0x40 DUP1 DUP4 KECCAK256 PUSH1 0x1 PUSH1 0x1 PUSH1 0xA0 SHL SUB DUP8 AND DUP1 DUP6 MSTORE SWAP1 DUP4 MSTORE SWAP3 DUP2 SWAP1 KECCAK256 DUP1 SLOAD PUSH1 0xFF NOT AND DUP7 ISZERO ISZERO SWAP1 DUP2 OR SWAP1 SWAP2 SSTORE SWAP1 MLOAD SWAP1 DUP2 MSTORE SWAP2 SWAP3 SWAP2 PUSH32 0x17307EAB39AB6107E8899845AD3D59BD9653F200F220920489CA2B5937696C31 SWAP2 ADD PUSH1 0x40 MLOAD DUP1 SWAP2 SUB SWAP1 LOG3 POP POP JUMP JUMPDEST PUSH1 0x0 SLOAD PUSH2 0x100 SWAP1 DIV PUSH1 0xFF AND ISZERO DUP1 DUP1 ISZERO PUSH2 0x945 JUMPI POP PUSH1 0x0 SLOAD PUSH1 0x1 PUSH1 0xFF SWAP1 SWAP2 AND LT JUMPDEST DUP1 PUSH2 0x95F JUMPI POP ADDRESS EXTCODESIZE ISZERO DUP1 ISZERO PUSH2 0x95F JUMPI POP PUSH1 0x0 SLOAD PUSH1 0xFF AND PUSH1 0x1 EQ JUMPDEST PUSH2 0x9C2 JUMPI PUSH1 0x40 MLOAD PUSH3 0x461BCD PUSH1 0xE5 SHL DUP2 MSTORE PUSH1 0x20 PUSH1 0x4 DUP3 ADD MSTORE PUSH1 0x2E PUSH1 0x24 DUP3 ADD MSTORE PUSH32 0x496E697469616C697A61626C653A20636F6E747261637420697320616C726561 PUSH1 0x44 DUP3 ADD MSTORE PUSH14 0x191E481A5B9A5D1A585B1A5E9959 PUSH1 0x92 SHL PUSH1 0x64 DUP3 ADD MSTORE PUSH1 0x84 ADD PUSH2 0x3DC JUMP JUMPDEST PUSH1 0x0 DUP1 SLOAD PUSH1 0xFF NOT AND PUSH1 0x1 OR SWAP1 SSTORE DUP1 ISZERO PUSH2 0x9E5 JUMPI PUSH1 0x0 DUP1 SLOAD PUSH2 0xFF00 NOT AND PUSH2 0x100 OR SWAP1 SSTORE JUMPDEST PUSH1 0x5 DUP1 SLOAD PUSH1 0x1 PUSH1 0x1 PUSH1 0xA0 SHL SUB NOT AND PUSH1 0x1 PUSH1 0x1 PUSH1 0xA0 SHL SUB DUP5 AND SWAP1 DUP2 OR SWAP1 SWAP2 SSTORE PUSH1 0x40 MLOAD PUSH1 0x0 SWAP1 PUSH32 0x8BE0079C531659141344CD1FD0A4F28419497F9722A3DAAFE3B4186F6B6457E0 SWAP1 DUP3 SWAP1 LOG3 PUSH1 0x6 DUP1 SLOAD PUSH1 0x1 PUSH1 0x1 PUSH1 0xA0 SHL SUB NOT AND CALLER OR SWAP1 SSTORE DUP1 ISZERO PUSH2 0xA86 JUMPI PUSH1 0x0 DUP1 SLOAD PUSH2 0xFF00 NOT AND SWAP1 SSTORE PUSH1 0x40 MLOAD PUSH1 0x1 DUP2 MSTORE PUSH32 0x7F26B83FF96E1F2B6A682F133852F6798A09C465DA95921460CEFB3847402498 SWAP1 PUSH1 0x20 ADD PUSH1 0x40 MLOAD DUP1 SWAP2 SUB SWAP1 LOG1 JUMPDEST POP POP JUMP JUMPDEST CALLER PUSH1 0x1 PUSH1 0x1 PUSH1 0xA0 SHL SUB DUP8 AND EQ DUP1 PUSH2 0xAC4 JUMPI POP PUSH1 0x1 PUSH1 0x1 PUSH1 0xA0 SHL SUB DUP7 AND PUSH1 0x0 SWAP1 DUP2 MSTORE PUSH1 0x2 PUSH1 0x20 SWAP1 DUP2 MSTORE PUSH1 0x40 DUP1 DUP4 KECCAK256 CALLER DUP5 MSTORE SWAP1 SWAP2 MSTORE SWAP1 KECCAK256 SLOAD PUSH1 0xFF AND JUMPDEST PUSH2 0xB01 JUMPI PUSH1 0x40 MLOAD PUSH3 0x461BCD PUSH1 0xE5 SHL DUP2 MSTORE PUSH1 0x20 PUSH1 0x4 DUP3 ADD MSTORE PUSH1 0xE PUSH1 0x24 DUP3 ADD MSTORE PUSH14 0x1393D517D055551213D492569151 PUSH1 0x92 SHL PUSH1 0x44 DUP3 ADD MSTORE PUSH1 0x64 ADD PUSH2 0x3DC JUMP JUMPDEST PUSH1 0x1 PUSH1 0x1 PUSH1 0xA0 SHL SUB DUP7 AND PUSH1 0x0 SWAP1 DUP2 MSTORE PUSH1 0x1 PUSH1 0x20 SWAP1 DUP2 MSTORE PUSH1 0x40 DUP1 DUP4 KECCAK256 DUP8 DUP5 MSTORE SWAP1 SWAP2 MSTORE DUP2 KECCAK256 DUP1 SLOAD DUP6 SWAP3 SWAP1 PUSH2 0xB34 SWAP1 DUP5 SWAP1 PUSH2 0x1380 JUMP JUMPDEST SWAP1 SWAP2 SSTORE POP POP PUSH1 0x1 PUSH1 0x1 PUSH1 0xA0 SHL SUB DUP6 AND PUSH1 0x0 SWAP1 DUP2 MSTORE PUSH1 0x1 PUSH1 0x20 SWAP1 DUP2 MSTORE PUSH1 0x40 DUP1 DUP4 KECCAK256 DUP8 DUP5 MSTORE SWAP1 SWAP2 MSTORE DUP2 KECCAK256 DUP1 SLOAD DUP6 SWAP3 SWAP1 PUSH2 0xB6C SWAP1 DUP5 SWAP1 PUSH2 0x1393 JUMP JUMPDEST SWAP1 SWAP2 SSTORE POP POP PUSH1 0x40 DUP1 MLOAD DUP6 DUP2 MSTORE PUSH1 0x20 DUP2 ADD DUP6 SWAP1 MSTORE PUSH1 0x1 PUSH1 0x1 PUSH1 0xA0 SHL SUB DUP1 DUP9 AND SWAP3 SWAP1 DUP10 AND SWAP2 CALLER SWAP2 PUSH32 0xC3D58168C5AE7397731D063D5BBF3D657854427343F4C083240F7AACAA2D0F62 SWAP2 ADD PUSH1 0x40 MLOAD DUP1 SWAP2 SUB SWAP1 LOG4 PUSH1 0x1 PUSH1 0x1 PUSH1 0xA0 SHL SUB DUP6 AND EXTCODESIZE ISZERO PUSH2 0xC57 JUMPI PUSH1 0x40 MLOAD PUSH4 0xF23A6E61 PUSH1 0xE0 SHL DUP1 DUP3 MSTORE SWAP1 PUSH1 0x1 PUSH1 0x1 PUSH1 0xA0 SHL SUB DUP8 AND SWAP1 PUSH4 0xF23A6E61 SWAP1 PUSH2 0xC04 SWAP1 CALLER SWAP1 DUP12 SWAP1 DUP11 SWAP1 DUP11 SWAP1 DUP11 SWAP1 DUP11 SWAP1 PUSH1 0x4 ADD PUSH2 0x14D3 JUMP JUMPDEST PUSH1 0x20 PUSH1 0x40 MLOAD DUP1 DUP4 SUB DUP2 PUSH1 0x0 DUP8 GAS CALL ISZERO DUP1 ISZERO PUSH2 0xC23 JUMPI RETURNDATASIZE PUSH1 0x0 DUP1 RETURNDATACOPY RETURNDATASIZE PUSH1 0x0 REVERT JUMPDEST POP POP POP POP PUSH1 0x40 MLOAD RETURNDATASIZE PUSH1 0x1F NOT PUSH1 0x1F DUP3 ADD AND DUP3 ADD DUP1 PUSH1 0x40 MSTORE POP DUP2 ADD SWAP1 PUSH2 0xC47 SWAP2 SWAP1 PUSH2 0x148C JUMP JUMPDEST PUSH1 0x1 PUSH1 0x1 PUSH1 0xE0 SHL SUB NOT AND EQ PUSH2 0xC64 JUMP JUMPDEST PUSH1 0x1 PUSH1 0x1 PUSH1 0xA0 SHL SUB DUP6 AND ISZERO ISZERO JUMPDEST PUSH2 0xC80 JUMPI PUSH1 0x40 MLOAD PUSH3 0x461BCD PUSH1 0xE5 SHL DUP2 MSTORE PUSH1 0x4 ADD PUSH2 0x3DC SWAP1 PUSH2 0x14A9 JUMP JUMPDEST POP POP POP POP POP POP JUMP JUMPDEST PUSH1 0x0 DUP4 ISZERO PUSH2 0xCBA JUMPI DUP4 PUSH1 0x5 SHL DUP6 ADD DUP6 JUMPDEST DUP1 CALLDATALOAD DUP1 DUP6 GT PUSH1 0x5 SHL SWAP5 DUP6 MSTORE PUSH1 0x20 SWAP5 DUP6 XOR MSTORE PUSH1 0x40 PUSH1 0x0 KECCAK256 SWAP4 ADD DUP2 DUP2 LT PUSH2 0xC98 JUMPI POP POP JUMPDEST POP EQ SWAP3 SWAP2 POP POP JUMP JUMPDEST PUSH1 0x1 PUSH1 0x1 PUSH1 0xA0 SHL SUB DUP5 AND PUSH1 0x0 SWAP1 DUP2 MSTORE PUSH1 0x1 PUSH1 0x20 SWAP1 DUP2 MSTORE PUSH1 0x40 DUP1 DUP4 KECCAK256 DUP7 DUP5 MSTORE SWAP1 SWAP2 MSTORE DUP2 KECCAK256 DUP1 SLOAD DUP5 SWAP3 SWAP1 PUSH2 0xCF5 SWAP1 DUP5 SWAP1 PUSH2 0x1393 JUMP JUMPDEST SWAP1 SWAP2 SSTORE POP POP PUSH1 0x40 DUP1 MLOAD DUP5 DUP2 MSTORE PUSH1 0x20 DUP2 ADD DUP5 SWAP1 MSTORE PUSH1 0x1 PUSH1 0x1 PUSH1 0xA0 SHL SUB DUP7 AND SWAP2 PUSH1 0x0 SWAP2 CALLER SWAP2 PUSH32 0xC3D58168C5AE7397731D063D5BBF3D657854427343F4C083240F7AACAA2D0F62 SWAP2 ADD PUSH1 0x40 MLOAD DUP1 SWAP2 SUB SWAP1 LOG4 PUSH1 0x1 PUSH1 0x1 PUSH1 0xA0 SHL SUB DUP5 AND EXTCODESIZE ISZERO PUSH2 0xDDD JUMPI PUSH1 0x40 MLOAD PUSH4 0xF23A6E61 PUSH1 0xE0 SHL DUP1 DUP3 MSTORE SWAP1 PUSH1 0x1 PUSH1 0x1 PUSH1 0xA0 SHL SUB DUP7 AND SWAP1 PUSH4 0xF23A6E61 SWAP1 PUSH2 0xD8A SWAP1 CALLER SWAP1 PUSH1 0x0 SWAP1 DUP10 SWAP1 DUP10 SWAP1 DUP10 SWAP1 PUSH1 0x4 ADD PUSH2 0x151A JUMP JUMPDEST PUSH1 0x20 PUSH1 0x40 MLOAD DUP1 DUP4 SUB DUP2 PUSH1 0x0 DUP8 GAS CALL ISZERO DUP1 ISZERO PUSH2 0xDA9 JUMPI RETURNDATASIZE PUSH1 0x0 DUP1 RETURNDATACOPY RETURNDATASIZE PUSH1 0x0 REVERT JUMPDEST POP POP POP POP PUSH1 0x40 MLOAD RETURNDATASIZE PUSH1 0x1F NOT PUSH1 0x1F DUP3 ADD AND DUP3 ADD DUP1 PUSH1 0x40 MSTORE POP DUP2 ADD SWAP1 PUSH2 0xDCD SWAP2 SWAP1 PUSH2 0x148C JUMP JUMPDEST PUSH1 0x1 PUSH1 0x1 PUSH1 0xE0 SHL SUB NOT AND EQ PUSH2 0xDEA JUMP JUMPDEST PUSH1 0x1 PUSH1 0x1 PUSH1 0xA0 SHL SUB DUP5 AND ISZERO ISZERO JUMPDEST PUSH2 0xE06 JUMPI PUSH1 0x40 MLOAD PUSH3 0x461BCD PUSH1 0xE5 SHL DUP2 MSTORE PUSH1 0x4 ADD PUSH2 0x3DC SWAP1 PUSH2 0x14A9 JUMP JUMPDEST POP POP POP POP JUMP JUMPDEST DUP1 CALLDATALOAD PUSH1 0x1 PUSH1 0x1 PUSH1 0xA0 SHL SUB DUP2 AND DUP2 EQ PUSH2 0xE23 JUMPI PUSH1 0x0 DUP1 REVERT JUMPDEST SWAP2 SWAP1 POP JUMP JUMPDEST PUSH1 0x0 DUP1 PUSH1 0x40 DUP4 DUP6 SUB SLT ISZERO PUSH2 0xE3B JUMPI PUSH1 0x0 DUP1 REVERT JUMPDEST PUSH2 0xE44 DUP4 PUSH2 0xE0C JUMP JUMPDEST SWAP5 PUSH1 0x20 SWAP4 SWAP1 SWAP4 ADD CALLDATALOAD SWAP4 POP POP POP JUMP JUMPDEST PUSH1 0x1 PUSH1 0x1 PUSH1 0xE0 SHL SUB NOT DUP2 AND DUP2 EQ PUSH2 0xE68 JUMPI PUSH1 0x0 DUP1 REVERT JUMPDEST POP JUMP JUMPDEST PUSH1 0x0 PUSH1 0x20 DUP3 DUP5 SUB SLT ISZERO PUSH2 0xE7D JUMPI PUSH1 0x0 DUP1 REVERT JUMPDEST DUP2 CALLDATALOAD PUSH2 0xE88 DUP2 PUSH2 0xE52 JUMP JUMPDEST SWAP4 SWAP3 POP POP POP JUMP JUMPDEST PUSH1 0x0 PUSH1 0x20 DUP3 DUP5 SUB SLT ISZERO PUSH2 0xEA1 JUMPI PUSH1 0x0 DUP1 REVERT JUMPDEST POP CALLDATALOAD SWAP2 SWAP1 POP JUMP JUMPDEST PUSH1 0x0 JUMPDEST DUP4 DUP2 LT ISZERO PUSH2 0xEC3 JUMPI DUP2 DUP2 ADD MLOAD DUP4 DUP3 ADD MSTORE PUSH1 0x20 ADD PUSH2 0xEAB JUMP JUMPDEST POP POP PUSH1 0x0 SWAP2 ADD MSTORE JUMP JUMPDEST PUSH1 0x0 DUP2 MLOAD DUP1 DUP5 MSTORE PUSH2 0xEE4 DUP2 PUSH1 0x20 DUP7 ADD PUSH1 0x20 DUP7 ADD PUSH2 0xEA8 JUMP JUMPDEST PUSH1 0x1F ADD PUSH1 0x1F NOT AND SWAP3 SWAP1 SWAP3 ADD PUSH1 0x20 ADD SWAP3 SWAP2 POP POP JUMP JUMPDEST PUSH1 0x20 DUP2 MSTORE PUSH1 0x0 PUSH2 0xE88 PUSH1 0x20 DUP4 ADD DUP5 PUSH2 0xECC JUMP JUMPDEST PUSH1 0x0 DUP1 DUP4 PUSH1 0x1F DUP5 ADD SLT PUSH2 0xF1D JUMPI PUSH1 0x0 DUP1 REVERT JUMPDEST POP DUP2 CALLDATALOAD PUSH8 0xFFFFFFFFFFFFFFFF DUP2 GT ISZERO PUSH2 0xF35 JUMPI PUSH1 0x0 DUP1 REVERT JUMPDEST PUSH1 0x20 DUP4 ADD SWAP2 POP DUP4 PUSH1 0x20 DUP3 PUSH1 0x5 SHL DUP6 ADD ADD GT ISZERO PUSH2 0xF50 JUMPI PUSH1 0x0 DUP1 REVERT JUMPDEST SWAP3 POP SWAP3 SWAP1 POP JUMP JUMPDEST PUSH1 0x0 DUP1 DUP4 PUSH1 0x1F DUP5 ADD SLT PUSH2 0xF69 JUMPI PUSH1 0x0 DUP1 REVERT JUMPDEST POP DUP2 CALLDATALOAD PUSH8 0xFFFFFFFFFFFFFFFF DUP2 GT ISZERO PUSH2 0xF81 JUMPI PUSH1 0x0 DUP1 REVERT JUMPDEST PUSH1 0x20 DUP4 ADD SWAP2 POP DUP4 PUSH1 0x20 DUP3 DUP6 ADD ADD GT ISZERO PUSH2 0xF50 JUMPI PUSH1 0x0 DUP1 REVERT JUMPDEST PUSH1 0x0 DUP1 PUSH1 0x0 DUP1 PUSH1 0x0 DUP1 PUSH1 0x0 DUP1 PUSH1 0xA0 DUP10 DUP12 SUB SLT ISZERO PUSH2 0xFB5 JUMPI PUSH1 0x0 DUP1 REVERT JUMPDEST PUSH2 0xFBE DUP10 PUSH2 0xE0C JUMP JUMPDEST SWAP8 POP PUSH2 0xFCC PUSH1 0x20 DUP11 ADD PUSH2 0xE0C JUMP JUMPDEST SWAP7 POP PUSH1 0x40 DUP10 ADD CALLDATALOAD PUSH8 0xFFFFFFFFFFFFFFFF DUP1 DUP3 GT ISZERO PUSH2 0xFE9 JUMPI PUSH1 0x0 DUP1 REVERT JUMPDEST PUSH2 0xFF5 DUP13 DUP4 DUP14 ADD PUSH2 0xF0B JUMP JUMPDEST SWAP1 SWAP9 POP SWAP7 POP PUSH1 0x60 DUP12 ADD CALLDATALOAD SWAP2 POP DUP1 DUP3 GT ISZERO PUSH2 0x100E JUMPI PUSH1 0x0 DUP1 REVERT JUMPDEST PUSH2 0x101A DUP13 DUP4 DUP14 ADD PUSH2 0xF0B JUMP JUMPDEST SWAP1 SWAP7 POP SWAP5 POP PUSH1 0x80 DUP12 ADD CALLDATALOAD SWAP2 POP DUP1 DUP3 GT ISZERO PUSH2 0x1033 JUMPI PUSH1 0x0 DUP1 REVERT JUMPDEST POP PUSH2 0x1040 DUP12 DUP3 DUP13 ADD PUSH2 0xF57 JUMP JUMPDEST SWAP10 SWAP13 SWAP9 SWAP12 POP SWAP7 SWAP10 POP SWAP5 SWAP8 SWAP4 SWAP7 SWAP3 SWAP6 SWAP5 POP POP POP JUMP JUMPDEST PUSH1 0x0 DUP1 PUSH1 0x0 PUSH1 0x40 DUP5 DUP7 SUB SLT ISZERO PUSH2 0x1069 JUMPI PUSH1 0x0 DUP1 REVERT JUMPDEST DUP4 CALLDATALOAD PUSH8 0xFFFFFFFFFFFFFFFF DUP2 GT ISZERO PUSH2 0x1080 JUMPI PUSH1 0x0 DUP1 REVERT JUMPDEST PUSH2 0x108C DUP7 DUP3 DUP8 ADD PUSH2 0xF0B JUMP JUMPDEST SWAP1 SWAP8 SWAP1 SWAP7 POP PUSH1 0x20 SWAP6 SWAP1 SWAP6 ADD CALLDATALOAD SWAP5 SWAP4 POP POP POP POP JUMP JUMPDEST PUSH1 0x0 DUP1 PUSH1 0x0 DUP1 PUSH1 0x40 DUP6 DUP8 SUB SLT ISZERO PUSH2 0x10B6 JUMPI PUSH1 0x0 DUP1 REVERT JUMPDEST DUP5 CALLDATALOAD PUSH8 0xFFFFFFFFFFFFFFFF DUP1 DUP3 GT ISZERO PUSH2 0x10CE JUMPI PUSH1 0x0 DUP1 REVERT JUMPDEST PUSH2 0x10DA DUP9 DUP4 DUP10 ADD PUSH2 0xF0B JUMP JUMPDEST SWAP1 SWAP7 POP SWAP5 POP PUSH1 0x20 DUP8 ADD CALLDATALOAD SWAP2 POP DUP1 DUP3 GT ISZERO PUSH2 0x10F3 JUMPI PUSH1 0x0 DUP1 REVERT JUMPDEST POP PUSH2 0x1100 DUP8 DUP3 DUP9 ADD PUSH2 0xF0B JUMP JUMPDEST SWAP6 SWAP9 SWAP5 SWAP8 POP SWAP6 POP POP POP POP JUMP JUMPDEST PUSH1 0x20 DUP1 DUP3 MSTORE DUP3 MLOAD DUP3 DUP3 ADD DUP2 SWAP1 MSTORE PUSH1 0x0 SWAP2 SWAP1 DUP5 DUP3 ADD SWAP1 PUSH1 0x40 DUP6 ADD SWAP1 DUP5 JUMPDEST DUP2 DUP2 LT ISZERO PUSH2 0x1144 JUMPI DUP4 MLOAD DUP4 MSTORE SWAP3 DUP5 ADD SWAP3 SWAP2 DUP5 ADD SWAP2 PUSH1 0x1 ADD PUSH2 0x1128 JUMP JUMPDEST POP SWAP1 SWAP7 SWAP6 POP POP POP POP POP POP JUMP JUMPDEST PUSH1 0x0 DUP1 PUSH1 0x40 DUP4 DUP6 SUB SLT ISZERO PUSH2 0x1163 JUMPI PUSH1 0x0 DUP1 REVERT JUMPDEST PUSH2 0x116C DUP4 PUSH2 0xE0C JUMP JUMPDEST SWAP2 POP PUSH1 0x20 DUP4 ADD CALLDATALOAD DUP1 ISZERO ISZERO DUP2 EQ PUSH2 0x1181 JUMPI PUSH1 0x0 DUP1 REVERT JUMPDEST DUP1 SWAP2 POP POP SWAP3 POP SWAP3 SWAP1 POP JUMP JUMPDEST PUSH1 0x0 PUSH1 0x20 DUP3 DUP5 SUB SLT ISZERO PUSH2 0x119E JUMPI PUSH1 0x0 DUP1 REVERT JUMPDEST PUSH2 0xE88 DUP3 PUSH2 0xE0C JUMP JUMPDEST PUSH1 0x0 DUP1 PUSH1 0x40 DUP4 DUP6 SUB SLT ISZERO PUSH2 0x11BA JUMPI PUSH1 0x0 DUP1 REVERT JUMPDEST PUSH2 0x11C3 DUP4 PUSH2 0xE0C JUMP JUMPDEST SWAP2 POP PUSH2 0x11D1 PUSH1 0x20 DUP5 ADD PUSH2 0xE0C JUMP JUMPDEST SWAP1 POP SWAP3 POP SWAP3 SWAP1 POP JUMP JUMPDEST PUSH1 0x0 DUP1 PUSH1 0x0 DUP1 PUSH1 0x0 DUP1 PUSH1 0xA0 DUP8 DUP10 SUB SLT ISZERO PUSH2 0x11F3 JUMPI PUSH1 0x0 DUP1 REVERT JUMPDEST PUSH2 0x11FC DUP8 PUSH2 0xE0C JUMP JUMPDEST SWAP6 POP PUSH2 0x120A PUSH1 0x20 DUP9 ADD PUSH2 0xE0C JUMP JUMPDEST SWAP5 POP PUSH1 0x40 DUP8 ADD CALLDATALOAD SWAP4 POP PUSH1 0x60 DUP8 ADD CALLDATALOAD SWAP3 POP PUSH1 0x80 DUP8 ADD CALLDATALOAD PUSH8 0xFFFFFFFFFFFFFFFF DUP2 GT ISZERO PUSH2 0x1234 JUMPI PUSH1 0x0 DUP1 REVERT JUMPDEST PUSH2 0x1240 DUP10 DUP3 DUP11 ADD PUSH2 0xF57 JUMP JUMPDEST SWAP8 SWAP11 SWAP7 SWAP10 POP SWAP5 SWAP8 POP SWAP3 SWAP6 SWAP4 SWAP5 SWAP3 POP POP POP JUMP JUMPDEST PUSH4 0x4E487B71 PUSH1 0xE0 SHL PUSH1 0x0 MSTORE PUSH1 0x41 PUSH1 0x4 MSTORE PUSH1 0x24 PUSH1 0x0 REVERT JUMPDEST PUSH1 0x0 PUSH1 0x20 DUP3 DUP5 SUB SLT ISZERO PUSH2 0x127A JUMPI PUSH1 0x0 DUP1 REVERT JUMPDEST DUP2 MLOAD PUSH8 0xFFFFFFFFFFFFFFFF DUP1 DUP3 GT ISZERO PUSH2 0x1292 JUMPI PUSH1 0x0 DUP1 REVERT JUMPDEST DUP2 DUP5 ADD SWAP2 POP DUP5 PUSH1 0x1F DUP4 ADD SLT PUSH2 0x12A6 JUMPI PUSH1 0x0 DUP1 REVERT JUMPDEST DUP2 MLOAD DUP2 DUP2 GT ISZERO PUSH2 0x12B8 JUMPI PUSH2 0x12B8 PUSH2 0x1252 JUMP JUMPDEST PUSH1 0x40 MLOAD PUSH1 0x1F DUP3 ADD PUSH1 0x1F NOT SWAP1 DUP2 AND PUSH1 0x3F ADD AND DUP2 ADD SWAP1 DUP4 DUP3 GT DUP2 DUP4 LT OR ISZERO PUSH2 0x12E0 JUMPI PUSH2 0x12E0 PUSH2 0x1252 JUMP JUMPDEST DUP2 PUSH1 0x40 MSTORE DUP3 DUP2 MSTORE DUP8 PUSH1 0x20 DUP5 DUP8 ADD ADD GT ISZERO PUSH2 0x12F9 JUMPI PUSH1 0x0 DUP1 REVERT JUMPDEST PUSH2 0x130A DUP4 PUSH1 0x20 DUP4 ADD PUSH1 0x20 DUP9 ADD PUSH2 0xEA8 JUMP JUMPDEST SWAP8 SWAP7 POP POP POP POP POP POP POP JUMP JUMPDEST PUSH1 0x0 DUP5 MLOAD PUSH2 0x1327 DUP2 DUP5 PUSH1 0x20 DUP10 ADD PUSH2 0xEA8 JUMP JUMPDEST PUSH1 0x60 SWAP5 SWAP1 SWAP5 SHL PUSH12 0xFFFFFFFFFFFFFFFFFFFFFFFF NOT AND SWAP2 SWAP1 SWAP4 ADD SWAP1 DUP2 MSTORE PUSH1 0x14 DUP2 ADD SWAP2 SWAP1 SWAP2 MSTORE PUSH1 0x34 ADD SWAP3 SWAP2 POP POP JUMP JUMPDEST PUSH4 0x4E487B71 PUSH1 0xE0 SHL PUSH1 0x0 MSTORE PUSH1 0x32 PUSH1 0x4 MSTORE PUSH1 0x24 PUSH1 0x0 REVERT JUMPDEST PUSH4 0x4E487B71 PUSH1 0xE0 SHL PUSH1 0x0 MSTORE PUSH1 0x11 PUSH1 0x4 MSTORE PUSH1 0x24 PUSH1 0x0 REVERT JUMPDEST DUP2 DUP2 SUB DUP2 DUP2 GT ISZERO PUSH2 0x2F2 JUMPI PUSH2 0x2F2 PUSH2 0x136A JUMP JUMPDEST DUP1 DUP3 ADD DUP1 DUP3 GT ISZERO PUSH2 0x2F2 JUMPI PUSH2 0x2F2 PUSH2 0x136A JUMP JUMPDEST DUP2 DUP4 MSTORE PUSH1 0x0 PUSH1 0x1 PUSH1 0x1 PUSH1 0xFB SHL SUB DUP4 GT ISZERO PUSH2 0x13BF JUMPI PUSH1 0x0 DUP1 REVERT JUMPDEST DUP3 PUSH1 0x5 SHL DUP1 DUP4 PUSH1 0x20 DUP8 ADD CALLDATACOPY SWAP4 SWAP1 SWAP4 ADD PUSH1 0x20 ADD SWAP4 SWAP3 POP POP POP JUMP JUMPDEST PUSH1 0x40 DUP2 MSTORE PUSH1 0x0 PUSH2 0x13EC PUSH1 0x40 DUP4 ADD DUP7 DUP9 PUSH2 0x13A6 JUMP JUMPDEST DUP3 DUP2 SUB PUSH1 0x20 DUP5 ADD MSTORE PUSH2 0x130A DUP2 DUP6 DUP8 PUSH2 0x13A6 JUMP JUMPDEST DUP2 DUP4 MSTORE DUP2 DUP2 PUSH1 0x20 DUP6 ADD CALLDATACOPY POP PUSH1 0x0 DUP3 DUP3 ADD PUSH1 0x20 SWAP1 DUP2 ADD SWAP2 SWAP1 SWAP2 MSTORE PUSH1 0x1F SWAP1 SWAP2 ADD PUSH1 0x1F NOT AND SWAP1 SWAP2 ADD ADD SWAP1 JUMP JUMPDEST PUSH1 0x1 PUSH1 0x1 PUSH1 0xA0 SHL SUB DUP10 DUP2 AND DUP3 MSTORE DUP9 AND PUSH1 0x20 DUP3 ADD MSTORE PUSH1 0xA0 PUSH1 0x40 DUP3 ADD DUP2 SWAP1 MSTORE PUSH1 0x0 SWAP1 PUSH2 0x1455 SWAP1 DUP4 ADD DUP9 DUP11 PUSH2 0x13A6 JUMP JUMPDEST DUP3 DUP2 SUB PUSH1 0x60 DUP5 ADD MSTORE PUSH2 0x1468 DUP2 DUP8 DUP10 PUSH2 0x13A6 JUMP JUMPDEST SWAP1 POP DUP3 DUP2 SUB PUSH1 0x80 DUP5 ADD MSTORE PUSH2 0x147D DUP2 DUP6 DUP8 PUSH2 0x13FF JUMP JUMPDEST SWAP12 SWAP11 POP POP POP POP POP POP POP POP POP POP POP JUMP JUMPDEST PUSH1 0x0 PUSH1 0x20 DUP3 DUP5 SUB SLT ISZERO PUSH2 0x149E JUMPI PUSH1 0x0 DUP1 REVERT JUMPDEST DUP2 MLOAD PUSH2 0xE88 DUP2 PUSH2 0xE52 JUMP JUMPDEST PUSH1 0x20 DUP1 DUP3 MSTORE PUSH1 0x10 SWAP1 DUP3 ADD MSTORE PUSH16 0x155394D0519157D49150D25412515395 PUSH1 0x82 SHL PUSH1 0x40 DUP3 ADD MSTORE PUSH1 0x60 ADD SWAP1 JUMP JUMPDEST PUSH1 0x1 PUSH1 0x1 PUSH1 0xA0 SHL SUB DUP8 DUP2 AND DUP3 MSTORE DUP7 AND PUSH1 0x20 DUP3 ADD MSTORE PUSH1 0x40 DUP2 ADD DUP6 SWAP1 MSTORE PUSH1 0x60 DUP2 ADD DUP5 SWAP1 MSTORE PUSH1 0xA0 PUSH1 0x80 DUP3 ADD DUP2 SWAP1 MSTORE PUSH1 0x0 SWAP1 PUSH2 0x150E SWAP1 DUP4 ADD DUP5 DUP7 PUSH2 0x13FF JUMP JUMPDEST SWAP9 SWAP8 POP POP POP POP POP POP POP POP JUMP JUMPDEST PUSH1 0x1 PUSH1 0x1 PUSH1 0xA0 SHL SUB DUP7 DUP2 AND DUP3 MSTORE DUP6 AND PUSH1 0x20 DUP3 ADD MSTORE PUSH1 0x40 DUP2 ADD DUP5 SWAP1 MSTORE PUSH1 0x60 DUP2 ADD DUP4 SWAP1 MSTORE PUSH1 0xA0 PUSH1 0x80 DUP3 ADD DUP2 SWAP1 MSTORE PUSH1 0x0 SWAP1 PUSH2 0x130A SWAP1 DUP4 ADD DUP5 PUSH2 0xECC JUMP INVALID LOG2 PUSH5 0x6970667358 0x22 SLT KECCAK256 SELFBALANCE BYTE BYTE PUSH14 0xBEBA3F8C4F13D3A8108D240DBE92 SMOD SWAP15 ISZERO SGT 0xD3 PUSH3 0x74CC6D 0x5D 0x4E 0xA5 PUSH23 0x6464736F6C634300081100330000000000000000000000 "
				},
				"gasEstimates": {
					"creation": {
						"codeDepositCost": "1102800",
						"executionCost": "1147",
						"totalCost": "1103947"
					},
					"external": {
						"balanceOf(address,uint256)": "2625",
						"balanceOfBatch(address[],uint256[])": "infinite",
						"claim(bytes32[],uint256)": "infinite",
						"factory()": "2426",
						"initialize(address)": "133156",
						"isApprovedForAll(address,address)": "infinite",
						"merkleRoot()": "2329",
						"owner()": "2382",
						"safeBatchTransferFrom(address,address,uint256[],uint256[],bytes)": "infinite",
						"safeTransferFrom(address,address,uint256,uint256,bytes)": "infinite",
						"setApprovalForAll(address,bool)": "26652",
						"setMerkleRoot(bytes32)": "24487",
						"supportsInterface(bytes4)": "567",
						"ticketClaimed(address)": "2619",
						"uri(uint256)": "infinite"
					}
				},
				"methodIdentifiers": {
					"balanceOf(address,uint256)": "00fdd58e",
					"balanceOfBatch(address[],uint256[])": "4e1273f4",
					"claim(bytes32[],uint256)": "3b439351",
					"factory()": "c45a0155",
					"initialize(address)": "c4d66de8",
					"isApprovedForAll(address,address)": "e985e9c5",
					"merkleRoot()": "2eb4a7ab",
					"owner()": "8da5cb5b",
					"safeBatchTransferFrom(address,address,uint256[],uint256[],bytes)": "2eb2c2d6",
					"safeTransferFrom(address,address,uint256,uint256,bytes)": "f242432a",
					"setApprovalForAll(address,bool)": "a22cb465",
					"setMerkleRoot(bytes32)": "7cb64759",
					"supportsInterface(bytes4)": "01ffc9a7",
					"ticketClaimed(address)": "fb2852dd",
					"uri(uint256)": "0e89341c"
				}
			},
			"storageLayout": {
				"storage": [
					{
						"astId": 86,
						"contract": "src/NFTickets.sol:NFTickets",
						"label": "_initialized",
						"offset": 0,
						"slot": "0",
						"type": "t_uint8"
					},
					{
						"astId": 89,
						"contract": "src/NFTickets.sol:NFTickets",
						"label": "_initializing",
						"offset": 1,
						"slot": "0",
						"type": "t_bool"
					},
					{
						"astId": 687,
						"contract": "src/NFTickets.sol:NFTickets",
						"label": "balanceOf",
						"offset": 0,
						"slot": "1",
						"type": "t_mapping(t_address,t_mapping(t_uint256,t_uint256))"
					},
					{
						"astId": 693,
						"contract": "src/NFTickets.sol:NFTickets",
						"label": "isApprovedForAll",
						"offset": 0,
						"slot": "2",
						"type": "t_mapping(t_address,t_mapping(t_address,t_bool))"
					},
					{
						"astId": 1365,
						"contract": "src/NFTickets.sol:NFTickets",
						"label": "_tokenURIs",
						"offset": 0,
						"slot": "3",
						"type": "t_mapping(t_uint256,t_string_storage)"
					},
					{
						"astId": 1369,
						"contract": "src/NFTickets.sol:NFTickets",
						"label": "ticketClaimed",
						"offset": 0,
						"slot": "4",
						"type": "t_mapping(t_address,t_bool)"
					},
					{
						"astId": 1371,
						"contract": "src/NFTickets.sol:NFTickets",
						"label": "owner",
						"offset": 0,
						"slot": "5",
						"type": "t_address"
					},
					{
						"astId": 1373,
						"contract": "src/NFTickets.sol:NFTickets",
						"label": "factory",
						"offset": 0,
						"slot": "6",
						"type": "t_address"
					},
					{
						"astId": 1375,
						"contract": "src/NFTickets.sol:NFTickets",
						"label": "merkleRoot",
						"offset": 0,
						"slot": "7",
						"type": "t_bytes32"
					}
				],
				"types": {
					"t_address": {
						"encoding": "inplace",
						"label": "address",
						"numberOfBytes": "20"
					},
					"t_bool": {
						"encoding": "inplace",
						"label": "bool",
						"numberOfBytes": "1"
					},
					"t_bytes32": {
						"encoding": "inplace",
						"label": "bytes32",
						"numberOfBytes": "32"
					},
					"t_mapping(t_address,t_bool)": {
						"encoding": "mapping",
						"key": "t_address",
						"label": "mapping(address => bool)",
						"numberOfBytes": "32",
						"value": "t_bool"
					},
					"t_mapping(t_address,t_mapping(t_address,t_bool))": {
						"encoding": "mapping",
						"key": "t_address",
						"label": "mapping(address => mapping(address => bool))",
						"numberOfBytes": "32",
						"value": "t_mapping(t_address,t_bool)"
					},
					"t_mapping(t_address,t_mapping(t_uint256,t_uint256))": {
						"encoding": "mapping",
						"key": "t_address",
						"label": "mapping(address => mapping(uint256 => uint256))",
						"numberOfBytes": "32",
						"value": "t_mapping(t_uint256,t_uint256)"
					},
					"t_mapping(t_uint256,t_string_storage)": {
						"encoding": "mapping",
						"key": "t_uint256",
						"label": "mapping(uint256 => string)",
						"numberOfBytes": "32",
						"value": "t_string_storage"
					},
					"t_mapping(t_uint256,t_uint256)": {
						"encoding": "mapping",
						"key": "t_uint256",
						"label": "mapping(uint256 => uint256)",
						"numberOfBytes": "32",
						"value": "t_uint256"
					},
					"t_string_storage": {
						"encoding": "bytes",
						"label": "string",
						"numberOfBytes": "32"
					},
					"t_uint256": {
						"encoding": "inplace",
						"label": "uint256",
						"numberOfBytes": "32"
					},
					"t_uint8": {
						"encoding": "inplace",
						"label": "uint8",
						"numberOfBytes": "1"
					}
				}
			},
			"userdoc": {
				"kind": "user",
				"methods": {},
				"version": 1
			}
		}
	}
}