{
	"src/NFTickets.sol": {
		"NFTickets": {
			"abi": [
				{
					"inputs": [],
					"name": "AlreadyClaimed",
					"type": "error"
				},
				{
					"inputs": [],
					"name": "ImproperProof",
					"type": "error"
				},
				{
					"anonymous": false,
					"inputs": [
						{
							"indexed": true,
							"internalType": "address",
							"name": "owner",
							"type": "address"
						},
						{
							"indexed": true,
							"internalType": "address",
							"name": "operator",
							"type": "address"
						},
						{
							"indexed": false,
							"internalType": "bool",
							"name": "approved",
							"type": "bool"
						}
					],
					"name": "ApprovalForAll",
					"type": "event"
				},
				{
					"anonymous": false,
					"inputs": [
						{
							"indexed": false,
							"internalType": "uint8",
							"name": "version",
							"type": "uint8"
						}
					],
					"name": "Initialized",
					"type": "event"
				},
				{
					"anonymous": false,
					"inputs": [
						{
							"indexed": true,
							"internalType": "address",
							"name": "user",
							"type": "address"
						},
						{
							"indexed": true,
							"internalType": "address",
							"name": "newOwner",
							"type": "address"
						}
					],
					"name": "OwnershipTransferred",
					"type": "event"
				},
				{
					"anonymous": false,
					"inputs": [
						{
							"indexed": false,
							"internalType": "address",
							"name": "account",
							"type": "address"
						}
					],
					"name": "Paused",
					"type": "event"
				},
				{
					"anonymous": false,
					"inputs": [
						{
							"indexed": true,
							"internalType": "address",
							"name": "operator",
							"type": "address"
						},
						{
							"indexed": true,
							"internalType": "address",
							"name": "from",
							"type": "address"
						},
						{
							"indexed": true,
							"internalType": "address",
							"name": "to",
							"type": "address"
						},
						{
							"indexed": false,
							"internalType": "uint256[]",
							"name": "ids",
							"type": "uint256[]"
						},
						{
							"indexed": false,
							"internalType": "uint256[]",
							"name": "amounts",
							"type": "uint256[]"
						}
					],
					"name": "TransferBatch",
					"type": "event"
				},
				{
					"anonymous": false,
					"inputs": [
						{
							"indexed": true,
							"internalType": "address",
							"name": "operator",
							"type": "address"
						},
						{
							"indexed": true,
							"internalType": "address",
							"name": "from",
							"type": "address"
						},
						{
							"indexed": true,
							"internalType": "address",
							"name": "to",
							"type": "address"
						},
						{
							"indexed": false,
							"internalType": "uint256",
							"name": "id",
							"type": "uint256"
						},
						{
							"indexed": false,
							"internalType": "uint256",
							"name": "amount",
							"type": "uint256"
						}
					],
					"name": "TransferSingle",
					"type": "event"
				},
				{
					"anonymous": false,
					"inputs": [
						{
							"indexed": false,
							"internalType": "string",
							"name": "value",
							"type": "string"
						},
						{
							"indexed": true,
							"internalType": "uint256",
							"name": "id",
							"type": "uint256"
						}
					],
					"name": "URI",
					"type": "event"
				},
				{
					"anonymous": false,
					"inputs": [
						{
							"indexed": false,
							"internalType": "address",
							"name": "account",
							"type": "address"
						}
					],
					"name": "Unpaused",
					"type": "event"
				},
				{
					"inputs": [
						{
							"internalType": "address",
							"name": "",
							"type": "address"
						},
						{
							"internalType": "uint256",
							"name": "",
							"type": "uint256"
						}
					],
					"name": "balanceOf",
					"outputs": [
						{
							"internalType": "uint256",
							"name": "",
							"type": "uint256"
						}
					],
					"stateMutability": "view",
					"type": "function"
				},
				{
					"inputs": [
						{
							"internalType": "address[]",
							"name": "owners",
							"type": "address[]"
						},
						{
							"internalType": "uint256[]",
							"name": "ids",
							"type": "uint256[]"
						}
					],
					"name": "balanceOfBatch",
					"outputs": [
						{
							"internalType": "uint256[]",
							"name": "balances",
							"type": "uint256[]"
						}
					],
					"stateMutability": "view",
					"type": "function"
				},
				{
					"inputs": [
						{
							"internalType": "bytes32[]",
							"name": "merkleProof",
							"type": "bytes32[]"
						},
						{
							"internalType": "uint256",
							"name": "tokenId",
							"type": "uint256"
						}
					],
					"name": "claim",
					"outputs": [],
					"stateMutability": "nonpayable",
					"type": "function"
				},
				{
					"inputs": [],
					"name": "factory",
					"outputs": [
						{
							"internalType": "address",
							"name": "",
							"type": "address"
						}
					],
					"stateMutability": "view",
					"type": "function"
				},
				{
					"inputs": [
						{
							"internalType": "uint256",
							"name": "cursor",
							"type": "uint256"
						},
						{
							"internalType": "uint256",
							"name": "amount",
							"type": "uint256"
						}
					],
					"name": "getMintedTokenIds",
					"outputs": [
						{
							"internalType": "uint256[]",
							"name": "tokenIds",
							"type": "uint256[]"
						},
						{
							"internalType": "uint256",
							"name": "newCursor",
							"type": "uint256"
						}
					],
					"stateMutability": "view",
					"type": "function"
				},
				{
					"inputs": [
						{
							"internalType": "address",
							"name": "_owner",
							"type": "address"
						}
					],
					"name": "initialize",
					"outputs": [],
					"stateMutability": "nonpayable",
					"type": "function"
				},
				{
					"inputs": [
						{
							"internalType": "address",
							"name": "",
							"type": "address"
						},
						{
							"internalType": "address",
							"name": "",
							"type": "address"
						}
					],
					"name": "isApprovedForAll",
					"outputs": [
						{
							"internalType": "bool",
							"name": "",
							"type": "bool"
						}
					],
					"stateMutability": "view",
					"type": "function"
				},
				{
					"inputs": [],
					"name": "merkleRoot",
					"outputs": [
						{
							"internalType": "bytes32",
							"name": "",
							"type": "bytes32"
						}
					],
					"stateMutability": "view",
					"type": "function"
				},
				{
					"inputs": [],
					"name": "owner",
					"outputs": [
						{
							"internalType": "address",
							"name": "",
							"type": "address"
						}
					],
					"stateMutability": "view",
					"type": "function"
				},
				{
					"inputs": [],
					"name": "pause",
					"outputs": [],
					"stateMutability": "nonpayable",
					"type": "function"
				},
				{
					"inputs": [],
					"name": "paused",
					"outputs": [
						{
							"internalType": "bool",
							"name": "",
							"type": "bool"
						}
					],
					"stateMutability": "view",
					"type": "function"
				},
				{
					"inputs": [
						{
							"internalType": "address",
							"name": "from",
							"type": "address"
						},
						{
							"internalType": "address",
							"name": "to",
							"type": "address"
						},
						{
							"internalType": "uint256[]",
							"name": "ids",
							"type": "uint256[]"
						},
						{
							"internalType": "uint256[]",
							"name": "amounts",
							"type": "uint256[]"
						},
						{
							"internalType": "bytes",
							"name": "data",
							"type": "bytes"
						}
					],
					"name": "safeBatchTransferFrom",
					"outputs": [],
					"stateMutability": "nonpayable",
					"type": "function"
				},
				{
					"inputs": [
						{
							"internalType": "address",
							"name": "from",
							"type": "address"
						},
						{
							"internalType": "address",
							"name": "to",
							"type": "address"
						},
						{
							"internalType": "uint256",
							"name": "id",
							"type": "uint256"
						},
						{
							"internalType": "uint256",
							"name": "amount",
							"type": "uint256"
						},
						{
							"internalType": "bytes",
							"name": "data",
							"type": "bytes"
						}
					],
					"name": "safeTransferFrom",
					"outputs": [],
					"stateMutability": "nonpayable",
					"type": "function"
				},
				{
					"inputs": [
						{
							"internalType": "address",
							"name": "operator",
							"type": "address"
						},
						{
							"internalType": "bool",
							"name": "approved",
							"type": "bool"
						}
					],
					"name": "setApprovalForAll",
					"outputs": [],
					"stateMutability": "nonpayable",
					"type": "function"
				},
				{
					"inputs": [
						{
							"internalType": "bytes32",
							"name": "merkleRoot_",
							"type": "bytes32"
						}
					],
					"name": "setMerkleRoot",
					"outputs": [],
					"stateMutability": "nonpayable",
					"type": "function"
				},
				{
					"inputs": [
						{
							"internalType": "bytes4",
							"name": "interfaceId",
							"type": "bytes4"
						}
					],
					"name": "supportsInterface",
					"outputs": [
						{
							"internalType": "bool",
							"name": "",
							"type": "bool"
						}
					],
					"stateMutability": "view",
					"type": "function"
				},
				{
					"inputs": [
						{
							"internalType": "address",
							"name": "",
							"type": "address"
						}
					],
					"name": "ticketClaimed",
					"outputs": [
						{
							"internalType": "bool",
							"name": "",
							"type": "bool"
						}
					],
					"stateMutability": "view",
					"type": "function"
				},
				{
					"inputs": [],
					"name": "unpause",
					"outputs": [],
					"stateMutability": "nonpayable",
					"type": "function"
				},
				{
					"inputs": [
						{
							"internalType": "uint256",
							"name": "id",
							"type": "uint256"
						}
					],
					"name": "uri",
					"outputs": [
						{
							"internalType": "string",
							"name": "tokenURI",
							"type": "string"
						}
					],
					"stateMutability": "view",
					"type": "function"
				}
			],
			"devdoc": {
				"kind": "dev",
				"methods": {
					"paused()": {
						"details": "Returns true if the contract is paused, and false otherwise."
					}
				},
				"version": 1
			},
			"evm": {
				"assembly": "    /* \"src/NFTickets.sol\":527:3178  contract NFTickets is Initializable, ERC1155, Pausable {... */\n  mstore(0x40, 0x80)\n  callvalue\n  dup1\n  iszero\n  tag_1\n  jumpi\n  0x00\n  dup1\n  revert\ntag_1:\n  pop\n    /* \"lib/openzeppelin-contracts.git/contracts/security/Pausable.sol\":1029:1036  _paused */\n  0x03\n    /* \"lib/openzeppelin-contracts.git/contracts/security/Pausable.sol\":1029:1044  _paused = false */\n  dup1\n  sload\n  not(0xff)\n  and\n  swap1\n  sstore\n    /* \"src/NFTickets.sol\":527:3178  contract NFTickets is Initializable, ERC1155, Pausable {... */\n  dataSize(sub_0)\n  dup1\n  dataOffset(sub_0)\n  0x00\n  codecopy\n  0x00\n  return\nstop\n\nsub_0: assembly {\n        /* \"src/NFTickets.sol\":527:3178  contract NFTickets is Initializable, ERC1155, Pausable {... */\n      mstore(0x40, 0x80)\n      callvalue\n      dup1\n      iszero\n      tag_1\n      jumpi\n      0x00\n      dup1\n      revert\n    tag_1:\n      pop\n      jumpi(tag_2, lt(calldatasize, 0x04))\n      shr(0xe0, calldataload(0x00))\n      dup1\n      0x7cb64759\n      gt\n      tag_22\n      jumpi\n      dup1\n      0xc45a0155\n      gt\n      tag_23\n      jumpi\n      dup1\n      0xc45a0155\n      eq\n      tag_17\n      jumpi\n      dup1\n      0xc4d66de8\n      eq\n      tag_18\n      jumpi\n      dup1\n      0xe985e9c5\n      eq\n      tag_19\n      jumpi\n      dup1\n      0xf242432a\n      eq\n      tag_20\n      jumpi\n      dup1\n      0xfb2852dd\n      eq\n      tag_21\n      jumpi\n      0x00\n      dup1\n      revert\n    tag_23:\n      dup1\n      0x7cb64759\n      eq\n      tag_12\n      jumpi\n      dup1\n      0x8456cb59\n      eq\n      tag_13\n      jumpi\n      dup1\n      0x8da5cb5b\n      eq\n      tag_14\n      jumpi\n      dup1\n      0xa22cb465\n      eq\n      tag_15\n      jumpi\n      dup1\n      0xb5175616\n      eq\n      tag_16\n      jumpi\n      0x00\n      dup1\n      revert\n    tag_22:\n      dup1\n      0x2eb4a7ab\n      gt\n      tag_24\n      jumpi\n      dup1\n      0x2eb4a7ab\n      eq\n      tag_7\n      jumpi\n      dup1\n      0x3b439351\n      eq\n      tag_8\n      jumpi\n      dup1\n      0x3f4ba83a\n      eq\n      tag_9\n      jumpi\n      dup1\n      0x4e1273f4\n      eq\n      tag_10\n      jumpi\n      dup1\n      0x5c975abb\n      eq\n      tag_11\n      jumpi\n      0x00\n      dup1\n      revert\n    tag_24:\n      dup1\n      0xfdd58e\n      eq\n      tag_3\n      jumpi\n      dup1\n      0x01ffc9a7\n      eq\n      tag_4\n      jumpi\n      dup1\n      0x0e89341c\n      eq\n      tag_5\n      jumpi\n      dup1\n      0x2eb2c2d6\n      eq\n      tag_6\n      jumpi\n    tag_2:\n      0x00\n      dup1\n      revert\n        /* \"lib/solmate.git/src/tokens/ERC1155.sol\":1153:1217  mapping(address => mapping(uint256 => uint256)) public balanceOf */\n    tag_3:\n      tag_25\n      tag_26\n      calldatasize\n      0x04\n      tag_27\n      jump\t// in\n    tag_26:\n      0x01\n      0x20\n      swap1\n      dup2\n      mstore\n      0x00\n      swap3\n      dup4\n      mstore\n      0x40\n      dup1\n      dup5\n      keccak256\n      swap1\n      swap2\n      mstore\n      swap1\n      dup3\n      mstore\n      swap1\n      keccak256\n      sload\n      dup2\n      jump\n    tag_25:\n      mload(0x40)\n        /* \"#utility.yul\":597:622   */\n      swap1\n      dup2\n      mstore\n        /* \"#utility.yul\":585:587   */\n      0x20\n        /* \"#utility.yul\":570:588   */\n      add\n        /* \"lib/solmate.git/src/tokens/ERC1155.sol\":1153:1217  mapping(address => mapping(uint256 => uint256)) public balanceOf */\n    tag_29:\n      mload(0x40)\n      dup1\n      swap2\n      sub\n      swap1\n      return\n        /* \"lib/solmate.git/src/tokens/ERC1155.sol\":4746:5091  function supportsInterface(bytes4 interfaceId) public view virtual returns (bool) {... */\n    tag_4:\n      tag_31\n      tag_32\n      calldatasize\n      0x04\n      tag_33\n      jump\t// in\n    tag_32:\n      tag_34\n      jump\t// in\n    tag_31:\n      mload(0x40)\n        /* \"#utility.yul\":1184:1198   */\n      swap1\n      iszero\n        /* \"#utility.yul\":1177:1199   */\n      iszero\n        /* \"#utility.yul\":1159:1200   */\n      dup2\n      mstore\n        /* \"#utility.yul\":1147:1149   */\n      0x20\n        /* \"#utility.yul\":1132:1150   */\n      add\n        /* \"lib/solmate.git/src/tokens/ERC1155.sol\":4746:5091  function supportsInterface(bytes4 interfaceId) public view virtual returns (bool) {... */\n      tag_29\n        /* \"#utility.yul\":1019:1206   */\n      jump\n        /* \"src/NFTickets.sol\":2696:2928  function uri(... */\n    tag_5:\n      tag_37\n      tag_38\n      calldatasize\n      0x04\n      tag_39\n      jump\t// in\n    tag_38:\n      tag_40\n      jump\t// in\n    tag_37:\n      mload(0x40)\n      tag_29\n      swap2\n      swap1\n      tag_42\n      jump\t// in\n        /* \"lib/solmate.git/src/tokens/ERC1155.sol\":2697:3944  function safeBatchTransferFrom(... */\n    tag_6:\n      tag_43\n      tag_44\n      calldatasize\n      0x04\n      tag_45\n      jump\t// in\n    tag_44:\n      tag_46\n      jump\t// in\n    tag_43:\n      stop\n        /* \"src/NFTickets.sol\":973:998  bytes32 public merkleRoot */\n    tag_7:\n      tag_25\n      sload(0x0a)\n      dup2\n      jump\n        /* \"src/NFTickets.sol\":1285:1887  function claim(... */\n    tag_8:\n      tag_43\n      tag_52\n      calldatasize\n      0x04\n      tag_53\n      jump\t// in\n    tag_52:\n      tag_54\n      jump\t// in\n        /* \"src/NFTickets.sol\":3111:3176  function unpause() external onlyOwner {... */\n    tag_9:\n      tag_43\n      tag_56\n      jump\t// in\n        /* \"lib/solmate.git/src/tokens/ERC1155.sol\":3952:4552  function balanceOfBatch(address[] calldata owners, uint256[] calldata ids)... */\n    tag_10:\n      tag_57\n      tag_58\n      calldatasize\n      0x04\n      tag_59\n      jump\t// in\n    tag_58:\n      tag_60\n      jump\t// in\n    tag_57:\n      mload(0x40)\n      tag_29\n      swap2\n      swap1\n      tag_62\n      jump\t// in\n        /* \"lib/openzeppelin-contracts.git/contracts/security/Pausable.sol\":1678:1764  function paused() public view virtual returns (bool) {... */\n    tag_11:\n        /* \"lib/openzeppelin-contracts.git/contracts/security/Pausable.sol\":1749:1756  _paused */\n      and(0xff, sload(0x03))\n        /* \"lib/openzeppelin-contracts.git/contracts/security/Pausable.sol\":1678:1764  function paused() public view virtual returns (bool) {... */\n      jump(tag_31)\n        /* \"src/NFTickets.sol\":2934:3038  function setMerkleRoot(bytes32 merkleRoot_) external onlyOwner {... */\n    tag_12:\n      tag_43\n      tag_67\n      calldatasize\n      0x04\n      tag_39\n      jump\t// in\n    tag_67:\n      tag_69\n      jump\t// in\n        /* \"src/NFTickets.sol\":3044:3105  function pause() external onlyOwner {... */\n    tag_13:\n      tag_43\n      tag_71\n      jump\t// in\n        /* \"src/NFTickets.sol\":919:939  address public owner */\n    tag_14:\n      sload(0x08)\n      tag_72\n      swap1\n      sub(shl(0xa0, 0x01), 0x01)\n      and\n      dup2\n      jump\n    tag_72:\n      mload(0x40)\n      sub(shl(0xa0, 0x01), 0x01)\n        /* \"#utility.yul\":6616:6648   */\n      swap1\n      swap2\n      and\n        /* \"#utility.yul\":6598:6649   */\n      dup2\n      mstore\n        /* \"#utility.yul\":6586:6588   */\n      0x20\n        /* \"#utility.yul\":6571:6589   */\n      add\n        /* \"src/NFTickets.sol\":919:939  address public owner */\n      tag_29\n        /* \"#utility.yul\":6452:6655   */\n      jump\n        /* \"lib/solmate.git/src/tokens/ERC1155.sol\":1754:1961  function setApprovalForAll(address operator, bool approved) public virtual {... */\n    tag_15:\n      tag_43\n      tag_77\n      calldatasize\n      0x04\n      tag_78\n      jump\t// in\n    tag_77:\n      tag_79\n      jump\t// in\n        /* \"src/NFTickets.sol\":1893:2690  function getMintedTokenIds(... */\n    tag_16:\n      tag_80\n      tag_81\n      calldatasize\n      0x04\n      tag_82\n      jump\t// in\n    tag_81:\n      tag_83\n      jump\t// in\n    tag_80:\n      mload(0x40)\n      tag_29\n      swap3\n      swap2\n      swap1\n      tag_85\n      jump\t// in\n        /* \"src/NFTickets.sol\":945:967  address public factory */\n    tag_17:\n      sload(0x09)\n      tag_72\n      swap1\n      sub(shl(0xa0, 0x01), 0x01)\n      and\n      dup2\n      jump\n        /* \"src/NFTickets.sol\":1105:1279  function initialize(address _owner) external initializer {... */\n    tag_18:\n      tag_43\n      tag_90\n      calldatasize\n      0x04\n      tag_91\n      jump\t// in\n    tag_90:\n      tag_92\n      jump\t// in\n        /* \"lib/solmate.git/src/tokens/ERC1155.sol\":1226:1294  mapping(address => mapping(address => bool)) public isApprovedForAll */\n    tag_19:\n      tag_31\n      tag_94\n      calldatasize\n      0x04\n      tag_95\n      jump\t// in\n    tag_94:\n      0x02\n      0x20\n      swap1\n      dup2\n      mstore\n      0x00\n      swap3\n      dup4\n      mstore\n      0x40\n      dup1\n      dup5\n      keccak256\n      swap1\n      swap2\n      mstore\n      swap1\n      dup3\n      mstore\n      swap1\n      keccak256\n      sload\n      0xff\n      and\n      dup2\n      jump\n        /* \"lib/solmate.git/src/tokens/ERC1155.sol\":1969:2689  function safeTransferFrom(... */\n    tag_20:\n      tag_43\n      tag_99\n      calldatasize\n      0x04\n      tag_100\n      jump\t// in\n    tag_99:\n      tag_101\n      jump\t// in\n        /* \"src/NFTickets.sol\":776:821  mapping(address => bool) public ticketClaimed */\n    tag_21:\n      tag_31\n      tag_103\n      calldatasize\n      0x04\n      tag_91\n      jump\t// in\n    tag_103:\n      mstore(0x20, 0x05)\n      0x00\n      swap1\n      dup2\n      mstore\n      0x40\n      swap1\n      keccak256\n      sload\n      0xff\n      and\n      dup2\n      jump\n        /* \"lib/solmate.git/src/tokens/ERC1155.sol\":4746:5091  function supportsInterface(bytes4 interfaceId) public view virtual returns (bool) {... */\n    tag_34:\n        /* \"lib/solmate.git/src/tokens/ERC1155.sol\":4822:4826  bool */\n      0x00\n      shl(0xe0, 0x01ffc9a7)\n      not(sub(shl(0xe0, 0x01), 0x01))\n        /* \"lib/solmate.git/src/tokens/ERC1155.sol\":4859:4884  interfaceId == 0x01ffc9a7 */\n      dup4\n      and\n      eq\n      dup1\n        /* \"lib/solmate.git/src/tokens/ERC1155.sol\":4859:4960  interfaceId == 0x01ffc9a7 || // ERC165 Interface ID for ERC165... */\n      tag_107\n      jumpi\n      pop\n      shl(0xe1, 0x6cdb3d13)\n      not(sub(shl(0xe0, 0x01), 0x01))\n        /* \"lib/solmate.git/src/tokens/ERC1155.sol\":4935:4960  interfaceId == 0xd9b67a26 */\n      dup4\n      and\n      eq\n        /* \"lib/solmate.git/src/tokens/ERC1155.sol\":4859:4960  interfaceId == 0x01ffc9a7 || // ERC165 Interface ID for ERC165... */\n    tag_107:\n        /* \"lib/solmate.git/src/tokens/ERC1155.sol\":4859:5037  interfaceId == 0x01ffc9a7 || // ERC165 Interface ID for ERC165... */\n      dup1\n      tag_108\n      jumpi\n      pop\n      shl(0xe2, 0x03a24d07)\n      not(sub(shl(0xe0, 0x01), 0x01))\n        /* \"lib/solmate.git/src/tokens/ERC1155.sol\":5012:5037  interfaceId == 0x0e89341c */\n      dup4\n      and\n      eq\n        /* \"lib/solmate.git/src/tokens/ERC1155.sol\":4859:5037  interfaceId == 0x01ffc9a7 || // ERC165 Interface ID for ERC165... */\n    tag_108:\n        /* \"lib/solmate.git/src/tokens/ERC1155.sol\":4839:5037  return... */\n      swap3\n        /* \"lib/solmate.git/src/tokens/ERC1155.sol\":4746:5091  function supportsInterface(bytes4 interfaceId) public view virtual returns (bool) {... */\n      swap2\n      pop\n      pop\n      jump\t// out\n        /* \"src/NFTickets.sol\":2696:2928  function uri(... */\n    tag_40:\n        /* \"src/NFTickets.sol\":2841:2848  factory */\n      sload(0x09)\n        /* \"src/NFTickets.sol\":2824:2855  NFTicketsFactory(factory).uri() */\n      0x40\n      dup1\n      mload\n      shl(0xe3, 0x1d59313f)\n      dup2\n      mstore\n      swap1\n      mload\n        /* \"src/NFTickets.sol\":2765:2787  string memory tokenURI */\n      0x60\n      swap3\n      sub(shl(0xa0, 0x01), 0x01)\n        /* \"src/NFTickets.sol\":2841:2848  factory */\n      and\n      swap2\n        /* \"src/NFTickets.sol\":2824:2853  NFTicketsFactory(factory).uri */\n      0xeac989f8\n      swap2\n        /* \"src/NFTickets.sol\":2824:2855  NFTicketsFactory(factory).uri() */\n      0x04\n      dup1\n      dup4\n      add\n      swap3\n        /* \"src/NFTickets.sol\":2841:2848  factory */\n      0x00\n      swap3\n        /* \"src/NFTickets.sol\":2824:2855  NFTicketsFactory(factory).uri() */\n      swap2\n      swap1\n      dup3\n      swap1\n      sub\n      add\n      dup2\n        /* \"src/NFTickets.sol\":2841:2848  factory */\n      dup7\n        /* \"src/NFTickets.sol\":2824:2855  NFTicketsFactory(factory).uri() */\n      gas\n      staticcall\n      iszero\n      dup1\n      iszero\n      tag_111\n      jumpi\n      returndatasize\n      0x00\n      dup1\n      returndatacopy\n      revert(0x00, returndatasize)\n    tag_111:\n      pop\n      pop\n      pop\n      pop\n      mload(0x40)\n      returndatasize\n      0x00\n      dup3\n      returndatacopy\n      0x1f\n      returndatasize\n      swap1\n      dup2\n      add\n      not(0x1f)\n      and\n      dup3\n      add\n      0x40\n      mstore\n      tag_112\n      swap2\n      swap1\n      dup2\n      add\n      swap1\n      tag_113\n      jump\t// in\n    tag_112:\n        /* \"src/NFTickets.sol\":2881:2888  factory */\n      sload(0x09)\n        /* \"src/NFTickets.sol\":2864:2889  abi.encodePacked(factory) */\n      mload(0x40)\n        /* \"#utility.yul\":9941:9943   */\n      0x60\n        /* \"#utility.yul\":9937:9952   */\n      swap2\n      swap1\n      swap2\n      shl\n      not(0xffffffffffffffffffffffff)\n      and\n        /* \"src/NFTickets.sol\":2864:2889  abi.encodePacked(factory) */\n      0x20\n      dup3\n      add\n        /* \"#utility.yul\":9921:9987   */\n      mstore\n        /* \"#utility.yul\":10003:10015   */\n      0x34\n      add\n        /* \"src/NFTickets.sol\":2864:2889  abi.encodePacked(factory) */\n      0x40\n      dup1\n      mload\n      not(0x1f)\n      dup2\n      dup5\n      sub\n      add\n      dup2\n      mstore\n      dup3\n      dup3\n      mstore\n      0x20\n        /* \"src/NFTickets.sol\":2899:2919  abi.encodePacked(id) */\n      dup4\n      add\n        /* \"#utility.yul\":10155:10174   */\n      dup7\n      swap1\n      mstore\n        /* \"src/NFTickets.sol\":2864:2889  abi.encodePacked(factory) */\n      swap2\n        /* \"#utility.yul\":10190:10202   */\n      add\n        /* \"src/NFTickets.sol\":2899:2919  abi.encodePacked(id) */\n      0x40\n      dup1\n      mload\n      not(0x1f)\n      dup2\n      dup5\n      sub\n      add\n      dup2\n      mstore\n      swap1\n      dup3\n      swap1\n      mstore\n        /* \"src/NFTickets.sol\":2810:2921  string.concat(NFTicketsFactory(factory).uri(), string(abi.encodePacked(factory)), string(abi.encodePacked(id))) */\n      tag_118\n      swap4\n      swap3\n      swap2\n        /* \"src/NFTickets.sol\":2899:2919  abi.encodePacked(id) */\n      0x20\n        /* \"src/NFTickets.sol\":2810:2921  string.concat(NFTicketsFactory(factory).uri(), string(abi.encodePacked(factory)), string(abi.encodePacked(id))) */\n      add\n      tag_119\n      jump\t// in\n    tag_118:\n      mload(0x40)\n      0x20\n      dup2\n      dup4\n      sub\n      sub\n      dup2\n      mstore\n      swap1\n      0x40\n      mstore\n        /* \"src/NFTickets.sol\":2799:2921  tokenURI = string.concat(NFTicketsFactory(factory).uri(), string(abi.encodePacked(factory)), string(abi.encodePacked(id))) */\n      swap1\n      pop\n        /* \"src/NFTickets.sol\":2696:2928  function uri(... */\n      swap2\n      swap1\n      pop\n      jump\t// out\n        /* \"lib/solmate.git/src/tokens/ERC1155.sol\":2697:3944  function safeBatchTransferFrom(... */\n    tag_46:\n        /* \"lib/solmate.git/src/tokens/ERC1155.sol\":2913:2941  ids.length == amounts.length */\n      dup5\n      dup4\n      eq\n        /* \"lib/solmate.git/src/tokens/ERC1155.sol\":2905:2961  require(ids.length == amounts.length, \"LENGTH_MISMATCH\") */\n      tag_121\n      jumpi\n      mload(0x40)\n      shl(0xe5, 0x461bcd)\n      dup2\n      mstore\n        /* \"#utility.yul\":11123:11125   */\n      0x20\n        /* \"lib/solmate.git/src/tokens/ERC1155.sol\":2905:2961  require(ids.length == amounts.length, \"LENGTH_MISMATCH\") */\n      0x04\n      dup3\n      add\n        /* \"#utility.yul\":11105:11126   */\n      mstore\n        /* \"#utility.yul\":11162:11164   */\n      0x0f\n        /* \"#utility.yul\":11142:11160   */\n      0x24\n      dup3\n      add\n        /* \"#utility.yul\":11135:11165   */\n      mstore\n      shl(0x8b, 0x0988a9c8ea890be9a92a69a82a8869)\n        /* \"#utility.yul\":11181:11199   */\n      0x44\n      dup3\n      add\n        /* \"#utility.yul\":11174:11219   */\n      mstore\n        /* \"#utility.yul\":11236:11254   */\n      0x64\n      add\n        /* \"lib/solmate.git/src/tokens/ERC1155.sol\":2905:2961  require(ids.length == amounts.length, \"LENGTH_MISMATCH\") */\n    tag_122:\n      mload(0x40)\n      dup1\n      swap2\n      sub\n      swap1\n      revert\n    tag_121:\n        /* \"lib/solmate.git/src/tokens/ERC1155.sol\":2982:2992  msg.sender */\n      caller\n      sub(shl(0xa0, 0x01), 0x01)\n        /* \"lib/solmate.git/src/tokens/ERC1155.sol\":2982:3000  msg.sender == from */\n      dup10\n      and\n      eq\n      dup1\n        /* \"lib/solmate.git/src/tokens/ERC1155.sol\":2982:3038  msg.sender == from || isApprovedForAll[from][msg.sender] */\n      tag_124\n      jumpi\n      pop\n      sub(shl(0xa0, 0x01), 0x01)\n        /* \"lib/solmate.git/src/tokens/ERC1155.sol\":3004:3026  isApprovedForAll[from] */\n      dup9\n      and\n      0x00\n      swap1\n      dup2\n      mstore\n        /* \"lib/solmate.git/src/tokens/ERC1155.sol\":3004:3020  isApprovedForAll */\n      0x02\n        /* \"lib/solmate.git/src/tokens/ERC1155.sol\":3004:3026  isApprovedForAll[from] */\n      0x20\n      swap1\n      dup2\n      mstore\n      0x40\n      dup1\n      dup4\n      keccak256\n        /* \"lib/solmate.git/src/tokens/ERC1155.sol\":3027:3037  msg.sender */\n      caller\n        /* \"lib/solmate.git/src/tokens/ERC1155.sol\":3004:3038  isApprovedForAll[from][msg.sender] */\n      dup5\n      mstore\n      swap1\n      swap2\n      mstore\n      swap1\n      keccak256\n      sload\n      0xff\n      and\n        /* \"lib/solmate.git/src/tokens/ERC1155.sol\":2982:3038  msg.sender == from || isApprovedForAll[from][msg.sender] */\n    tag_124:\n        /* \"lib/solmate.git/src/tokens/ERC1155.sol\":2974:3057  require(msg.sender == from || isApprovedForAll[from][msg.sender], \"NOT_AUTHORIZED\") */\n      tag_125\n      jumpi\n      mload(0x40)\n      shl(0xe5, 0x461bcd)\n      dup2\n      mstore\n        /* \"#utility.yul\":11467:11469   */\n      0x20\n        /* \"lib/solmate.git/src/tokens/ERC1155.sol\":2974:3057  require(msg.sender == from || isApprovedForAll[from][msg.sender], \"NOT_AUTHORIZED\") */\n      0x04\n      dup3\n      add\n        /* \"#utility.yul\":11449:11470   */\n      mstore\n        /* \"#utility.yul\":11506:11508   */\n      0x0e\n        /* \"#utility.yul\":11486:11504   */\n      0x24\n      dup3\n      add\n        /* \"#utility.yul\":11479:11509   */\n      mstore\n      shl(0x92, 0x1393d517d055551213d492569151)\n        /* \"#utility.yul\":11525:11543   */\n      0x44\n      dup3\n      add\n        /* \"#utility.yul\":11518:11562   */\n      mstore\n        /* \"#utility.yul\":11579:11597   */\n      0x64\n      add\n        /* \"lib/solmate.git/src/tokens/ERC1155.sol\":2974:3057  require(msg.sender == from || isApprovedForAll[from][msg.sender], \"NOT_AUTHORIZED\") */\n      tag_122\n        /* \"#utility.yul\":11265:11603   */\n      jump\n        /* \"lib/solmate.git/src/tokens/ERC1155.sol\":2974:3057  require(msg.sender == from || isApprovedForAll[from][msg.sender], \"NOT_AUTHORIZED\") */\n    tag_125:\n        /* \"lib/solmate.git/src/tokens/ERC1155.sol\":3142:3152  uint256 id */\n      0x00\n        /* \"lib/solmate.git/src/tokens/ERC1155.sol\":3163:3177  uint256 amount */\n      dup1\n        /* \"lib/solmate.git/src/tokens/ERC1155.sol\":3195:3204  uint256 i */\n      0x00\n        /* \"lib/solmate.git/src/tokens/ERC1155.sol\":3190:3554  for (uint256 i = 0; i < ids.length; ) {... */\n    tag_128:\n        /* \"lib/solmate.git/src/tokens/ERC1155.sol\":3210:3224  i < ids.length */\n      dup8\n      dup2\n      lt\n        /* \"lib/solmate.git/src/tokens/ERC1155.sol\":3190:3554  for (uint256 i = 0; i < ids.length; ) {... */\n      iszero\n      tag_129\n      jumpi\n        /* \"lib/solmate.git/src/tokens/ERC1155.sol\":3248:3251  ids */\n      dup9\n      dup9\n        /* \"lib/solmate.git/src/tokens/ERC1155.sol\":3252:3253  i */\n      dup3\n        /* \"lib/solmate.git/src/tokens/ERC1155.sol\":3248:3254  ids[i] */\n      dup2\n      dup2\n      lt\n      tag_132\n      jumpi\n      tag_132\n      tag_133\n      jump\t// in\n    tag_132:\n      swap1\n      pop\n      0x20\n      mul\n      add\n      calldataload\n        /* \"lib/solmate.git/src/tokens/ERC1155.sol\":3243:3254  id = ids[i] */\n      swap3\n      pop\n        /* \"lib/solmate.git/src/tokens/ERC1155.sol\":3278:3285  amounts */\n      dup7\n      dup7\n        /* \"lib/solmate.git/src/tokens/ERC1155.sol\":3286:3287  i */\n      dup3\n        /* \"lib/solmate.git/src/tokens/ERC1155.sol\":3278:3288  amounts[i] */\n      dup2\n      dup2\n      lt\n      tag_135\n      jumpi\n      tag_135\n      tag_133\n      jump\t// in\n    tag_135:\n      sub(shl(0xa0, 0x01), 0x01)\n        /* \"lib/solmate.git/src/tokens/ERC1155.sol\":3305:3320  balanceOf[from] */\n      dup15\n      and\n      0x00\n      swap1\n      dup2\n      mstore\n        /* \"lib/solmate.git/src/tokens/ERC1155.sol\":3305:3314  balanceOf */\n      0x01\n        /* \"lib/solmate.git/src/tokens/ERC1155.sol\":3278:3288  amounts[i] */\n      0x20\n        /* \"lib/solmate.git/src/tokens/ERC1155.sol\":3305:3320  balanceOf[from] */\n      swap1\n      dup2\n      mstore\n      0x40\n      dup1\n      dup4\n      keccak256\n        /* \"lib/solmate.git/src/tokens/ERC1155.sol\":3305:3324  balanceOf[from][id] */\n      dup10\n      dup5\n      mstore\n      dup3\n      mstore\n      dup3\n      keccak256\n        /* \"lib/solmate.git/src/tokens/ERC1155.sol\":3305:3334  balanceOf[from][id] -= amount */\n      dup1\n      sload\n        /* \"lib/solmate.git/src/tokens/ERC1155.sol\":3278:3288  amounts[i] */\n      swap4\n      swap1\n      swap2\n      mul\n      swap5\n      swap1\n      swap5\n      add\n      calldataload\n      swap6\n      pop\n      dup6\n      swap4\n        /* \"lib/solmate.git/src/tokens/ERC1155.sol\":3305:3324  balanceOf[from][id] */\n      swap3\n      pop\n        /* \"lib/solmate.git/src/tokens/ERC1155.sol\":3305:3320  balanceOf[from] */\n      swap1\n        /* \"lib/solmate.git/src/tokens/ERC1155.sol\":3305:3334  balanceOf[from][id] -= amount */\n      tag_136\n      swap1\n        /* \"lib/solmate.git/src/tokens/ERC1155.sol\":3278:3288  amounts[i] */\n      dup5\n      swap1\n        /* \"lib/solmate.git/src/tokens/ERC1155.sol\":3305:3334  balanceOf[from][id] -= amount */\n      tag_137\n      jump\t// in\n    tag_136:\n      swap1\n      swap2\n      sstore\n      pop\n      pop\n      sub(shl(0xa0, 0x01), 0x01)\n        /* \"lib/solmate.git/src/tokens/ERC1155.sol\":3349:3362  balanceOf[to] */\n      dup11\n      and\n      0x00\n      swap1\n      dup2\n      mstore\n        /* \"lib/solmate.git/src/tokens/ERC1155.sol\":3349:3358  balanceOf */\n      0x01\n        /* \"lib/solmate.git/src/tokens/ERC1155.sol\":3349:3362  balanceOf[to] */\n      0x20\n      swap1\n      dup2\n      mstore\n      0x40\n      dup1\n      dup4\n      keccak256\n        /* \"lib/solmate.git/src/tokens/ERC1155.sol\":3349:3366  balanceOf[to][id] */\n      dup7\n      dup5\n      mstore\n      swap1\n      swap2\n      mstore\n      dup2\n      keccak256\n        /* \"lib/solmate.git/src/tokens/ERC1155.sol\":3349:3376  balanceOf[to][id] += amount */\n      dup1\n      sload\n        /* \"lib/solmate.git/src/tokens/ERC1155.sol\":3370:3376  amount */\n      dup5\n      swap3\n        /* \"lib/solmate.git/src/tokens/ERC1155.sol\":3349:3362  balanceOf[to] */\n      swap1\n        /* \"lib/solmate.git/src/tokens/ERC1155.sol\":3349:3376  balanceOf[to][id] += amount */\n      tag_138\n      swap1\n        /* \"lib/solmate.git/src/tokens/ERC1155.sol\":3370:3376  amount */\n      dup5\n      swap1\n        /* \"lib/solmate.git/src/tokens/ERC1155.sol\":3349:3376  balanceOf[to][id] += amount */\n      tag_139\n      jump\t// in\n    tag_138:\n      swap1\n      swap2\n      sstore\n      pop\n      pop\n        /* \"lib/solmate.git/src/tokens/ERC1155.sol\":3524:3527  ++i */\n      0x01\n      add\n        /* \"lib/solmate.git/src/tokens/ERC1155.sol\":3190:3554  for (uint256 i = 0; i < ids.length; ) {... */\n      jump(tag_128)\n    tag_129:\n      pop\n        /* \"lib/solmate.git/src/tokens/ERC1155.sol\":3603:3605  to */\n      dup9\n      sub(shl(0xa0, 0x01), 0x01)\n        /* \"lib/solmate.git/src/tokens/ERC1155.sol\":3571:3620  TransferBatch(msg.sender, from, to, ids, amounts) */\n      and\n        /* \"lib/solmate.git/src/tokens/ERC1155.sol\":3597:3601  from */\n      dup11\n      sub(shl(0xa0, 0x01), 0x01)\n        /* \"lib/solmate.git/src/tokens/ERC1155.sol\":3571:3620  TransferBatch(msg.sender, from, to, ids, amounts) */\n      and\n        /* \"lib/solmate.git/src/tokens/ERC1155.sol\":3585:3595  msg.sender */\n      caller\n      sub(shl(0xa0, 0x01), 0x01)\n        /* \"lib/solmate.git/src/tokens/ERC1155.sol\":3571:3620  TransferBatch(msg.sender, from, to, ids, amounts) */\n      and\n      0x4a39dc06d4c0dbc64b70af90fd698a233a518aa5d07e595d983b8c0526c8f7fb\n        /* \"lib/solmate.git/src/tokens/ERC1155.sol\":3607:3610  ids */\n      dup12\n      dup12\n        /* \"lib/solmate.git/src/tokens/ERC1155.sol\":3612:3619  amounts */\n      dup12\n      dup12\n        /* \"lib/solmate.git/src/tokens/ERC1155.sol\":3571:3620  TransferBatch(msg.sender, from, to, ids, amounts) */\n      mload(0x40)\n      tag_140\n      swap5\n      swap4\n      swap3\n      swap2\n      swap1\n      tag_141\n      jump\t// in\n    tag_140:\n      mload(0x40)\n      dup1\n      swap2\n      sub\n      swap1\n      log4\n      sub(shl(0xa0, 0x01), 0x01)\n        /* \"lib/solmate.git/src/tokens/ERC1155.sol\":3655:3669  to.code.length */\n      dup10\n      and\n      extcodesize\n        /* \"lib/solmate.git/src/tokens/ERC1155.sol\":3655:3674  to.code.length == 0 */\n      iszero\n        /* \"lib/solmate.git/src/tokens/ERC1155.sol\":3655:3892  to.code.length == 0... */\n      tag_142\n      jumpi\n        /* \"lib/solmate.git/src/tokens/ERC1155.sol\":3730:3815  ERC1155TokenReceiver(to).onERC1155BatchReceived(msg.sender, from, ids, amounts, data) */\n      mload(0x40)\n      shl(0xe0, 0xbc197c81)\n      dup1\n      dup3\n      mstore\n        /* \"lib/solmate.git/src/tokens/ERC1155.sol\":3840:3892  ERC1155TokenReceiver.onERC1155BatchReceived.selector */\n      swap1\n      sub(shl(0xa0, 0x01), 0x01)\n        /* \"lib/solmate.git/src/tokens/ERC1155.sol\":3730:3777  ERC1155TokenReceiver(to).onERC1155BatchReceived */\n      dup12\n      and\n      swap1\n        /* \"lib/solmate.git/src/tokens/ERC1155.sol\":3840:3892  ERC1155TokenReceiver.onERC1155BatchReceived.selector */\n      0xbc197c81\n      swap1\n        /* \"lib/solmate.git/src/tokens/ERC1155.sol\":3730:3815  ERC1155TokenReceiver(to).onERC1155BatchReceived(msg.sender, from, ids, amounts, data) */\n      tag_143\n      swap1\n        /* \"lib/solmate.git/src/tokens/ERC1155.sol\":3778:3788  msg.sender */\n      caller\n      swap1\n        /* \"lib/solmate.git/src/tokens/ERC1155.sol\":3790:3794  from */\n      dup16\n      swap1\n        /* \"lib/solmate.git/src/tokens/ERC1155.sol\":3796:3799  ids */\n      dup15\n      swap1\n      dup15\n      swap1\n        /* \"lib/solmate.git/src/tokens/ERC1155.sol\":3801:3808  amounts */\n      dup15\n      swap1\n      dup15\n      swap1\n        /* \"lib/solmate.git/src/tokens/ERC1155.sol\":3810:3814  data */\n      dup15\n      swap1\n      dup15\n      swap1\n        /* \"lib/solmate.git/src/tokens/ERC1155.sol\":3730:3815  ERC1155TokenReceiver(to).onERC1155BatchReceived(msg.sender, from, ids, amounts, data) */\n      0x04\n      add\n      tag_144\n      jump\t// in\n    tag_143:\n      0x20\n      mload(0x40)\n      dup1\n      dup4\n      sub\n      dup2\n      0x00\n      dup8\n      gas\n      call\n      iszero\n      dup1\n      iszero\n      tag_146\n      jumpi\n      returndatasize\n      0x00\n      dup1\n      returndatacopy\n      revert(0x00, returndatasize)\n    tag_146:\n      pop\n      pop\n      pop\n      pop\n      mload(0x40)\n      returndatasize\n      not(0x1f)\n      0x1f\n      dup3\n      add\n      and\n      dup3\n      add\n      dup1\n      0x40\n      mstore\n      pop\n      dup2\n      add\n      swap1\n      tag_147\n      swap2\n      swap1\n      tag_148\n      jump\t// in\n    tag_147:\n      not(sub(shl(0xe0, 0x01), 0x01))\n        /* \"lib/solmate.git/src/tokens/ERC1155.sol\":3730:3892  ERC1155TokenReceiver(to).onERC1155BatchReceived(msg.sender, from, ids, amounts, data) ==... */\n      and\n      eq\n        /* \"lib/solmate.git/src/tokens/ERC1155.sol\":3655:3892  to.code.length == 0... */\n      jump(tag_149)\n    tag_142:\n      sub(shl(0xa0, 0x01), 0x01)\n        /* \"lib/solmate.git/src/tokens/ERC1155.sol\":3694:3710  to != address(0) */\n      dup10\n      and\n      iszero\n      iszero\n        /* \"lib/solmate.git/src/tokens/ERC1155.sol\":3655:3892  to.code.length == 0... */\n    tag_149:\n        /* \"lib/solmate.git/src/tokens/ERC1155.sol\":3633:3936  require(... */\n      tag_150\n      jumpi\n      mload(0x40)\n      shl(0xe5, 0x461bcd)\n      dup2\n      mstore\n      0x04\n      add\n      tag_122\n      swap1\n      tag_152\n      jump\t// in\n    tag_150:\n        /* \"lib/solmate.git/src/tokens/ERC1155.sol\":2894:3944  {... */\n      pop\n      pop\n        /* \"lib/solmate.git/src/tokens/ERC1155.sol\":2697:3944  function safeBatchTransferFrom(... */\n      pop\n      pop\n      pop\n      pop\n      pop\n      pop\n      pop\n      pop\n      jump\t// out\n        /* \"src/NFTickets.sol\":1285:1887  function claim(... */\n    tag_54:\n        /* \"lib/openzeppelin-contracts.git/contracts/security/Pausable.sol\":1283:1302  _requireNotPaused() */\n      tag_154\n        /* \"lib/openzeppelin-contracts.git/contracts/security/Pausable.sol\":1283:1300  _requireNotPaused */\n      tag_155\n        /* \"lib/openzeppelin-contracts.git/contracts/security/Pausable.sol\":1283:1302  _requireNotPaused() */\n      jump\t// in\n    tag_154:\n        /* \"src/NFTickets.sol\":1429:1466  abi.encodePacked(msg.sender, tokenId) */\n      mload(0x40)\n      not(0xffffffffffffffffffffffff)\n        /* \"src/NFTickets.sol\":1446:1456  msg.sender */\n      caller\n        /* \"#utility.yul\":14934:14936   */\n      0x60\n        /* \"#utility.yul\":14930:14945   */\n      shl\n        /* \"#utility.yul\":14926:14979   */\n      and\n        /* \"src/NFTickets.sol\":1429:1466  abi.encodePacked(msg.sender, tokenId) */\n      0x20\n      dup3\n      add\n        /* \"#utility.yul\":14914:14980   */\n      mstore\n        /* \"#utility.yul\":14996:15008   */\n      0x34\n      dup2\n      add\n        /* \"#utility.yul\":14989:15017   */\n      dup3\n      swap1\n      mstore\n        /* \"src/NFTickets.sol\":1404:1416  bytes32 leaf */\n      0x00\n      swap1\n        /* \"#utility.yul\":15033:15045   */\n      0x54\n      add\n        /* \"src/NFTickets.sol\":1429:1466  abi.encodePacked(msg.sender, tokenId) */\n      mload(0x40)\n      0x20\n      dup2\n      dup4\n      sub\n      sub\n      dup2\n      mstore\n      swap1\n      0x40\n      mstore\n        /* \"src/NFTickets.sol\":1419:1467  keccak256(abi.encodePacked(msg.sender, tokenId)) */\n      dup1\n      mload\n      swap1\n      0x20\n      add\n      keccak256\n        /* \"src/NFTickets.sol\":1404:1467  bytes32 leaf = keccak256(abi.encodePacked(msg.sender, tokenId)) */\n      swap1\n      pop\n        /* \"src/NFTickets.sol\":1477:1490  bool verified */\n      0x00\n        /* \"src/NFTickets.sol\":1493:1545  MerkleProofLib.verify(merkleProof, merkleRoot, leaf) */\n      tag_159\n        /* \"src/NFTickets.sol\":1515:1526  merkleProof */\n      dup6\n      dup6\n        /* \"src/NFTickets.sol\":1528:1538  merkleRoot */\n      sload(0x0a)\n        /* \"src/NFTickets.sol\":1540:1544  leaf */\n      dup6\n        /* \"src/NFTickets.sol\":1493:1514  MerkleProofLib.verify */\n      tag_160\n        /* \"src/NFTickets.sol\":1493:1545  MerkleProofLib.verify(merkleProof, merkleRoot, leaf) */\n      jump\t// in\n    tag_159:\n        /* \"src/NFTickets.sol\":1477:1545  bool verified = MerkleProofLib.verify(merkleProof, merkleRoot, leaf) */\n      swap1\n      pop\n        /* \"src/NFTickets.sol\":1561:1569  verified */\n      dup1\n        /* \"src/NFTickets.sol\":1556:1618  if (!verified) {... */\n      tag_161\n      jumpi\n        /* \"src/NFTickets.sol\":1592:1607  ImproperProof() */\n      mload(0x40)\n      shl(0xe3, 0x0d453fcd)\n      dup2\n      mstore\n      0x04\n      add\n      mload(0x40)\n      dup1\n      swap2\n      sub\n      swap1\n      revert\n        /* \"src/NFTickets.sol\":1556:1618  if (!verified) {... */\n    tag_161:\n        /* \"src/NFTickets.sol\":1646:1656  msg.sender */\n      caller\n        /* \"src/NFTickets.sol\":1632:1657  ticketClaimed[msg.sender] */\n      0x00\n      swap1\n      dup2\n      mstore\n        /* \"src/NFTickets.sol\":1632:1645  ticketClaimed */\n      0x05\n        /* \"src/NFTickets.sol\":1632:1657  ticketClaimed[msg.sender] */\n      0x20\n      mstore\n      0x40\n      swap1\n      keccak256\n      sload\n      0xff\n      and\n        /* \"src/NFTickets.sol\":1628:1707  if (ticketClaimed[msg.sender]) {... */\n      iszero\n      tag_162\n      jumpi\n        /* \"src/NFTickets.sol\":1680:1696  AlreadyClaimed() */\n      mload(0x40)\n      shl(0xe3, 0x0c8d9eab)\n      dup2\n      mstore\n      0x04\n      add\n      mload(0x40)\n      dup1\n      swap2\n      sub\n      swap1\n      revert\n        /* \"src/NFTickets.sol\":1628:1707  if (ticketClaimed[msg.sender]) {... */\n    tag_162:\n        /* \"src/NFTickets.sol\":1731:1741  msg.sender */\n      caller\n        /* \"src/NFTickets.sol\":1717:1742  ticketClaimed[msg.sender] */\n      0x00\n      dup2\n      dup2\n      mstore\n        /* \"src/NFTickets.sol\":1717:1730  ticketClaimed */\n      0x05\n        /* \"src/NFTickets.sol\":1717:1742  ticketClaimed[msg.sender] */\n      0x20\n      swap1\n      dup2\n      mstore\n      0x40\n      dup1\n      dup4\n      keccak256\n        /* \"src/NFTickets.sol\":1717:1749  ticketClaimed[msg.sender] = true */\n      dup1\n      sload\n      not(0xff)\n      and\n        /* \"src/NFTickets.sol\":1745:1749  true */\n      0x01\n        /* \"src/NFTickets.sol\":1717:1749  ticketClaimed[msg.sender] = true */\n      swap1\n      dup2\n      or\n      swap1\n      swap2\n      sstore\n        /* \"src/NFTickets.sol\":1787:1796  _tokenIds */\n      0x06\n        /* \"src/NFTickets.sol\":1787:1803  _tokenIds.length */\n      dup1\n      sload\n        /* \"src/NFTickets.sol\":1760:1784  _tokenIdIndexes[tokenId] */\n      dup10\n      dup7\n      mstore\n        /* \"src/NFTickets.sol\":1760:1775  _tokenIdIndexes */\n      0x07\n        /* \"src/NFTickets.sol\":1760:1784  _tokenIdIndexes[tokenId] */\n      dup6\n      mstore\n      dup4\n      dup7\n      keccak256\n        /* \"src/NFTickets.sol\":1760:1803  _tokenIdIndexes[tokenId] = _tokenIds.length */\n      dup2\n      swap1\n      sstore\n        /* \"src/NFTickets.sol\":1813:1836  _tokenIds.push(tokenId) */\n      dup1\n      dup4\n      add\n      dup3\n      sstore\n      swap1\n      dup6\n      mstore\n      0xf652222313e28459528d920b65115c16c04f3efc82aaedc97be59f3f377c0d3f\n      add\n      dup9\n      swap1\n      sstore\n        /* \"src/NFTickets.sol\":1847:1880  _mint(msg.sender, tokenId, 1, \"\") */\n      dup2\n      mload\n      swap3\n      dup4\n      add\n      swap1\n      swap2\n      mstore\n      swap2\n      dup2\n      mstore\n      tag_164\n      swap3\n        /* \"src/NFTickets.sol\":1731:1741  msg.sender */\n      swap2\n        /* \"src/NFTickets.sol\":1776:1783  tokenId */\n      dup7\n      swap2\n        /* \"src/NFTickets.sol\":1847:1852  _mint */\n      tag_165\n        /* \"src/NFTickets.sol\":1847:1880  _mint(msg.sender, tokenId, 1, \"\") */\n      jump\t// in\n    tag_164:\n        /* \"src/NFTickets.sol\":1394:1887  {... */\n      pop\n      pop\n        /* \"src/NFTickets.sol\":1285:1887  function claim(... */\n      pop\n      pop\n      pop\n      jump\t// out\n        /* \"src/NFTickets.sol\":3111:3176  function unpause() external onlyOwner {... */\n    tag_56:\n        /* \"src/NFTickets.sol\":1058:1063  owner */\n      and(sub(shl(0xa0, 0x01), 0x01), sload(0x08))\n        /* \"src/NFTickets.sol\":1044:1054  msg.sender */\n      caller\n        /* \"src/NFTickets.sol\":1044:1063  msg.sender == owner */\n      eq\n        /* \"src/NFTickets.sol\":1036:1080  require(msg.sender == owner, \"UNAUTHORIZED\") */\n      tag_167\n      jumpi\n      mload(0x40)\n      shl(0xe5, 0x461bcd)\n      dup2\n      mstore\n      0x04\n      add\n      tag_122\n      swap1\n      tag_169\n      jump\t// in\n    tag_167:\n        /* \"src/NFTickets.sol\":3159:3169  _unpause() */\n      tag_171\n        /* \"src/NFTickets.sol\":3159:3167  _unpause */\n      tag_172\n        /* \"src/NFTickets.sol\":3159:3169  _unpause() */\n      jump\t// in\n    tag_171:\n        /* \"src/NFTickets.sol\":3111:3176  function unpause() external onlyOwner {... */\n      jump\t// out\n        /* \"lib/solmate.git/src/tokens/ERC1155.sol\":3952:4552  function balanceOfBatch(address[] calldata owners, uint256[] calldata ids)... */\n    tag_60:\n        /* \"lib/solmate.git/src/tokens/ERC1155.sol\":4092:4117  uint256[] memory balances */\n      0x60\n        /* \"lib/solmate.git/src/tokens/ERC1155.sol\":4143:4170  owners.length == ids.length */\n      dup4\n      dup3\n      eq\n        /* \"lib/solmate.git/src/tokens/ERC1155.sol\":4135:4190  require(owners.length == ids.length, \"LENGTH_MISMATCH\") */\n      tag_174\n      jumpi\n      mload(0x40)\n      shl(0xe5, 0x461bcd)\n      dup2\n      mstore\n        /* \"#utility.yul\":11123:11125   */\n      0x20\n        /* \"lib/solmate.git/src/tokens/ERC1155.sol\":4135:4190  require(owners.length == ids.length, \"LENGTH_MISMATCH\") */\n      0x04\n      dup3\n      add\n        /* \"#utility.yul\":11105:11126   */\n      mstore\n        /* \"#utility.yul\":11162:11164   */\n      0x0f\n        /* \"#utility.yul\":11142:11160   */\n      0x24\n      dup3\n      add\n        /* \"#utility.yul\":11135:11165   */\n      mstore\n      shl(0x8b, 0x0988a9c8ea890be9a92a69a82a8869)\n        /* \"#utility.yul\":11181:11199   */\n      0x44\n      dup3\n      add\n        /* \"#utility.yul\":11174:11219   */\n      mstore\n        /* \"#utility.yul\":11236:11254   */\n      0x64\n      add\n        /* \"lib/solmate.git/src/tokens/ERC1155.sol\":4135:4190  require(owners.length == ids.length, \"LENGTH_MISMATCH\") */\n      tag_122\n        /* \"#utility.yul\":10921:11260   */\n      jump\n        /* \"lib/solmate.git/src/tokens/ERC1155.sol\":4135:4190  require(owners.length == ids.length, \"LENGTH_MISMATCH\") */\n    tag_174:\n        /* \"lib/solmate.git/src/tokens/ERC1155.sol\":4228:4234  owners */\n      dup4\n        /* \"lib/solmate.git/src/tokens/ERC1155.sol\":4214:4242  new uint256[](owners.length) */\n      0xffffffffffffffff\n      dup2\n      gt\n      iszero\n      tag_177\n      jumpi\n      tag_177\n      tag_178\n      jump\t// in\n    tag_177:\n      mload(0x40)\n      swap1\n      dup1\n      dup3\n      mstore\n      dup1\n      0x20\n      mul\n      0x20\n      add\n      dup3\n      add\n      0x40\n      mstore\n      dup1\n      iszero\n      tag_179\n      jumpi\n      dup2\n      0x20\n      add\n      0x20\n      dup3\n      mul\n      dup1\n      calldatasize\n      dup4\n      calldatacopy\n      add\n      swap1\n      pop\n    tag_179:\n      pop\n        /* \"lib/solmate.git/src/tokens/ERC1155.sol\":4203:4242  balances = new uint256[](owners.length) */\n      swap1\n      pop\n        /* \"lib/solmate.git/src/tokens/ERC1155.sol\":4418:4427  uint256 i */\n      0x00\n        /* \"lib/solmate.git/src/tokens/ERC1155.sol\":4413:4534  for (uint256 i = 0; i < owners.length; ++i) {... */\n    tag_180:\n        /* \"lib/solmate.git/src/tokens/ERC1155.sol\":4433:4450  i < owners.length */\n      dup5\n      dup2\n      lt\n        /* \"lib/solmate.git/src/tokens/ERC1155.sol\":4413:4534  for (uint256 i = 0; i < owners.length; ++i) {... */\n      iszero\n      tag_181\n      jumpi\n        /* \"lib/solmate.git/src/tokens/ERC1155.sol\":4490:4499  balanceOf */\n      0x01\n        /* \"lib/solmate.git/src/tokens/ERC1155.sol\":4490:4510  balanceOf[owners[i]] */\n      0x00\n        /* \"lib/solmate.git/src/tokens/ERC1155.sol\":4500:4506  owners */\n      dup8\n      dup8\n        /* \"lib/solmate.git/src/tokens/ERC1155.sol\":4507:4508  i */\n      dup5\n        /* \"lib/solmate.git/src/tokens/ERC1155.sol\":4500:4509  owners[i] */\n      dup2\n      dup2\n      lt\n      tag_184\n      jumpi\n      tag_184\n      tag_133\n      jump\t// in\n    tag_184:\n      swap1\n      pop\n      0x20\n      mul\n      add\n      0x20\n      dup2\n      add\n      swap1\n      tag_185\n      swap2\n      swap1\n      tag_91\n      jump\t// in\n    tag_185:\n      sub(shl(0xa0, 0x01), 0x01)\n        /* \"lib/solmate.git/src/tokens/ERC1155.sol\":4490:4510  balanceOf[owners[i]] */\n      and\n      sub(shl(0xa0, 0x01), 0x01)\n      and\n      dup2\n      mstore\n      0x20\n      add\n      swap1\n      dup2\n      mstore\n      0x20\n      add\n      0x00\n      keccak256\n        /* \"lib/solmate.git/src/tokens/ERC1155.sol\":4490:4518  balanceOf[owners[i]][ids[i]] */\n      0x00\n        /* \"lib/solmate.git/src/tokens/ERC1155.sol\":4511:4514  ids */\n      dup6\n      dup6\n        /* \"lib/solmate.git/src/tokens/ERC1155.sol\":4515:4516  i */\n      dup5\n        /* \"lib/solmate.git/src/tokens/ERC1155.sol\":4511:4517  ids[i] */\n      dup2\n      dup2\n      lt\n      tag_187\n      jumpi\n      tag_187\n      tag_133\n      jump\t// in\n    tag_187:\n      swap1\n      pop\n      0x20\n      mul\n      add\n      calldataload\n        /* \"lib/solmate.git/src/tokens/ERC1155.sol\":4490:4518  balanceOf[owners[i]][ids[i]] */\n      dup2\n      mstore\n      0x20\n      add\n      swap1\n      dup2\n      mstore\n      0x20\n      add\n      0x00\n      keccak256\n      sload\n        /* \"lib/solmate.git/src/tokens/ERC1155.sol\":4476:4484  balances */\n      dup3\n        /* \"lib/solmate.git/src/tokens/ERC1155.sol\":4485:4486  i */\n      dup3\n        /* \"lib/solmate.git/src/tokens/ERC1155.sol\":4476:4487  balances[i] */\n      dup2\n      mload\n      dup2\n      lt\n      tag_189\n      jumpi\n      tag_189\n      tag_133\n      jump\t// in\n    tag_189:\n      0x20\n      swap1\n      dup2\n      mul\n      swap2\n      swap1\n      swap2\n      add\n      add\n        /* \"lib/solmate.git/src/tokens/ERC1155.sol\":4476:4518  balances[i] = balanceOf[owners[i]][ids[i]] */\n      mstore\n        /* \"lib/solmate.git/src/tokens/ERC1155.sol\":4452:4455  ++i */\n      0x01\n      add\n        /* \"lib/solmate.git/src/tokens/ERC1155.sol\":4413:4534  for (uint256 i = 0; i < owners.length; ++i) {... */\n      jump(tag_180)\n    tag_181:\n      pop\n        /* \"lib/solmate.git/src/tokens/ERC1155.sol\":3952:4552  function balanceOfBatch(address[] calldata owners, uint256[] calldata ids)... */\n      swap5\n      swap4\n      pop\n      pop\n      pop\n      pop\n      jump\t// out\n        /* \"src/NFTickets.sol\":2934:3038  function setMerkleRoot(bytes32 merkleRoot_) external onlyOwner {... */\n    tag_69:\n        /* \"src/NFTickets.sol\":1058:1063  owner */\n      and(sub(shl(0xa0, 0x01), 0x01), sload(0x08))\n        /* \"src/NFTickets.sol\":1044:1054  msg.sender */\n      caller\n        /* \"src/NFTickets.sol\":1044:1063  msg.sender == owner */\n      eq\n        /* \"src/NFTickets.sol\":1036:1080  require(msg.sender == owner, \"UNAUTHORIZED\") */\n      tag_192\n      jumpi\n      mload(0x40)\n      shl(0xe5, 0x461bcd)\n      dup2\n      mstore\n      0x04\n      add\n      tag_122\n      swap1\n      tag_169\n      jump\t// in\n    tag_192:\n        /* \"src/NFTickets.sol\":3007:3017  merkleRoot */\n      0x0a\n        /* \"src/NFTickets.sol\":3007:3031  merkleRoot = merkleRoot_ */\n      sstore\n        /* \"src/NFTickets.sol\":2934:3038  function setMerkleRoot(bytes32 merkleRoot_) external onlyOwner {... */\n      jump\t// out\n        /* \"src/NFTickets.sol\":3044:3105  function pause() external onlyOwner {... */\n    tag_71:\n        /* \"src/NFTickets.sol\":1058:1063  owner */\n      and(sub(shl(0xa0, 0x01), 0x01), sload(0x08))\n        /* \"src/NFTickets.sol\":1044:1054  msg.sender */\n      caller\n        /* \"src/NFTickets.sol\":1044:1063  msg.sender == owner */\n      eq\n        /* \"src/NFTickets.sol\":1036:1080  require(msg.sender == owner, \"UNAUTHORIZED\") */\n      tag_196\n      jumpi\n      mload(0x40)\n      shl(0xe5, 0x461bcd)\n      dup2\n      mstore\n      0x04\n      add\n      tag_122\n      swap1\n      tag_169\n      jump\t// in\n    tag_196:\n        /* \"src/NFTickets.sol\":3090:3098  _pause() */\n      tag_171\n        /* \"src/NFTickets.sol\":3090:3096  _pause */\n      tag_200\n        /* \"src/NFTickets.sol\":3090:3098  _pause() */\n      jump\t// in\n        /* \"lib/solmate.git/src/tokens/ERC1155.sol\":1754:1961  function setApprovalForAll(address operator, bool approved) public virtual {... */\n    tag_79:\n        /* \"lib/solmate.git/src/tokens/ERC1155.sol\":1857:1867  msg.sender */\n      caller\n        /* \"lib/solmate.git/src/tokens/ERC1155.sol\":1840:1868  isApprovedForAll[msg.sender] */\n      0x00\n      dup2\n      dup2\n      mstore\n        /* \"lib/solmate.git/src/tokens/ERC1155.sol\":1840:1856  isApprovedForAll */\n      0x02\n        /* \"lib/solmate.git/src/tokens/ERC1155.sol\":1840:1868  isApprovedForAll[msg.sender] */\n      0x20\n      swap1\n      dup2\n      mstore\n      0x40\n      dup1\n      dup4\n      keccak256\n      sub(shl(0xa0, 0x01), 0x01)\n        /* \"lib/solmate.git/src/tokens/ERC1155.sol\":1840:1878  isApprovedForAll[msg.sender][operator] */\n      dup8\n      and\n      dup1\n      dup6\n      mstore\n      swap1\n      dup4\n      mstore\n      swap3\n      dup2\n      swap1\n      keccak256\n        /* \"lib/solmate.git/src/tokens/ERC1155.sol\":1840:1889  isApprovedForAll[msg.sender][operator] = approved */\n      dup1\n      sload\n      not(0xff)\n      and\n      dup7\n      iszero\n      iszero\n      swap1\n      dup2\n      or\n      swap1\n      swap2\n      sstore\n        /* \"lib/solmate.git/src/tokens/ERC1155.sol\":1907:1953  ApprovalForAll(msg.sender, operator, approved) */\n      swap1\n      mload\n        /* \"#utility.yul\":1159:1200   */\n      swap1\n      dup2\n      mstore\n        /* \"lib/solmate.git/src/tokens/ERC1155.sol\":1840:1878  isApprovedForAll[msg.sender][operator] */\n      swap2\n      swap3\n        /* \"lib/solmate.git/src/tokens/ERC1155.sol\":1857:1867  msg.sender */\n      swap2\n        /* \"lib/solmate.git/src/tokens/ERC1155.sol\":1907:1953  ApprovalForAll(msg.sender, operator, approved) */\n      0x17307eab39ab6107e8899845ad3d59bd9653f200f220920489ca2b5937696c31\n      swap2\n        /* \"#utility.yul\":1132:1150   */\n      add\n        /* \"lib/solmate.git/src/tokens/ERC1155.sol\":1907:1953  ApprovalForAll(msg.sender, operator, approved) */\n      mload(0x40)\n      dup1\n      swap2\n      sub\n      swap1\n      log3\n        /* \"lib/solmate.git/src/tokens/ERC1155.sol\":1754:1961  function setApprovalForAll(address operator, bool approved) public virtual {... */\n      pop\n      pop\n      jump\t// out\n        /* \"src/NFTickets.sol\":1893:2690  function getMintedTokenIds(... */\n    tag_83:\n        /* \"src/NFTickets.sol\":2099:2108  _tokenIds */\n      0x06\n        /* \"src/NFTickets.sol\":2099:2115  _tokenIds.length */\n      sload\n        /* \"src/NFTickets.sol\":1997:2022  uint256[] memory tokenIds */\n      0x60\n      swap1\n        /* \"src/NFTickets.sol\":2024:2041  uint256 newCursor */\n      0x00\n      swap1\n        /* \"src/NFTickets.sol\":2133:2149  numTokenIds == 0 */\n      dup1\n      dup3\n      sub\n        /* \"src/NFTickets.sol\":2129:2212  if (numTokenIds == 0) {... */\n      tag_204\n      jumpi\n      pop\n      pop\n        /* \"src/NFTickets.sol\":2177:2193  new uint256[](0) */\n      0x40\n      dup1\n      mload\n        /* \"src/NFTickets.sol\":2191:2192  0 */\n      0x00\n        /* \"src/NFTickets.sol\":2177:2193  new uint256[](0) */\n      dup1\n      dup3\n      mstore\n      0x20\n      dup3\n      add\n      swap1\n      swap3\n      mstore\n      swap2\n      pop\n        /* \"src/NFTickets.sol\":2169:2197  return (new uint256[](0), 0) */\n      jump(tag_203)\n        /* \"src/NFTickets.sol\":2129:2212  if (numTokenIds == 0) {... */\n    tag_204:\n        /* \"src/NFTickets.sol\":2239:2250  numTokenIds */\n      dup1\n        /* \"src/NFTickets.sol\":2229:2235  cursor */\n      dup6\n        /* \"src/NFTickets.sol\":2229:2250  cursor >= numTokenIds */\n      lt\n        /* \"src/NFTickets.sol\":2225:2323  if (cursor >= numTokenIds) {... */\n      tag_208\n      jumpi\n        /* \"src/NFTickets.sol\":2278:2294  new uint256[](0) */\n      0x40\n      dup1\n      mload\n        /* \"src/NFTickets.sol\":2292:2293  0 */\n      0x00\n        /* \"src/NFTickets.sol\":2278:2294  new uint256[](0) */\n      dup2\n      mstore\n      0x20\n      dup2\n      add\n      swap1\n      swap2\n      mstore\n      swap3\n      pop\n        /* \"src/NFTickets.sol\":2296:2307  numTokenIds */\n      swap1\n      pop\n        /* \"src/NFTickets.sol\":2270:2308  return (new uint256[](0), numTokenIds) */\n      jump(tag_203)\n        /* \"src/NFTickets.sol\":2225:2323  if (cursor >= numTokenIds) {... */\n    tag_208:\n        /* \"src/NFTickets.sol\":2354:2374  numTokenIds - cursor */\n      dup5\n      dup2\n      sub\n        /* \"src/NFTickets.sol\":2392:2407  length > amount */\n      dup5\n      dup2\n      gt\n        /* \"src/NFTickets.sol\":2388:2457  if (length > amount) {... */\n      iszero\n      tag_212\n      jumpi\n      pop\n        /* \"src/NFTickets.sol\":2436:2442  amount */\n      dup4\n        /* \"src/NFTickets.sol\":2388:2457  if (length > amount) {... */\n    tag_212:\n        /* \"src/NFTickets.sol\":2496:2502  length */\n      dup1\n        /* \"src/NFTickets.sol\":2482:2503  new uint256[](length) */\n      0xffffffffffffffff\n      dup2\n      gt\n      iszero\n      tag_214\n      jumpi\n      tag_214\n      tag_178\n      jump\t// in\n    tag_214:\n      mload(0x40)\n      swap1\n      dup1\n      dup3\n      mstore\n      dup1\n      0x20\n      mul\n      0x20\n      add\n      dup3\n      add\n      0x40\n      mstore\n      dup1\n      iszero\n      tag_215\n      jumpi\n      dup2\n      0x20\n      add\n      0x20\n      dup3\n      mul\n      dup1\n      calldatasize\n      dup4\n      calldatacopy\n      add\n      swap1\n      pop\n    tag_215:\n      pop\n        /* \"src/NFTickets.sol\":2471:2503  tokenIds = new uint256[](length) */\n      swap4\n      pop\n        /* \"src/NFTickets.sol\":2522:2531  uint256 i */\n      0x00\n        /* \"src/NFTickets.sol\":2517:2641  for (uint256 i; i != length; ++i) {... */\n    tag_216:\n        /* \"src/NFTickets.sol\":2538:2544  length */\n      dup2\n        /* \"src/NFTickets.sol\":2533:2534  i */\n      dup2\n        /* \"src/NFTickets.sol\":2533:2544  i != length */\n      eq\n        /* \"src/NFTickets.sol\":2517:2641  for (uint256 i; i != length; ++i) {... */\n      tag_217\n      jumpi\n        /* \"src/NFTickets.sol\":2583:2592  _tokenIds */\n      0x06\n        /* \"src/NFTickets.sol\":2593:2599  cursor */\n      dup8\n        /* \"src/NFTickets.sol\":2583:2600  _tokenIds[cursor] */\n      dup2\n      sload\n      dup2\n      lt\n      tag_220\n      jumpi\n      tag_220\n      tag_133\n      jump\t// in\n    tag_220:\n      swap1\n      0x00\n      mstore\n      keccak256(0x00, 0x20)\n      add\n      sload\n        /* \"src/NFTickets.sol\":2569:2577  tokenIds */\n      dup6\n        /* \"src/NFTickets.sol\":2578:2579  i */\n      dup3\n        /* \"src/NFTickets.sol\":2569:2580  tokenIds[i] */\n      dup2\n      mload\n      dup2\n      lt\n      tag_223\n      jumpi\n      tag_223\n      tag_133\n      jump\t// in\n    tag_223:\n      0x20\n      swap1\n      dup2\n      mul\n      swap2\n      swap1\n      swap2\n      add\n      add\n        /* \"src/NFTickets.sol\":2569:2600  tokenIds[i] = _tokenIds[cursor] */\n      mstore\n        /* \"src/NFTickets.sol\":2618:2626  ++cursor */\n      0x01\n      swap7\n      dup8\n      add\n      swap7\n        /* \"src/NFTickets.sol\":2546:2549  ++i */\n      add\n        /* \"src/NFTickets.sol\":2517:2641  for (uint256 i; i != length; ++i) {... */\n      jump(tag_216)\n    tag_217:\n      pop\n        /* \"src/NFTickets.sol\":2667:2673  cursor */\n      dup6\n        /* \"src/NFTickets.sol\":2655:2673  newCursor = cursor */\n      swap3\n      pop\n        /* \"src/NFTickets.sol\":2053:2684  unchecked {... */\n      pop\n      pop\n        /* \"src/NFTickets.sol\":1893:2690  function getMintedTokenIds(... */\n    tag_203:\n      swap3\n      pop\n      swap3\n      swap1\n      pop\n      jump\t// out\n        /* \"src/NFTickets.sol\":1105:1279  function initialize(address _owner) external initializer {... */\n    tag_92:\n        /* \"lib/openzeppelin-contracts.git/contracts/proxy/utils/Initializable.sol\":3352:3371  bool isTopLevelCall */\n      0x00\n        /* \"lib/openzeppelin-contracts.git/contracts/proxy/utils/Initializable.sol\":3375:3388  _initializing */\n      sload\n      0x0100\n      swap1\n      div\n      0xff\n      and\n        /* \"lib/openzeppelin-contracts.git/contracts/proxy/utils/Initializable.sol\":3374:3388  !_initializing */\n      iszero\n      dup1\n        /* \"lib/openzeppelin-contracts.git/contracts/proxy/utils/Initializable.sol\":3422:3456  isTopLevelCall && _initialized < 1 */\n      dup1\n      iszero\n      tag_225\n      jumpi\n      pop\n        /* \"lib/openzeppelin-contracts.git/contracts/proxy/utils/Initializable.sol\":3440:3452  _initialized */\n      sload(0x00)\n        /* \"lib/openzeppelin-contracts.git/contracts/proxy/utils/Initializable.sol\":3455:3456  1 */\n      0x01\n        /* \"lib/openzeppelin-contracts.git/contracts/proxy/utils/Initializable.sol\":3440:3452  _initialized */\n      0xff\n      swap1\n      swap2\n      and\n        /* \"lib/openzeppelin-contracts.git/contracts/proxy/utils/Initializable.sol\":3440:3456  _initialized < 1 */\n      lt\n        /* \"lib/openzeppelin-contracts.git/contracts/proxy/utils/Initializable.sol\":3422:3456  isTopLevelCall && _initialized < 1 */\n    tag_225:\n        /* \"lib/openzeppelin-contracts.git/contracts/proxy/utils/Initializable.sol\":3421:3518  (isTopLevelCall && _initialized < 1) || (!Address.isContract(address(this)) && _initialized == 1) */\n      dup1\n      tag_229\n      jumpi\n      pop\n        /* \"lib/openzeppelin-contracts.git/contracts/proxy/utils/Initializable.sol\":3490:3494  this */\n      address\n        /* \"lib/openzeppelin-contracts.git/contracts/utils/Address.sol\":1746:1765  account.code.length */\n      extcodesize\n        /* \"lib/openzeppelin-contracts.git/contracts/utils/Address.sol\":1746:1769  account.code.length > 0 */\n      iszero\n      dup1\n      iszero\n        /* \"lib/openzeppelin-contracts.git/contracts/proxy/utils/Initializable.sol\":3462:3517  !Address.isContract(address(this)) && _initialized == 1 */\n      tag_229\n      jumpi\n      pop\n        /* \"lib/openzeppelin-contracts.git/contracts/proxy/utils/Initializable.sol\":3500:3512  _initialized */\n      and(0xff, sload(0x00))\n      0x01\n        /* \"lib/openzeppelin-contracts.git/contracts/proxy/utils/Initializable.sol\":3500:3517  _initialized == 1 */\n      eq\n        /* \"lib/openzeppelin-contracts.git/contracts/proxy/utils/Initializable.sol\":3462:3517  !Address.isContract(address(this)) && _initialized == 1 */\n    tag_229:\n        /* \"lib/openzeppelin-contracts.git/contracts/proxy/utils/Initializable.sol\":3399:3592  require(... */\n      tag_230\n      jumpi\n      mload(0x40)\n      shl(0xe5, 0x461bcd)\n      dup2\n      mstore\n        /* \"#utility.yul\":15599:15601   */\n      0x20\n        /* \"lib/openzeppelin-contracts.git/contracts/proxy/utils/Initializable.sol\":3399:3592  require(... */\n      0x04\n      dup3\n      add\n        /* \"#utility.yul\":15581:15602   */\n      mstore\n        /* \"#utility.yul\":15638:15640   */\n      0x2e\n        /* \"#utility.yul\":15618:15636   */\n      0x24\n      dup3\n      add\n        /* \"#utility.yul\":15611:15641   */\n      mstore\n        /* \"#utility.yul\":15677:15711   */\n      0x496e697469616c697a61626c653a20636f6e747261637420697320616c726561\n        /* \"#utility.yul\":15657:15675   */\n      0x44\n      dup3\n      add\n        /* \"#utility.yul\":15650:15712   */\n      mstore\n      shl(0x92, 0x191e481a5b9a5d1a585b1a5e9959)\n        /* \"#utility.yul\":15728:15746   */\n      0x64\n      dup3\n      add\n        /* \"#utility.yul\":15721:15765   */\n      mstore\n        /* \"#utility.yul\":15782:15801   */\n      0x84\n      add\n        /* \"lib/openzeppelin-contracts.git/contracts/proxy/utils/Initializable.sol\":3399:3592  require(... */\n      tag_122\n        /* \"#utility.yul\":15397:15807   */\n      jump\n        /* \"lib/openzeppelin-contracts.git/contracts/proxy/utils/Initializable.sol\":3399:3592  require(... */\n    tag_230:\n        /* \"lib/openzeppelin-contracts.git/contracts/proxy/utils/Initializable.sol\":3603:3615  _initialized */\n      0x00\n        /* \"lib/openzeppelin-contracts.git/contracts/proxy/utils/Initializable.sol\":3603:3619  _initialized = 1 */\n      dup1\n      sload\n      not(0xff)\n      and\n        /* \"lib/openzeppelin-contracts.git/contracts/proxy/utils/Initializable.sol\":3618:3619  1 */\n      0x01\n        /* \"lib/openzeppelin-contracts.git/contracts/proxy/utils/Initializable.sol\":3603:3619  _initialized = 1 */\n      or\n      swap1\n      sstore\n        /* \"lib/openzeppelin-contracts.git/contracts/proxy/utils/Initializable.sol\":3630:3697  if (isTopLevelCall) {... */\n      dup1\n      iszero\n      tag_233\n      jumpi\n        /* \"lib/openzeppelin-contracts.git/contracts/proxy/utils/Initializable.sol\":3665:3678  _initializing */\n      0x00\n        /* \"lib/openzeppelin-contracts.git/contracts/proxy/utils/Initializable.sol\":3665:3685  _initializing = true */\n      dup1\n      sload\n      not(0xff00)\n      and\n      0x0100\n      or\n      swap1\n      sstore\n        /* \"lib/openzeppelin-contracts.git/contracts/proxy/utils/Initializable.sol\":3630:3697  if (isTopLevelCall) {... */\n    tag_233:\n        /* \"src/NFTickets.sol\":1172:1177  owner */\n      0x08\n        /* \"src/NFTickets.sol\":1172:1186  owner = _owner */\n      dup1\n      sload\n      not(sub(shl(0xa0, 0x01), 0x01))\n      and\n      sub(shl(0xa0, 0x01), 0x01)\n      dup5\n      and\n      swap1\n      dup2\n      or\n      swap1\n      swap2\n      sstore\n        /* \"src/NFTickets.sol\":1201:1241  OwnershipTransferred(address(0), _owner) */\n      mload(0x40)\n      0x00\n      swap1\n      0x8be0079c531659141344cd1fd0a4f28419497f9722a3daafe3b4186f6b6457e0\n      swap1\n      dup3\n      swap1\n      log3\n        /* \"src/NFTickets.sol\":1252:1259  factory */\n      0x09\n        /* \"src/NFTickets.sol\":1252:1272  factory = msg.sender */\n      dup1\n      sload\n      not(sub(shl(0xa0, 0x01), 0x01))\n      and\n        /* \"src/NFTickets.sol\":1262:1272  msg.sender */\n      caller\n        /* \"src/NFTickets.sol\":1252:1272  factory = msg.sender */\n      or\n      swap1\n      sstore\n        /* \"lib/openzeppelin-contracts.git/contracts/proxy/utils/Initializable.sol\":3719:3821  if (isTopLevelCall) {... */\n      dup1\n      iszero\n      tag_235\n      jumpi\n        /* \"lib/openzeppelin-contracts.git/contracts/proxy/utils/Initializable.sol\":3770:3775  false */\n      0x00\n        /* \"lib/openzeppelin-contracts.git/contracts/proxy/utils/Initializable.sol\":3754:3775  _initializing = false */\n      dup1\n      sload\n      not(0xff00)\n      and\n      swap1\n      sstore\n        /* \"lib/openzeppelin-contracts.git/contracts/proxy/utils/Initializable.sol\":3795:3809  Initialized(1) */\n      mload(0x40)\n      0x01\n        /* \"#utility.yul\":15964:16000   */\n      dup2\n      mstore\n        /* \"lib/openzeppelin-contracts.git/contracts/proxy/utils/Initializable.sol\":3795:3809  Initialized(1) */\n      0x7f26b83ff96e1f2b6a682f133852f6798a09c465da95921460cefb3847402498\n      swap1\n        /* \"#utility.yul\":15952:15954   */\n      0x20\n        /* \"#utility.yul\":15937:15955   */\n      add\n        /* \"lib/openzeppelin-contracts.git/contracts/proxy/utils/Initializable.sol\":3795:3809  Initialized(1) */\n      mload(0x40)\n      dup1\n      swap2\n      sub\n      swap1\n      log1\n        /* \"lib/openzeppelin-contracts.git/contracts/proxy/utils/Initializable.sol\":3719:3821  if (isTopLevelCall) {... */\n    tag_235:\n        /* \"lib/openzeppelin-contracts.git/contracts/proxy/utils/Initializable.sol\":3341:3828  {... */\n      pop\n        /* \"src/NFTickets.sol\":1105:1279  function initialize(address _owner) external initializer {... */\n      pop\n      jump\t// out\n        /* \"lib/solmate.git/src/tokens/ERC1155.sol\":1969:2689  function safeTransferFrom(... */\n    tag_101:\n        /* \"lib/solmate.git/src/tokens/ERC1155.sol\":2156:2166  msg.sender */\n      caller\n      sub(shl(0xa0, 0x01), 0x01)\n        /* \"lib/solmate.git/src/tokens/ERC1155.sol\":2156:2174  msg.sender == from */\n      dup8\n      and\n      eq\n      dup1\n        /* \"lib/solmate.git/src/tokens/ERC1155.sol\":2156:2212  msg.sender == from || isApprovedForAll[from][msg.sender] */\n      tag_239\n      jumpi\n      pop\n      sub(shl(0xa0, 0x01), 0x01)\n        /* \"lib/solmate.git/src/tokens/ERC1155.sol\":2178:2200  isApprovedForAll[from] */\n      dup7\n      and\n      0x00\n      swap1\n      dup2\n      mstore\n        /* \"lib/solmate.git/src/tokens/ERC1155.sol\":2178:2194  isApprovedForAll */\n      0x02\n        /* \"lib/solmate.git/src/tokens/ERC1155.sol\":2178:2200  isApprovedForAll[from] */\n      0x20\n      swap1\n      dup2\n      mstore\n      0x40\n      dup1\n      dup4\n      keccak256\n        /* \"lib/solmate.git/src/tokens/ERC1155.sol\":2201:2211  msg.sender */\n      caller\n        /* \"lib/solmate.git/src/tokens/ERC1155.sol\":2178:2212  isApprovedForAll[from][msg.sender] */\n      dup5\n      mstore\n      swap1\n      swap2\n      mstore\n      swap1\n      keccak256\n      sload\n      0xff\n      and\n        /* \"lib/solmate.git/src/tokens/ERC1155.sol\":2156:2212  msg.sender == from || isApprovedForAll[from][msg.sender] */\n    tag_239:\n        /* \"lib/solmate.git/src/tokens/ERC1155.sol\":2148:2231  require(msg.sender == from || isApprovedForAll[from][msg.sender], \"NOT_AUTHORIZED\") */\n      tag_240\n      jumpi\n      mload(0x40)\n      shl(0xe5, 0x461bcd)\n      dup2\n      mstore\n        /* \"#utility.yul\":11467:11469   */\n      0x20\n        /* \"lib/solmate.git/src/tokens/ERC1155.sol\":2148:2231  require(msg.sender == from || isApprovedForAll[from][msg.sender], \"NOT_AUTHORIZED\") */\n      0x04\n      dup3\n      add\n        /* \"#utility.yul\":11449:11470   */\n      mstore\n        /* \"#utility.yul\":11506:11508   */\n      0x0e\n        /* \"#utility.yul\":11486:11504   */\n      0x24\n      dup3\n      add\n        /* \"#utility.yul\":11479:11509   */\n      mstore\n      shl(0x92, 0x1393d517d055551213d492569151)\n        /* \"#utility.yul\":11525:11543   */\n      0x44\n      dup3\n      add\n        /* \"#utility.yul\":11518:11562   */\n      mstore\n        /* \"#utility.yul\":11579:11597   */\n      0x64\n      add\n        /* \"lib/solmate.git/src/tokens/ERC1155.sol\":2148:2231  require(msg.sender == from || isApprovedForAll[from][msg.sender], \"NOT_AUTHORIZED\") */\n      tag_122\n        /* \"#utility.yul\":11265:11603   */\n      jump\n        /* \"lib/solmate.git/src/tokens/ERC1155.sol\":2148:2231  require(msg.sender == from || isApprovedForAll[from][msg.sender], \"NOT_AUTHORIZED\") */\n    tag_240:\n      sub(shl(0xa0, 0x01), 0x01)\n        /* \"lib/solmate.git/src/tokens/ERC1155.sol\":2244:2259  balanceOf[from] */\n      dup7\n      and\n      0x00\n      swap1\n      dup2\n      mstore\n        /* \"lib/solmate.git/src/tokens/ERC1155.sol\":2244:2253  balanceOf */\n      0x01\n        /* \"lib/solmate.git/src/tokens/ERC1155.sol\":2244:2259  balanceOf[from] */\n      0x20\n      swap1\n      dup2\n      mstore\n      0x40\n      dup1\n      dup4\n      keccak256\n        /* \"lib/solmate.git/src/tokens/ERC1155.sol\":2244:2263  balanceOf[from][id] */\n      dup8\n      dup5\n      mstore\n      swap1\n      swap2\n      mstore\n      dup2\n      keccak256\n        /* \"lib/solmate.git/src/tokens/ERC1155.sol\":2244:2273  balanceOf[from][id] -= amount */\n      dup1\n      sload\n        /* \"lib/solmate.git/src/tokens/ERC1155.sol\":2267:2273  amount */\n      dup6\n      swap3\n        /* \"lib/solmate.git/src/tokens/ERC1155.sol\":2244:2259  balanceOf[from] */\n      swap1\n        /* \"lib/solmate.git/src/tokens/ERC1155.sol\":2244:2273  balanceOf[from][id] -= amount */\n      tag_242\n      swap1\n        /* \"lib/solmate.git/src/tokens/ERC1155.sol\":2267:2273  amount */\n      dup5\n      swap1\n        /* \"lib/solmate.git/src/tokens/ERC1155.sol\":2244:2273  balanceOf[from][id] -= amount */\n      tag_137\n      jump\t// in\n    tag_242:\n      swap1\n      swap2\n      sstore\n      pop\n      pop\n      sub(shl(0xa0, 0x01), 0x01)\n        /* \"lib/solmate.git/src/tokens/ERC1155.sol\":2284:2297  balanceOf[to] */\n      dup6\n      and\n      0x00\n      swap1\n      dup2\n      mstore\n        /* \"lib/solmate.git/src/tokens/ERC1155.sol\":2284:2293  balanceOf */\n      0x01\n        /* \"lib/solmate.git/src/tokens/ERC1155.sol\":2284:2297  balanceOf[to] */\n      0x20\n      swap1\n      dup2\n      mstore\n      0x40\n      dup1\n      dup4\n      keccak256\n        /* \"lib/solmate.git/src/tokens/ERC1155.sol\":2284:2301  balanceOf[to][id] */\n      dup8\n      dup5\n      mstore\n      swap1\n      swap2\n      mstore\n      dup2\n      keccak256\n        /* \"lib/solmate.git/src/tokens/ERC1155.sol\":2284:2311  balanceOf[to][id] += amount */\n      dup1\n      sload\n        /* \"lib/solmate.git/src/tokens/ERC1155.sol\":2305:2311  amount */\n      dup6\n      swap3\n        /* \"lib/solmate.git/src/tokens/ERC1155.sol\":2284:2297  balanceOf[to] */\n      swap1\n        /* \"lib/solmate.git/src/tokens/ERC1155.sol\":2284:2311  balanceOf[to][id] += amount */\n      tag_243\n      swap1\n        /* \"lib/solmate.git/src/tokens/ERC1155.sol\":2305:2311  amount */\n      dup5\n      swap1\n        /* \"lib/solmate.git/src/tokens/ERC1155.sol\":2284:2311  balanceOf[to][id] += amount */\n      tag_139\n      jump\t// in\n    tag_243:\n      swap1\n      swap2\n      sstore\n      pop\n      pop\n        /* \"lib/solmate.git/src/tokens/ERC1155.sol\":2329:2377  TransferSingle(msg.sender, from, to, id, amount) */\n      0x40\n      dup1\n      mload\n        /* \"#utility.yul\":16185:16210   */\n      dup6\n      dup2\n      mstore\n        /* \"#utility.yul\":16241:16243   */\n      0x20\n        /* \"#utility.yul\":16226:16244   */\n      dup2\n      add\n        /* \"#utility.yul\":16219:16253   */\n      dup6\n      swap1\n      mstore\n      sub(shl(0xa0, 0x01), 0x01)\n        /* \"lib/solmate.git/src/tokens/ERC1155.sol\":2329:2377  TransferSingle(msg.sender, from, to, id, amount) */\n      dup1\n      dup9\n      and\n      swap3\n      swap1\n      dup10\n      and\n      swap2\n        /* \"lib/solmate.git/src/tokens/ERC1155.sol\":2344:2354  msg.sender */\n      caller\n      swap2\n        /* \"lib/solmate.git/src/tokens/ERC1155.sol\":2329:2377  TransferSingle(msg.sender, from, to, id, amount) */\n      0xc3d58168c5ae7397731d063d5bbf3d657854427343f4c083240f7aacaa2d0f62\n      swap2\n        /* \"#utility.yul\":16158:16176   */\n      add\n        /* \"lib/solmate.git/src/tokens/ERC1155.sol\":2329:2377  TransferSingle(msg.sender, from, to, id, amount) */\n      mload(0x40)\n      dup1\n      swap2\n      sub\n      swap1\n      log4\n      sub(shl(0xa0, 0x01), 0x01)\n        /* \"lib/solmate.git/src/tokens/ERC1155.sol\":2412:2426  to.code.length */\n      dup6\n      and\n      extcodesize\n        /* \"lib/solmate.git/src/tokens/ERC1155.sol\":2412:2431  to.code.length == 0 */\n      iszero\n        /* \"lib/solmate.git/src/tokens/ERC1155.sol\":2412:2637  to.code.length == 0... */\n      tag_246\n      jumpi\n        /* \"lib/solmate.git/src/tokens/ERC1155.sol\":2487:2565  ERC1155TokenReceiver(to).onERC1155Received(msg.sender, from, id, amount, data) */\n      mload(0x40)\n      shl(0xe0, 0xf23a6e61)\n      dup1\n      dup3\n      mstore\n        /* \"lib/solmate.git/src/tokens/ERC1155.sol\":2590:2637  ERC1155TokenReceiver.onERC1155Received.selector */\n      swap1\n      sub(shl(0xa0, 0x01), 0x01)\n        /* \"lib/solmate.git/src/tokens/ERC1155.sol\":2487:2529  ERC1155TokenReceiver(to).onERC1155Received */\n      dup8\n      and\n      swap1\n        /* \"lib/solmate.git/src/tokens/ERC1155.sol\":2590:2637  ERC1155TokenReceiver.onERC1155Received.selector */\n      0xf23a6e61\n      swap1\n        /* \"lib/solmate.git/src/tokens/ERC1155.sol\":2487:2565  ERC1155TokenReceiver(to).onERC1155Received(msg.sender, from, id, amount, data) */\n      tag_247\n      swap1\n        /* \"lib/solmate.git/src/tokens/ERC1155.sol\":2530:2540  msg.sender */\n      caller\n      swap1\n        /* \"lib/solmate.git/src/tokens/ERC1155.sol\":2542:2546  from */\n      dup12\n      swap1\n        /* \"lib/solmate.git/src/tokens/ERC1155.sol\":2548:2550  id */\n      dup11\n      swap1\n        /* \"lib/solmate.git/src/tokens/ERC1155.sol\":2552:2558  amount */\n      dup11\n      swap1\n        /* \"lib/solmate.git/src/tokens/ERC1155.sol\":2560:2564  data */\n      dup11\n      swap1\n      dup11\n      swap1\n        /* \"lib/solmate.git/src/tokens/ERC1155.sol\":2487:2565  ERC1155TokenReceiver(to).onERC1155Received(msg.sender, from, id, amount, data) */\n      0x04\n      add\n      tag_248\n      jump\t// in\n    tag_247:\n      0x20\n      mload(0x40)\n      dup1\n      dup4\n      sub\n      dup2\n      0x00\n      dup8\n      gas\n      call\n      iszero\n      dup1\n      iszero\n      tag_250\n      jumpi\n      returndatasize\n      0x00\n      dup1\n      returndatacopy\n      revert(0x00, returndatasize)\n    tag_250:\n      pop\n      pop\n      pop\n      pop\n      mload(0x40)\n      returndatasize\n      not(0x1f)\n      0x1f\n      dup3\n      add\n      and\n      dup3\n      add\n      dup1\n      0x40\n      mstore\n      pop\n      dup2\n      add\n      swap1\n      tag_251\n      swap2\n      swap1\n      tag_148\n      jump\t// in\n    tag_251:\n      not(sub(shl(0xe0, 0x01), 0x01))\n        /* \"lib/solmate.git/src/tokens/ERC1155.sol\":2487:2637  ERC1155TokenReceiver(to).onERC1155Received(msg.sender, from, id, amount, data) ==... */\n      and\n      eq\n        /* \"lib/solmate.git/src/tokens/ERC1155.sol\":2412:2637  to.code.length == 0... */\n      jump(tag_252)\n    tag_246:\n      sub(shl(0xa0, 0x01), 0x01)\n        /* \"lib/solmate.git/src/tokens/ERC1155.sol\":2451:2467  to != address(0) */\n      dup6\n      and\n      iszero\n      iszero\n        /* \"lib/solmate.git/src/tokens/ERC1155.sol\":2412:2637  to.code.length == 0... */\n    tag_252:\n        /* \"lib/solmate.git/src/tokens/ERC1155.sol\":2390:2681  require(... */\n      tag_253\n      jumpi\n      mload(0x40)\n      shl(0xe5, 0x461bcd)\n      dup2\n      mstore\n      0x04\n      add\n      tag_122\n      swap1\n      tag_152\n      jump\t// in\n    tag_253:\n        /* \"lib/solmate.git/src/tokens/ERC1155.sol\":1969:2689  function safeTransferFrom(... */\n      pop\n      pop\n      pop\n      pop\n      pop\n      pop\n      jump\t// out\n        /* \"lib/openzeppelin-contracts.git/contracts/security/Pausable.sol\":1837:1945  function _requireNotPaused() internal view virtual {... */\n    tag_155:\n        /* \"lib/openzeppelin-contracts.git/contracts/security/Pausable.sol\":1749:1756  _paused */\n      and(0xff, sload(0x03))\n        /* \"lib/openzeppelin-contracts.git/contracts/security/Pausable.sol\":1907:1916  !paused() */\n      iszero\n        /* \"lib/openzeppelin-contracts.git/contracts/security/Pausable.sol\":1899:1937  require(!paused(), \"Pausable: paused\") */\n      tag_171\n      jumpi\n      mload(0x40)\n      shl(0xe5, 0x461bcd)\n      dup2\n      mstore\n        /* \"#utility.yul\":17058:17060   */\n      0x20\n        /* \"lib/openzeppelin-contracts.git/contracts/security/Pausable.sol\":1899:1937  require(!paused(), \"Pausable: paused\") */\n      0x04\n      dup3\n      add\n        /* \"#utility.yul\":17040:17061   */\n      mstore\n        /* \"#utility.yul\":17097:17099   */\n      0x10\n        /* \"#utility.yul\":17077:17095   */\n      0x24\n      dup3\n      add\n        /* \"#utility.yul\":17070:17100   */\n      mstore\n      shl(0x82, 0x14185d5cd8589b194e881c185d5cd959)\n        /* \"#utility.yul\":17116:17134   */\n      0x44\n      dup3\n      add\n        /* \"#utility.yul\":17109:17155   */\n      mstore\n        /* \"#utility.yul\":17172:17190   */\n      0x64\n      add\n        /* \"lib/openzeppelin-contracts.git/contracts/security/Pausable.sol\":1899:1937  require(!paused(), \"Pausable: paused\") */\n      tag_122\n        /* \"#utility.yul\":16856:17196   */\n      jump\n        /* \"lib/solmate.git/src/utils/MerkleProofLib.sol\":370:2075  function verify(... */\n    tag_160:\n        /* \"lib/solmate.git/src/utils/MerkleProofLib.sol\":497:509  bool isValid */\n      0x00\n        /* \"lib/solmate.git/src/utils/MerkleProofLib.sol\":593:605  proof.length */\n      dup4\n        /* \"lib/solmate.git/src/utils/MerkleProofLib.sol\":590:1974  if proof.length {... */\n      iszero\n      tag_261\n      jumpi\n        /* \"lib/solmate.git/src/utils/MerkleProofLib.sol\":727:739  proof.length */\n      dup4\n        /* \"lib/solmate.git/src/utils/MerkleProofLib.sol\":724:725  5 */\n      0x05\n        /* \"lib/solmate.git/src/utils/MerkleProofLib.sol\":720:740  shl(5, proof.length) */\n      shl\n        /* \"lib/solmate.git/src/utils/MerkleProofLib.sol\":706:718  proof.offset */\n      dup6\n        /* \"lib/solmate.git/src/utils/MerkleProofLib.sol\":702:741  add(proof.offset, shl(5, proof.length)) */\n      add\n        /* \"lib/solmate.git/src/utils/MerkleProofLib.sol\":853:865  proof.offset */\n      dup6\n        /* \"lib/solmate.git/src/utils/MerkleProofLib.sol\":991:1959  for {} 1 {} {... */\n    tag_262:\n        /* \"lib/solmate.git/src/utils/MerkleProofLib.sol\":1218:1238  calldataload(offset) */\n      dup1\n      calldataload\n        /* \"lib/solmate.git/src/utils/MerkleProofLib.sol\":1209:1239  gt(leaf, calldataload(offset)) */\n      dup1\n      dup6\n      gt\n        /* \"lib/solmate.git/src/utils/MerkleProofLib.sol\":1206:1207  5 */\n      0x05\n        /* \"lib/solmate.git/src/utils/MerkleProofLib.sol\":1202:1240  shl(5, gt(leaf, calldataload(offset))) */\n      shl\n        /* \"lib/solmate.git/src/utils/MerkleProofLib.sol\":1507:1529  mstore(leafSlot, leaf) */\n      swap5\n      dup6\n      mstore\n        /* \"lib/solmate.git/src/utils/MerkleProofLib.sol\":1572:1574  32 */\n      0x20\n        /* \"lib/solmate.git/src/utils/MerkleProofLib.sol\":1558:1575  xor(leafSlot, 32) */\n      swap5\n      dup6\n      xor\n        /* \"lib/solmate.git/src/utils/MerkleProofLib.sol\":1551:1598  mstore(xor(leafSlot, 32), calldataload(offset)) */\n      mstore\n        /* \"lib/solmate.git/src/utils/MerkleProofLib.sol\":1724:1726  64 */\n      0x40\n        /* \"lib/solmate.git/src/utils/MerkleProofLib.sol\":1721:1722  0 */\n      0x00\n        /* \"lib/solmate.git/src/utils/MerkleProofLib.sol\":1711:1727  keccak256(0, 64) */\n      keccak256\n      swap4\n        /* \"lib/solmate.git/src/utils/MerkleProofLib.sol\":1798:1813  add(offset, 32) */\n      add\n        /* \"lib/solmate.git/src/utils/MerkleProofLib.sol\":1914:1929  lt(offset, end) */\n      dup2\n      dup2\n      lt\n        /* \"lib/solmate.git/src/utils/MerkleProofLib.sol\":991:1959  for {} 1 {} {... */\n      tag_262\n        /* \"lib/solmate.git/src/utils/MerkleProofLib.sol\":1904:1940  if iszero(lt(offset, end)) { break } */\n      jumpi\n        /* \"lib/solmate.git/src/utils/MerkleProofLib.sol\":995:997  {} */\n      pop\n      pop\n        /* \"lib/solmate.git/src/utils/MerkleProofLib.sol\":590:1974  if proof.length {... */\n    tag_261:\n      pop\n        /* \"lib/solmate.git/src/utils/MerkleProofLib.sol\":2001:2015  eq(leaf, root) */\n      eq\n      swap3\n        /* \"lib/solmate.git/src/utils/MerkleProofLib.sol\":370:2075  function verify(... */\n      swap2\n      pop\n      pop\n      jump\t// out\n        /* \"lib/solmate.git/src/tokens/ERC1155.sol\":5291:5853  function _mint(... */\n    tag_165:\n      sub(shl(0xa0, 0x01), 0x01)\n        /* \"lib/solmate.git/src/tokens/ERC1155.sol\":5436:5449  balanceOf[to] */\n      dup5\n      and\n      0x00\n      swap1\n      dup2\n      mstore\n        /* \"lib/solmate.git/src/tokens/ERC1155.sol\":5436:5445  balanceOf */\n      0x01\n        /* \"lib/solmate.git/src/tokens/ERC1155.sol\":5436:5449  balanceOf[to] */\n      0x20\n      swap1\n      dup2\n      mstore\n      0x40\n      dup1\n      dup4\n      keccak256\n        /* \"lib/solmate.git/src/tokens/ERC1155.sol\":5436:5453  balanceOf[to][id] */\n      dup7\n      dup5\n      mstore\n      swap1\n      swap2\n      mstore\n      dup2\n      keccak256\n        /* \"lib/solmate.git/src/tokens/ERC1155.sol\":5436:5463  balanceOf[to][id] += amount */\n      dup1\n      sload\n        /* \"lib/solmate.git/src/tokens/ERC1155.sol\":5457:5463  amount */\n      dup5\n      swap3\n        /* \"lib/solmate.git/src/tokens/ERC1155.sol\":5436:5449  balanceOf[to] */\n      swap1\n        /* \"lib/solmate.git/src/tokens/ERC1155.sol\":5436:5463  balanceOf[to][id] += amount */\n      tag_267\n      swap1\n        /* \"lib/solmate.git/src/tokens/ERC1155.sol\":5457:5463  amount */\n      dup5\n      swap1\n        /* \"lib/solmate.git/src/tokens/ERC1155.sol\":5436:5463  balanceOf[to][id] += amount */\n      tag_139\n      jump\t// in\n    tag_267:\n      swap1\n      swap2\n      sstore\n      pop\n      pop\n        /* \"lib/solmate.git/src/tokens/ERC1155.sol\":5481:5535  TransferSingle(msg.sender, address(0), to, id, amount) */\n      0x40\n      dup1\n      mload\n        /* \"#utility.yul\":16185:16210   */\n      dup5\n      dup2\n      mstore\n        /* \"#utility.yul\":16241:16243   */\n      0x20\n        /* \"#utility.yul\":16226:16244   */\n      dup2\n      add\n        /* \"#utility.yul\":16219:16253   */\n      dup5\n      swap1\n      mstore\n      sub(shl(0xa0, 0x01), 0x01)\n        /* \"lib/solmate.git/src/tokens/ERC1155.sol\":5481:5535  TransferSingle(msg.sender, address(0), to, id, amount) */\n      dup7\n      and\n      swap2\n        /* \"lib/solmate.git/src/tokens/ERC1155.sol\":5516:5517  0 */\n      0x00\n      swap2\n        /* \"lib/solmate.git/src/tokens/ERC1155.sol\":5496:5506  msg.sender */\n      caller\n      swap2\n        /* \"lib/solmate.git/src/tokens/ERC1155.sol\":5481:5535  TransferSingle(msg.sender, address(0), to, id, amount) */\n      0xc3d58168c5ae7397731d063d5bbf3d657854427343f4c083240f7aacaa2d0f62\n      swap2\n        /* \"#utility.yul\":16158:16176   */\n      add\n        /* \"lib/solmate.git/src/tokens/ERC1155.sol\":5481:5535  TransferSingle(msg.sender, address(0), to, id, amount) */\n      mload(0x40)\n      dup1\n      swap2\n      sub\n      swap1\n      log4\n      sub(shl(0xa0, 0x01), 0x01)\n        /* \"lib/solmate.git/src/tokens/ERC1155.sol\":5570:5584  to.code.length */\n      dup5\n      and\n      extcodesize\n        /* \"lib/solmate.git/src/tokens/ERC1155.sol\":5570:5589  to.code.length == 0 */\n      iszero\n        /* \"lib/solmate.git/src/tokens/ERC1155.sol\":5570:5801  to.code.length == 0... */\n      tag_269\n      jumpi\n        /* \"lib/solmate.git/src/tokens/ERC1155.sol\":5645:5729  ERC1155TokenReceiver(to).onERC1155Received(msg.sender, address(0), id, amount, data) */\n      mload(0x40)\n      shl(0xe0, 0xf23a6e61)\n      dup1\n      dup3\n      mstore\n        /* \"lib/solmate.git/src/tokens/ERC1155.sol\":5754:5801  ERC1155TokenReceiver.onERC1155Received.selector */\n      swap1\n      sub(shl(0xa0, 0x01), 0x01)\n        /* \"lib/solmate.git/src/tokens/ERC1155.sol\":5645:5687  ERC1155TokenReceiver(to).onERC1155Received */\n      dup7\n      and\n      swap1\n        /* \"lib/solmate.git/src/tokens/ERC1155.sol\":5754:5801  ERC1155TokenReceiver.onERC1155Received.selector */\n      0xf23a6e61\n      swap1\n        /* \"lib/solmate.git/src/tokens/ERC1155.sol\":5645:5729  ERC1155TokenReceiver(to).onERC1155Received(msg.sender, address(0), id, amount, data) */\n      tag_270\n      swap1\n        /* \"lib/solmate.git/src/tokens/ERC1155.sol\":5688:5698  msg.sender */\n      caller\n      swap1\n        /* \"lib/solmate.git/src/tokens/ERC1155.sol\":5708:5709  0 */\n      0x00\n      swap1\n        /* \"lib/solmate.git/src/tokens/ERC1155.sol\":5712:5714  id */\n      dup10\n      swap1\n        /* \"lib/solmate.git/src/tokens/ERC1155.sol\":5716:5722  amount */\n      dup10\n      swap1\n        /* \"lib/solmate.git/src/tokens/ERC1155.sol\":5724:5728  data */\n      dup10\n      swap1\n        /* \"lib/solmate.git/src/tokens/ERC1155.sol\":5645:5729  ERC1155TokenReceiver(to).onERC1155Received(msg.sender, address(0), id, amount, data) */\n      0x04\n      add\n      tag_271\n      jump\t// in\n    tag_270:\n      0x20\n      mload(0x40)\n      dup1\n      dup4\n      sub\n      dup2\n      0x00\n      dup8\n      gas\n      call\n      iszero\n      dup1\n      iszero\n      tag_273\n      jumpi\n      returndatasize\n      0x00\n      dup1\n      returndatacopy\n      revert(0x00, returndatasize)\n    tag_273:\n      pop\n      pop\n      pop\n      pop\n      mload(0x40)\n      returndatasize\n      not(0x1f)\n      0x1f\n      dup3\n      add\n      and\n      dup3\n      add\n      dup1\n      0x40\n      mstore\n      pop\n      dup2\n      add\n      swap1\n      tag_274\n      swap2\n      swap1\n      tag_148\n      jump\t// in\n    tag_274:\n      not(sub(shl(0xe0, 0x01), 0x01))\n        /* \"lib/solmate.git/src/tokens/ERC1155.sol\":5645:5801  ERC1155TokenReceiver(to).onERC1155Received(msg.sender, address(0), id, amount, data) ==... */\n      and\n      eq\n        /* \"lib/solmate.git/src/tokens/ERC1155.sol\":5570:5801  to.code.length == 0... */\n      jump(tag_275)\n    tag_269:\n      sub(shl(0xa0, 0x01), 0x01)\n        /* \"lib/solmate.git/src/tokens/ERC1155.sol\":5609:5625  to != address(0) */\n      dup5\n      and\n      iszero\n      iszero\n        /* \"lib/solmate.git/src/tokens/ERC1155.sol\":5570:5801  to.code.length == 0... */\n    tag_275:\n        /* \"lib/solmate.git/src/tokens/ERC1155.sol\":5548:5845  require(... */\n      tag_276\n      jumpi\n      mload(0x40)\n      shl(0xe5, 0x461bcd)\n      dup2\n      mstore\n      0x04\n      add\n      tag_122\n      swap1\n      tag_152\n      jump\t// in\n    tag_276:\n        /* \"lib/solmate.git/src/tokens/ERC1155.sol\":5291:5853  function _mint(... */\n      pop\n      pop\n      pop\n      pop\n      jump\t// out\n        /* \"lib/openzeppelin-contracts.git/contracts/security/Pausable.sol\":2533:2653  function _unpause() internal virtual whenPaused {... */\n    tag_172:\n        /* \"lib/openzeppelin-contracts.git/contracts/security/Pausable.sol\":1542:1558  _requirePaused() */\n      tag_279\n        /* \"lib/openzeppelin-contracts.git/contracts/security/Pausable.sol\":1542:1556  _requirePaused */\n      tag_280\n        /* \"lib/openzeppelin-contracts.git/contracts/security/Pausable.sol\":1542:1558  _requirePaused() */\n      jump\t// in\n    tag_279:\n        /* \"lib/openzeppelin-contracts.git/contracts/security/Pausable.sol\":2592:2599  _paused */\n      0x03\n        /* \"lib/openzeppelin-contracts.git/contracts/security/Pausable.sol\":2592:2607  _paused = false */\n      dup1\n      sload\n      not(0xff)\n      and\n      swap1\n      sstore\n        /* \"lib/openzeppelin-contracts.git/contracts/security/Pausable.sol\":2623:2645  Unpaused(_msgSender()) */\n      0x5db9ee0a495bf2e6ff9c91a7834c1ba4fdd244a5e8aa4e537bd38aeae4b073aa\n        /* \"lib/openzeppelin-contracts.git/contracts/utils/Context.sol\":736:746  msg.sender */\n      caller\n        /* \"lib/openzeppelin-contracts.git/contracts/security/Pausable.sol\":2632:2644  _msgSender() */\n    tag_282:\n        /* \"lib/openzeppelin-contracts.git/contracts/security/Pausable.sol\":2623:2645  Unpaused(_msgSender()) */\n      mload(0x40)\n      sub(shl(0xa0, 0x01), 0x01)\n        /* \"#utility.yul\":6616:6648   */\n      swap1\n      swap2\n      and\n        /* \"#utility.yul\":6598:6649   */\n      dup2\n      mstore\n        /* \"#utility.yul\":6586:6588   */\n      0x20\n        /* \"#utility.yul\":6571:6589   */\n      add\n        /* \"lib/openzeppelin-contracts.git/contracts/security/Pausable.sol\":2623:2645  Unpaused(_msgSender()) */\n      mload(0x40)\n      dup1\n      swap2\n      sub\n      swap1\n      log1\n        /* \"lib/openzeppelin-contracts.git/contracts/security/Pausable.sol\":2533:2653  function _unpause() internal virtual whenPaused {... */\n      jump\t// out\n        /* \"lib/openzeppelin-contracts.git/contracts/security/Pausable.sol\":2274:2392  function _pause() internal virtual whenNotPaused {... */\n    tag_200:\n        /* \"lib/openzeppelin-contracts.git/contracts/security/Pausable.sol\":1283:1302  _requireNotPaused() */\n      tag_286\n        /* \"lib/openzeppelin-contracts.git/contracts/security/Pausable.sol\":1283:1300  _requireNotPaused */\n      tag_155\n        /* \"lib/openzeppelin-contracts.git/contracts/security/Pausable.sol\":1283:1302  _requireNotPaused() */\n      jump\t// in\n    tag_286:\n        /* \"lib/openzeppelin-contracts.git/contracts/security/Pausable.sol\":2334:2341  _paused */\n      0x03\n        /* \"lib/openzeppelin-contracts.git/contracts/security/Pausable.sol\":2334:2348  _paused = true */\n      dup1\n      sload\n      not(0xff)\n      and\n        /* \"lib/openzeppelin-contracts.git/contracts/security/Pausable.sol\":2344:2348  true */\n      0x01\n        /* \"lib/openzeppelin-contracts.git/contracts/security/Pausable.sol\":2334:2348  _paused = true */\n      or\n      swap1\n      sstore\n        /* \"lib/openzeppelin-contracts.git/contracts/security/Pausable.sol\":2364:2384  Paused(_msgSender()) */\n      0x62e78cea01bee320cd4e420270b5ea74000d11b0c9f74754ebdbfc544b05a258\n        /* \"lib/openzeppelin-contracts.git/contracts/security/Pausable.sol\":2371:2383  _msgSender() */\n      tag_282\n        /* \"lib/openzeppelin-contracts.git/contracts/utils/Context.sol\":736:746  msg.sender */\n      caller\n      swap1\n        /* \"lib/openzeppelin-contracts.git/contracts/utils/Context.sol\":656:754  function _msgSender() internal view virtual returns (address) {... */\n      jump\n        /* \"lib/openzeppelin-contracts.git/contracts/security/Pausable.sol\":2022:2130  function _requirePaused() internal view virtual {... */\n    tag_280:\n        /* \"lib/openzeppelin-contracts.git/contracts/security/Pausable.sol\":1749:1756  _paused */\n      and(0xff, sload(0x03))\n        /* \"lib/openzeppelin-contracts.git/contracts/security/Pausable.sol\":2081:2122  require(paused(), \"Pausable: not paused\") */\n      tag_171\n      jumpi\n      mload(0x40)\n      shl(0xe5, 0x461bcd)\n      dup2\n      mstore\n        /* \"#utility.yul\":17969:17971   */\n      0x20\n        /* \"lib/openzeppelin-contracts.git/contracts/security/Pausable.sol\":2081:2122  require(paused(), \"Pausable: not paused\") */\n      0x04\n      dup3\n      add\n        /* \"#utility.yul\":17951:17972   */\n      mstore\n        /* \"#utility.yul\":18008:18010   */\n      0x14\n        /* \"#utility.yul\":17988:18006   */\n      0x24\n      dup3\n      add\n        /* \"#utility.yul\":17981:18011   */\n      mstore\n      shl(0x62, 0x14185d5cd8589b194e881b9bdd081c185d5cd959)\n        /* \"#utility.yul\":18027:18045   */\n      0x44\n      dup3\n      add\n        /* \"#utility.yul\":18020:18070   */\n      mstore\n        /* \"#utility.yul\":18087:18105   */\n      0x64\n      add\n        /* \"lib/openzeppelin-contracts.git/contracts/security/Pausable.sol\":2081:2122  require(paused(), \"Pausable: not paused\") */\n      tag_122\n        /* \"#utility.yul\":17767:18111   */\n      jump\n        /* \"#utility.yul\":14:187   */\n    tag_297:\n        /* \"#utility.yul\":82:102   */\n      dup1\n      calldataload\n      sub(shl(0xa0, 0x01), 0x01)\n        /* \"#utility.yul\":131:162   */\n      dup2\n      and\n        /* \"#utility.yul\":121:163   */\n      dup2\n      eq\n        /* \"#utility.yul\":111:181   */\n      tag_309\n      jumpi\n        /* \"#utility.yul\":177:178   */\n      0x00\n        /* \"#utility.yul\":174:175   */\n      dup1\n        /* \"#utility.yul\":167:179   */\n      revert\n        /* \"#utility.yul\":111:181   */\n    tag_309:\n        /* \"#utility.yul\":14:187   */\n      swap2\n      swap1\n      pop\n      jump\t// out\n        /* \"#utility.yul\":192:446   */\n    tag_27:\n        /* \"#utility.yul\":260:266   */\n      0x00\n        /* \"#utility.yul\":268:274   */\n      dup1\n        /* \"#utility.yul\":321:323   */\n      0x40\n        /* \"#utility.yul\":309:318   */\n      dup4\n        /* \"#utility.yul\":300:307   */\n      dup6\n        /* \"#utility.yul\":296:319   */\n      sub\n        /* \"#utility.yul\":292:324   */\n      slt\n        /* \"#utility.yul\":289:341   */\n      iszero\n      tag_311\n      jumpi\n        /* \"#utility.yul\":337:338   */\n      0x00\n        /* \"#utility.yul\":334:335   */\n      dup1\n        /* \"#utility.yul\":327:339   */\n      revert\n        /* \"#utility.yul\":289:341   */\n    tag_311:\n        /* \"#utility.yul\":360:389   */\n      tag_312\n        /* \"#utility.yul\":379:388   */\n      dup4\n        /* \"#utility.yul\":360:389   */\n      tag_297\n      jump\t// in\n    tag_312:\n        /* \"#utility.yul\":350:389   */\n      swap5\n        /* \"#utility.yul\":436:438   */\n      0x20\n        /* \"#utility.yul\":421:439   */\n      swap4\n      swap1\n      swap4\n      add\n        /* \"#utility.yul\":408:440   */\n      calldataload\n      swap4\n      pop\n      pop\n      pop\n        /* \"#utility.yul\":192:446   */\n      jump\t// out\n        /* \"#utility.yul\":633:764   */\n    tag_298:\n      not(sub(shl(0xe0, 0x01), 0x01))\n        /* \"#utility.yul\":707:739   */\n      dup2\n      and\n        /* \"#utility.yul\":697:740   */\n      dup2\n      eq\n        /* \"#utility.yul\":687:758   */\n      tag_315\n      jumpi\n        /* \"#utility.yul\":754:755   */\n      0x00\n        /* \"#utility.yul\":751:752   */\n      dup1\n        /* \"#utility.yul\":744:756   */\n      revert\n        /* \"#utility.yul\":687:758   */\n    tag_315:\n        /* \"#utility.yul\":633:764   */\n      pop\n      jump\t// out\n        /* \"#utility.yul\":769:1014   */\n    tag_33:\n        /* \"#utility.yul\":827:833   */\n      0x00\n        /* \"#utility.yul\":880:882   */\n      0x20\n        /* \"#utility.yul\":868:877   */\n      dup3\n        /* \"#utility.yul\":859:866   */\n      dup5\n        /* \"#utility.yul\":855:878   */\n      sub\n        /* \"#utility.yul\":851:883   */\n      slt\n        /* \"#utility.yul\":848:900   */\n      iszero\n      tag_317\n      jumpi\n        /* \"#utility.yul\":896:897   */\n      0x00\n        /* \"#utility.yul\":893:894   */\n      dup1\n        /* \"#utility.yul\":886:898   */\n      revert\n        /* \"#utility.yul\":848:900   */\n    tag_317:\n        /* \"#utility.yul\":935:944   */\n      dup2\n        /* \"#utility.yul\":922:945   */\n      calldataload\n        /* \"#utility.yul\":954:984   */\n      tag_318\n        /* \"#utility.yul\":978:983   */\n      dup2\n        /* \"#utility.yul\":954:984   */\n      tag_298\n      jump\t// in\n    tag_318:\n        /* \"#utility.yul\":1003:1008   */\n      swap4\n        /* \"#utility.yul\":769:1014   */\n      swap3\n      pop\n      pop\n      pop\n      jump\t// out\n        /* \"#utility.yul\":1211:1391   */\n    tag_39:\n        /* \"#utility.yul\":1270:1276   */\n      0x00\n        /* \"#utility.yul\":1323:1325   */\n      0x20\n        /* \"#utility.yul\":1311:1320   */\n      dup3\n        /* \"#utility.yul\":1302:1309   */\n      dup5\n        /* \"#utility.yul\":1298:1321   */\n      sub\n        /* \"#utility.yul\":1294:1326   */\n      slt\n        /* \"#utility.yul\":1291:1343   */\n      iszero\n      tag_321\n      jumpi\n        /* \"#utility.yul\":1339:1340   */\n      0x00\n        /* \"#utility.yul\":1336:1337   */\n      dup1\n        /* \"#utility.yul\":1329:1341   */\n      revert\n        /* \"#utility.yul\":1291:1343   */\n    tag_321:\n      pop\n        /* \"#utility.yul\":1362:1385   */\n      calldataload\n      swap2\n        /* \"#utility.yul\":1211:1391   */\n      swap1\n      pop\n      jump\t// out\n        /* \"#utility.yul\":1396:1646   */\n    tag_299:\n        /* \"#utility.yul\":1481:1482   */\n      0x00\n        /* \"#utility.yul\":1491:1604   */\n    tag_323:\n        /* \"#utility.yul\":1505:1511   */\n      dup4\n        /* \"#utility.yul\":1502:1503   */\n      dup2\n        /* \"#utility.yul\":1499:1512   */\n      lt\n        /* \"#utility.yul\":1491:1604   */\n      iszero\n      tag_325\n      jumpi\n        /* \"#utility.yul\":1581:1592   */\n      dup2\n      dup2\n      add\n        /* \"#utility.yul\":1575:1593   */\n      mload\n        /* \"#utility.yul\":1562:1573   */\n      dup4\n      dup3\n      add\n        /* \"#utility.yul\":1555:1594   */\n      mstore\n        /* \"#utility.yul\":1527:1529   */\n      0x20\n        /* \"#utility.yul\":1520:1530   */\n      add\n        /* \"#utility.yul\":1491:1604   */\n      jump(tag_323)\n    tag_325:\n      pop\n      pop\n        /* \"#utility.yul\":1638:1639   */\n      0x00\n        /* \"#utility.yul\":1620:1636   */\n      swap2\n      add\n        /* \"#utility.yul\":1613:1640   */\n      mstore\n        /* \"#utility.yul\":1396:1646   */\n      jump\t// out\n        /* \"#utility.yul\":1651:1922   */\n    tag_300:\n        /* \"#utility.yul\":1693:1696   */\n      0x00\n        /* \"#utility.yul\":1731:1736   */\n      dup2\n        /* \"#utility.yul\":1725:1737   */\n      mload\n        /* \"#utility.yul\":1758:1764   */\n      dup1\n        /* \"#utility.yul\":1753:1756   */\n      dup5\n        /* \"#utility.yul\":1746:1765   */\n      mstore\n        /* \"#utility.yul\":1774:1850   */\n      tag_327\n        /* \"#utility.yul\":1843:1849   */\n      dup2\n        /* \"#utility.yul\":1836:1840   */\n      0x20\n        /* \"#utility.yul\":1831:1834   */\n      dup7\n        /* \"#utility.yul\":1827:1841   */\n      add\n        /* \"#utility.yul\":1820:1824   */\n      0x20\n        /* \"#utility.yul\":1813:1818   */\n      dup7\n        /* \"#utility.yul\":1809:1825   */\n      add\n        /* \"#utility.yul\":1774:1850   */\n      tag_299\n      jump\t// in\n    tag_327:\n        /* \"#utility.yul\":1904:1906   */\n      0x1f\n        /* \"#utility.yul\":1883:1898   */\n      add\n      not(0x1f)\n        /* \"#utility.yul\":1879:1908   */\n      and\n        /* \"#utility.yul\":1870:1909   */\n      swap3\n      swap1\n      swap3\n      add\n        /* \"#utility.yul\":1911:1915   */\n      0x20\n        /* \"#utility.yul\":1866:1916   */\n      add\n      swap3\n        /* \"#utility.yul\":1651:1922   */\n      swap2\n      pop\n      pop\n      jump\t// out\n        /* \"#utility.yul\":1927:2147   */\n    tag_42:\n        /* \"#utility.yul\":2076:2078   */\n      0x20\n        /* \"#utility.yul\":2065:2074   */\n      dup2\n        /* \"#utility.yul\":2058:2079   */\n      mstore\n        /* \"#utility.yul\":2039:2043   */\n      0x00\n        /* \"#utility.yul\":2096:2141   */\n      tag_318\n        /* \"#utility.yul\":2137:2139   */\n      0x20\n        /* \"#utility.yul\":2126:2135   */\n      dup4\n        /* \"#utility.yul\":2122:2140   */\n      add\n        /* \"#utility.yul\":2114:2120   */\n      dup5\n        /* \"#utility.yul\":2096:2141   */\n      tag_300\n      jump\t// in\n        /* \"#utility.yul\":2152:2519   */\n    tag_301:\n        /* \"#utility.yul\":2215:2223   */\n      0x00\n        /* \"#utility.yul\":2225:2231   */\n      dup1\n        /* \"#utility.yul\":2279:2282   */\n      dup4\n        /* \"#utility.yul\":2272:2276   */\n      0x1f\n        /* \"#utility.yul\":2264:2270   */\n      dup5\n        /* \"#utility.yul\":2260:2277   */\n      add\n        /* \"#utility.yul\":2256:2283   */\n      slt\n        /* \"#utility.yul\":2246:2301   */\n      tag_331\n      jumpi\n        /* \"#utility.yul\":2297:2298   */\n      0x00\n        /* \"#utility.yul\":2294:2295   */\n      dup1\n        /* \"#utility.yul\":2287:2299   */\n      revert\n        /* \"#utility.yul\":2246:2301   */\n    tag_331:\n      pop\n        /* \"#utility.yul\":2320:2340   */\n      dup2\n      calldataload\n        /* \"#utility.yul\":2363:2381   */\n      0xffffffffffffffff\n        /* \"#utility.yul\":2352:2382   */\n      dup2\n      gt\n        /* \"#utility.yul\":2349:2399   */\n      iszero\n      tag_332\n      jumpi\n        /* \"#utility.yul\":2395:2396   */\n      0x00\n        /* \"#utility.yul\":2392:2393   */\n      dup1\n        /* \"#utility.yul\":2385:2397   */\n      revert\n        /* \"#utility.yul\":2349:2399   */\n    tag_332:\n        /* \"#utility.yul\":2432:2436   */\n      0x20\n        /* \"#utility.yul\":2424:2430   */\n      dup4\n        /* \"#utility.yul\":2420:2437   */\n      add\n        /* \"#utility.yul\":2408:2437   */\n      swap2\n      pop\n        /* \"#utility.yul\":2492:2495   */\n      dup4\n        /* \"#utility.yul\":2485:2489   */\n      0x20\n        /* \"#utility.yul\":2475:2481   */\n      dup3\n        /* \"#utility.yul\":2472:2473   */\n      0x05\n        /* \"#utility.yul\":2468:2482   */\n      shl\n        /* \"#utility.yul\":2460:2466   */\n      dup6\n        /* \"#utility.yul\":2456:2483   */\n      add\n        /* \"#utility.yul\":2452:2490   */\n      add\n        /* \"#utility.yul\":2449:2496   */\n      gt\n        /* \"#utility.yul\":2446:2513   */\n      iszero\n      tag_203\n      jumpi\n        /* \"#utility.yul\":2509:2510   */\n      0x00\n        /* \"#utility.yul\":2506:2507   */\n      dup1\n        /* \"#utility.yul\":2499:2511   */\n      revert\n        /* \"#utility.yul\":2524:2871   */\n    tag_302:\n        /* \"#utility.yul\":2575:2583   */\n      0x00\n        /* \"#utility.yul\":2585:2591   */\n      dup1\n        /* \"#utility.yul\":2639:2642   */\n      dup4\n        /* \"#utility.yul\":2632:2636   */\n      0x1f\n        /* \"#utility.yul\":2624:2630   */\n      dup5\n        /* \"#utility.yul\":2620:2637   */\n      add\n        /* \"#utility.yul\":2616:2643   */\n      slt\n        /* \"#utility.yul\":2606:2661   */\n      tag_335\n      jumpi\n        /* \"#utility.yul\":2657:2658   */\n      0x00\n        /* \"#utility.yul\":2654:2655   */\n      dup1\n        /* \"#utility.yul\":2647:2659   */\n      revert\n        /* \"#utility.yul\":2606:2661   */\n    tag_335:\n      pop\n        /* \"#utility.yul\":2680:2700   */\n      dup2\n      calldataload\n        /* \"#utility.yul\":2723:2741   */\n      0xffffffffffffffff\n        /* \"#utility.yul\":2712:2742   */\n      dup2\n      gt\n        /* \"#utility.yul\":2709:2759   */\n      iszero\n      tag_336\n      jumpi\n        /* \"#utility.yul\":2755:2756   */\n      0x00\n        /* \"#utility.yul\":2752:2753   */\n      dup1\n        /* \"#utility.yul\":2745:2757   */\n      revert\n        /* \"#utility.yul\":2709:2759   */\n    tag_336:\n        /* \"#utility.yul\":2792:2796   */\n      0x20\n        /* \"#utility.yul\":2784:2790   */\n      dup4\n        /* \"#utility.yul\":2780:2797   */\n      add\n        /* \"#utility.yul\":2768:2797   */\n      swap2\n      pop\n        /* \"#utility.yul\":2844:2847   */\n      dup4\n        /* \"#utility.yul\":2837:2841   */\n      0x20\n        /* \"#utility.yul\":2828:2834   */\n      dup3\n        /* \"#utility.yul\":2820:2826   */\n      dup6\n        /* \"#utility.yul\":2816:2835   */\n      add\n        /* \"#utility.yul\":2812:2842   */\n      add\n        /* \"#utility.yul\":2809:2848   */\n      gt\n        /* \"#utility.yul\":2806:2865   */\n      iszero\n      tag_203\n      jumpi\n        /* \"#utility.yul\":2861:2862   */\n      0x00\n        /* \"#utility.yul\":2858:2859   */\n      dup1\n        /* \"#utility.yul\":2851:2863   */\n      revert\n        /* \"#utility.yul\":2876:4086   */\n    tag_45:\n        /* \"#utility.yul\":3036:3042   */\n      0x00\n        /* \"#utility.yul\":3044:3050   */\n      dup1\n        /* \"#utility.yul\":3052:3058   */\n      0x00\n        /* \"#utility.yul\":3060:3066   */\n      dup1\n        /* \"#utility.yul\":3068:3074   */\n      0x00\n        /* \"#utility.yul\":3076:3082   */\n      dup1\n        /* \"#utility.yul\":3084:3090   */\n      0x00\n        /* \"#utility.yul\":3092:3098   */\n      dup1\n        /* \"#utility.yul\":3145:3148   */\n      0xa0\n        /* \"#utility.yul\":3133:3142   */\n      dup10\n        /* \"#utility.yul\":3124:3131   */\n      dup12\n        /* \"#utility.yul\":3120:3143   */\n      sub\n        /* \"#utility.yul\":3116:3149   */\n      slt\n        /* \"#utility.yul\":3113:3166   */\n      iszero\n      tag_339\n      jumpi\n        /* \"#utility.yul\":3162:3163   */\n      0x00\n        /* \"#utility.yul\":3159:3160   */\n      dup1\n        /* \"#utility.yul\":3152:3164   */\n      revert\n        /* \"#utility.yul\":3113:3166   */\n    tag_339:\n        /* \"#utility.yul\":3185:3214   */\n      tag_340\n        /* \"#utility.yul\":3204:3213   */\n      dup10\n        /* \"#utility.yul\":3185:3214   */\n      tag_297\n      jump\t// in\n    tag_340:\n        /* \"#utility.yul\":3175:3214   */\n      swap8\n      pop\n        /* \"#utility.yul\":3233:3271   */\n      tag_341\n        /* \"#utility.yul\":3267:3269   */\n      0x20\n        /* \"#utility.yul\":3256:3265   */\n      dup11\n        /* \"#utility.yul\":3252:3270   */\n      add\n        /* \"#utility.yul\":3233:3271   */\n      tag_297\n      jump\t// in\n    tag_341:\n        /* \"#utility.yul\":3223:3271   */\n      swap7\n      pop\n        /* \"#utility.yul\":3322:3324   */\n      0x40\n        /* \"#utility.yul\":3311:3320   */\n      dup10\n        /* \"#utility.yul\":3307:3325   */\n      add\n        /* \"#utility.yul\":3294:3326   */\n      calldataload\n        /* \"#utility.yul\":3345:3363   */\n      0xffffffffffffffff\n        /* \"#utility.yul\":3386:3388   */\n      dup1\n        /* \"#utility.yul\":3378:3384   */\n      dup3\n        /* \"#utility.yul\":3375:3389   */\n      gt\n        /* \"#utility.yul\":3372:3406   */\n      iszero\n      tag_342\n      jumpi\n        /* \"#utility.yul\":3402:3403   */\n      0x00\n        /* \"#utility.yul\":3399:3400   */\n      dup1\n        /* \"#utility.yul\":3392:3404   */\n      revert\n        /* \"#utility.yul\":3372:3406   */\n    tag_342:\n        /* \"#utility.yul\":3441:3511   */\n      tag_343\n        /* \"#utility.yul\":3503:3510   */\n      dup13\n        /* \"#utility.yul\":3494:3500   */\n      dup4\n        /* \"#utility.yul\":3483:3492   */\n      dup14\n        /* \"#utility.yul\":3479:3501   */\n      add\n        /* \"#utility.yul\":3441:3511   */\n      tag_301\n      jump\t// in\n    tag_343:\n        /* \"#utility.yul\":3530:3538   */\n      swap1\n      swap9\n      pop\n        /* \"#utility.yul\":3415:3511   */\n      swap7\n      pop\n        /* \"#utility.yul\":3618:3620   */\n      0x60\n        /* \"#utility.yul\":3603:3621   */\n      dup12\n      add\n        /* \"#utility.yul\":3590:3622   */\n      calldataload\n      swap2\n      pop\n        /* \"#utility.yul\":3634:3650   */\n      dup1\n      dup3\n      gt\n        /* \"#utility.yul\":3631:3667   */\n      iszero\n      tag_344\n      jumpi\n        /* \"#utility.yul\":3663:3664   */\n      0x00\n        /* \"#utility.yul\":3660:3661   */\n      dup1\n        /* \"#utility.yul\":3653:3665   */\n      revert\n        /* \"#utility.yul\":3631:3667   */\n    tag_344:\n        /* \"#utility.yul\":3702:3774   */\n      tag_345\n        /* \"#utility.yul\":3766:3773   */\n      dup13\n        /* \"#utility.yul\":3755:3763   */\n      dup4\n        /* \"#utility.yul\":3744:3753   */\n      dup14\n        /* \"#utility.yul\":3740:3764   */\n      add\n        /* \"#utility.yul\":3702:3774   */\n      tag_301\n      jump\t// in\n    tag_345:\n        /* \"#utility.yul\":3793:3801   */\n      swap1\n      swap7\n      pop\n        /* \"#utility.yul\":3676:3774   */\n      swap5\n      pop\n        /* \"#utility.yul\":3881:3884   */\n      0x80\n        /* \"#utility.yul\":3866:3885   */\n      dup12\n      add\n        /* \"#utility.yul\":3853:3886   */\n      calldataload\n      swap2\n      pop\n        /* \"#utility.yul\":3898:3914   */\n      dup1\n      dup3\n      gt\n        /* \"#utility.yul\":3895:3931   */\n      iszero\n      tag_346\n      jumpi\n        /* \"#utility.yul\":3927:3928   */\n      0x00\n        /* \"#utility.yul\":3924:3925   */\n      dup1\n        /* \"#utility.yul\":3917:3929   */\n      revert\n        /* \"#utility.yul\":3895:3931   */\n    tag_346:\n      pop\n        /* \"#utility.yul\":3966:4026   */\n      tag_347\n        /* \"#utility.yul\":4018:4025   */\n      dup12\n        /* \"#utility.yul\":4007:4015   */\n      dup3\n        /* \"#utility.yul\":3996:4005   */\n      dup13\n        /* \"#utility.yul\":3992:4016   */\n      add\n        /* \"#utility.yul\":3966:4026   */\n      tag_302\n      jump\t// in\n    tag_347:\n        /* \"#utility.yul\":2876:4086   */\n      swap10\n      swap13\n      swap9\n      swap12\n      pop\n      swap7\n      swap10\n      pop\n      swap5\n      swap8\n      swap4\n      swap7\n      swap3\n      swap6\n        /* \"#utility.yul\":4045:4053   */\n      swap5\n      pop\n      pop\n      pop\n        /* \"#utility.yul\":2876:4086   */\n      jump\t// out\n        /* \"#utility.yul\":4273:4778   */\n    tag_53:\n        /* \"#utility.yul\":4368:4374   */\n      0x00\n        /* \"#utility.yul\":4376:4382   */\n      dup1\n        /* \"#utility.yul\":4384:4390   */\n      0x00\n        /* \"#utility.yul\":4437:4439   */\n      0x40\n        /* \"#utility.yul\":4425:4434   */\n      dup5\n        /* \"#utility.yul\":4416:4423   */\n      dup7\n        /* \"#utility.yul\":4412:4435   */\n      sub\n        /* \"#utility.yul\":4408:4440   */\n      slt\n        /* \"#utility.yul\":4405:4457   */\n      iszero\n      tag_350\n      jumpi\n        /* \"#utility.yul\":4453:4454   */\n      0x00\n        /* \"#utility.yul\":4450:4451   */\n      dup1\n        /* \"#utility.yul\":4443:4455   */\n      revert\n        /* \"#utility.yul\":4405:4457   */\n    tag_350:\n        /* \"#utility.yul\":4493:4502   */\n      dup4\n        /* \"#utility.yul\":4480:4503   */\n      calldataload\n        /* \"#utility.yul\":4526:4544   */\n      0xffffffffffffffff\n        /* \"#utility.yul\":4518:4524   */\n      dup2\n        /* \"#utility.yul\":4515:4545   */\n      gt\n        /* \"#utility.yul\":4512:4562   */\n      iszero\n      tag_351\n      jumpi\n        /* \"#utility.yul\":4558:4559   */\n      0x00\n        /* \"#utility.yul\":4555:4556   */\n      dup1\n        /* \"#utility.yul\":4548:4560   */\n      revert\n        /* \"#utility.yul\":4512:4562   */\n    tag_351:\n        /* \"#utility.yul\":4597:4667   */\n      tag_352\n        /* \"#utility.yul\":4659:4666   */\n      dup7\n        /* \"#utility.yul\":4650:4656   */\n      dup3\n        /* \"#utility.yul\":4639:4648   */\n      dup8\n        /* \"#utility.yul\":4635:4657   */\n      add\n        /* \"#utility.yul\":4597:4667   */\n      tag_301\n      jump\t// in\n    tag_352:\n        /* \"#utility.yul\":4686:4694   */\n      swap1\n      swap8\n        /* \"#utility.yul\":4571:4667   */\n      swap1\n      swap7\n      pop\n        /* \"#utility.yul\":4768:4770   */\n      0x20\n        /* \"#utility.yul\":4753:4771   */\n      swap6\n      swap1\n      swap6\n      add\n        /* \"#utility.yul\":4740:4772   */\n      calldataload\n      swap5\n        /* \"#utility.yul\":4273:4778   */\n      swap4\n      pop\n      pop\n      pop\n      pop\n      jump\t// out\n        /* \"#utility.yul\":4783:5556   */\n    tag_59:\n        /* \"#utility.yul\":4905:4911   */\n      0x00\n        /* \"#utility.yul\":4913:4919   */\n      dup1\n        /* \"#utility.yul\":4921:4927   */\n      0x00\n        /* \"#utility.yul\":4929:4935   */\n      dup1\n        /* \"#utility.yul\":4982:4984   */\n      0x40\n        /* \"#utility.yul\":4970:4979   */\n      dup6\n        /* \"#utility.yul\":4961:4968   */\n      dup8\n        /* \"#utility.yul\":4957:4980   */\n      sub\n        /* \"#utility.yul\":4953:4985   */\n      slt\n        /* \"#utility.yul\":4950:5002   */\n      iszero\n      tag_354\n      jumpi\n        /* \"#utility.yul\":4998:4999   */\n      0x00\n        /* \"#utility.yul\":4995:4996   */\n      dup1\n        /* \"#utility.yul\":4988:5000   */\n      revert\n        /* \"#utility.yul\":4950:5002   */\n    tag_354:\n        /* \"#utility.yul\":5038:5047   */\n      dup5\n        /* \"#utility.yul\":5025:5048   */\n      calldataload\n        /* \"#utility.yul\":5067:5085   */\n      0xffffffffffffffff\n        /* \"#utility.yul\":5108:5110   */\n      dup1\n        /* \"#utility.yul\":5100:5106   */\n      dup3\n        /* \"#utility.yul\":5097:5111   */\n      gt\n        /* \"#utility.yul\":5094:5128   */\n      iszero\n      tag_355\n      jumpi\n        /* \"#utility.yul\":5124:5125   */\n      0x00\n        /* \"#utility.yul\":5121:5122   */\n      dup1\n        /* \"#utility.yul\":5114:5126   */\n      revert\n        /* \"#utility.yul\":5094:5128   */\n    tag_355:\n        /* \"#utility.yul\":5163:5233   */\n      tag_356\n        /* \"#utility.yul\":5225:5232   */\n      dup9\n        /* \"#utility.yul\":5216:5222   */\n      dup4\n        /* \"#utility.yul\":5205:5214   */\n      dup10\n        /* \"#utility.yul\":5201:5223   */\n      add\n        /* \"#utility.yul\":5163:5233   */\n      tag_301\n      jump\t// in\n    tag_356:\n        /* \"#utility.yul\":5252:5260   */\n      swap1\n      swap7\n      pop\n        /* \"#utility.yul\":5137:5233   */\n      swap5\n      pop\n        /* \"#utility.yul\":5340:5342   */\n      0x20\n        /* \"#utility.yul\":5325:5343   */\n      dup8\n      add\n        /* \"#utility.yul\":5312:5344   */\n      calldataload\n      swap2\n      pop\n        /* \"#utility.yul\":5356:5372   */\n      dup1\n      dup3\n      gt\n        /* \"#utility.yul\":5353:5389   */\n      iszero\n      tag_357\n      jumpi\n        /* \"#utility.yul\":5385:5386   */\n      0x00\n        /* \"#utility.yul\":5382:5383   */\n      dup1\n        /* \"#utility.yul\":5375:5387   */\n      revert\n        /* \"#utility.yul\":5353:5389   */\n    tag_357:\n      pop\n        /* \"#utility.yul\":5424:5496   */\n      tag_358\n        /* \"#utility.yul\":5488:5495   */\n      dup8\n        /* \"#utility.yul\":5477:5485   */\n      dup3\n        /* \"#utility.yul\":5466:5475   */\n      dup9\n        /* \"#utility.yul\":5462:5486   */\n      add\n        /* \"#utility.yul\":5424:5496   */\n      tag_301\n      jump\t// in\n    tag_358:\n        /* \"#utility.yul\":4783:5556   */\n      swap6\n      swap9\n      swap5\n      swap8\n      pop\n        /* \"#utility.yul\":5515:5523   */\n      swap6\n      pop\n      pop\n      pop\n      pop\n        /* \"#utility.yul\":4783:5556   */\n      jump\t// out\n        /* \"#utility.yul\":5561:5996   */\n    tag_303:\n        /* \"#utility.yul\":5614:5617   */\n      0x00\n        /* \"#utility.yul\":5652:5657   */\n      dup2\n        /* \"#utility.yul\":5646:5658   */\n      mload\n        /* \"#utility.yul\":5679:5685   */\n      dup1\n        /* \"#utility.yul\":5674:5677   */\n      dup5\n        /* \"#utility.yul\":5667:5686   */\n      mstore\n        /* \"#utility.yul\":5705:5709   */\n      0x20\n        /* \"#utility.yul\":5734:5736   */\n      dup1\n        /* \"#utility.yul\":5729:5732   */\n      dup6\n        /* \"#utility.yul\":5725:5737   */\n      add\n        /* \"#utility.yul\":5718:5737   */\n      swap5\n      pop\n        /* \"#utility.yul\":5771:5773   */\n      dup1\n        /* \"#utility.yul\":5764:5769   */\n      dup5\n        /* \"#utility.yul\":5760:5774   */\n      add\n        /* \"#utility.yul\":5792:5793   */\n      0x00\n        /* \"#utility.yul\":5802:5971   */\n    tag_360:\n        /* \"#utility.yul\":5816:5822   */\n      dup4\n        /* \"#utility.yul\":5813:5814   */\n      dup2\n        /* \"#utility.yul\":5810:5823   */\n      lt\n        /* \"#utility.yul\":5802:5971   */\n      iszero\n      tag_362\n      jumpi\n        /* \"#utility.yul\":5877:5890   */\n      dup2\n      mload\n        /* \"#utility.yul\":5865:5891   */\n      dup8\n      mstore\n        /* \"#utility.yul\":5911:5923   */\n      swap6\n      dup3\n      add\n      swap6\n        /* \"#utility.yul\":5946:5961   */\n      swap1\n      dup3\n      add\n      swap1\n        /* \"#utility.yul\":5838:5839   */\n      0x01\n        /* \"#utility.yul\":5831:5840   */\n      add\n        /* \"#utility.yul\":5802:5971   */\n      jump(tag_360)\n    tag_362:\n      pop\n        /* \"#utility.yul\":5987:5990   */\n      swap5\n      swap6\n        /* \"#utility.yul\":5561:5996   */\n      swap5\n      pop\n      pop\n      pop\n      pop\n      pop\n      jump\t// out\n        /* \"#utility.yul\":6001:6262   */\n    tag_62:\n        /* \"#utility.yul\":6180:6182   */\n      0x20\n        /* \"#utility.yul\":6169:6178   */\n      dup2\n        /* \"#utility.yul\":6162:6183   */\n      mstore\n        /* \"#utility.yul\":6143:6147   */\n      0x00\n        /* \"#utility.yul\":6200:6256   */\n      tag_318\n        /* \"#utility.yul\":6252:6254   */\n      0x20\n        /* \"#utility.yul\":6241:6250   */\n      dup4\n        /* \"#utility.yul\":6237:6255   */\n      add\n        /* \"#utility.yul\":6229:6235   */\n      dup5\n        /* \"#utility.yul\":6200:6256   */\n      tag_303\n      jump\t// in\n        /* \"#utility.yul\":6660:7007   */\n    tag_78:\n        /* \"#utility.yul\":6725:6731   */\n      0x00\n        /* \"#utility.yul\":6733:6739   */\n      dup1\n        /* \"#utility.yul\":6786:6788   */\n      0x40\n        /* \"#utility.yul\":6774:6783   */\n      dup4\n        /* \"#utility.yul\":6765:6772   */\n      dup6\n        /* \"#utility.yul\":6761:6784   */\n      sub\n        /* \"#utility.yul\":6757:6789   */\n      slt\n        /* \"#utility.yul\":6754:6806   */\n      iszero\n      tag_369\n      jumpi\n        /* \"#utility.yul\":6802:6803   */\n      0x00\n        /* \"#utility.yul\":6799:6800   */\n      dup1\n        /* \"#utility.yul\":6792:6804   */\n      revert\n        /* \"#utility.yul\":6754:6806   */\n    tag_369:\n        /* \"#utility.yul\":6825:6854   */\n      tag_370\n        /* \"#utility.yul\":6844:6853   */\n      dup4\n        /* \"#utility.yul\":6825:6854   */\n      tag_297\n      jump\t// in\n    tag_370:\n        /* \"#utility.yul\":6815:6854   */\n      swap2\n      pop\n        /* \"#utility.yul\":6904:6906   */\n      0x20\n        /* \"#utility.yul\":6893:6902   */\n      dup4\n        /* \"#utility.yul\":6889:6907   */\n      add\n        /* \"#utility.yul\":6876:6908   */\n      calldataload\n        /* \"#utility.yul\":6951:6956   */\n      dup1\n        /* \"#utility.yul\":6944:6957   */\n      iszero\n        /* \"#utility.yul\":6937:6958   */\n      iszero\n        /* \"#utility.yul\":6930:6935   */\n      dup2\n        /* \"#utility.yul\":6927:6959   */\n      eq\n        /* \"#utility.yul\":6917:6977   */\n      tag_371\n      jumpi\n        /* \"#utility.yul\":6973:6974   */\n      0x00\n        /* \"#utility.yul\":6970:6971   */\n      dup1\n        /* \"#utility.yul\":6963:6975   */\n      revert\n        /* \"#utility.yul\":6917:6977   */\n    tag_371:\n        /* \"#utility.yul\":6996:7001   */\n      dup1\n        /* \"#utility.yul\":6986:7001   */\n      swap2\n      pop\n      pop\n        /* \"#utility.yul\":6660:7007   */\n      swap3\n      pop\n      swap3\n      swap1\n      pop\n      jump\t// out\n        /* \"#utility.yul\":7012:7260   */\n    tag_82:\n        /* \"#utility.yul\":7080:7086   */\n      0x00\n        /* \"#utility.yul\":7088:7094   */\n      dup1\n        /* \"#utility.yul\":7141:7143   */\n      0x40\n        /* \"#utility.yul\":7129:7138   */\n      dup4\n        /* \"#utility.yul\":7120:7127   */\n      dup6\n        /* \"#utility.yul\":7116:7139   */\n      sub\n        /* \"#utility.yul\":7112:7144   */\n      slt\n        /* \"#utility.yul\":7109:7161   */\n      iszero\n      tag_373\n      jumpi\n        /* \"#utility.yul\":7157:7158   */\n      0x00\n        /* \"#utility.yul\":7154:7155   */\n      dup1\n        /* \"#utility.yul\":7147:7159   */\n      revert\n        /* \"#utility.yul\":7109:7161   */\n    tag_373:\n      pop\n      pop\n        /* \"#utility.yul\":7180:7203   */\n      dup1\n      calldataload\n      swap3\n        /* \"#utility.yul\":7250:7252   */\n      0x20\n        /* \"#utility.yul\":7235:7253   */\n      swap1\n      swap2\n      add\n        /* \"#utility.yul\":7222:7254   */\n      calldataload\n      swap2\n      pop\n        /* \"#utility.yul\":7012:7260   */\n      jump\t// out\n        /* \"#utility.yul\":7265:7597   */\n    tag_85:\n        /* \"#utility.yul\":7472:7474   */\n      0x40\n        /* \"#utility.yul\":7461:7470   */\n      dup2\n        /* \"#utility.yul\":7454:7475   */\n      mstore\n        /* \"#utility.yul\":7435:7439   */\n      0x00\n        /* \"#utility.yul\":7492:7548   */\n      tag_375\n        /* \"#utility.yul\":7544:7546   */\n      0x40\n        /* \"#utility.yul\":7533:7542   */\n      dup4\n        /* \"#utility.yul\":7529:7547   */\n      add\n        /* \"#utility.yul\":7521:7527   */\n      dup6\n        /* \"#utility.yul\":7492:7548   */\n      tag_303\n      jump\t// in\n    tag_375:\n        /* \"#utility.yul\":7484:7548   */\n      swap1\n      pop\n        /* \"#utility.yul\":7584:7590   */\n      dup3\n        /* \"#utility.yul\":7579:7581   */\n      0x20\n        /* \"#utility.yul\":7568:7577   */\n      dup4\n        /* \"#utility.yul\":7564:7582   */\n      add\n        /* \"#utility.yul\":7557:7591   */\n      mstore\n        /* \"#utility.yul\":7265:7597   */\n      swap4\n      swap3\n      pop\n      pop\n      pop\n      jump\t// out\n        /* \"#utility.yul\":7602:7788   */\n    tag_91:\n        /* \"#utility.yul\":7661:7667   */\n      0x00\n        /* \"#utility.yul\":7714:7716   */\n      0x20\n        /* \"#utility.yul\":7702:7711   */\n      dup3\n        /* \"#utility.yul\":7693:7700   */\n      dup5\n        /* \"#utility.yul\":7689:7712   */\n      sub\n        /* \"#utility.yul\":7685:7717   */\n      slt\n        /* \"#utility.yul\":7682:7734   */\n      iszero\n      tag_377\n      jumpi\n        /* \"#utility.yul\":7730:7731   */\n      0x00\n        /* \"#utility.yul\":7727:7728   */\n      dup1\n        /* \"#utility.yul\":7720:7732   */\n      revert\n        /* \"#utility.yul\":7682:7734   */\n    tag_377:\n        /* \"#utility.yul\":7753:7782   */\n      tag_318\n        /* \"#utility.yul\":7772:7781   */\n      dup3\n        /* \"#utility.yul\":7753:7782   */\n      tag_297\n      jump\t// in\n        /* \"#utility.yul\":7793:8053   */\n    tag_95:\n        /* \"#utility.yul\":7861:7867   */\n      0x00\n        /* \"#utility.yul\":7869:7875   */\n      dup1\n        /* \"#utility.yul\":7922:7924   */\n      0x40\n        /* \"#utility.yul\":7910:7919   */\n      dup4\n        /* \"#utility.yul\":7901:7908   */\n      dup6\n        /* \"#utility.yul\":7897:7920   */\n      sub\n        /* \"#utility.yul\":7893:7925   */\n      slt\n        /* \"#utility.yul\":7890:7942   */\n      iszero\n      tag_380\n      jumpi\n        /* \"#utility.yul\":7938:7939   */\n      0x00\n        /* \"#utility.yul\":7935:7936   */\n      dup1\n        /* \"#utility.yul\":7928:7940   */\n      revert\n        /* \"#utility.yul\":7890:7942   */\n    tag_380:\n        /* \"#utility.yul\":7961:7990   */\n      tag_381\n        /* \"#utility.yul\":7980:7989   */\n      dup4\n        /* \"#utility.yul\":7961:7990   */\n      tag_297\n      jump\t// in\n    tag_381:\n        /* \"#utility.yul\":7951:7990   */\n      swap2\n      pop\n        /* \"#utility.yul\":8009:8047   */\n      tag_382\n        /* \"#utility.yul\":8043:8045   */\n      0x20\n        /* \"#utility.yul\":8032:8041   */\n      dup5\n        /* \"#utility.yul\":8028:8046   */\n      add\n        /* \"#utility.yul\":8009:8047   */\n      tag_297\n      jump\t// in\n    tag_382:\n        /* \"#utility.yul\":7999:8047   */\n      swap1\n      pop\n        /* \"#utility.yul\":7793:8053   */\n      swap3\n      pop\n      swap3\n      swap1\n      pop\n      jump\t// out\n        /* \"#utility.yul\":8058:8753   */\n    tag_100:\n        /* \"#utility.yul\":8164:8170   */\n      0x00\n        /* \"#utility.yul\":8172:8178   */\n      dup1\n        /* \"#utility.yul\":8180:8186   */\n      0x00\n        /* \"#utility.yul\":8188:8194   */\n      dup1\n        /* \"#utility.yul\":8196:8202   */\n      0x00\n        /* \"#utility.yul\":8204:8210   */\n      dup1\n        /* \"#utility.yul\":8257:8260   */\n      0xa0\n        /* \"#utility.yul\":8245:8254   */\n      dup8\n        /* \"#utility.yul\":8236:8243   */\n      dup10\n        /* \"#utility.yul\":8232:8255   */\n      sub\n        /* \"#utility.yul\":8228:8261   */\n      slt\n        /* \"#utility.yul\":8225:8278   */\n      iszero\n      tag_384\n      jumpi\n        /* \"#utility.yul\":8274:8275   */\n      0x00\n        /* \"#utility.yul\":8271:8272   */\n      dup1\n        /* \"#utility.yul\":8264:8276   */\n      revert\n        /* \"#utility.yul\":8225:8278   */\n    tag_384:\n        /* \"#utility.yul\":8297:8326   */\n      tag_385\n        /* \"#utility.yul\":8316:8325   */\n      dup8\n        /* \"#utility.yul\":8297:8326   */\n      tag_297\n      jump\t// in\n    tag_385:\n        /* \"#utility.yul\":8287:8326   */\n      swap6\n      pop\n        /* \"#utility.yul\":8345:8383   */\n      tag_386\n        /* \"#utility.yul\":8379:8381   */\n      0x20\n        /* \"#utility.yul\":8368:8377   */\n      dup9\n        /* \"#utility.yul\":8364:8382   */\n      add\n        /* \"#utility.yul\":8345:8383   */\n      tag_297\n      jump\t// in\n    tag_386:\n        /* \"#utility.yul\":8335:8383   */\n      swap5\n      pop\n        /* \"#utility.yul\":8430:8432   */\n      0x40\n        /* \"#utility.yul\":8419:8428   */\n      dup8\n        /* \"#utility.yul\":8415:8433   */\n      add\n        /* \"#utility.yul\":8402:8434   */\n      calldataload\n        /* \"#utility.yul\":8392:8434   */\n      swap4\n      pop\n        /* \"#utility.yul\":8481:8483   */\n      0x60\n        /* \"#utility.yul\":8470:8479   */\n      dup8\n        /* \"#utility.yul\":8466:8484   */\n      add\n        /* \"#utility.yul\":8453:8485   */\n      calldataload\n        /* \"#utility.yul\":8443:8485   */\n      swap3\n      pop\n        /* \"#utility.yul\":8536:8539   */\n      0x80\n        /* \"#utility.yul\":8525:8534   */\n      dup8\n        /* \"#utility.yul\":8521:8540   */\n      add\n        /* \"#utility.yul\":8508:8541   */\n      calldataload\n        /* \"#utility.yul\":8564:8582   */\n      0xffffffffffffffff\n        /* \"#utility.yul\":8556:8562   */\n      dup2\n        /* \"#utility.yul\":8553:8583   */\n      gt\n        /* \"#utility.yul\":8550:8600   */\n      iszero\n      tag_387\n      jumpi\n        /* \"#utility.yul\":8596:8597   */\n      0x00\n        /* \"#utility.yul\":8593:8594   */\n      dup1\n        /* \"#utility.yul\":8586:8598   */\n      revert\n        /* \"#utility.yul\":8550:8600   */\n    tag_387:\n        /* \"#utility.yul\":8635:8693   */\n      tag_388\n        /* \"#utility.yul\":8685:8692   */\n      dup10\n        /* \"#utility.yul\":8676:8682   */\n      dup3\n        /* \"#utility.yul\":8665:8674   */\n      dup11\n        /* \"#utility.yul\":8661:8683   */\n      add\n        /* \"#utility.yul\":8635:8693   */\n      tag_302\n      jump\t// in\n    tag_388:\n        /* \"#utility.yul\":8058:8753   */\n      swap8\n      swap11\n      swap7\n      swap10\n      pop\n      swap5\n      swap8\n      pop\n      swap3\n      swap6\n        /* \"#utility.yul\":8712:8720   */\n      swap4\n      swap5\n        /* \"#utility.yul\":8058:8753   */\n      swap3\n      pop\n      pop\n      pop\n      jump\t// out\n        /* \"#utility.yul\":8758:8885   */\n    tag_178:\n        /* \"#utility.yul\":8819:8829   */\n      0x4e487b71\n        /* \"#utility.yul\":8814:8817   */\n      0xe0\n        /* \"#utility.yul\":8810:8830   */\n      shl\n        /* \"#utility.yul\":8807:8808   */\n      0x00\n        /* \"#utility.yul\":8800:8831   */\n      mstore\n        /* \"#utility.yul\":8850:8854   */\n      0x41\n        /* \"#utility.yul\":8847:8848   */\n      0x04\n        /* \"#utility.yul\":8840:8855   */\n      mstore\n        /* \"#utility.yul\":8874:8878   */\n      0x24\n        /* \"#utility.yul\":8871:8872   */\n      0x00\n        /* \"#utility.yul\":8864:8879   */\n      revert\n        /* \"#utility.yul\":8890:9787   */\n    tag_113:\n        /* \"#utility.yul\":8970:8976   */\n      0x00\n        /* \"#utility.yul\":9023:9025   */\n      0x20\n        /* \"#utility.yul\":9011:9020   */\n      dup3\n        /* \"#utility.yul\":9002:9009   */\n      dup5\n        /* \"#utility.yul\":8998:9021   */\n      sub\n        /* \"#utility.yul\":8994:9026   */\n      slt\n        /* \"#utility.yul\":8991:9043   */\n      iszero\n      tag_391\n      jumpi\n        /* \"#utility.yul\":9039:9040   */\n      0x00\n        /* \"#utility.yul\":9036:9037   */\n      dup1\n        /* \"#utility.yul\":9029:9041   */\n      revert\n        /* \"#utility.yul\":8991:9043   */\n    tag_391:\n        /* \"#utility.yul\":9072:9081   */\n      dup2\n        /* \"#utility.yul\":9066:9082   */\n      mload\n        /* \"#utility.yul\":9101:9119   */\n      0xffffffffffffffff\n        /* \"#utility.yul\":9142:9144   */\n      dup1\n        /* \"#utility.yul\":9134:9140   */\n      dup3\n        /* \"#utility.yul\":9131:9145   */\n      gt\n        /* \"#utility.yul\":9128:9162   */\n      iszero\n      tag_392\n      jumpi\n        /* \"#utility.yul\":9158:9159   */\n      0x00\n        /* \"#utility.yul\":9155:9156   */\n      dup1\n        /* \"#utility.yul\":9148:9160   */\n      revert\n        /* \"#utility.yul\":9128:9162   */\n    tag_392:\n        /* \"#utility.yul\":9196:9202   */\n      dup2\n        /* \"#utility.yul\":9185:9194   */\n      dup5\n        /* \"#utility.yul\":9181:9203   */\n      add\n        /* \"#utility.yul\":9171:9203   */\n      swap2\n      pop\n        /* \"#utility.yul\":9241:9248   */\n      dup5\n        /* \"#utility.yul\":9234:9238   */\n      0x1f\n        /* \"#utility.yul\":9230:9232   */\n      dup4\n        /* \"#utility.yul\":9226:9239   */\n      add\n        /* \"#utility.yul\":9222:9249   */\n      slt\n        /* \"#utility.yul\":9212:9267   */\n      tag_393\n      jumpi\n        /* \"#utility.yul\":9263:9264   */\n      0x00\n        /* \"#utility.yul\":9260:9261   */\n      dup1\n        /* \"#utility.yul\":9253:9265   */\n      revert\n        /* \"#utility.yul\":9212:9267   */\n    tag_393:\n        /* \"#utility.yul\":9292:9294   */\n      dup2\n        /* \"#utility.yul\":9286:9295   */\n      mload\n        /* \"#utility.yul\":9314:9316   */\n      dup2\n        /* \"#utility.yul\":9310:9312   */\n      dup2\n        /* \"#utility.yul\":9307:9317   */\n      gt\n        /* \"#utility.yul\":9304:9340   */\n      iszero\n      tag_395\n      jumpi\n        /* \"#utility.yul\":9320:9338   */\n      tag_395\n      tag_178\n      jump\t// in\n    tag_395:\n        /* \"#utility.yul\":9395:9397   */\n      0x40\n        /* \"#utility.yul\":9389:9398   */\n      mload\n        /* \"#utility.yul\":9363:9365   */\n      0x1f\n        /* \"#utility.yul\":9449:9462   */\n      dup3\n      add\n      not(0x1f)\n        /* \"#utility.yul\":9445:9467   */\n      swap1\n      dup2\n      and\n        /* \"#utility.yul\":9469:9471   */\n      0x3f\n        /* \"#utility.yul\":9441:9472   */\n      add\n        /* \"#utility.yul\":9437:9477   */\n      and\n        /* \"#utility.yul\":9425:9478   */\n      dup2\n      add\n      swap1\n        /* \"#utility.yul\":9493:9511   */\n      dup4\n      dup3\n      gt\n        /* \"#utility.yul\":9513:9535   */\n      dup2\n      dup4\n      lt\n        /* \"#utility.yul\":9490:9536   */\n      or\n        /* \"#utility.yul\":9487:9559   */\n      iszero\n      tag_397\n      jumpi\n        /* \"#utility.yul\":9539:9557   */\n      tag_397\n      tag_178\n      jump\t// in\n    tag_397:\n        /* \"#utility.yul\":9579:9589   */\n      dup2\n        /* \"#utility.yul\":9575:9577   */\n      0x40\n        /* \"#utility.yul\":9568:9590   */\n      mstore\n        /* \"#utility.yul\":9614:9616   */\n      dup3\n        /* \"#utility.yul\":9606:9612   */\n      dup2\n        /* \"#utility.yul\":9599:9617   */\n      mstore\n        /* \"#utility.yul\":9654:9661   */\n      dup8\n        /* \"#utility.yul\":9649:9651   */\n      0x20\n        /* \"#utility.yul\":9644:9646   */\n      dup5\n        /* \"#utility.yul\":9640:9642   */\n      dup8\n        /* \"#utility.yul\":9636:9647   */\n      add\n        /* \"#utility.yul\":9632:9652   */\n      add\n        /* \"#utility.yul\":9629:9662   */\n      gt\n        /* \"#utility.yul\":9626:9679   */\n      iszero\n      tag_398\n      jumpi\n        /* \"#utility.yul\":9675:9676   */\n      0x00\n        /* \"#utility.yul\":9672:9673   */\n      dup1\n        /* \"#utility.yul\":9665:9677   */\n      revert\n        /* \"#utility.yul\":9626:9679   */\n    tag_398:\n        /* \"#utility.yul\":9688:9756   */\n      tag_399\n        /* \"#utility.yul\":9753:9755   */\n      dup4\n        /* \"#utility.yul\":9748:9750   */\n      0x20\n        /* \"#utility.yul\":9740:9746   */\n      dup4\n        /* \"#utility.yul\":9736:9751   */\n      add\n        /* \"#utility.yul\":9731:9733   */\n      0x20\n        /* \"#utility.yul\":9727:9729   */\n      dup9\n        /* \"#utility.yul\":9723:9734   */\n      add\n        /* \"#utility.yul\":9688:9756   */\n      tag_299\n      jump\t// in\n    tag_399:\n        /* \"#utility.yul\":9775:9781   */\n      swap8\n        /* \"#utility.yul\":8890:9787   */\n      swap7\n      pop\n      pop\n      pop\n      pop\n      pop\n      pop\n      pop\n      jump\t// out\n        /* \"#utility.yul\":10213:10916   */\n    tag_119:\n        /* \"#utility.yul\":10440:10443   */\n      0x00\n        /* \"#utility.yul\":10478:10484   */\n      dup5\n        /* \"#utility.yul\":10472:10485   */\n      mload\n        /* \"#utility.yul\":10494:10560   */\n      tag_403\n        /* \"#utility.yul\":10553:10559   */\n      dup2\n        /* \"#utility.yul\":10548:10551   */\n      dup5\n        /* \"#utility.yul\":10541:10545   */\n      0x20\n        /* \"#utility.yul\":10533:10539   */\n      dup10\n        /* \"#utility.yul\":10529:10546   */\n      add\n        /* \"#utility.yul\":10494:10560   */\n      tag_299\n      jump\t// in\n    tag_403:\n        /* \"#utility.yul\":10623:10636   */\n      dup5\n      mload\n        /* \"#utility.yul\":10582:10598   */\n      swap1\n      dup4\n      add\n      swap1\n        /* \"#utility.yul\":10645:10715   */\n      tag_404\n        /* \"#utility.yul\":10623:10636   */\n      dup2\n        /* \"#utility.yul\":10582:10598   */\n      dup4\n        /* \"#utility.yul\":10692:10696   */\n      0x20\n        /* \"#utility.yul\":10680:10697   */\n      dup10\n      add\n        /* \"#utility.yul\":10645:10715   */\n      tag_299\n      jump\t// in\n    tag_404:\n        /* \"#utility.yul\":10782:10795   */\n      dup5\n      mload\n        /* \"#utility.yul\":10737:10757   */\n      swap2\n      add\n      swap1\n        /* \"#utility.yul\":10804:10874   */\n      tag_405\n        /* \"#utility.yul\":10782:10795   */\n      dup2\n        /* \"#utility.yul\":10737:10757   */\n      dup4\n        /* \"#utility.yul\":10851:10855   */\n      0x20\n        /* \"#utility.yul\":10839:10856   */\n      dup9\n      add\n        /* \"#utility.yul\":10804:10874   */\n      tag_299\n      jump\t// in\n    tag_405:\n        /* \"#utility.yul\":10890:10910   */\n      add\n      swap6\n        /* \"#utility.yul\":10213:10916   */\n      swap5\n      pop\n      pop\n      pop\n      pop\n      pop\n      jump\t// out\n        /* \"#utility.yul\":11608:11735   */\n    tag_133:\n        /* \"#utility.yul\":11669:11679   */\n      0x4e487b71\n        /* \"#utility.yul\":11664:11667   */\n      0xe0\n        /* \"#utility.yul\":11660:11680   */\n      shl\n        /* \"#utility.yul\":11657:11658   */\n      0x00\n        /* \"#utility.yul\":11650:11681   */\n      mstore\n        /* \"#utility.yul\":11700:11704   */\n      0x32\n        /* \"#utility.yul\":11697:11698   */\n      0x04\n        /* \"#utility.yul\":11690:11705   */\n      mstore\n        /* \"#utility.yul\":11724:11728   */\n      0x24\n        /* \"#utility.yul\":11721:11722   */\n      0x00\n        /* \"#utility.yul\":11714:11729   */\n      revert\n        /* \"#utility.yul\":11740:11867   */\n    tag_304:\n        /* \"#utility.yul\":11801:11811   */\n      0x4e487b71\n        /* \"#utility.yul\":11796:11799   */\n      0xe0\n        /* \"#utility.yul\":11792:11812   */\n      shl\n        /* \"#utility.yul\":11789:11790   */\n      0x00\n        /* \"#utility.yul\":11782:11813   */\n      mstore\n        /* \"#utility.yul\":11832:11836   */\n      0x11\n        /* \"#utility.yul\":11829:11830   */\n      0x04\n        /* \"#utility.yul\":11822:11837   */\n      mstore\n        /* \"#utility.yul\":11856:11860   */\n      0x24\n        /* \"#utility.yul\":11853:11854   */\n      0x00\n        /* \"#utility.yul\":11846:11861   */\n      revert\n        /* \"#utility.yul\":11872:12000   */\n    tag_137:\n        /* \"#utility.yul\":11939:11948   */\n      dup2\n      dup2\n      sub\n        /* \"#utility.yul\":11960:11971   */\n      dup2\n      dup2\n      gt\n        /* \"#utility.yul\":11957:11994   */\n      iszero\n      tag_108\n      jumpi\n        /* \"#utility.yul\":11974:11992   */\n      tag_108\n      tag_304\n      jump\t// in\n        /* \"#utility.yul\":12005:12130   */\n    tag_139:\n        /* \"#utility.yul\":12070:12079   */\n      dup1\n      dup3\n      add\n        /* \"#utility.yul\":12091:12101   */\n      dup1\n      dup3\n      gt\n        /* \"#utility.yul\":12088:12124   */\n      iszero\n      tag_108\n      jumpi\n        /* \"#utility.yul\":12104:12122   */\n      tag_108\n      tag_304\n      jump\t// in\n        /* \"#utility.yul\":12135:12446   */\n    tag_305:\n        /* \"#utility.yul\":12223:12242   */\n      dup2\n      dup4\n      mstore\n        /* \"#utility.yul\":12205:12208   */\n      0x00\n      sub(shl(0xfb, 0x01), 0x01)\n        /* \"#utility.yul\":12254:12285   */\n      dup4\n      gt\n        /* \"#utility.yul\":12251:12302   */\n      iszero\n      tag_417\n      jumpi\n        /* \"#utility.yul\":12298:12299   */\n      0x00\n        /* \"#utility.yul\":12295:12296   */\n      dup1\n        /* \"#utility.yul\":12288:12300   */\n      revert\n        /* \"#utility.yul\":12251:12302   */\n    tag_417:\n        /* \"#utility.yul\":12334:12340   */\n      dup3\n        /* \"#utility.yul\":12331:12332   */\n      0x05\n        /* \"#utility.yul\":12327:12341   */\n      shl\n        /* \"#utility.yul\":12386:12394   */\n      dup1\n        /* \"#utility.yul\":12379:12384   */\n      dup4\n        /* \"#utility.yul\":12372:12376   */\n      0x20\n        /* \"#utility.yul\":12367:12370   */\n      dup8\n        /* \"#utility.yul\":12363:12377   */\n      add\n        /* \"#utility.yul\":12350:12395   */\n      calldatacopy\n        /* \"#utility.yul\":12415:12433   */\n      swap4\n      swap1\n      swap4\n      add\n        /* \"#utility.yul\":12435:12439   */\n      0x20\n        /* \"#utility.yul\":12411:12440   */\n      add\n      swap4\n        /* \"#utility.yul\":12135:12446   */\n      swap3\n      pop\n      pop\n      pop\n      jump\t// out\n        /* \"#utility.yul\":12451:12970   */\n    tag_141:\n        /* \"#utility.yul\":12728:12730   */\n      0x40\n        /* \"#utility.yul\":12717:12726   */\n      dup2\n        /* \"#utility.yul\":12710:12731   */\n      mstore\n        /* \"#utility.yul\":12691:12695   */\n      0x00\n        /* \"#utility.yul\":12754:12827   */\n      tag_419\n        /* \"#utility.yul\":12823:12825   */\n      0x40\n        /* \"#utility.yul\":12812:12821   */\n      dup4\n        /* \"#utility.yul\":12808:12826   */\n      add\n        /* \"#utility.yul\":12800:12806   */\n      dup7\n        /* \"#utility.yul\":12792:12798   */\n      dup9\n        /* \"#utility.yul\":12754:12827   */\n      tag_305\n      jump\t// in\n    tag_419:\n        /* \"#utility.yul\":12875:12884   */\n      dup3\n        /* \"#utility.yul\":12867:12873   */\n      dup2\n        /* \"#utility.yul\":12863:12885   */\n      sub\n        /* \"#utility.yul\":12858:12860   */\n      0x20\n        /* \"#utility.yul\":12847:12856   */\n      dup5\n        /* \"#utility.yul\":12843:12861   */\n      add\n        /* \"#utility.yul\":12836:12886   */\n      mstore\n        /* \"#utility.yul\":12903:12964   */\n      tag_399\n        /* \"#utility.yul\":12957:12963   */\n      dup2\n        /* \"#utility.yul\":12949:12955   */\n      dup6\n        /* \"#utility.yul\":12941:12947   */\n      dup8\n        /* \"#utility.yul\":12903:12964   */\n      tag_305\n      jump\t// in\n        /* \"#utility.yul\":12975:13241   */\n    tag_306:\n        /* \"#utility.yul\":13063:13069   */\n      dup2\n        /* \"#utility.yul\":13058:13061   */\n      dup4\n        /* \"#utility.yul\":13051:13070   */\n      mstore\n        /* \"#utility.yul\":13115:13121   */\n      dup2\n        /* \"#utility.yul\":13108:13113   */\n      dup2\n        /* \"#utility.yul\":13101:13105   */\n      0x20\n        /* \"#utility.yul\":13096:13099   */\n      dup6\n        /* \"#utility.yul\":13092:13106   */\n      add\n        /* \"#utility.yul\":13079:13122   */\n      calldatacopy\n      pop\n        /* \"#utility.yul\":13167:13168   */\n      0x00\n        /* \"#utility.yul\":13142:13158   */\n      dup3\n      dup3\n      add\n        /* \"#utility.yul\":13160:13164   */\n      0x20\n        /* \"#utility.yul\":13138:13165   */\n      swap1\n      dup2\n      add\n        /* \"#utility.yul\":13131:13169   */\n      swap2\n      swap1\n      swap2\n      mstore\n        /* \"#utility.yul\":13223:13225   */\n      0x1f\n        /* \"#utility.yul\":13202:13217   */\n      swap1\n      swap2\n      add\n      not(0x1f)\n        /* \"#utility.yul\":13198:13227   */\n      and\n        /* \"#utility.yul\":13189:13228   */\n      swap1\n      swap2\n      add\n        /* \"#utility.yul\":13185:13235   */\n      add\n      swap1\n        /* \"#utility.yul\":12975:13241   */\n      jump\t// out\n        /* \"#utility.yul\":13246:14153   */\n    tag_144:\n      sub(shl(0xa0, 0x01), 0x01)\n        /* \"#utility.yul\":13673:13688   */\n      dup10\n      dup2\n      and\n        /* \"#utility.yul\":13655:13689   */\n      dup3\n      mstore\n        /* \"#utility.yul\":13725:13740   */\n      dup9\n      and\n        /* \"#utility.yul\":13720:13722   */\n      0x20\n        /* \"#utility.yul\":13705:13723   */\n      dup3\n      add\n        /* \"#utility.yul\":13698:13741   */\n      mstore\n        /* \"#utility.yul\":13635:13638   */\n      0xa0\n        /* \"#utility.yul\":13772:13774   */\n      0x40\n        /* \"#utility.yul\":13757:13775   */\n      dup3\n      add\n        /* \"#utility.yul\":13750:13781   */\n      dup2\n      swap1\n      mstore\n        /* \"#utility.yul\":13598:13602   */\n      0x00\n      swap1\n        /* \"#utility.yul\":13804:13878   */\n      tag_423\n      swap1\n        /* \"#utility.yul\":13858:13877   */\n      dup4\n      add\n        /* \"#utility.yul\":13850:13856   */\n      dup9\n        /* \"#utility.yul\":13842:13848   */\n      dup11\n        /* \"#utility.yul\":13804:13878   */\n      tag_305\n      jump\t// in\n    tag_423:\n        /* \"#utility.yul\":13926:13935   */\n      dup3\n        /* \"#utility.yul\":13918:13924   */\n      dup2\n        /* \"#utility.yul\":13914:13936   */\n      sub\n        /* \"#utility.yul\":13909:13911   */\n      0x60\n        /* \"#utility.yul\":13898:13907   */\n      dup5\n        /* \"#utility.yul\":13894:13912   */\n      add\n        /* \"#utility.yul\":13887:13937   */\n      mstore\n        /* \"#utility.yul\":13960:14021   */\n      tag_424\n        /* \"#utility.yul\":14014:14020   */\n      dup2\n        /* \"#utility.yul\":14006:14012   */\n      dup8\n        /* \"#utility.yul\":13998:14004   */\n      dup10\n        /* \"#utility.yul\":13960:14021   */\n      tag_305\n      jump\t// in\n    tag_424:\n        /* \"#utility.yul\":13946:14021   */\n      swap1\n      pop\n        /* \"#utility.yul\":14070:14079   */\n      dup3\n        /* \"#utility.yul\":14062:14068   */\n      dup2\n        /* \"#utility.yul\":14058:14080   */\n      sub\n        /* \"#utility.yul\":14052:14055   */\n      0x80\n        /* \"#utility.yul\":14041:14050   */\n      dup5\n        /* \"#utility.yul\":14037:14056   */\n      add\n        /* \"#utility.yul\":14030:14081   */\n      mstore\n        /* \"#utility.yul\":14098:14147   */\n      tag_425\n        /* \"#utility.yul\":14140:14146   */\n      dup2\n        /* \"#utility.yul\":14132:14138   */\n      dup6\n        /* \"#utility.yul\":14124:14130   */\n      dup8\n        /* \"#utility.yul\":14098:14147   */\n      tag_306\n      jump\t// in\n    tag_425:\n        /* \"#utility.yul\":14090:14147   */\n      swap12\n        /* \"#utility.yul\":13246:14153   */\n      swap11\n      pop\n      pop\n      pop\n      pop\n      pop\n      pop\n      pop\n      pop\n      pop\n      pop\n      pop\n      jump\t// out\n        /* \"#utility.yul\":14158:14407   */\n    tag_148:\n        /* \"#utility.yul\":14227:14233   */\n      0x00\n        /* \"#utility.yul\":14280:14282   */\n      0x20\n        /* \"#utility.yul\":14268:14277   */\n      dup3\n        /* \"#utility.yul\":14259:14266   */\n      dup5\n        /* \"#utility.yul\":14255:14278   */\n      sub\n        /* \"#utility.yul\":14251:14283   */\n      slt\n        /* \"#utility.yul\":14248:14300   */\n      iszero\n      tag_427\n      jumpi\n        /* \"#utility.yul\":14296:14297   */\n      0x00\n        /* \"#utility.yul\":14293:14294   */\n      dup1\n        /* \"#utility.yul\":14286:14298   */\n      revert\n        /* \"#utility.yul\":14248:14300   */\n    tag_427:\n        /* \"#utility.yul\":14328:14337   */\n      dup2\n        /* \"#utility.yul\":14322:14338   */\n      mload\n        /* \"#utility.yul\":14347:14377   */\n      tag_318\n        /* \"#utility.yul\":14371:14376   */\n      dup2\n        /* \"#utility.yul\":14347:14377   */\n      tag_298\n      jump\t// in\n        /* \"#utility.yul\":14412:14752   */\n    tag_152:\n        /* \"#utility.yul\":14614:14616   */\n      0x20\n        /* \"#utility.yul\":14596:14617   */\n      dup1\n      dup3\n      mstore\n        /* \"#utility.yul\":14653:14655   */\n      0x10\n        /* \"#utility.yul\":14633:14651   */\n      swap1\n      dup3\n      add\n        /* \"#utility.yul\":14626:14656   */\n      mstore\n      shl(0x82, 0x155394d0519157d49150d25412515395)\n        /* \"#utility.yul\":14687:14689   */\n      0x40\n        /* \"#utility.yul\":14672:14690   */\n      dup3\n      add\n        /* \"#utility.yul\":14665:14711   */\n      mstore\n        /* \"#utility.yul\":14743:14745   */\n      0x60\n        /* \"#utility.yul\":14728:14746   */\n      add\n      swap1\n        /* \"#utility.yul\":14412:14752   */\n      jump\t// out\n        /* \"#utility.yul\":15056:15392   */\n    tag_169:\n        /* \"#utility.yul\":15258:15260   */\n      0x20\n        /* \"#utility.yul\":15240:15261   */\n      dup1\n      dup3\n      mstore\n        /* \"#utility.yul\":15297:15299   */\n      0x0c\n        /* \"#utility.yul\":15277:15295   */\n      swap1\n      dup3\n      add\n        /* \"#utility.yul\":15270:15300   */\n      mstore\n      shl(0xa2, 0x15539055551213d492569151)\n        /* \"#utility.yul\":15331:15333   */\n      0x40\n        /* \"#utility.yul\":15316:15334   */\n      dup3\n      add\n        /* \"#utility.yul\":15309:15351   */\n      mstore\n        /* \"#utility.yul\":15383:15385   */\n      0x60\n        /* \"#utility.yul\":15368:15386   */\n      add\n      swap1\n        /* \"#utility.yul\":15056:15392   */\n      jump\t// out\n        /* \"#utility.yul\":16264:16851   */\n    tag_248:\n      sub(shl(0xa0, 0x01), 0x01)\n        /* \"#utility.yul\":16571:16586   */\n      dup8\n      dup2\n      and\n        /* \"#utility.yul\":16553:16587   */\n      dup3\n      mstore\n        /* \"#utility.yul\":16623:16638   */\n      dup7\n      and\n        /* \"#utility.yul\":16618:16620   */\n      0x20\n        /* \"#utility.yul\":16603:16621   */\n      dup3\n      add\n        /* \"#utility.yul\":16596:16639   */\n      mstore\n        /* \"#utility.yul\":16670:16672   */\n      0x40\n        /* \"#utility.yul\":16655:16673   */\n      dup2\n      add\n        /* \"#utility.yul\":16648:16682   */\n      dup6\n      swap1\n      mstore\n        /* \"#utility.yul\":16713:16715   */\n      0x60\n        /* \"#utility.yul\":16698:16716   */\n      dup2\n      add\n        /* \"#utility.yul\":16691:16725   */\n      dup5\n      swap1\n      mstore\n        /* \"#utility.yul\":16533:16536   */\n      0xa0\n        /* \"#utility.yul\":16756:16759   */\n      0x80\n        /* \"#utility.yul\":16741:16760   */\n      dup3\n      add\n        /* \"#utility.yul\":16734:16766   */\n      dup2\n      swap1\n      mstore\n        /* \"#utility.yul\":16496:16500   */\n      0x00\n      swap1\n        /* \"#utility.yul\":16783:16845   */\n      tag_436\n      swap1\n        /* \"#utility.yul\":16825:16844   */\n      dup4\n      add\n        /* \"#utility.yul\":16817:16823   */\n      dup5\n        /* \"#utility.yul\":16809:16815   */\n      dup7\n        /* \"#utility.yul\":16783:16845   */\n      tag_306\n      jump\t// in\n    tag_436:\n        /* \"#utility.yul\":16775:16845   */\n      swap9\n        /* \"#utility.yul\":16264:16851   */\n      swap8\n      pop\n      pop\n      pop\n      pop\n      pop\n      pop\n      pop\n      pop\n      jump\t// out\n        /* \"#utility.yul\":17201:17762   */\n    tag_271:\n      sub(shl(0xa0, 0x01), 0x01)\n        /* \"#utility.yul\":17498:17513   */\n      dup7\n      dup2\n      and\n        /* \"#utility.yul\":17480:17514   */\n      dup3\n      mstore\n        /* \"#utility.yul\":17550:17565   */\n      dup6\n      and\n        /* \"#utility.yul\":17545:17547   */\n      0x20\n        /* \"#utility.yul\":17530:17548   */\n      dup3\n      add\n        /* \"#utility.yul\":17523:17566   */\n      mstore\n        /* \"#utility.yul\":17597:17599   */\n      0x40\n        /* \"#utility.yul\":17582:17600   */\n      dup2\n      add\n        /* \"#utility.yul\":17575:17609   */\n      dup5\n      swap1\n      mstore\n        /* \"#utility.yul\":17640:17642   */\n      0x60\n        /* \"#utility.yul\":17625:17643   */\n      dup2\n      add\n        /* \"#utility.yul\":17618:17652   */\n      dup4\n      swap1\n      mstore\n        /* \"#utility.yul\":17460:17463   */\n      0xa0\n        /* \"#utility.yul\":17683:17686   */\n      0x80\n        /* \"#utility.yul\":17668:17687   */\n      dup3\n      add\n        /* \"#utility.yul\":17661:17693   */\n      dup2\n      swap1\n      mstore\n        /* \"#utility.yul\":17423:17427   */\n      0x00\n      swap1\n        /* \"#utility.yul\":17710:17756   */\n      tag_399\n      swap1\n        /* \"#utility.yul\":17736:17755   */\n      dup4\n      add\n        /* \"#utility.yul\":17728:17734   */\n      dup5\n        /* \"#utility.yul\":17710:17756   */\n      tag_300\n      jump\t// in\n\n    auxdata: 0xa26469706673582212200d9e0332144600253db089515516710cf68f97126d560bead5cfd6540711a04064736f6c63430008110033\n}\n",
				"bytecode": {
					"linkReferences": {},
					"object": "608060405234801561001057600080fd5b506003805460ff191690556119398061002a6000396000f3fe608060405234801561001057600080fd5b50600436106101205760003560e01c80637cb64759116100ad578063c45a015511610071578063c45a015514610284578063c4d66de814610297578063e985e9c5146102aa578063f242432a146102d8578063fb2852dd146102eb57600080fd5b80637cb647591461020a5780638456cb591461021d5780638da5cb5b14610225578063a22cb46514610250578063b51756161461026357600080fd5b80632eb4a7ab116100f45780632eb4a7ab146101bb5780633b439351146101c45780633f4ba83a146101d75780634e1273f4146101df5780635c975abb146101ff57600080fd5b8062fdd58e1461012557806301ffc9a7146101635780630e89341c146101865780632eb2c2d6146101a6575b600080fd5b610150610133366004611166565b600160209081526000928352604080842090915290825290205481565b6040519081526020015b60405180910390f35b6101766101713660046111a9565b61030e565b604051901515815260200161015a565b6101996101943660046111cd565b610360565b60405161015a9190611236565b6101b96101b43660046112d0565b610443565b005b610150600a5481565b6101b96101d236600461138b565b6106ef565b6101b9610814565b6101f26101ed3660046113d7565b610848565b60405161015a919061147e565b60035460ff16610176565b6101b96102183660046111cd565b61097e565b6101b96109ad565b600854610238906001600160a01b031681565b6040516001600160a01b03909116815260200161015a565b6101b961025e366004611491565b6109df565b6102766102713660046114cd565b610a4b565b60405161015a9291906114ef565b600954610238906001600160a01b031681565b6101b96102a5366004611511565b610b45565b6101766102b836600461152c565b600260209081526000928352604080842090915290825290205460ff1681565b6101b96102e636600461155f565b610caa565b6101766102f9366004611511565b60056020526000908152604090205460ff1681565b60006301ffc9a760e01b6001600160e01b03198316148061033f5750636cdb3d1360e11b6001600160e01b03198316145b8061035a57506303a24d0760e21b6001600160e01b03198316145b92915050565b60095460408051631d59313f60e31b815290516060926001600160a01b03169163eac989f89160048083019260009291908290030181865afa1580156103aa573d6000803e3d6000fd5b505050506040513d6000823e601f3d908101601f191682016040526103d291908101906115ed565b60095460405160609190911b6bffffffffffffffffffffffff1916602082015260340160408051601f1981840301815282825260208301869052910160408051601f198184030181529082905261042d93929160200161169a565b6040516020818303038152906040529050919050565b8483146104895760405162461bcd60e51b815260206004820152600f60248201526e0988a9c8ea890be9a92a69a82a8869608b1b60448201526064015b60405180910390fd5b336001600160a01b03891614806104c357506001600160a01b038816600090815260026020908152604080832033845290915290205460ff165b6105005760405162461bcd60e51b815260206004820152600e60248201526d1393d517d055551213d49256915160921b6044820152606401610480565b60008060005b878110156105bf57888882818110610520576105206116dd565b90506020020135925086868281811061053b5761053b6116dd565b6001600160a01b038e1660009081526001602090815260408083208984528252822080549390910294909401359550859392509061057a908490611709565b90915550506001600160a01b038a166000908152600160209081526040808320868452909152812080548492906105b290849061171c565b9091555050600101610506565b50886001600160a01b03168a6001600160a01b0316336001600160a01b03167f4a39dc06d4c0dbc64b70af90fd698a233a518aa5d07e595d983b8c0526c8f7fb8b8b8b8b6040516106139493929190611761565b60405180910390a46001600160a01b0389163b156106ba5760405163bc197c8160e01b808252906001600160a01b038b169063bc197c81906106679033908f908e908e908e908e908e908e906004016117b1565b6020604051808303816000875af1158015610686573d6000803e3d6000fd5b505050506040513d601f19601f820116820180604052508101906106aa9190611815565b6001600160e01b031916146106c7565b6001600160a01b03891615155b6106e35760405162461bcd60e51b815260040161048090611832565b50505050505050505050565b6106f7610ea8565b6040516bffffffffffffffffffffffff193360601b1660208201526034810182905260009060540160405160208183030381529060405280519060200120905060006107478585600a5485610eee565b90508061076757604051630d453fcd60e31b815260040160405180910390fd5b3360009081526005602052604090205460ff161561079857604051630c8d9eab60e31b815260040160405180910390fd5b336000818152600560209081526040808320805460ff19166001908117909155600680548986526007855283862081905580830182559085527ff652222313e28459528d920b65115c16c04f3efc82aaedc97be59f3f377c0d3f01889055815192830190915291815261080d92918691610f28565b5050505050565b6008546001600160a01b0316331461083e5760405162461bcd60e51b81526004016104809061185c565b610846611072565b565b606083821461088b5760405162461bcd60e51b815260206004820152600f60248201526e0988a9c8ea890be9a92a69a82a8869608b1b6044820152606401610480565b8367ffffffffffffffff8111156108a4576108a46115d7565b6040519080825280602002602001820160405280156108cd578160200160208202803683370190505b50905060005b8481101561097557600160008787848181106108f1576108f16116dd565b90506020020160208101906109069190611511565b6001600160a01b03166001600160a01b03168152602001908152602001600020600085858481811061093a5761093a6116dd565b90506020020135815260200190815260200160002054828281518110610962576109626116dd565b60209081029190910101526001016108d3565b50949350505050565b6008546001600160a01b031633146109a85760405162461bcd60e51b81526004016104809061185c565b600a55565b6008546001600160a01b031633146109d75760405162461bcd60e51b81526004016104809061185c565b6108466110c4565b3360008181526002602090815260408083206001600160a01b03871680855290835292819020805460ff191686151590811790915590519081529192917f17307eab39ab6107e8899845ad3d59bd9653f200f220920489ca2b5937696c31910160405180910390a35050565b600654606090600090808203610a74575050604080516000808252602082019092529150610b3e565b808510610a935760408051600081526020810190915292509050610b3e565b84810384811115610aa15750835b8067ffffffffffffffff811115610aba57610aba6115d7565b604051908082528060200260200182016040528015610ae3578160200160208202803683370190505b50935060005b818114610b375760068781548110610b0357610b036116dd565b9060005260206000200154858281518110610b2057610b206116dd565b602090810291909101015260019687019601610ae9565b5085925050505b9250929050565b600054610100900460ff1615808015610b655750600054600160ff909116105b80610b7f5750303b158015610b7f575060005460ff166001145b610be25760405162461bcd60e51b815260206004820152602e60248201527f496e697469616c697a61626c653a20636f6e747261637420697320616c72656160448201526d191e481a5b9a5d1a585b1a5e995960921b6064820152608401610480565b6000805460ff191660011790558015610c05576000805461ff0019166101001790555b600880546001600160a01b0319166001600160a01b0384169081179091556040516000907f8be0079c531659141344cd1fd0a4f28419497f9722a3daafe3b4186f6b6457e0908290a3600980546001600160a01b031916331790558015610ca6576000805461ff0019169055604051600181527f7f26b83ff96e1f2b6a682f133852f6798a09c465da95921460cefb38474024989060200160405180910390a15b5050565b336001600160a01b0387161480610ce457506001600160a01b038616600090815260026020908152604080832033845290915290205460ff165b610d215760405162461bcd60e51b815260206004820152600e60248201526d1393d517d055551213d49256915160921b6044820152606401610480565b6001600160a01b038616600090815260016020908152604080832087845290915281208054859290610d54908490611709565b90915550506001600160a01b038516600090815260016020908152604080832087845290915281208054859290610d8c90849061171c565b909155505060408051858152602081018590526001600160a01b03808816929089169133917fc3d58168c5ae7397731d063d5bbf3d657854427343f4c083240f7aacaa2d0f62910160405180910390a46001600160a01b0385163b15610e775760405163f23a6e6160e01b808252906001600160a01b0387169063f23a6e6190610e249033908b908a908a908a908a90600401611882565b6020604051808303816000875af1158015610e43573d6000803e3d6000fd5b505050506040513d601f19601f82011682018060405250810190610e679190611815565b6001600160e01b03191614610e84565b6001600160a01b03851615155b610ea05760405162461bcd60e51b815260040161048090611832565b505050505050565b60035460ff16156108465760405162461bcd60e51b815260206004820152601060248201526f14185d5cd8589b194e881c185d5cd95960821b6044820152606401610480565b60008315610f20578360051b8501855b803580851160051b94855260209485185260406000209301818110610efe5750505b501492915050565b6001600160a01b038416600090815260016020908152604080832086845290915281208054849290610f5b90849061171c565b909155505060408051848152602081018490526001600160a01b0386169160009133917fc3d58168c5ae7397731d063d5bbf3d657854427343f4c083240f7aacaa2d0f62910160405180910390a46001600160a01b0384163b156110435760405163f23a6e6160e01b808252906001600160a01b0386169063f23a6e6190610ff09033906000908990899089906004016118c9565b6020604051808303816000875af115801561100f573d6000803e3d6000fd5b505050506040513d601f19601f820116820180604052508101906110339190611815565b6001600160e01b03191614611050565b6001600160a01b03841615155b61106c5760405162461bcd60e51b815260040161048090611832565b50505050565b61107a611101565b6003805460ff191690557f5db9ee0a495bf2e6ff9c91a7834c1ba4fdd244a5e8aa4e537bd38aeae4b073aa335b6040516001600160a01b03909116815260200160405180910390a1565b6110cc610ea8565b6003805460ff191660011790557f62e78cea01bee320cd4e420270b5ea74000d11b0c9f74754ebdbfc544b05a2586110a73390565b60035460ff166108465760405162461bcd60e51b815260206004820152601460248201527314185d5cd8589b194e881b9bdd081c185d5cd95960621b6044820152606401610480565b80356001600160a01b038116811461116157600080fd5b919050565b6000806040838503121561117957600080fd5b6111828361114a565b946020939093013593505050565b6001600160e01b0319811681146111a657600080fd5b50565b6000602082840312156111bb57600080fd5b81356111c681611190565b9392505050565b6000602082840312156111df57600080fd5b5035919050565b60005b838110156112015781810151838201526020016111e9565b50506000910152565b600081518084526112228160208601602086016111e6565b601f01601f19169290920160200192915050565b6020815260006111c6602083018461120a565b60008083601f84011261125b57600080fd5b50813567ffffffffffffffff81111561127357600080fd5b6020830191508360208260051b8501011115610b3e57600080fd5b60008083601f8401126112a057600080fd5b50813567ffffffffffffffff8111156112b857600080fd5b602083019150836020828501011115610b3e57600080fd5b60008060008060008060008060a0898b0312156112ec57600080fd5b6112f58961114a565b975061130360208a0161114a565b9650604089013567ffffffffffffffff8082111561132057600080fd5b61132c8c838d01611249565b909850965060608b013591508082111561134557600080fd5b6113518c838d01611249565b909650945060808b013591508082111561136a57600080fd5b506113778b828c0161128e565b999c989b5096995094979396929594505050565b6000806000604084860312156113a057600080fd5b833567ffffffffffffffff8111156113b757600080fd5b6113c386828701611249565b909790965060209590950135949350505050565b600080600080604085870312156113ed57600080fd5b843567ffffffffffffffff8082111561140557600080fd5b61141188838901611249565b9096509450602087013591508082111561142a57600080fd5b5061143787828801611249565b95989497509550505050565b600081518084526020808501945080840160005b8381101561147357815187529582019590820190600101611457565b509495945050505050565b6020815260006111c66020830184611443565b600080604083850312156114a457600080fd5b6114ad8361114a565b9150602083013580151581146114c257600080fd5b809150509250929050565b600080604083850312156114e057600080fd5b50508035926020909101359150565b6040815260006115026040830185611443565b90508260208301529392505050565b60006020828403121561152357600080fd5b6111c68261114a565b6000806040838503121561153f57600080fd5b6115488361114a565b91506115566020840161114a565b90509250929050565b60008060008060008060a0878903121561157857600080fd5b6115818761114a565b955061158f6020880161114a565b94506040870135935060608701359250608087013567ffffffffffffffff8111156115b957600080fd5b6115c589828a0161128e565b979a9699509497509295939492505050565b634e487b7160e01b600052604160045260246000fd5b6000602082840312156115ff57600080fd5b815167ffffffffffffffff8082111561161757600080fd5b818401915084601f83011261162b57600080fd5b81518181111561163d5761163d6115d7565b604051601f8201601f19908116603f01168101908382118183101715611665576116656115d7565b8160405282815287602084870101111561167e57600080fd5b61168f8360208301602088016111e6565b979650505050505050565b600084516116ac8184602089016111e6565b8451908301906116c08183602089016111e6565b84519101906116d38183602088016111e6565b0195945050505050565b634e487b7160e01b600052603260045260246000fd5b634e487b7160e01b600052601160045260246000fd5b8181038181111561035a5761035a6116f3565b8082018082111561035a5761035a6116f3565b81835260006001600160fb1b0383111561174857600080fd5b8260051b80836020870137939093016020019392505050565b60408152600061177560408301868861172f565b828103602084015261168f81858761172f565b81835281816020850137506000828201602090810191909152601f909101601f19169091010190565b6001600160a01b0389811682528816602082015260a0604082018190526000906117de908301888a61172f565b82810360608401526117f181878961172f565b90508281036080840152611806818587611788565b9b9a5050505050505050505050565b60006020828403121561182757600080fd5b81516111c681611190565b60208082526010908201526f155394d0519157d49150d2541251539560821b604082015260600190565b6020808252600c908201526b15539055551213d49256915160a21b604082015260600190565b6001600160a01b03878116825286166020820152604081018590526060810184905260a0608082018190526000906118bd9083018486611788565b98975050505050505050565b6001600160a01b03868116825285166020820152604081018490526060810183905260a06080820181905260009061168f9083018461120a56fea26469706673582212200d9e0332144600253db089515516710cf68f97126d560bead5cfd6540711a04064736f6c63430008110033",
					"opcodes": "PUSH1 0x80 PUSH1 0x40 MSTORE CALLVALUE DUP1 ISZERO PUSH2 0x10 JUMPI PUSH1 0x0 DUP1 REVERT JUMPDEST POP PUSH1 0x3 DUP1 SLOAD PUSH1 0xFF NOT AND SWAP1 SSTORE PUSH2 0x1939 DUP1 PUSH2 0x2A PUSH1 0x0 CODECOPY PUSH1 0x0 RETURN INVALID PUSH1 0x80 PUSH1 0x40 MSTORE CALLVALUE DUP1 ISZERO PUSH2 0x10 JUMPI PUSH1 0x0 DUP1 REVERT JUMPDEST POP PUSH1 0x4 CALLDATASIZE LT PUSH2 0x120 JUMPI PUSH1 0x0 CALLDATALOAD PUSH1 0xE0 SHR DUP1 PUSH4 0x7CB64759 GT PUSH2 0xAD JUMPI DUP1 PUSH4 0xC45A0155 GT PUSH2 0x71 JUMPI DUP1 PUSH4 0xC45A0155 EQ PUSH2 0x284 JUMPI DUP1 PUSH4 0xC4D66DE8 EQ PUSH2 0x297 JUMPI DUP1 PUSH4 0xE985E9C5 EQ PUSH2 0x2AA JUMPI DUP1 PUSH4 0xF242432A EQ PUSH2 0x2D8 JUMPI DUP1 PUSH4 0xFB2852DD EQ PUSH2 0x2EB JUMPI PUSH1 0x0 DUP1 REVERT JUMPDEST DUP1 PUSH4 0x7CB64759 EQ PUSH2 0x20A JUMPI DUP1 PUSH4 0x8456CB59 EQ PUSH2 0x21D JUMPI DUP1 PUSH4 0x8DA5CB5B EQ PUSH2 0x225 JUMPI DUP1 PUSH4 0xA22CB465 EQ PUSH2 0x250 JUMPI DUP1 PUSH4 0xB5175616 EQ PUSH2 0x263 JUMPI PUSH1 0x0 DUP1 REVERT JUMPDEST DUP1 PUSH4 0x2EB4A7AB GT PUSH2 0xF4 JUMPI DUP1 PUSH4 0x2EB4A7AB EQ PUSH2 0x1BB JUMPI DUP1 PUSH4 0x3B439351 EQ PUSH2 0x1C4 JUMPI DUP1 PUSH4 0x3F4BA83A EQ PUSH2 0x1D7 JUMPI DUP1 PUSH4 0x4E1273F4 EQ PUSH2 0x1DF JUMPI DUP1 PUSH4 0x5C975ABB EQ PUSH2 0x1FF JUMPI PUSH1 0x0 DUP1 REVERT JUMPDEST DUP1 PUSH3 0xFDD58E EQ PUSH2 0x125 JUMPI DUP1 PUSH4 0x1FFC9A7 EQ PUSH2 0x163 JUMPI DUP1 PUSH4 0xE89341C EQ PUSH2 0x186 JUMPI DUP1 PUSH4 0x2EB2C2D6 EQ PUSH2 0x1A6 JUMPI JUMPDEST PUSH1 0x0 DUP1 REVERT JUMPDEST PUSH2 0x150 PUSH2 0x133 CALLDATASIZE PUSH1 0x4 PUSH2 0x1166 JUMP JUMPDEST PUSH1 0x1 PUSH1 0x20 SWAP1 DUP2 MSTORE PUSH1 0x0 SWAP3 DUP4 MSTORE PUSH1 0x40 DUP1 DUP5 KECCAK256 SWAP1 SWAP2 MSTORE SWAP1 DUP3 MSTORE SWAP1 KECCAK256 SLOAD DUP2 JUMP JUMPDEST PUSH1 0x40 MLOAD SWAP1 DUP2 MSTORE PUSH1 0x20 ADD JUMPDEST PUSH1 0x40 MLOAD DUP1 SWAP2 SUB SWAP1 RETURN JUMPDEST PUSH2 0x176 PUSH2 0x171 CALLDATASIZE PUSH1 0x4 PUSH2 0x11A9 JUMP JUMPDEST PUSH2 0x30E JUMP JUMPDEST PUSH1 0x40 MLOAD SWAP1 ISZERO ISZERO DUP2 MSTORE PUSH1 0x20 ADD PUSH2 0x15A JUMP JUMPDEST PUSH2 0x199 PUSH2 0x194 CALLDATASIZE PUSH1 0x4 PUSH2 0x11CD JUMP JUMPDEST PUSH2 0x360 JUMP JUMPDEST PUSH1 0x40 MLOAD PUSH2 0x15A SWAP2 SWAP1 PUSH2 0x1236 JUMP JUMPDEST PUSH2 0x1B9 PUSH2 0x1B4 CALLDATASIZE PUSH1 0x4 PUSH2 0x12D0 JUMP JUMPDEST PUSH2 0x443 JUMP JUMPDEST STOP JUMPDEST PUSH2 0x150 PUSH1 0xA SLOAD DUP2 JUMP JUMPDEST PUSH2 0x1B9 PUSH2 0x1D2 CALLDATASIZE PUSH1 0x4 PUSH2 0x138B JUMP JUMPDEST PUSH2 0x6EF JUMP JUMPDEST PUSH2 0x1B9 PUSH2 0x814 JUMP JUMPDEST PUSH2 0x1F2 PUSH2 0x1ED CALLDATASIZE PUSH1 0x4 PUSH2 0x13D7 JUMP JUMPDEST PUSH2 0x848 JUMP JUMPDEST PUSH1 0x40 MLOAD PUSH2 0x15A SWAP2 SWAP1 PUSH2 0x147E JUMP JUMPDEST PUSH1 0x3 SLOAD PUSH1 0xFF AND PUSH2 0x176 JUMP JUMPDEST PUSH2 0x1B9 PUSH2 0x218 CALLDATASIZE PUSH1 0x4 PUSH2 0x11CD JUMP JUMPDEST PUSH2 0x97E JUMP JUMPDEST PUSH2 0x1B9 PUSH2 0x9AD JUMP JUMPDEST PUSH1 0x8 SLOAD PUSH2 0x238 SWAP1 PUSH1 0x1 PUSH1 0x1 PUSH1 0xA0 SHL SUB AND DUP2 JUMP JUMPDEST PUSH1 0x40 MLOAD PUSH1 0x1 PUSH1 0x1 PUSH1 0xA0 SHL SUB SWAP1 SWAP2 AND DUP2 MSTORE PUSH1 0x20 ADD PUSH2 0x15A JUMP JUMPDEST PUSH2 0x1B9 PUSH2 0x25E CALLDATASIZE PUSH1 0x4 PUSH2 0x1491 JUMP JUMPDEST PUSH2 0x9DF JUMP JUMPDEST PUSH2 0x276 PUSH2 0x271 CALLDATASIZE PUSH1 0x4 PUSH2 0x14CD JUMP JUMPDEST PUSH2 0xA4B JUMP JUMPDEST PUSH1 0x40 MLOAD PUSH2 0x15A SWAP3 SWAP2 SWAP1 PUSH2 0x14EF JUMP JUMPDEST PUSH1 0x9 SLOAD PUSH2 0x238 SWAP1 PUSH1 0x1 PUSH1 0x1 PUSH1 0xA0 SHL SUB AND DUP2 JUMP JUMPDEST PUSH2 0x1B9 PUSH2 0x2A5 CALLDATASIZE PUSH1 0x4 PUSH2 0x1511 JUMP JUMPDEST PUSH2 0xB45 JUMP JUMPDEST PUSH2 0x176 PUSH2 0x2B8 CALLDATASIZE PUSH1 0x4 PUSH2 0x152C JUMP JUMPDEST PUSH1 0x2 PUSH1 0x20 SWAP1 DUP2 MSTORE PUSH1 0x0 SWAP3 DUP4 MSTORE PUSH1 0x40 DUP1 DUP5 KECCAK256 SWAP1 SWAP2 MSTORE SWAP1 DUP3 MSTORE SWAP1 KECCAK256 SLOAD PUSH1 0xFF AND DUP2 JUMP JUMPDEST PUSH2 0x1B9 PUSH2 0x2E6 CALLDATASIZE PUSH1 0x4 PUSH2 0x155F JUMP JUMPDEST PUSH2 0xCAA JUMP JUMPDEST PUSH2 0x176 PUSH2 0x2F9 CALLDATASIZE PUSH1 0x4 PUSH2 0x1511 JUMP JUMPDEST PUSH1 0x5 PUSH1 0x20 MSTORE PUSH1 0x0 SWAP1 DUP2 MSTORE PUSH1 0x40 SWAP1 KECCAK256 SLOAD PUSH1 0xFF AND DUP2 JUMP JUMPDEST PUSH1 0x0 PUSH4 0x1FFC9A7 PUSH1 0xE0 SHL PUSH1 0x1 PUSH1 0x1 PUSH1 0xE0 SHL SUB NOT DUP4 AND EQ DUP1 PUSH2 0x33F JUMPI POP PUSH4 0x6CDB3D13 PUSH1 0xE1 SHL PUSH1 0x1 PUSH1 0x1 PUSH1 0xE0 SHL SUB NOT DUP4 AND EQ JUMPDEST DUP1 PUSH2 0x35A JUMPI POP PUSH4 0x3A24D07 PUSH1 0xE2 SHL PUSH1 0x1 PUSH1 0x1 PUSH1 0xE0 SHL SUB NOT DUP4 AND EQ JUMPDEST SWAP3 SWAP2 POP POP JUMP JUMPDEST PUSH1 0x9 SLOAD PUSH1 0x40 DUP1 MLOAD PUSH4 0x1D59313F PUSH1 0xE3 SHL DUP2 MSTORE SWAP1 MLOAD PUSH1 0x60 SWAP3 PUSH1 0x1 PUSH1 0x1 PUSH1 0xA0 SHL SUB AND SWAP2 PUSH4 0xEAC989F8 SWAP2 PUSH1 0x4 DUP1 DUP4 ADD SWAP3 PUSH1 0x0 SWAP3 SWAP2 SWAP1 DUP3 SWAP1 SUB ADD DUP2 DUP7 GAS STATICCALL ISZERO DUP1 ISZERO PUSH2 0x3AA JUMPI RETURNDATASIZE PUSH1 0x0 DUP1 RETURNDATACOPY RETURNDATASIZE PUSH1 0x0 REVERT JUMPDEST POP POP POP POP PUSH1 0x40 MLOAD RETURNDATASIZE PUSH1 0x0 DUP3 RETURNDATACOPY PUSH1 0x1F RETURNDATASIZE SWAP1 DUP2 ADD PUSH1 0x1F NOT AND DUP3 ADD PUSH1 0x40 MSTORE PUSH2 0x3D2 SWAP2 SWAP1 DUP2 ADD SWAP1 PUSH2 0x15ED JUMP JUMPDEST PUSH1 0x9 SLOAD PUSH1 0x40 MLOAD PUSH1 0x60 SWAP2 SWAP1 SWAP2 SHL PUSH12 0xFFFFFFFFFFFFFFFFFFFFFFFF NOT AND PUSH1 0x20 DUP3 ADD MSTORE PUSH1 0x34 ADD PUSH1 0x40 DUP1 MLOAD PUSH1 0x1F NOT DUP2 DUP5 SUB ADD DUP2 MSTORE DUP3 DUP3 MSTORE PUSH1 0x20 DUP4 ADD DUP7 SWAP1 MSTORE SWAP2 ADD PUSH1 0x40 DUP1 MLOAD PUSH1 0x1F NOT DUP2 DUP5 SUB ADD DUP2 MSTORE SWAP1 DUP3 SWAP1 MSTORE PUSH2 0x42D SWAP4 SWAP3 SWAP2 PUSH1 0x20 ADD PUSH2 0x169A JUMP JUMPDEST PUSH1 0x40 MLOAD PUSH1 0x20 DUP2 DUP4 SUB SUB DUP2 MSTORE SWAP1 PUSH1 0x40 MSTORE SWAP1 POP SWAP2 SWAP1 POP JUMP JUMPDEST DUP5 DUP4 EQ PUSH2 0x489 JUMPI PUSH1 0x40 MLOAD PUSH3 0x461BCD PUSH1 0xE5 SHL DUP2 MSTORE PUSH1 0x20 PUSH1 0x4 DUP3 ADD MSTORE PUSH1 0xF PUSH1 0x24 DUP3 ADD MSTORE PUSH15 0x988A9C8EA890BE9A92A69A82A8869 PUSH1 0x8B SHL PUSH1 0x44 DUP3 ADD MSTORE PUSH1 0x64 ADD JUMPDEST PUSH1 0x40 MLOAD DUP1 SWAP2 SUB SWAP1 REVERT JUMPDEST CALLER PUSH1 0x1 PUSH1 0x1 PUSH1 0xA0 SHL SUB DUP10 AND EQ DUP1 PUSH2 0x4C3 JUMPI POP PUSH1 0x1 PUSH1 0x1 PUSH1 0xA0 SHL SUB DUP9 AND PUSH1 0x0 SWAP1 DUP2 MSTORE PUSH1 0x2 PUSH1 0x20 SWAP1 DUP2 MSTORE PUSH1 0x40 DUP1 DUP4 KECCAK256 CALLER DUP5 MSTORE SWAP1 SWAP2 MSTORE SWAP1 KECCAK256 SLOAD PUSH1 0xFF AND JUMPDEST PUSH2 0x500 JUMPI PUSH1 0x40 MLOAD PUSH3 0x461BCD PUSH1 0xE5 SHL DUP2 MSTORE PUSH1 0x20 PUSH1 0x4 DUP3 ADD MSTORE PUSH1 0xE PUSH1 0x24 DUP3 ADD MSTORE PUSH14 0x1393D517D055551213D492569151 PUSH1 0x92 SHL PUSH1 0x44 DUP3 ADD MSTORE PUSH1 0x64 ADD PUSH2 0x480 JUMP JUMPDEST PUSH1 0x0 DUP1 PUSH1 0x0 JUMPDEST DUP8 DUP2 LT ISZERO PUSH2 0x5BF JUMPI DUP9 DUP9 DUP3 DUP2 DUP2 LT PUSH2 0x520 JUMPI PUSH2 0x520 PUSH2 0x16DD JUMP JUMPDEST SWAP1 POP PUSH1 0x20 MUL ADD CALLDATALOAD SWAP3 POP DUP7 DUP7 DUP3 DUP2 DUP2 LT PUSH2 0x53B JUMPI PUSH2 0x53B PUSH2 0x16DD JUMP JUMPDEST PUSH1 0x1 PUSH1 0x1 PUSH1 0xA0 SHL SUB DUP15 AND PUSH1 0x0 SWAP1 DUP2 MSTORE PUSH1 0x1 PUSH1 0x20 SWAP1 DUP2 MSTORE PUSH1 0x40 DUP1 DUP4 KECCAK256 DUP10 DUP5 MSTORE DUP3 MSTORE DUP3 KECCAK256 DUP1 SLOAD SWAP4 SWAP1 SWAP2 MUL SWAP5 SWAP1 SWAP5 ADD CALLDATALOAD SWAP6 POP DUP6 SWAP4 SWAP3 POP SWAP1 PUSH2 0x57A SWAP1 DUP5 SWAP1 PUSH2 0x1709 JUMP JUMPDEST SWAP1 SWAP2 SSTORE POP POP PUSH1 0x1 PUSH1 0x1 PUSH1 0xA0 SHL SUB DUP11 AND PUSH1 0x0 SWAP1 DUP2 MSTORE PUSH1 0x1 PUSH1 0x20 SWAP1 DUP2 MSTORE PUSH1 0x40 DUP1 DUP4 KECCAK256 DUP7 DUP5 MSTORE SWAP1 SWAP2 MSTORE DUP2 KECCAK256 DUP1 SLOAD DUP5 SWAP3 SWAP1 PUSH2 0x5B2 SWAP1 DUP5 SWAP1 PUSH2 0x171C JUMP JUMPDEST SWAP1 SWAP2 SSTORE POP POP PUSH1 0x1 ADD PUSH2 0x506 JUMP JUMPDEST POP DUP9 PUSH1 0x1 PUSH1 0x1 PUSH1 0xA0 SHL SUB AND DUP11 PUSH1 0x1 PUSH1 0x1 PUSH1 0xA0 SHL SUB AND CALLER PUSH1 0x1 PUSH1 0x1 PUSH1 0xA0 SHL SUB AND PUSH32 0x4A39DC06D4C0DBC64B70AF90FD698A233A518AA5D07E595D983B8C0526C8F7FB DUP12 DUP12 DUP12 DUP12 PUSH1 0x40 MLOAD PUSH2 0x613 SWAP5 SWAP4 SWAP3 SWAP2 SWAP1 PUSH2 0x1761 JUMP JUMPDEST PUSH1 0x40 MLOAD DUP1 SWAP2 SUB SWAP1 LOG4 PUSH1 0x1 PUSH1 0x1 PUSH1 0xA0 SHL SUB DUP10 AND EXTCODESIZE ISZERO PUSH2 0x6BA JUMPI PUSH1 0x40 MLOAD PUSH4 0xBC197C81 PUSH1 0xE0 SHL DUP1 DUP3 MSTORE SWAP1 PUSH1 0x1 PUSH1 0x1 PUSH1 0xA0 SHL SUB DUP12 AND SWAP1 PUSH4 0xBC197C81 SWAP1 PUSH2 0x667 SWAP1 CALLER SWAP1 DUP16 SWAP1 DUP15 SWAP1 DUP15 SWAP1 DUP15 SWAP1 DUP15 SWAP1 DUP15 SWAP1 DUP15 SWAP1 PUSH1 0x4 ADD PUSH2 0x17B1 JUMP JUMPDEST PUSH1 0x20 PUSH1 0x40 MLOAD DUP1 DUP4 SUB DUP2 PUSH1 0x0 DUP8 GAS CALL ISZERO DUP1 ISZERO PUSH2 0x686 JUMPI RETURNDATASIZE PUSH1 0x0 DUP1 RETURNDATACOPY RETURNDATASIZE PUSH1 0x0 REVERT JUMPDEST POP POP POP POP PUSH1 0x40 MLOAD RETURNDATASIZE PUSH1 0x1F NOT PUSH1 0x1F DUP3 ADD AND DUP3 ADD DUP1 PUSH1 0x40 MSTORE POP DUP2 ADD SWAP1 PUSH2 0x6AA SWAP2 SWAP1 PUSH2 0x1815 JUMP JUMPDEST PUSH1 0x1 PUSH1 0x1 PUSH1 0xE0 SHL SUB NOT AND EQ PUSH2 0x6C7 JUMP JUMPDEST PUSH1 0x1 PUSH1 0x1 PUSH1 0xA0 SHL SUB DUP10 AND ISZERO ISZERO JUMPDEST PUSH2 0x6E3 JUMPI PUSH1 0x40 MLOAD PUSH3 0x461BCD PUSH1 0xE5 SHL DUP2 MSTORE PUSH1 0x4 ADD PUSH2 0x480 SWAP1 PUSH2 0x1832 JUMP JUMPDEST POP POP POP POP POP POP POP POP POP POP JUMP JUMPDEST PUSH2 0x6F7 PUSH2 0xEA8 JUMP JUMPDEST PUSH1 0x40 MLOAD PUSH12 0xFFFFFFFFFFFFFFFFFFFFFFFF NOT CALLER PUSH1 0x60 SHL AND PUSH1 0x20 DUP3 ADD MSTORE PUSH1 0x34 DUP2 ADD DUP3 SWAP1 MSTORE PUSH1 0x0 SWAP1 PUSH1 0x54 ADD PUSH1 0x40 MLOAD PUSH1 0x20 DUP2 DUP4 SUB SUB DUP2 MSTORE SWAP1 PUSH1 0x40 MSTORE DUP1 MLOAD SWAP1 PUSH1 0x20 ADD KECCAK256 SWAP1 POP PUSH1 0x0 PUSH2 0x747 DUP6 DUP6 PUSH1 0xA SLOAD DUP6 PUSH2 0xEEE JUMP JUMPDEST SWAP1 POP DUP1 PUSH2 0x767 JUMPI PUSH1 0x40 MLOAD PUSH4 0xD453FCD PUSH1 0xE3 SHL DUP2 MSTORE PUSH1 0x4 ADD PUSH1 0x40 MLOAD DUP1 SWAP2 SUB SWAP1 REVERT JUMPDEST CALLER PUSH1 0x0 SWAP1 DUP2 MSTORE PUSH1 0x5 PUSH1 0x20 MSTORE PUSH1 0x40 SWAP1 KECCAK256 SLOAD PUSH1 0xFF AND ISZERO PUSH2 0x798 JUMPI PUSH1 0x40 MLOAD PUSH4 0xC8D9EAB PUSH1 0xE3 SHL DUP2 MSTORE PUSH1 0x4 ADD PUSH1 0x40 MLOAD DUP1 SWAP2 SUB SWAP1 REVERT JUMPDEST CALLER PUSH1 0x0 DUP2 DUP2 MSTORE PUSH1 0x5 PUSH1 0x20 SWAP1 DUP2 MSTORE PUSH1 0x40 DUP1 DUP4 KECCAK256 DUP1 SLOAD PUSH1 0xFF NOT AND PUSH1 0x1 SWAP1 DUP2 OR SWAP1 SWAP2 SSTORE PUSH1 0x6 DUP1 SLOAD DUP10 DUP7 MSTORE PUSH1 0x7 DUP6 MSTORE DUP4 DUP7 KECCAK256 DUP2 SWAP1 SSTORE DUP1 DUP4 ADD DUP3 SSTORE SWAP1 DUP6 MSTORE PUSH32 0xF652222313E28459528D920B65115C16C04F3EFC82AAEDC97BE59F3F377C0D3F ADD DUP9 SWAP1 SSTORE DUP2 MLOAD SWAP3 DUP4 ADD SWAP1 SWAP2 MSTORE SWAP2 DUP2 MSTORE PUSH2 0x80D SWAP3 SWAP2 DUP7 SWAP2 PUSH2 0xF28 JUMP JUMPDEST POP POP POP POP POP JUMP JUMPDEST PUSH1 0x8 SLOAD PUSH1 0x1 PUSH1 0x1 PUSH1 0xA0 SHL SUB AND CALLER EQ PUSH2 0x83E JUMPI PUSH1 0x40 MLOAD PUSH3 0x461BCD PUSH1 0xE5 SHL DUP2 MSTORE PUSH1 0x4 ADD PUSH2 0x480 SWAP1 PUSH2 0x185C JUMP JUMPDEST PUSH2 0x846 PUSH2 0x1072 JUMP JUMPDEST JUMP JUMPDEST PUSH1 0x60 DUP4 DUP3 EQ PUSH2 0x88B JUMPI PUSH1 0x40 MLOAD PUSH3 0x461BCD PUSH1 0xE5 SHL DUP2 MSTORE PUSH1 0x20 PUSH1 0x4 DUP3 ADD MSTORE PUSH1 0xF PUSH1 0x24 DUP3 ADD MSTORE PUSH15 0x988A9C8EA890BE9A92A69A82A8869 PUSH1 0x8B SHL PUSH1 0x44 DUP3 ADD MSTORE PUSH1 0x64 ADD PUSH2 0x480 JUMP JUMPDEST DUP4 PUSH8 0xFFFFFFFFFFFFFFFF DUP2 GT ISZERO PUSH2 0x8A4 JUMPI PUSH2 0x8A4 PUSH2 0x15D7 JUMP JUMPDEST PUSH1 0x40 MLOAD SWAP1 DUP1 DUP3 MSTORE DUP1 PUSH1 0x20 MUL PUSH1 0x20 ADD DUP3 ADD PUSH1 0x40 MSTORE DUP1 ISZERO PUSH2 0x8CD JUMPI DUP2 PUSH1 0x20 ADD PUSH1 0x20 DUP3 MUL DUP1 CALLDATASIZE DUP4 CALLDATACOPY ADD SWAP1 POP JUMPDEST POP SWAP1 POP PUSH1 0x0 JUMPDEST DUP5 DUP2 LT ISZERO PUSH2 0x975 JUMPI PUSH1 0x1 PUSH1 0x0 DUP8 DUP8 DUP5 DUP2 DUP2 LT PUSH2 0x8F1 JUMPI PUSH2 0x8F1 PUSH2 0x16DD JUMP JUMPDEST SWAP1 POP PUSH1 0x20 MUL ADD PUSH1 0x20 DUP2 ADD SWAP1 PUSH2 0x906 SWAP2 SWAP1 PUSH2 0x1511 JUMP JUMPDEST PUSH1 0x1 PUSH1 0x1 PUSH1 0xA0 SHL SUB AND PUSH1 0x1 PUSH1 0x1 PUSH1 0xA0 SHL SUB AND DUP2 MSTORE PUSH1 0x20 ADD SWAP1 DUP2 MSTORE PUSH1 0x20 ADD PUSH1 0x0 KECCAK256 PUSH1 0x0 DUP6 DUP6 DUP5 DUP2 DUP2 LT PUSH2 0x93A JUMPI PUSH2 0x93A PUSH2 0x16DD JUMP JUMPDEST SWAP1 POP PUSH1 0x20 MUL ADD CALLDATALOAD DUP2 MSTORE PUSH1 0x20 ADD SWAP1 DUP2 MSTORE PUSH1 0x20 ADD PUSH1 0x0 KECCAK256 SLOAD DUP3 DUP3 DUP2 MLOAD DUP2 LT PUSH2 0x962 JUMPI PUSH2 0x962 PUSH2 0x16DD JUMP JUMPDEST PUSH1 0x20 SWAP1 DUP2 MUL SWAP2 SWAP1 SWAP2 ADD ADD MSTORE PUSH1 0x1 ADD PUSH2 0x8D3 JUMP JUMPDEST POP SWAP5 SWAP4 POP POP POP POP JUMP JUMPDEST PUSH1 0x8 SLOAD PUSH1 0x1 PUSH1 0x1 PUSH1 0xA0 SHL SUB AND CALLER EQ PUSH2 0x9A8 JUMPI PUSH1 0x40 MLOAD PUSH3 0x461BCD PUSH1 0xE5 SHL DUP2 MSTORE PUSH1 0x4 ADD PUSH2 0x480 SWAP1 PUSH2 0x185C JUMP JUMPDEST PUSH1 0xA SSTORE JUMP JUMPDEST PUSH1 0x8 SLOAD PUSH1 0x1 PUSH1 0x1 PUSH1 0xA0 SHL SUB AND CALLER EQ PUSH2 0x9D7 JUMPI PUSH1 0x40 MLOAD PUSH3 0x461BCD PUSH1 0xE5 SHL DUP2 MSTORE PUSH1 0x4 ADD PUSH2 0x480 SWAP1 PUSH2 0x185C JUMP JUMPDEST PUSH2 0x846 PUSH2 0x10C4 JUMP JUMPDEST CALLER PUSH1 0x0 DUP2 DUP2 MSTORE PUSH1 0x2 PUSH1 0x20 SWAP1 DUP2 MSTORE PUSH1 0x40 DUP1 DUP4 KECCAK256 PUSH1 0x1 PUSH1 0x1 PUSH1 0xA0 SHL SUB DUP8 AND DUP1 DUP6 MSTORE SWAP1 DUP4 MSTORE SWAP3 DUP2 SWAP1 KECCAK256 DUP1 SLOAD PUSH1 0xFF NOT AND DUP7 ISZERO ISZERO SWAP1 DUP2 OR SWAP1 SWAP2 SSTORE SWAP1 MLOAD SWAP1 DUP2 MSTORE SWAP2 SWAP3 SWAP2 PUSH32 0x17307EAB39AB6107E8899845AD3D59BD9653F200F220920489CA2B5937696C31 SWAP2 ADD PUSH1 0x40 MLOAD DUP1 SWAP2 SUB SWAP1 LOG3 POP POP JUMP JUMPDEST PUSH1 0x6 SLOAD PUSH1 0x60 SWAP1 PUSH1 0x0 SWAP1 DUP1 DUP3 SUB PUSH2 0xA74 JUMPI POP POP PUSH1 0x40 DUP1 MLOAD PUSH1 0x0 DUP1 DUP3 MSTORE PUSH1 0x20 DUP3 ADD SWAP1 SWAP3 MSTORE SWAP2 POP PUSH2 0xB3E JUMP JUMPDEST DUP1 DUP6 LT PUSH2 0xA93 JUMPI PUSH1 0x40 DUP1 MLOAD PUSH1 0x0 DUP2 MSTORE PUSH1 0x20 DUP2 ADD SWAP1 SWAP2 MSTORE SWAP3 POP SWAP1 POP PUSH2 0xB3E JUMP JUMPDEST DUP5 DUP2 SUB DUP5 DUP2 GT ISZERO PUSH2 0xAA1 JUMPI POP DUP4 JUMPDEST DUP1 PUSH8 0xFFFFFFFFFFFFFFFF DUP2 GT ISZERO PUSH2 0xABA JUMPI PUSH2 0xABA PUSH2 0x15D7 JUMP JUMPDEST PUSH1 0x40 MLOAD SWAP1 DUP1 DUP3 MSTORE DUP1 PUSH1 0x20 MUL PUSH1 0x20 ADD DUP3 ADD PUSH1 0x40 MSTORE DUP1 ISZERO PUSH2 0xAE3 JUMPI DUP2 PUSH1 0x20 ADD PUSH1 0x20 DUP3 MUL DUP1 CALLDATASIZE DUP4 CALLDATACOPY ADD SWAP1 POP JUMPDEST POP SWAP4 POP PUSH1 0x0 JUMPDEST DUP2 DUP2 EQ PUSH2 0xB37 JUMPI PUSH1 0x6 DUP8 DUP2 SLOAD DUP2 LT PUSH2 0xB03 JUMPI PUSH2 0xB03 PUSH2 0x16DD JUMP JUMPDEST SWAP1 PUSH1 0x0 MSTORE PUSH1 0x20 PUSH1 0x0 KECCAK256 ADD SLOAD DUP6 DUP3 DUP2 MLOAD DUP2 LT PUSH2 0xB20 JUMPI PUSH2 0xB20 PUSH2 0x16DD JUMP JUMPDEST PUSH1 0x20 SWAP1 DUP2 MUL SWAP2 SWAP1 SWAP2 ADD ADD MSTORE PUSH1 0x1 SWAP7 DUP8 ADD SWAP7 ADD PUSH2 0xAE9 JUMP JUMPDEST POP DUP6 SWAP3 POP POP POP JUMPDEST SWAP3 POP SWAP3 SWAP1 POP JUMP JUMPDEST PUSH1 0x0 SLOAD PUSH2 0x100 SWAP1 DIV PUSH1 0xFF AND ISZERO DUP1 DUP1 ISZERO PUSH2 0xB65 JUMPI POP PUSH1 0x0 SLOAD PUSH1 0x1 PUSH1 0xFF SWAP1 SWAP2 AND LT JUMPDEST DUP1 PUSH2 0xB7F JUMPI POP ADDRESS EXTCODESIZE ISZERO DUP1 ISZERO PUSH2 0xB7F JUMPI POP PUSH1 0x0 SLOAD PUSH1 0xFF AND PUSH1 0x1 EQ JUMPDEST PUSH2 0xBE2 JUMPI PUSH1 0x40 MLOAD PUSH3 0x461BCD PUSH1 0xE5 SHL DUP2 MSTORE PUSH1 0x20 PUSH1 0x4 DUP3 ADD MSTORE PUSH1 0x2E PUSH1 0x24 DUP3 ADD MSTORE PUSH32 0x496E697469616C697A61626C653A20636F6E747261637420697320616C726561 PUSH1 0x44 DUP3 ADD MSTORE PUSH14 0x191E481A5B9A5D1A585B1A5E9959 PUSH1 0x92 SHL PUSH1 0x64 DUP3 ADD MSTORE PUSH1 0x84 ADD PUSH2 0x480 JUMP JUMPDEST PUSH1 0x0 DUP1 SLOAD PUSH1 0xFF NOT AND PUSH1 0x1 OR SWAP1 SSTORE DUP1 ISZERO PUSH2 0xC05 JUMPI PUSH1 0x0 DUP1 SLOAD PUSH2 0xFF00 NOT AND PUSH2 0x100 OR SWAP1 SSTORE JUMPDEST PUSH1 0x8 DUP1 SLOAD PUSH1 0x1 PUSH1 0x1 PUSH1 0xA0 SHL SUB NOT AND PUSH1 0x1 PUSH1 0x1 PUSH1 0xA0 SHL SUB DUP5 AND SWAP1 DUP2 OR SWAP1 SWAP2 SSTORE PUSH1 0x40 MLOAD PUSH1 0x0 SWAP1 PUSH32 0x8BE0079C531659141344CD1FD0A4F28419497F9722A3DAAFE3B4186F6B6457E0 SWAP1 DUP3 SWAP1 LOG3 PUSH1 0x9 DUP1 SLOAD PUSH1 0x1 PUSH1 0x1 PUSH1 0xA0 SHL SUB NOT AND CALLER OR SWAP1 SSTORE DUP1 ISZERO PUSH2 0xCA6 JUMPI PUSH1 0x0 DUP1 SLOAD PUSH2 0xFF00 NOT AND SWAP1 SSTORE PUSH1 0x40 MLOAD PUSH1 0x1 DUP2 MSTORE PUSH32 0x7F26B83FF96E1F2B6A682F133852F6798A09C465DA95921460CEFB3847402498 SWAP1 PUSH1 0x20 ADD PUSH1 0x40 MLOAD DUP1 SWAP2 SUB SWAP1 LOG1 JUMPDEST POP POP JUMP JUMPDEST CALLER PUSH1 0x1 PUSH1 0x1 PUSH1 0xA0 SHL SUB DUP8 AND EQ DUP1 PUSH2 0xCE4 JUMPI POP PUSH1 0x1 PUSH1 0x1 PUSH1 0xA0 SHL SUB DUP7 AND PUSH1 0x0 SWAP1 DUP2 MSTORE PUSH1 0x2 PUSH1 0x20 SWAP1 DUP2 MSTORE PUSH1 0x40 DUP1 DUP4 KECCAK256 CALLER DUP5 MSTORE SWAP1 SWAP2 MSTORE SWAP1 KECCAK256 SLOAD PUSH1 0xFF AND JUMPDEST PUSH2 0xD21 JUMPI PUSH1 0x40 MLOAD PUSH3 0x461BCD PUSH1 0xE5 SHL DUP2 MSTORE PUSH1 0x20 PUSH1 0x4 DUP3 ADD MSTORE PUSH1 0xE PUSH1 0x24 DUP3 ADD MSTORE PUSH14 0x1393D517D055551213D492569151 PUSH1 0x92 SHL PUSH1 0x44 DUP3 ADD MSTORE PUSH1 0x64 ADD PUSH2 0x480 JUMP JUMPDEST PUSH1 0x1 PUSH1 0x1 PUSH1 0xA0 SHL SUB DUP7 AND PUSH1 0x0 SWAP1 DUP2 MSTORE PUSH1 0x1 PUSH1 0x20 SWAP1 DUP2 MSTORE PUSH1 0x40 DUP1 DUP4 KECCAK256 DUP8 DUP5 MSTORE SWAP1 SWAP2 MSTORE DUP2 KECCAK256 DUP1 SLOAD DUP6 SWAP3 SWAP1 PUSH2 0xD54 SWAP1 DUP5 SWAP1 PUSH2 0x1709 JUMP JUMPDEST SWAP1 SWAP2 SSTORE POP POP PUSH1 0x1 PUSH1 0x1 PUSH1 0xA0 SHL SUB DUP6 AND PUSH1 0x0 SWAP1 DUP2 MSTORE PUSH1 0x1 PUSH1 0x20 SWAP1 DUP2 MSTORE PUSH1 0x40 DUP1 DUP4 KECCAK256 DUP8 DUP5 MSTORE SWAP1 SWAP2 MSTORE DUP2 KECCAK256 DUP1 SLOAD DUP6 SWAP3 SWAP1 PUSH2 0xD8C SWAP1 DUP5 SWAP1 PUSH2 0x171C JUMP JUMPDEST SWAP1 SWAP2 SSTORE POP POP PUSH1 0x40 DUP1 MLOAD DUP6 DUP2 MSTORE PUSH1 0x20 DUP2 ADD DUP6 SWAP1 MSTORE PUSH1 0x1 PUSH1 0x1 PUSH1 0xA0 SHL SUB DUP1 DUP9 AND SWAP3 SWAP1 DUP10 AND SWAP2 CALLER SWAP2 PUSH32 0xC3D58168C5AE7397731D063D5BBF3D657854427343F4C083240F7AACAA2D0F62 SWAP2 ADD PUSH1 0x40 MLOAD DUP1 SWAP2 SUB SWAP1 LOG4 PUSH1 0x1 PUSH1 0x1 PUSH1 0xA0 SHL SUB DUP6 AND EXTCODESIZE ISZERO PUSH2 0xE77 JUMPI PUSH1 0x40 MLOAD PUSH4 0xF23A6E61 PUSH1 0xE0 SHL DUP1 DUP3 MSTORE SWAP1 PUSH1 0x1 PUSH1 0x1 PUSH1 0xA0 SHL SUB DUP8 AND SWAP1 PUSH4 0xF23A6E61 SWAP1 PUSH2 0xE24 SWAP1 CALLER SWAP1 DUP12 SWAP1 DUP11 SWAP1 DUP11 SWAP1 DUP11 SWAP1 DUP11 SWAP1 PUSH1 0x4 ADD PUSH2 0x1882 JUMP JUMPDEST PUSH1 0x20 PUSH1 0x40 MLOAD DUP1 DUP4 SUB DUP2 PUSH1 0x0 DUP8 GAS CALL ISZERO DUP1 ISZERO PUSH2 0xE43 JUMPI RETURNDATASIZE PUSH1 0x0 DUP1 RETURNDATACOPY RETURNDATASIZE PUSH1 0x0 REVERT JUMPDEST POP POP POP POP PUSH1 0x40 MLOAD RETURNDATASIZE PUSH1 0x1F NOT PUSH1 0x1F DUP3 ADD AND DUP3 ADD DUP1 PUSH1 0x40 MSTORE POP DUP2 ADD SWAP1 PUSH2 0xE67 SWAP2 SWAP1 PUSH2 0x1815 JUMP JUMPDEST PUSH1 0x1 PUSH1 0x1 PUSH1 0xE0 SHL SUB NOT AND EQ PUSH2 0xE84 JUMP JUMPDEST PUSH1 0x1 PUSH1 0x1 PUSH1 0xA0 SHL SUB DUP6 AND ISZERO ISZERO JUMPDEST PUSH2 0xEA0 JUMPI PUSH1 0x40 MLOAD PUSH3 0x461BCD PUSH1 0xE5 SHL DUP2 MSTORE PUSH1 0x4 ADD PUSH2 0x480 SWAP1 PUSH2 0x1832 JUMP JUMPDEST POP POP POP POP POP POP JUMP JUMPDEST PUSH1 0x3 SLOAD PUSH1 0xFF AND ISZERO PUSH2 0x846 JUMPI PUSH1 0x40 MLOAD PUSH3 0x461BCD PUSH1 0xE5 SHL DUP2 MSTORE PUSH1 0x20 PUSH1 0x4 DUP3 ADD MSTORE PUSH1 0x10 PUSH1 0x24 DUP3 ADD MSTORE PUSH16 0x14185D5CD8589B194E881C185D5CD959 PUSH1 0x82 SHL PUSH1 0x44 DUP3 ADD MSTORE PUSH1 0x64 ADD PUSH2 0x480 JUMP JUMPDEST PUSH1 0x0 DUP4 ISZERO PUSH2 0xF20 JUMPI DUP4 PUSH1 0x5 SHL DUP6 ADD DUP6 JUMPDEST DUP1 CALLDATALOAD DUP1 DUP6 GT PUSH1 0x5 SHL SWAP5 DUP6 MSTORE PUSH1 0x20 SWAP5 DUP6 XOR MSTORE PUSH1 0x40 PUSH1 0x0 KECCAK256 SWAP4 ADD DUP2 DUP2 LT PUSH2 0xEFE JUMPI POP POP JUMPDEST POP EQ SWAP3 SWAP2 POP POP JUMP JUMPDEST PUSH1 0x1 PUSH1 0x1 PUSH1 0xA0 SHL SUB DUP5 AND PUSH1 0x0 SWAP1 DUP2 MSTORE PUSH1 0x1 PUSH1 0x20 SWAP1 DUP2 MSTORE PUSH1 0x40 DUP1 DUP4 KECCAK256 DUP7 DUP5 MSTORE SWAP1 SWAP2 MSTORE DUP2 KECCAK256 DUP1 SLOAD DUP5 SWAP3 SWAP1 PUSH2 0xF5B SWAP1 DUP5 SWAP1 PUSH2 0x171C JUMP JUMPDEST SWAP1 SWAP2 SSTORE POP POP PUSH1 0x40 DUP1 MLOAD DUP5 DUP2 MSTORE PUSH1 0x20 DUP2 ADD DUP5 SWAP1 MSTORE PUSH1 0x1 PUSH1 0x1 PUSH1 0xA0 SHL SUB DUP7 AND SWAP2 PUSH1 0x0 SWAP2 CALLER SWAP2 PUSH32 0xC3D58168C5AE7397731D063D5BBF3D657854427343F4C083240F7AACAA2D0F62 SWAP2 ADD PUSH1 0x40 MLOAD DUP1 SWAP2 SUB SWAP1 LOG4 PUSH1 0x1 PUSH1 0x1 PUSH1 0xA0 SHL SUB DUP5 AND EXTCODESIZE ISZERO PUSH2 0x1043 JUMPI PUSH1 0x40 MLOAD PUSH4 0xF23A6E61 PUSH1 0xE0 SHL DUP1 DUP3 MSTORE SWAP1 PUSH1 0x1 PUSH1 0x1 PUSH1 0xA0 SHL SUB DUP7 AND SWAP1 PUSH4 0xF23A6E61 SWAP1 PUSH2 0xFF0 SWAP1 CALLER SWAP1 PUSH1 0x0 SWAP1 DUP10 SWAP1 DUP10 SWAP1 DUP10 SWAP1 PUSH1 0x4 ADD PUSH2 0x18C9 JUMP JUMPDEST PUSH1 0x20 PUSH1 0x40 MLOAD DUP1 DUP4 SUB DUP2 PUSH1 0x0 DUP8 GAS CALL ISZERO DUP1 ISZERO PUSH2 0x100F JUMPI RETURNDATASIZE PUSH1 0x0 DUP1 RETURNDATACOPY RETURNDATASIZE PUSH1 0x0 REVERT JUMPDEST POP POP POP POP PUSH1 0x40 MLOAD RETURNDATASIZE PUSH1 0x1F NOT PUSH1 0x1F DUP3 ADD AND DUP3 ADD DUP1 PUSH1 0x40 MSTORE POP DUP2 ADD SWAP1 PUSH2 0x1033 SWAP2 SWAP1 PUSH2 0x1815 JUMP JUMPDEST PUSH1 0x1 PUSH1 0x1 PUSH1 0xE0 SHL SUB NOT AND EQ PUSH2 0x1050 JUMP JUMPDEST PUSH1 0x1 PUSH1 0x1 PUSH1 0xA0 SHL SUB DUP5 AND ISZERO ISZERO JUMPDEST PUSH2 0x106C JUMPI PUSH1 0x40 MLOAD PUSH3 0x461BCD PUSH1 0xE5 SHL DUP2 MSTORE PUSH1 0x4 ADD PUSH2 0x480 SWAP1 PUSH2 0x1832 JUMP JUMPDEST POP POP POP POP JUMP JUMPDEST PUSH2 0x107A PUSH2 0x1101 JUMP JUMPDEST PUSH1 0x3 DUP1 SLOAD PUSH1 0xFF NOT AND SWAP1 SSTORE PUSH32 0x5DB9EE0A495BF2E6FF9C91A7834C1BA4FDD244A5E8AA4E537BD38AEAE4B073AA CALLER JUMPDEST PUSH1 0x40 MLOAD PUSH1 0x1 PUSH1 0x1 PUSH1 0xA0 SHL SUB SWAP1 SWAP2 AND DUP2 MSTORE PUSH1 0x20 ADD PUSH1 0x40 MLOAD DUP1 SWAP2 SUB SWAP1 LOG1 JUMP JUMPDEST PUSH2 0x10CC PUSH2 0xEA8 JUMP JUMPDEST PUSH1 0x3 DUP1 SLOAD PUSH1 0xFF NOT AND PUSH1 0x1 OR SWAP1 SSTORE PUSH32 0x62E78CEA01BEE320CD4E420270B5EA74000D11B0C9F74754EBDBFC544B05A258 PUSH2 0x10A7 CALLER SWAP1 JUMP JUMPDEST PUSH1 0x3 SLOAD PUSH1 0xFF AND PUSH2 0x846 JUMPI PUSH1 0x40 MLOAD PUSH3 0x461BCD PUSH1 0xE5 SHL DUP2 MSTORE PUSH1 0x20 PUSH1 0x4 DUP3 ADD MSTORE PUSH1 0x14 PUSH1 0x24 DUP3 ADD MSTORE PUSH20 0x14185D5CD8589B194E881B9BDD081C185D5CD959 PUSH1 0x62 SHL PUSH1 0x44 DUP3 ADD MSTORE PUSH1 0x64 ADD PUSH2 0x480 JUMP JUMPDEST DUP1 CALLDATALOAD PUSH1 0x1 PUSH1 0x1 PUSH1 0xA0 SHL SUB DUP2 AND DUP2 EQ PUSH2 0x1161 JUMPI PUSH1 0x0 DUP1 REVERT JUMPDEST SWAP2 SWAP1 POP JUMP JUMPDEST PUSH1 0x0 DUP1 PUSH1 0x40 DUP4 DUP6 SUB SLT ISZERO PUSH2 0x1179 JUMPI PUSH1 0x0 DUP1 REVERT JUMPDEST PUSH2 0x1182 DUP4 PUSH2 0x114A JUMP JUMPDEST SWAP5 PUSH1 0x20 SWAP4 SWAP1 SWAP4 ADD CALLDATALOAD SWAP4 POP POP POP JUMP JUMPDEST PUSH1 0x1 PUSH1 0x1 PUSH1 0xE0 SHL SUB NOT DUP2 AND DUP2 EQ PUSH2 0x11A6 JUMPI PUSH1 0x0 DUP1 REVERT JUMPDEST POP JUMP JUMPDEST PUSH1 0x0 PUSH1 0x20 DUP3 DUP5 SUB SLT ISZERO PUSH2 0x11BB JUMPI PUSH1 0x0 DUP1 REVERT JUMPDEST DUP2 CALLDATALOAD PUSH2 0x11C6 DUP2 PUSH2 0x1190 JUMP JUMPDEST SWAP4 SWAP3 POP POP POP JUMP JUMPDEST PUSH1 0x0 PUSH1 0x20 DUP3 DUP5 SUB SLT ISZERO PUSH2 0x11DF JUMPI PUSH1 0x0 DUP1 REVERT JUMPDEST POP CALLDATALOAD SWAP2 SWAP1 POP JUMP JUMPDEST PUSH1 0x0 JUMPDEST DUP4 DUP2 LT ISZERO PUSH2 0x1201 JUMPI DUP2 DUP2 ADD MLOAD DUP4 DUP3 ADD MSTORE PUSH1 0x20 ADD PUSH2 0x11E9 JUMP JUMPDEST POP POP PUSH1 0x0 SWAP2 ADD MSTORE JUMP JUMPDEST PUSH1 0x0 DUP2 MLOAD DUP1 DUP5 MSTORE PUSH2 0x1222 DUP2 PUSH1 0x20 DUP7 ADD PUSH1 0x20 DUP7 ADD PUSH2 0x11E6 JUMP JUMPDEST PUSH1 0x1F ADD PUSH1 0x1F NOT AND SWAP3 SWAP1 SWAP3 ADD PUSH1 0x20 ADD SWAP3 SWAP2 POP POP JUMP JUMPDEST PUSH1 0x20 DUP2 MSTORE PUSH1 0x0 PUSH2 0x11C6 PUSH1 0x20 DUP4 ADD DUP5 PUSH2 0x120A JUMP JUMPDEST PUSH1 0x0 DUP1 DUP4 PUSH1 0x1F DUP5 ADD SLT PUSH2 0x125B JUMPI PUSH1 0x0 DUP1 REVERT JUMPDEST POP DUP2 CALLDATALOAD PUSH8 0xFFFFFFFFFFFFFFFF DUP2 GT ISZERO PUSH2 0x1273 JUMPI PUSH1 0x0 DUP1 REVERT JUMPDEST PUSH1 0x20 DUP4 ADD SWAP2 POP DUP4 PUSH1 0x20 DUP3 PUSH1 0x5 SHL DUP6 ADD ADD GT ISZERO PUSH2 0xB3E JUMPI PUSH1 0x0 DUP1 REVERT JUMPDEST PUSH1 0x0 DUP1 DUP4 PUSH1 0x1F DUP5 ADD SLT PUSH2 0x12A0 JUMPI PUSH1 0x0 DUP1 REVERT JUMPDEST POP DUP2 CALLDATALOAD PUSH8 0xFFFFFFFFFFFFFFFF DUP2 GT ISZERO PUSH2 0x12B8 JUMPI PUSH1 0x0 DUP1 REVERT JUMPDEST PUSH1 0x20 DUP4 ADD SWAP2 POP DUP4 PUSH1 0x20 DUP3 DUP6 ADD ADD GT ISZERO PUSH2 0xB3E JUMPI PUSH1 0x0 DUP1 REVERT JUMPDEST PUSH1 0x0 DUP1 PUSH1 0x0 DUP1 PUSH1 0x0 DUP1 PUSH1 0x0 DUP1 PUSH1 0xA0 DUP10 DUP12 SUB SLT ISZERO PUSH2 0x12EC JUMPI PUSH1 0x0 DUP1 REVERT JUMPDEST PUSH2 0x12F5 DUP10 PUSH2 0x114A JUMP JUMPDEST SWAP8 POP PUSH2 0x1303 PUSH1 0x20 DUP11 ADD PUSH2 0x114A JUMP JUMPDEST SWAP7 POP PUSH1 0x40 DUP10 ADD CALLDATALOAD PUSH8 0xFFFFFFFFFFFFFFFF DUP1 DUP3 GT ISZERO PUSH2 0x1320 JUMPI PUSH1 0x0 DUP1 REVERT JUMPDEST PUSH2 0x132C DUP13 DUP4 DUP14 ADD PUSH2 0x1249 JUMP JUMPDEST SWAP1 SWAP9 POP SWAP7 POP PUSH1 0x60 DUP12 ADD CALLDATALOAD SWAP2 POP DUP1 DUP3 GT ISZERO PUSH2 0x1345 JUMPI PUSH1 0x0 DUP1 REVERT JUMPDEST PUSH2 0x1351 DUP13 DUP4 DUP14 ADD PUSH2 0x1249 JUMP JUMPDEST SWAP1 SWAP7 POP SWAP5 POP PUSH1 0x80 DUP12 ADD CALLDATALOAD SWAP2 POP DUP1 DUP3 GT ISZERO PUSH2 0x136A JUMPI PUSH1 0x0 DUP1 REVERT JUMPDEST POP PUSH2 0x1377 DUP12 DUP3 DUP13 ADD PUSH2 0x128E JUMP JUMPDEST SWAP10 SWAP13 SWAP9 SWAP12 POP SWAP7 SWAP10 POP SWAP5 SWAP8 SWAP4 SWAP7 SWAP3 SWAP6 SWAP5 POP POP POP JUMP JUMPDEST PUSH1 0x0 DUP1 PUSH1 0x0 PUSH1 0x40 DUP5 DUP7 SUB SLT ISZERO PUSH2 0x13A0 JUMPI PUSH1 0x0 DUP1 REVERT JUMPDEST DUP4 CALLDATALOAD PUSH8 0xFFFFFFFFFFFFFFFF DUP2 GT ISZERO PUSH2 0x13B7 JUMPI PUSH1 0x0 DUP1 REVERT JUMPDEST PUSH2 0x13C3 DUP7 DUP3 DUP8 ADD PUSH2 0x1249 JUMP JUMPDEST SWAP1 SWAP8 SWAP1 SWAP7 POP PUSH1 0x20 SWAP6 SWAP1 SWAP6 ADD CALLDATALOAD SWAP5 SWAP4 POP POP POP POP JUMP JUMPDEST PUSH1 0x0 DUP1 PUSH1 0x0 DUP1 PUSH1 0x40 DUP6 DUP8 SUB SLT ISZERO PUSH2 0x13ED JUMPI PUSH1 0x0 DUP1 REVERT JUMPDEST DUP5 CALLDATALOAD PUSH8 0xFFFFFFFFFFFFFFFF DUP1 DUP3 GT ISZERO PUSH2 0x1405 JUMPI PUSH1 0x0 DUP1 REVERT JUMPDEST PUSH2 0x1411 DUP9 DUP4 DUP10 ADD PUSH2 0x1249 JUMP JUMPDEST SWAP1 SWAP7 POP SWAP5 POP PUSH1 0x20 DUP8 ADD CALLDATALOAD SWAP2 POP DUP1 DUP3 GT ISZERO PUSH2 0x142A JUMPI PUSH1 0x0 DUP1 REVERT JUMPDEST POP PUSH2 0x1437 DUP8 DUP3 DUP9 ADD PUSH2 0x1249 JUMP JUMPDEST SWAP6 SWAP9 SWAP5 SWAP8 POP SWAP6 POP POP POP POP JUMP JUMPDEST PUSH1 0x0 DUP2 MLOAD DUP1 DUP5 MSTORE PUSH1 0x20 DUP1 DUP6 ADD SWAP5 POP DUP1 DUP5 ADD PUSH1 0x0 JUMPDEST DUP4 DUP2 LT ISZERO PUSH2 0x1473 JUMPI DUP2 MLOAD DUP8 MSTORE SWAP6 DUP3 ADD SWAP6 SWAP1 DUP3 ADD SWAP1 PUSH1 0x1 ADD PUSH2 0x1457 JUMP JUMPDEST POP SWAP5 SWAP6 SWAP5 POP POP POP POP POP JUMP JUMPDEST PUSH1 0x20 DUP2 MSTORE PUSH1 0x0 PUSH2 0x11C6 PUSH1 0x20 DUP4 ADD DUP5 PUSH2 0x1443 JUMP JUMPDEST PUSH1 0x0 DUP1 PUSH1 0x40 DUP4 DUP6 SUB SLT ISZERO PUSH2 0x14A4 JUMPI PUSH1 0x0 DUP1 REVERT JUMPDEST PUSH2 0x14AD DUP4 PUSH2 0x114A JUMP JUMPDEST SWAP2 POP PUSH1 0x20 DUP4 ADD CALLDATALOAD DUP1 ISZERO ISZERO DUP2 EQ PUSH2 0x14C2 JUMPI PUSH1 0x0 DUP1 REVERT JUMPDEST DUP1 SWAP2 POP POP SWAP3 POP SWAP3 SWAP1 POP JUMP JUMPDEST PUSH1 0x0 DUP1 PUSH1 0x40 DUP4 DUP6 SUB SLT ISZERO PUSH2 0x14E0 JUMPI PUSH1 0x0 DUP1 REVERT JUMPDEST POP POP DUP1 CALLDATALOAD SWAP3 PUSH1 0x20 SWAP1 SWAP2 ADD CALLDATALOAD SWAP2 POP JUMP JUMPDEST PUSH1 0x40 DUP2 MSTORE PUSH1 0x0 PUSH2 0x1502 PUSH1 0x40 DUP4 ADD DUP6 PUSH2 0x1443 JUMP JUMPDEST SWAP1 POP DUP3 PUSH1 0x20 DUP4 ADD MSTORE SWAP4 SWAP3 POP POP POP JUMP JUMPDEST PUSH1 0x0 PUSH1 0x20 DUP3 DUP5 SUB SLT ISZERO PUSH2 0x1523 JUMPI PUSH1 0x0 DUP1 REVERT JUMPDEST PUSH2 0x11C6 DUP3 PUSH2 0x114A JUMP JUMPDEST PUSH1 0x0 DUP1 PUSH1 0x40 DUP4 DUP6 SUB SLT ISZERO PUSH2 0x153F JUMPI PUSH1 0x0 DUP1 REVERT JUMPDEST PUSH2 0x1548 DUP4 PUSH2 0x114A JUMP JUMPDEST SWAP2 POP PUSH2 0x1556 PUSH1 0x20 DUP5 ADD PUSH2 0x114A JUMP JUMPDEST SWAP1 POP SWAP3 POP SWAP3 SWAP1 POP JUMP JUMPDEST PUSH1 0x0 DUP1 PUSH1 0x0 DUP1 PUSH1 0x0 DUP1 PUSH1 0xA0 DUP8 DUP10 SUB SLT ISZERO PUSH2 0x1578 JUMPI PUSH1 0x0 DUP1 REVERT JUMPDEST PUSH2 0x1581 DUP8 PUSH2 0x114A JUMP JUMPDEST SWAP6 POP PUSH2 0x158F PUSH1 0x20 DUP9 ADD PUSH2 0x114A JUMP JUMPDEST SWAP5 POP PUSH1 0x40 DUP8 ADD CALLDATALOAD SWAP4 POP PUSH1 0x60 DUP8 ADD CALLDATALOAD SWAP3 POP PUSH1 0x80 DUP8 ADD CALLDATALOAD PUSH8 0xFFFFFFFFFFFFFFFF DUP2 GT ISZERO PUSH2 0x15B9 JUMPI PUSH1 0x0 DUP1 REVERT JUMPDEST PUSH2 0x15C5 DUP10 DUP3 DUP11 ADD PUSH2 0x128E JUMP JUMPDEST SWAP8 SWAP11 SWAP7 SWAP10 POP SWAP5 SWAP8 POP SWAP3 SWAP6 SWAP4 SWAP5 SWAP3 POP POP POP JUMP JUMPDEST PUSH4 0x4E487B71 PUSH1 0xE0 SHL PUSH1 0x0 MSTORE PUSH1 0x41 PUSH1 0x4 MSTORE PUSH1 0x24 PUSH1 0x0 REVERT JUMPDEST PUSH1 0x0 PUSH1 0x20 DUP3 DUP5 SUB SLT ISZERO PUSH2 0x15FF JUMPI PUSH1 0x0 DUP1 REVERT JUMPDEST DUP2 MLOAD PUSH8 0xFFFFFFFFFFFFFFFF DUP1 DUP3 GT ISZERO PUSH2 0x1617 JUMPI PUSH1 0x0 DUP1 REVERT JUMPDEST DUP2 DUP5 ADD SWAP2 POP DUP5 PUSH1 0x1F DUP4 ADD SLT PUSH2 0x162B JUMPI PUSH1 0x0 DUP1 REVERT JUMPDEST DUP2 MLOAD DUP2 DUP2 GT ISZERO PUSH2 0x163D JUMPI PUSH2 0x163D PUSH2 0x15D7 JUMP JUMPDEST PUSH1 0x40 MLOAD PUSH1 0x1F DUP3 ADD PUSH1 0x1F NOT SWAP1 DUP2 AND PUSH1 0x3F ADD AND DUP2 ADD SWAP1 DUP4 DUP3 GT DUP2 DUP4 LT OR ISZERO PUSH2 0x1665 JUMPI PUSH2 0x1665 PUSH2 0x15D7 JUMP JUMPDEST DUP2 PUSH1 0x40 MSTORE DUP3 DUP2 MSTORE DUP8 PUSH1 0x20 DUP5 DUP8 ADD ADD GT ISZERO PUSH2 0x167E JUMPI PUSH1 0x0 DUP1 REVERT JUMPDEST PUSH2 0x168F DUP4 PUSH1 0x20 DUP4 ADD PUSH1 0x20 DUP9 ADD PUSH2 0x11E6 JUMP JUMPDEST SWAP8 SWAP7 POP POP POP POP POP POP POP JUMP JUMPDEST PUSH1 0x0 DUP5 MLOAD PUSH2 0x16AC DUP2 DUP5 PUSH1 0x20 DUP10 ADD PUSH2 0x11E6 JUMP JUMPDEST DUP5 MLOAD SWAP1 DUP4 ADD SWAP1 PUSH2 0x16C0 DUP2 DUP4 PUSH1 0x20 DUP10 ADD PUSH2 0x11E6 JUMP JUMPDEST DUP5 MLOAD SWAP2 ADD SWAP1 PUSH2 0x16D3 DUP2 DUP4 PUSH1 0x20 DUP9 ADD PUSH2 0x11E6 JUMP JUMPDEST ADD SWAP6 SWAP5 POP POP POP POP POP JUMP JUMPDEST PUSH4 0x4E487B71 PUSH1 0xE0 SHL PUSH1 0x0 MSTORE PUSH1 0x32 PUSH1 0x4 MSTORE PUSH1 0x24 PUSH1 0x0 REVERT JUMPDEST PUSH4 0x4E487B71 PUSH1 0xE0 SHL PUSH1 0x0 MSTORE PUSH1 0x11 PUSH1 0x4 MSTORE PUSH1 0x24 PUSH1 0x0 REVERT JUMPDEST DUP2 DUP2 SUB DUP2 DUP2 GT ISZERO PUSH2 0x35A JUMPI PUSH2 0x35A PUSH2 0x16F3 JUMP JUMPDEST DUP1 DUP3 ADD DUP1 DUP3 GT ISZERO PUSH2 0x35A JUMPI PUSH2 0x35A PUSH2 0x16F3 JUMP JUMPDEST DUP2 DUP4 MSTORE PUSH1 0x0 PUSH1 0x1 PUSH1 0x1 PUSH1 0xFB SHL SUB DUP4 GT ISZERO PUSH2 0x1748 JUMPI PUSH1 0x0 DUP1 REVERT JUMPDEST DUP3 PUSH1 0x5 SHL DUP1 DUP4 PUSH1 0x20 DUP8 ADD CALLDATACOPY SWAP4 SWAP1 SWAP4 ADD PUSH1 0x20 ADD SWAP4 SWAP3 POP POP POP JUMP JUMPDEST PUSH1 0x40 DUP2 MSTORE PUSH1 0x0 PUSH2 0x1775 PUSH1 0x40 DUP4 ADD DUP7 DUP9 PUSH2 0x172F JUMP JUMPDEST DUP3 DUP2 SUB PUSH1 0x20 DUP5 ADD MSTORE PUSH2 0x168F DUP2 DUP6 DUP8 PUSH2 0x172F JUMP JUMPDEST DUP2 DUP4 MSTORE DUP2 DUP2 PUSH1 0x20 DUP6 ADD CALLDATACOPY POP PUSH1 0x0 DUP3 DUP3 ADD PUSH1 0x20 SWAP1 DUP2 ADD SWAP2 SWAP1 SWAP2 MSTORE PUSH1 0x1F SWAP1 SWAP2 ADD PUSH1 0x1F NOT AND SWAP1 SWAP2 ADD ADD SWAP1 JUMP JUMPDEST PUSH1 0x1 PUSH1 0x1 PUSH1 0xA0 SHL SUB DUP10 DUP2 AND DUP3 MSTORE DUP9 AND PUSH1 0x20 DUP3 ADD MSTORE PUSH1 0xA0 PUSH1 0x40 DUP3 ADD DUP2 SWAP1 MSTORE PUSH1 0x0 SWAP1 PUSH2 0x17DE SWAP1 DUP4 ADD DUP9 DUP11 PUSH2 0x172F JUMP JUMPDEST DUP3 DUP2 SUB PUSH1 0x60 DUP5 ADD MSTORE PUSH2 0x17F1 DUP2 DUP8 DUP10 PUSH2 0x172F JUMP JUMPDEST SWAP1 POP DUP3 DUP2 SUB PUSH1 0x80 DUP5 ADD MSTORE PUSH2 0x1806 DUP2 DUP6 DUP8 PUSH2 0x1788 JUMP JUMPDEST SWAP12 SWAP11 POP POP POP POP POP POP POP POP POP POP POP JUMP JUMPDEST PUSH1 0x0 PUSH1 0x20 DUP3 DUP5 SUB SLT ISZERO PUSH2 0x1827 JUMPI PUSH1 0x0 DUP1 REVERT JUMPDEST DUP2 MLOAD PUSH2 0x11C6 DUP2 PUSH2 0x1190 JUMP JUMPDEST PUSH1 0x20 DUP1 DUP3 MSTORE PUSH1 0x10 SWAP1 DUP3 ADD MSTORE PUSH16 0x155394D0519157D49150D25412515395 PUSH1 0x82 SHL PUSH1 0x40 DUP3 ADD MSTORE PUSH1 0x60 ADD SWAP1 JUMP JUMPDEST PUSH1 0x20 DUP1 DUP3 MSTORE PUSH1 0xC SWAP1 DUP3 ADD MSTORE PUSH12 0x15539055551213D492569151 PUSH1 0xA2 SHL PUSH1 0x40 DUP3 ADD MSTORE PUSH1 0x60 ADD SWAP1 JUMP JUMPDEST PUSH1 0x1 PUSH1 0x1 PUSH1 0xA0 SHL SUB DUP8 DUP2 AND DUP3 MSTORE DUP7 AND PUSH1 0x20 DUP3 ADD MSTORE PUSH1 0x40 DUP2 ADD DUP6 SWAP1 MSTORE PUSH1 0x60 DUP2 ADD DUP5 SWAP1 MSTORE PUSH1 0xA0 PUSH1 0x80 DUP3 ADD DUP2 SWAP1 MSTORE PUSH1 0x0 SWAP1 PUSH2 0x18BD SWAP1 DUP4 ADD DUP5 DUP7 PUSH2 0x1788 JUMP JUMPDEST SWAP9 SWAP8 POP POP POP POP POP POP POP POP JUMP JUMPDEST PUSH1 0x1 PUSH1 0x1 PUSH1 0xA0 SHL SUB DUP7 DUP2 AND DUP3 MSTORE DUP6 AND PUSH1 0x20 DUP3 ADD MSTORE PUSH1 0x40 DUP2 ADD DUP5 SWAP1 MSTORE PUSH1 0x60 DUP2 ADD DUP4 SWAP1 MSTORE PUSH1 0xA0 PUSH1 0x80 DUP3 ADD DUP2 SWAP1 MSTORE PUSH1 0x0 SWAP1 PUSH2 0x168F SWAP1 DUP4 ADD DUP5 PUSH2 0x120A JUMP INVALID LOG2 PUSH5 0x6970667358 0x22 SLT KECCAK256 0xD SWAP15 SUB ORIGIN EQ CHAINID STOP 0x25 RETURNDATASIZE 0xB0 DUP10 MLOAD SSTORE AND PUSH18 0xCF68F97126D560BEAD5CFD6540711A04064 PUSH20 0x6F6C634300081100330000000000000000000000 "
				},
				"gasEstimates": {
					"creation": {
						"codeDepositCost": "1291400",
						"executionCost": "25560",
						"totalCost": "1316960"
					},
					"external": {
						"balanceOf(address,uint256)": "2625",
						"balanceOfBatch(address[],uint256[])": "infinite",
						"claim(bytes32[],uint256)": "infinite",
						"factory()": "2359",
						"getMintedTokenIds(uint256,uint256)": "infinite",
						"initialize(address)": "133178",
						"isApprovedForAll(address,address)": "infinite",
						"merkleRoot()": "2307",
						"owner()": "2404",
						"pause()": "infinite",
						"paused()": "2415",
						"safeBatchTransferFrom(address,address,uint256[],uint256[],bytes)": "infinite",
						"safeTransferFrom(address,address,uint256,uint256,bytes)": "infinite",
						"setApprovalForAll(address,bool)": "26674",
						"setMerkleRoot(bytes32)": "24487",
						"supportsInterface(bytes4)": "567",
						"ticketClaimed(address)": "2641",
						"unpause()": "infinite",
						"uri(uint256)": "infinite"
					}
				},
				"methodIdentifiers": {
					"balanceOf(address,uint256)": "00fdd58e",
					"balanceOfBatch(address[],uint256[])": "4e1273f4",
					"claim(bytes32[],uint256)": "3b439351",
					"factory()": "c45a0155",
					"getMintedTokenIds(uint256,uint256)": "b5175616",
					"initialize(address)": "c4d66de8",
					"isApprovedForAll(address,address)": "e985e9c5",
					"merkleRoot()": "2eb4a7ab",
					"owner()": "8da5cb5b",
					"pause()": "8456cb59",
					"paused()": "5c975abb",
					"safeBatchTransferFrom(address,address,uint256[],uint256[],bytes)": "2eb2c2d6",
					"safeTransferFrom(address,address,uint256,uint256,bytes)": "f242432a",
					"setApprovalForAll(address,bool)": "a22cb465",
					"setMerkleRoot(bytes32)": "7cb64759",
					"supportsInterface(bytes4)": "01ffc9a7",
					"ticketClaimed(address)": "fb2852dd",
					"unpause()": "3f4ba83a",
					"uri(uint256)": "0e89341c"
				}
			},
			"storageLayout": {
				"storage": [
					{
						"astId": 86,
						"contract": "src/NFTickets.sol:NFTickets",
						"label": "_initialized",
						"offset": 0,
						"slot": "0",
						"type": "t_uint8"
					},
					{
						"astId": 89,
						"contract": "src/NFTickets.sol:NFTickets",
						"label": "_initializing",
						"offset": 1,
						"slot": "0",
						"type": "t_bool"
					},
					{
						"astId": 817,
						"contract": "src/NFTickets.sol:NFTickets",
						"label": "balanceOf",
						"offset": 0,
						"slot": "1",
						"type": "t_mapping(t_address,t_mapping(t_uint256,t_uint256))"
					},
					{
						"astId": 823,
						"contract": "src/NFTickets.sol:NFTickets",
						"label": "isApprovedForAll",
						"offset": 0,
						"slot": "2",
						"type": "t_mapping(t_address,t_mapping(t_address,t_bool))"
					},
					{
						"astId": 266,
						"contract": "src/NFTickets.sol:NFTickets",
						"label": "_paused",
						"offset": 0,
						"slot": "3",
						"type": "t_bool"
					},
					{
						"astId": 1499,
						"contract": "src/NFTickets.sol:NFTickets",
						"label": "_tokenURIs",
						"offset": 0,
						"slot": "4",
						"type": "t_mapping(t_uint256,t_string_storage)"
					},
					{
						"astId": 1503,
						"contract": "src/NFTickets.sol:NFTickets",
						"label": "ticketClaimed",
						"offset": 0,
						"slot": "5",
						"type": "t_mapping(t_address,t_bool)"
					},
					{
						"astId": 1506,
						"contract": "src/NFTickets.sol:NFTickets",
						"label": "_tokenIds",
						"offset": 0,
						"slot": "6",
						"type": "t_array(t_uint256)dyn_storage"
					},
					{
						"astId": 1510,
						"contract": "src/NFTickets.sol:NFTickets",
						"label": "_tokenIdIndexes",
						"offset": 0,
						"slot": "7",
						"type": "t_mapping(t_uint256,t_uint256)"
					},
					{
						"astId": 1512,
						"contract": "src/NFTickets.sol:NFTickets",
						"label": "owner",
						"offset": 0,
						"slot": "8",
						"type": "t_address"
					},
					{
						"astId": 1514,
						"contract": "src/NFTickets.sol:NFTickets",
						"label": "factory",
						"offset": 0,
						"slot": "9",
						"type": "t_address"
					},
					{
						"astId": 1516,
						"contract": "src/NFTickets.sol:NFTickets",
						"label": "merkleRoot",
						"offset": 0,
						"slot": "10",
						"type": "t_bytes32"
					}
				],
				"types": {
					"t_address": {
						"encoding": "inplace",
						"label": "address",
						"numberOfBytes": "20"
					},
					"t_array(t_uint256)dyn_storage": {
						"base": "t_uint256",
						"encoding": "dynamic_array",
						"label": "uint256[]",
						"numberOfBytes": "32"
					},
					"t_bool": {
						"encoding": "inplace",
						"label": "bool",
						"numberOfBytes": "1"
					},
					"t_bytes32": {
						"encoding": "inplace",
						"label": "bytes32",
						"numberOfBytes": "32"
					},
					"t_mapping(t_address,t_bool)": {
						"encoding": "mapping",
						"key": "t_address",
						"label": "mapping(address => bool)",
						"numberOfBytes": "32",
						"value": "t_bool"
					},
					"t_mapping(t_address,t_mapping(t_address,t_bool))": {
						"encoding": "mapping",
						"key": "t_address",
						"label": "mapping(address => mapping(address => bool))",
						"numberOfBytes": "32",
						"value": "t_mapping(t_address,t_bool)"
					},
					"t_mapping(t_address,t_mapping(t_uint256,t_uint256))": {
						"encoding": "mapping",
						"key": "t_address",
						"label": "mapping(address => mapping(uint256 => uint256))",
						"numberOfBytes": "32",
						"value": "t_mapping(t_uint256,t_uint256)"
					},
					"t_mapping(t_uint256,t_string_storage)": {
						"encoding": "mapping",
						"key": "t_uint256",
						"label": "mapping(uint256 => string)",
						"numberOfBytes": "32",
						"value": "t_string_storage"
					},
					"t_mapping(t_uint256,t_uint256)": {
						"encoding": "mapping",
						"key": "t_uint256",
						"label": "mapping(uint256 => uint256)",
						"numberOfBytes": "32",
						"value": "t_uint256"
					},
					"t_string_storage": {
						"encoding": "bytes",
						"label": "string",
						"numberOfBytes": "32"
					},
					"t_uint256": {
						"encoding": "inplace",
						"label": "uint256",
						"numberOfBytes": "32"
					},
					"t_uint8": {
						"encoding": "inplace",
						"label": "uint8",
						"numberOfBytes": "1"
					}
				}
			},
			"userdoc": {
				"kind": "user",
				"methods": {},
				"version": 1
			}
		}
	}
}